{
  "_format": "hh-sol-artifact-1",
  "contractName": "SBirdBetting",
  "sourceName": "contracts/SBirdBetting.sol",
  "abi": [
    {
      "anonymous": false,
      "inputs": [
        {
          "indexed": false,
          "internalType": "uint16",
          "name": "matchID",
          "type": "uint16"
        },
        {
          "components": [
            {
              "internalType": "uint16",
              "name": "ouHtOver",
              "type": "uint16"
            },
            {
              "internalType": "uint16",
              "name": "ouHtRatio",
              "type": "uint16"
            },
            {
              "internalType": "uint16",
              "name": "ouHtUnder",
              "type": "uint16"
            },
            {
              "internalType": "uint16",
              "name": "ouFtOver",
              "type": "uint16"
            },
            {
              "internalType": "uint16",
              "name": "ouFtRatio",
              "type": "uint16"
            },
            {
              "internalType": "uint16",
              "name": "ouFtUnder",
              "type": "uint16"
            },
            {
              "internalType": "uint16",
              "name": "oddsHtHome",
              "type": "uint16"
            },
            {
              "internalType": "uint16",
              "name": "oddsHtDraw",
              "type": "uint16"
            },
            {
              "internalType": "uint16",
              "name": "oddsHtAway",
              "type": "uint16"
            },
            {
              "internalType": "uint16",
              "name": "oddsFtHome",
              "type": "uint16"
            },
            {
              "internalType": "uint16",
              "name": "oddsFtDraw",
              "type": "uint16"
            },
            {
              "internalType": "uint16",
              "name": "oddsFtAway",
              "type": "uint16"
            }
          ],
          "indexed": false,
          "internalType": "struct IBirdBetting.MatchStatistics",
          "name": "mSta",
          "type": "tuple"
        },
        {
          "components": [
            {
              "internalType": "uint8",
              "name": "ht_homeScore",
              "type": "uint8"
            },
            {
              "internalType": "uint8",
              "name": "ht_awayScore",
              "type": "uint8"
            },
            {
              "internalType": "uint8",
              "name": "ft_homeScore",
              "type": "uint8"
            },
            {
              "internalType": "uint8",
              "name": "ft_awayScore",
              "type": "uint8"
            },
            {
              "internalType": "uint256",
              "name": "startTime",
              "type": "uint256"
            },
            {
              "internalType": "string",
              "name": "homeName",
              "type": "string"
            },
            {
              "internalType": "string",
              "name": "homeIcon",
              "type": "string"
            },
            {
              "internalType": "string",
              "name": "awayName",
              "type": "string"
            },
            {
              "internalType": "string",
              "name": "awayIcon",
              "type": "string"
            },
            {
              "internalType": "string",
              "name": "location",
              "type": "string"
            },
            {
              "internalType": "string",
              "name": "round",
              "type": "string"
            },
            {
              "internalType": "bool",
              "name": "isHalfTime",
              "type": "bool"
            },
            {
              "internalType": "bool",
              "name": "isFinished",
              "type": "bool"
            }
          ],
          "indexed": false,
          "internalType": "struct IBirdBetting.MatchInfo",
          "name": "mInf",
          "type": "tuple"
        },
        {
          "indexed": false,
          "internalType": "uint256",
          "name": "sofaMatchID",
          "type": "uint256"
        }
      ],
      "name": "CreateMatch",
      "type": "event"
    },
    {
      "anonymous": false,
      "inputs": [
        {
          "indexed": false,
          "internalType": "uint8",
          "name": "version",
          "type": "uint8"
        }
      ],
      "name": "Initialized",
      "type": "event"
    },
    {
      "anonymous": false,
      "inputs": [
        {
          "indexed": true,
          "internalType": "address",
          "name": "previousOwner",
          "type": "address"
        },
        {
          "indexed": true,
          "internalType": "address",
          "name": "newOwner",
          "type": "address"
        }
      ],
      "name": "OwnershipTransferred",
      "type": "event"
    },
    {
      "anonymous": false,
      "inputs": [
        {
          "indexed": true,
          "internalType": "bytes32",
          "name": "role",
          "type": "bytes32"
        },
        {
          "indexed": true,
          "internalType": "bytes32",
          "name": "previousAdminRole",
          "type": "bytes32"
        },
        {
          "indexed": true,
          "internalType": "bytes32",
          "name": "newAdminRole",
          "type": "bytes32"
        }
      ],
      "name": "RoleAdminChanged",
      "type": "event"
    },
    {
      "anonymous": false,
      "inputs": [
        {
          "indexed": true,
          "internalType": "bytes32",
          "name": "role",
          "type": "bytes32"
        },
        {
          "indexed": true,
          "internalType": "address",
          "name": "account",
          "type": "address"
        },
        {
          "indexed": true,
          "internalType": "address",
          "name": "sender",
          "type": "address"
        }
      ],
      "name": "RoleGranted",
      "type": "event"
    },
    {
      "anonymous": false,
      "inputs": [
        {
          "indexed": true,
          "internalType": "bytes32",
          "name": "role",
          "type": "bytes32"
        },
        {
          "indexed": true,
          "internalType": "address",
          "name": "account",
          "type": "address"
        },
        {
          "indexed": true,
          "internalType": "address",
          "name": "sender",
          "type": "address"
        }
      ],
      "name": "RoleRevoked",
      "type": "event"
    },
    {
      "anonymous": false,
      "inputs": [
        {
          "indexed": false,
          "internalType": "uint16",
          "name": "matchID",
          "type": "uint16"
        },
        {
          "components": [
            {
              "internalType": "uint8",
              "name": "ht_homeScore",
              "type": "uint8"
            },
            {
              "internalType": "uint8",
              "name": "ht_awayScore",
              "type": "uint8"
            },
            {
              "internalType": "uint8",
              "name": "ft_homeScore",
              "type": "uint8"
            },
            {
              "internalType": "uint8",
              "name": "ft_awayScore",
              "type": "uint8"
            },
            {
              "internalType": "uint256",
              "name": "startTime",
              "type": "uint256"
            },
            {
              "internalType": "string",
              "name": "homeName",
              "type": "string"
            },
            {
              "internalType": "string",
              "name": "homeIcon",
              "type": "string"
            },
            {
              "internalType": "string",
              "name": "awayName",
              "type": "string"
            },
            {
              "internalType": "string",
              "name": "awayIcon",
              "type": "string"
            },
            {
              "internalType": "string",
              "name": "location",
              "type": "string"
            },
            {
              "internalType": "string",
              "name": "round",
              "type": "string"
            },
            {
              "internalType": "bool",
              "name": "isHalfTime",
              "type": "bool"
            },
            {
              "internalType": "bool",
              "name": "isFinished",
              "type": "bool"
            }
          ],
          "indexed": false,
          "internalType": "struct IBirdBetting.MatchInfo",
          "name": "mInf",
          "type": "tuple"
        }
      ],
      "name": "UpdateMatchInfo",
      "type": "event"
    },
    {
      "anonymous": false,
      "inputs": [
        {
          "indexed": false,
          "internalType": "uint16",
          "name": "matchID",
          "type": "uint16"
        },
        {
          "components": [
            {
              "internalType": "uint16",
              "name": "ouHtOver",
              "type": "uint16"
            },
            {
              "internalType": "uint16",
              "name": "ouHtRatio",
              "type": "uint16"
            },
            {
              "internalType": "uint16",
              "name": "ouHtUnder",
              "type": "uint16"
            },
            {
              "internalType": "uint16",
              "name": "ouFtOver",
              "type": "uint16"
            },
            {
              "internalType": "uint16",
              "name": "ouFtRatio",
              "type": "uint16"
            },
            {
              "internalType": "uint16",
              "name": "ouFtUnder",
              "type": "uint16"
            },
            {
              "internalType": "uint16",
              "name": "oddsHtHome",
              "type": "uint16"
            },
            {
              "internalType": "uint16",
              "name": "oddsHtDraw",
              "type": "uint16"
            },
            {
              "internalType": "uint16",
              "name": "oddsHtAway",
              "type": "uint16"
            },
            {
              "internalType": "uint16",
              "name": "oddsFtHome",
              "type": "uint16"
            },
            {
              "internalType": "uint16",
              "name": "oddsFtDraw",
              "type": "uint16"
            },
            {
              "internalType": "uint16",
              "name": "oddsFtAway",
              "type": "uint16"
            }
          ],
          "indexed": false,
          "internalType": "struct IBirdBetting.MatchStatistics",
          "name": "mSta",
          "type": "tuple"
        }
      ],
      "name": "UpdateMatchStatistics",
      "type": "event"
    },
    {
      "anonymous": false,
      "inputs": [
        {
          "indexed": true,
          "internalType": "address",
          "name": "user",
          "type": "address"
        },
        {
          "indexed": false,
          "internalType": "uint16",
          "name": "matchID",
          "type": "uint16"
        },
        {
          "indexed": false,
          "internalType": "uint256",
          "name": "amount",
          "type": "uint256"
        },
        {
          "indexed": false,
          "internalType": "string",
          "name": "betType",
          "type": "string"
        },
        {
          "indexed": false,
          "internalType": "string",
          "name": "betPlace",
          "type": "string"
        },
        {
          "indexed": false,
          "internalType": "bool",
          "name": "claimed",
          "type": "bool"
        }
      ],
      "name": "UserBetting",
      "type": "event"
    },
    {
      "anonymous": false,
      "inputs": [
        {
          "indexed": false,
          "internalType": "uint16",
          "name": "matchID",
          "type": "uint16"
        },
        {
          "indexed": false,
          "internalType": "string",
          "name": "betType",
          "type": "string"
        },
        {
          "indexed": false,
          "internalType": "uint256",
          "name": "amount",
          "type": "uint256"
        },
        {
          "indexed": true,
          "internalType": "address",
          "name": "user",
          "type": "address"
        },
        {
          "indexed": false,
          "internalType": "uint256",
          "name": "deadline",
          "type": "uint256"
        }
      ],
      "name": "UserClaim",
      "type": "event"
    },
    {
      "anonymous": false,
      "inputs": [
        {
          "indexed": true,
          "internalType": "address",
          "name": "user",
          "type": "address"
        },
        {
          "indexed": false,
          "internalType": "uint16",
          "name": "matchID",
          "type": "uint16"
        },
        {
          "indexed": false,
          "internalType": "uint8",
          "name": "homeScore",
          "type": "uint8"
        },
        {
          "indexed": false,
          "internalType": "uint8",
          "name": "awayScore",
          "type": "uint8"
        },
        {
          "indexed": false,
          "internalType": "uint256",
          "name": "time",
          "type": "uint256"
        }
      ],
      "name": "UserPredicting",
      "type": "event"
    },
    {
      "inputs": [],
      "name": "BETTING_WITH_SIG_TYPEHASH",
      "outputs": [
        {
          "internalType": "bytes32",
          "name": "",
          "type": "bytes32"
        }
      ],
      "stateMutability": "view",
      "type": "function"
    },
    {
      "inputs": [],
      "name": "CLAIM_TOKEN_WITH_SIG_TYPEHASH",
      "outputs": [
        {
          "internalType": "bytes32",
          "name": "",
          "type": "bytes32"
        }
      ],
      "stateMutability": "view",
      "type": "function"
    },
    {
      "inputs": [],
      "name": "DEFAULT_ADMIN_ROLE",
      "outputs": [
        {
          "internalType": "bytes32",
          "name": "",
          "type": "bytes32"
        }
      ],
      "stateMutability": "view",
      "type": "function"
    },
    {
      "inputs": [
        {
          "internalType": "address",
          "name": "",
          "type": "address"
        }
      ],
      "name": "TokenClaimNonces",
      "outputs": [
        {
          "internalType": "uint256",
          "name": "",
          "type": "uint256"
        }
      ],
      "stateMutability": "view",
      "type": "function"
    },
    {
      "inputs": [
        {
          "internalType": "address",
          "name": "",
          "type": "address"
        }
      ],
      "name": "TokenClaimTimeStamp",
      "outputs": [
        {
          "internalType": "uint256",
          "name": "",
          "type": "uint256"
        }
      ],
      "stateMutability": "view",
      "type": "function"
    },
    {
      "inputs": [
        {
          "internalType": "address",
          "name": "",
          "type": "address"
        }
      ],
      "name": "UserBettingNonces",
      "outputs": [
        {
          "internalType": "uint256",
          "name": "",
          "type": "uint256"
        }
      ],
      "stateMutability": "view",
      "type": "function"
    },
    {
      "inputs": [
        {
          "internalType": "address",
          "name": "",
          "type": "address"
        }
      ],
      "name": "UserBettingTimeStamp",
      "outputs": [
        {
          "internalType": "uint256",
          "name": "",
          "type": "uint256"
        }
      ],
      "stateMutability": "view",
      "type": "function"
    },
    {
      "inputs": [
        {
          "internalType": "address",
          "name": "_token",
          "type": "address"
        },
        {
          "internalType": "address",
          "name": "_fundWallet",
          "type": "address"
        }
      ],
      "name": "__SBirdBetting_init",
      "outputs": [],
      "stateMutability": "nonpayable",
      "type": "function"
    },
    {
      "inputs": [
        {
          "internalType": "uint16",
          "name": "_matchID",
          "type": "uint16"
        },
        {
          "internalType": "uint256",
          "name": "_amount",
          "type": "uint256"
        },
        {
          "internalType": "string",
          "name": "_betType",
          "type": "string"
        },
        {
          "internalType": "string",
          "name": "_betPlace",
          "type": "string"
        },
        {
          "components": [
            {
              "internalType": "uint256",
              "name": "deadline",
              "type": "uint256"
            },
            {
              "internalType": "uint8",
              "name": "v",
              "type": "uint8"
            },
            {
              "internalType": "bytes32",
              "name": "r",
              "type": "bytes32"
            },
            {
              "internalType": "bytes32",
              "name": "s",
              "type": "bytes32"
            }
          ],
          "internalType": "struct IBirdBetting.EIP712Signature",
          "name": "_signature",
          "type": "tuple"
        }
      ],
      "name": "betting",
      "outputs": [],
      "stateMutability": "nonpayable",
      "type": "function"
    },
    {
      "inputs": [
        {
          "internalType": "address",
          "name": "",
          "type": "address"
        },
        {
          "internalType": "uint16",
          "name": "",
          "type": "uint16"
        }
      ],
      "name": "claimInMatch",
      "outputs": [
        {
          "internalType": "bool",
          "name": "",
          "type": "bool"
        }
      ],
      "stateMutability": "view",
      "type": "function"
    },
    {
      "inputs": [],
      "name": "fundWallet",
      "outputs": [
        {
          "internalType": "address",
          "name": "",
          "type": "address"
        }
      ],
      "stateMutability": "view",
      "type": "function"
    },
    {
      "inputs": [
        {
          "internalType": "bytes32",
          "name": "role",
          "type": "bytes32"
        }
      ],
      "name": "getRoleAdmin",
      "outputs": [
        {
          "internalType": "bytes32",
          "name": "",
          "type": "bytes32"
        }
      ],
      "stateMutability": "view",
      "type": "function"
    },
    {
      "inputs": [],
      "name": "getSigner",
      "outputs": [
        {
          "internalType": "address",
          "name": "",
          "type": "address"
        }
      ],
      "stateMutability": "view",
      "type": "function"
    },
    {
      "inputs": [
        {
          "internalType": "address",
          "name": "account",
          "type": "address"
        }
      ],
      "name": "grantAdminRole",
      "outputs": [],
      "stateMutability": "nonpayable",
      "type": "function"
    },
    {
      "inputs": [
        {
          "internalType": "bytes32",
          "name": "role",
          "type": "bytes32"
        },
        {
          "internalType": "address",
          "name": "account",
          "type": "address"
        }
      ],
      "name": "grantRole",
      "outputs": [],
      "stateMutability": "nonpayable",
      "type": "function"
    },
    {
      "inputs": [
        {
          "internalType": "bytes32",
          "name": "role",
          "type": "bytes32"
        },
        {
          "internalType": "address",
          "name": "account",
          "type": "address"
        }
      ],
      "name": "hasRole",
      "outputs": [
        {
          "internalType": "bool",
          "name": "",
          "type": "bool"
        }
      ],
      "stateMutability": "view",
      "type": "function"
    },
    {
      "inputs": [
        {
          "internalType": "uint16",
          "name": "",
          "type": "uint16"
        }
      ],
      "name": "matchByID",
      "outputs": [
        {
          "components": [
            {
              "internalType": "uint16",
              "name": "ouHtOver",
              "type": "uint16"
            },
            {
              "internalType": "uint16",
              "name": "ouHtRatio",
              "type": "uint16"
            },
            {
              "internalType": "uint16",
              "name": "ouHtUnder",
              "type": "uint16"
            },
            {
              "internalType": "uint16",
              "name": "ouFtOver",
              "type": "uint16"
            },
            {
              "internalType": "uint16",
              "name": "ouFtRatio",
              "type": "uint16"
            },
            {
              "internalType": "uint16",
              "name": "ouFtUnder",
              "type": "uint16"
            },
            {
              "internalType": "uint16",
              "name": "oddsHtHome",
              "type": "uint16"
            },
            {
              "internalType": "uint16",
              "name": "oddsHtDraw",
              "type": "uint16"
            },
            {
              "internalType": "uint16",
              "name": "oddsHtAway",
              "type": "uint16"
            },
            {
              "internalType": "uint16",
              "name": "oddsFtHome",
              "type": "uint16"
            },
            {
              "internalType": "uint16",
              "name": "oddsFtDraw",
              "type": "uint16"
            },
            {
              "internalType": "uint16",
              "name": "oddsFtAway",
              "type": "uint16"
            }
          ],
          "internalType": "struct IBirdBetting.MatchStatistics",
          "name": "mSta",
          "type": "tuple"
        },
        {
          "components": [
            {
              "internalType": "uint8",
              "name": "ht_homeScore",
              "type": "uint8"
            },
            {
              "internalType": "uint8",
              "name": "ht_awayScore",
              "type": "uint8"
            },
            {
              "internalType": "uint8",
              "name": "ft_homeScore",
              "type": "uint8"
            },
            {
              "internalType": "uint8",
              "name": "ft_awayScore",
              "type": "uint8"
            },
            {
              "internalType": "uint256",
              "name": "startTime",
              "type": "uint256"
            },
            {
              "internalType": "string",
              "name": "homeName",
              "type": "string"
            },
            {
              "internalType": "string",
              "name": "homeIcon",
              "type": "string"
            },
            {
              "internalType": "string",
              "name": "awayName",
              "type": "string"
            },
            {
              "internalType": "string",
              "name": "awayIcon",
              "type": "string"
            },
            {
              "internalType": "string",
              "name": "location",
              "type": "string"
            },
            {
              "internalType": "string",
              "name": "round",
              "type": "string"
            },
            {
              "internalType": "bool",
              "name": "isHalfTime",
              "type": "bool"
            },
            {
              "internalType": "bool",
              "name": "isFinished",
              "type": "bool"
            }
          ],
          "internalType": "struct IBirdBetting.MatchInfo",
          "name": "mInf",
          "type": "tuple"
        }
      ],
      "stateMutability": "view",
      "type": "function"
    },
    {
      "inputs": [],
      "name": "maxBetAmount",
      "outputs": [
        {
          "internalType": "uint256",
          "name": "",
          "type": "uint256"
        }
      ],
      "stateMutability": "view",
      "type": "function"
    },
    {
      "inputs": [
        {
          "internalType": "address",
          "name": "",
          "type": "address"
        },
        {
          "internalType": "address",
          "name": "",
          "type": "address"
        },
        {
          "internalType": "uint256",
          "name": "",
          "type": "uint256"
        },
        {
          "internalType": "bytes",
          "name": "",
          "type": "bytes"
        }
      ],
      "name": "onERC721Received",
      "outputs": [
        {
          "internalType": "bytes4",
          "name": "",
          "type": "bytes4"
        }
      ],
      "stateMutability": "nonpayable",
      "type": "function"
    },
    {
      "inputs": [],
      "name": "owner",
      "outputs": [
        {
          "internalType": "address",
          "name": "",
          "type": "address"
        }
      ],
      "stateMutability": "view",
      "type": "function"
    },
    {
      "inputs": [
        {
          "internalType": "uint16",
          "name": "_matchID",
          "type": "uint16"
        },
        {
          "internalType": "uint8",
          "name": "_homeScore",
          "type": "uint8"
        },
        {
          "internalType": "uint8",
          "name": "_awayScore",
          "type": "uint8"
        }
      ],
      "name": "predict",
      "outputs": [],
      "stateMutability": "nonpayable",
      "type": "function"
    },
    {
      "inputs": [],
      "name": "renounceOwnership",
      "outputs": [],
      "stateMutability": "nonpayable",
      "type": "function"
    },
    {
      "inputs": [
        {
          "internalType": "bytes32",
          "name": "role",
          "type": "bytes32"
        },
        {
          "internalType": "address",
          "name": "account",
          "type": "address"
        }
      ],
      "name": "renounceRole",
      "outputs": [],
      "stateMutability": "nonpayable",
      "type": "function"
    },
    {
      "inputs": [
        {
          "internalType": "address",
          "name": "account",
          "type": "address"
        }
      ],
      "name": "revokeAdminRole",
      "outputs": [],
      "stateMutability": "nonpayable",
      "type": "function"
    },
    {
      "inputs": [
        {
          "internalType": "bytes32",
          "name": "role",
          "type": "bytes32"
        },
        {
          "internalType": "address",
          "name": "account",
          "type": "address"
        }
      ],
      "name": "revokeRole",
      "outputs": [],
      "stateMutability": "nonpayable",
      "type": "function"
    },
    {
      "inputs": [
        {
          "internalType": "address",
          "name": "_fund",
          "type": "address"
        }
      ],
      "name": "setFundAddress",
      "outputs": [],
      "stateMutability": "nonpayable",
      "type": "function"
    },
    {
      "inputs": [
        {
          "internalType": "uint16",
          "name": "_matchID",
          "type": "uint16"
        },
        {
          "components": [
            {
              "internalType": "uint16",
              "name": "ouHtOver",
              "type": "uint16"
            },
            {
              "internalType": "uint16",
              "name": "ouHtRatio",
              "type": "uint16"
            },
            {
              "internalType": "uint16",
              "name": "ouHtUnder",
              "type": "uint16"
            },
            {
              "internalType": "uint16",
              "name": "ouFtOver",
              "type": "uint16"
            },
            {
              "internalType": "uint16",
              "name": "ouFtRatio",
              "type": "uint16"
            },
            {
              "internalType": "uint16",
              "name": "ouFtUnder",
              "type": "uint16"
            },
            {
              "internalType": "uint16",
              "name": "oddsHtHome",
              "type": "uint16"
            },
            {
              "internalType": "uint16",
              "name": "oddsHtDraw",
              "type": "uint16"
            },
            {
              "internalType": "uint16",
              "name": "oddsHtAway",
              "type": "uint16"
            },
            {
              "internalType": "uint16",
              "name": "oddsFtHome",
              "type": "uint16"
            },
            {
              "internalType": "uint16",
              "name": "oddsFtDraw",
              "type": "uint16"
            },
            {
              "internalType": "uint16",
              "name": "oddsFtAway",
              "type": "uint16"
            }
          ],
          "internalType": "struct IBirdBetting.MatchStatistics",
          "name": "_mSta",
          "type": "tuple"
        },
        {
          "components": [
            {
              "internalType": "uint8",
              "name": "ht_homeScore",
              "type": "uint8"
            },
            {
              "internalType": "uint8",
              "name": "ht_awayScore",
              "type": "uint8"
            },
            {
              "internalType": "uint8",
              "name": "ft_homeScore",
              "type": "uint8"
            },
            {
              "internalType": "uint8",
              "name": "ft_awayScore",
              "type": "uint8"
            },
            {
              "internalType": "uint256",
              "name": "startTime",
              "type": "uint256"
            },
            {
              "internalType": "string",
              "name": "homeName",
              "type": "string"
            },
            {
              "internalType": "string",
              "name": "homeIcon",
              "type": "string"
            },
            {
              "internalType": "string",
              "name": "awayName",
              "type": "string"
            },
            {
              "internalType": "string",
              "name": "awayIcon",
              "type": "string"
            },
            {
              "internalType": "string",
              "name": "location",
              "type": "string"
            },
            {
              "internalType": "string",
              "name": "round",
              "type": "string"
            },
            {
              "internalType": "bool",
              "name": "isHalfTime",
              "type": "bool"
            },
            {
              "internalType": "bool",
              "name": "isFinished",
              "type": "bool"
            }
          ],
          "internalType": "struct IBirdBetting.MatchInfo",
          "name": "_mInf",
          "type": "tuple"
        },
        {
          "internalType": "uint256",
          "name": "_sofaMatchID",
          "type": "uint256"
        }
      ],
      "name": "setMatchInfo",
      "outputs": [],
      "stateMutability": "nonpayable",
      "type": "function"
    },
    {
      "inputs": [
        {
          "internalType": "uint256",
          "name": "_amount",
          "type": "uint256"
        }
      ],
      "name": "setMaxBetAmount",
      "outputs": [],
      "stateMutability": "nonpayable",
      "type": "function"
    },
    {
      "inputs": [
        {
          "internalType": "address",
          "name": "_signer",
          "type": "address"
        }
      ],
      "name": "setSigner",
      "outputs": [],
      "stateMutability": "nonpayable",
      "type": "function"
    },
    {
      "inputs": [
        {
          "internalType": "uint256",
          "name": "spacer",
          "type": "uint256"
        }
      ],
      "name": "setSpacer",
      "outputs": [],
      "stateMutability": "nonpayable",
      "type": "function"
    },
    {
      "inputs": [
        {
          "internalType": "address",
          "name": "_tokenAddress",
          "type": "address"
        }
      ],
      "name": "setTokenAddress",
      "outputs": [],
      "stateMutability": "nonpayable",
      "type": "function"
    },
    {
      "inputs": [
        {
          "internalType": "bytes4",
          "name": "interfaceId",
          "type": "bytes4"
        }
      ],
      "name": "supportsInterface",
      "outputs": [
        {
          "internalType": "bool",
          "name": "",
          "type": "bool"
        }
      ],
      "stateMutability": "view",
      "type": "function"
    },
    {
      "inputs": [
        {
          "internalType": "uint16",
          "name": "_matchID",
          "type": "uint16"
        },
        {
          "internalType": "string",
          "name": "_betType",
          "type": "string"
        },
        {
          "internalType": "uint256",
          "name": "_amount",
          "type": "uint256"
        },
        {
          "components": [
            {
              "internalType": "uint256",
              "name": "deadline",
              "type": "uint256"
            },
            {
              "internalType": "uint8",
              "name": "v",
              "type": "uint8"
            },
            {
              "internalType": "bytes32",
              "name": "r",
              "type": "bytes32"
            },
            {
              "internalType": "bytes32",
              "name": "s",
              "type": "bytes32"
            }
          ],
          "internalType": "struct IBirdBetting.EIP712Signature",
          "name": "_signature",
          "type": "tuple"
        }
      ],
      "name": "tokenClaim",
      "outputs": [],
      "stateMutability": "nonpayable",
      "type": "function"
    },
    {
      "inputs": [
        {
          "internalType": "address",
          "name": "newOwner",
          "type": "address"
        }
      ],
      "name": "transferOwnership",
      "outputs": [],
      "stateMutability": "nonpayable",
      "type": "function"
    },
    {
      "inputs": [
        {
          "internalType": "uint16",
          "name": "_matchID",
          "type": "uint16"
        },
        {
          "components": [
            {
              "internalType": "uint8",
              "name": "ht_homeScore",
              "type": "uint8"
            },
            {
              "internalType": "uint8",
              "name": "ht_awayScore",
              "type": "uint8"
            },
            {
              "internalType": "uint8",
              "name": "ft_homeScore",
              "type": "uint8"
            },
            {
              "internalType": "uint8",
              "name": "ft_awayScore",
              "type": "uint8"
            },
            {
              "internalType": "uint256",
              "name": "startTime",
              "type": "uint256"
            },
            {
              "internalType": "string",
              "name": "homeName",
              "type": "string"
            },
            {
              "internalType": "string",
              "name": "homeIcon",
              "type": "string"
            },
            {
              "internalType": "string",
              "name": "awayName",
              "type": "string"
            },
            {
              "internalType": "string",
              "name": "awayIcon",
              "type": "string"
            },
            {
              "internalType": "string",
              "name": "location",
              "type": "string"
            },
            {
              "internalType": "string",
              "name": "round",
              "type": "string"
            },
            {
              "internalType": "bool",
              "name": "isHalfTime",
              "type": "bool"
            },
            {
              "internalType": "bool",
              "name": "isFinished",
              "type": "bool"
            }
          ],
          "internalType": "struct IBirdBetting.MatchInfo",
          "name": "_mInf",
          "type": "tuple"
        }
      ],
      "name": "updateMatchInfo",
      "outputs": [],
      "stateMutability": "nonpayable",
      "type": "function"
    },
    {
      "inputs": [
        {
          "internalType": "uint16",
          "name": "_matchID",
          "type": "uint16"
        },
        {
          "components": [
            {
              "internalType": "uint16",
              "name": "ouHtOver",
              "type": "uint16"
            },
            {
              "internalType": "uint16",
              "name": "ouHtRatio",
              "type": "uint16"
            },
            {
              "internalType": "uint16",
              "name": "ouHtUnder",
              "type": "uint16"
            },
            {
              "internalType": "uint16",
              "name": "ouFtOver",
              "type": "uint16"
            },
            {
              "internalType": "uint16",
              "name": "ouFtRatio",
              "type": "uint16"
            },
            {
              "internalType": "uint16",
              "name": "ouFtUnder",
              "type": "uint16"
            },
            {
              "internalType": "uint16",
              "name": "oddsHtHome",
              "type": "uint16"
            },
            {
              "internalType": "uint16",
              "name": "oddsHtDraw",
              "type": "uint16"
            },
            {
              "internalType": "uint16",
              "name": "oddsHtAway",
              "type": "uint16"
            },
            {
              "internalType": "uint16",
              "name": "oddsFtHome",
              "type": "uint16"
            },
            {
              "internalType": "uint16",
              "name": "oddsFtDraw",
              "type": "uint16"
            },
            {
              "internalType": "uint16",
              "name": "oddsFtAway",
              "type": "uint16"
            }
          ],
          "internalType": "struct IBirdBetting.MatchStatistics",
          "name": "mSta",
          "type": "tuple"
        }
      ],
      "name": "updateMatchStatistics",
      "outputs": [],
      "stateMutability": "nonpayable",
      "type": "function"
    },
    {
      "inputs": [
        {
          "internalType": "address",
          "name": "",
          "type": "address"
        },
        {
          "internalType": "uint16",
          "name": "",
          "type": "uint16"
        },
        {
          "internalType": "string",
          "name": "",
          "type": "string"
        }
      ],
      "name": "userBettingInMatch",
      "outputs": [
        {
          "internalType": "uint256",
          "name": "amount",
          "type": "uint256"
        },
        {
          "internalType": "string",
          "name": "place",
          "type": "string"
        },
        {
          "internalType": "bool",
          "name": "isClaimed",
          "type": "bool"
        }
      ],
      "stateMutability": "view",
      "type": "function"
    },
    {
      "inputs": [
        {
          "internalType": "address",
          "name": "",
          "type": "address"
        },
        {
          "internalType": "uint16",
          "name": "",
          "type": "uint16"
        }
      ],
      "name": "userPredictByMatch",
      "outputs": [
        {
          "internalType": "uint8",
          "name": "homeScore",
          "type": "uint8"
        },
        {
          "internalType": "uint8",
          "name": "awayScore",
          "type": "uint8"
        },
        {
          "internalType": "uint256",
          "name": "time",
          "type": "uint256"
        }
      ],
      "stateMutability": "view",
      "type": "function"
    }
  ],
  "bytecode": "0x608060405234801561001057600080fd5b5061399d806100206000396000f3fe608060405234801561001057600080fd5b50600436106102315760003560e01c806385dc300411610130578063c0f2a5de116100b8578063d547741f1161007c578063d547741f146105b9578063db05d98b146105cc578063f1538160146105ed578063f2fde38b1461060e578063f62611621461062157600080fd5b8063c0f2a5de14610502578063c634b78e14610515578063c99392df14610528578063cab11d5d14610588578063d35a4be31461059257600080fd5b80639881dce0116100ff5780639881dce0146104835780639a19c7b0146104b2578063a1dda535146104c5578063a217fddf146104e7578063a42bcc0c146104ef57600080fd5b806385dc30041461042b5780638da5cb5b1461043e578063902fc1281461044f57806391d148541461047057600080fd5b8063381060ad116101be5780636c19e783116101825780636c19e783146103e2578063715018a6146103f55780637a080ab4146103fd5780637ac3c02f146104105780637cfbc7a51461041857600080fd5b8063381060ad1461034e578063449a5f0f1461036f57806350bd5f6c14610382578063664a1ad6146103a35780636a34f43b146103cf57600080fd5b806321a083d31161020557806321a083d3146102df578063248a9ca3146102f257806326a4e8d2146103155780632f2ff15d1461032857806336568abe1461033b57600080fd5b8062c712291461023657806301ffc9a714610270578063150b7a02146102935780631de7c94a146102ca575b600080fd5b61025d7f85bb58e21b417d6d2cfae9510e0b2c5d654e789d05f42e52ef29c3183bfae8b081565b6040519081526020015b60405180910390f35b61028361027e3660046130db565b610634565b6040519015158152602001610267565b6102b16102a1366004612f87565b630a85bd0160e11b949350505050565b6040516001600160e01b03199091168152602001610267565b6102dd6102d83660046131d0565b610657565b005b6102dd6102ed3660046131fb565b610871565b61025d6103003660046130a1565b60009081526097602052604090206001015490565b6102dd610323366004612f3b565b610c1d565b6102dd6103363660046130b9565b610c59565b6102dd6103493660046130b9565b610c83565b61025d61035c366004612f3b565b6101386020526000908152604090205481565b6102dd61037d366004613184565b610d06565b61025d610390366004612f3b565b6101376020526000908152604090205481565b610131546103b7906001600160a01b031681565b6040516001600160a01b039091168152602001610267565b6102dd6103dd3660046132f1565b610ea2565b6102dd6103f0366004612f3b565b611002565b6102dd61103e565b6102dd61040b366004612f55565b611052565b6103b761120f565b6102dd6104263660046130a1565b61123d565b6102dd610439366004612f3b565b61125c565b6033546001600160a01b03166103b7565b61025d61045d366004612f3b565b6101366020526000908152604090205481565b61028361047e3660046130b9565b611298565b610283610491366004613000565b61013360209081526000928352604080842090915290825290205460ff1681565b6102dd6104c0366004612f3b565b6112c3565b6104d86104d3366004613029565b6112e6565b604051610267939291906137ca565b61025d600081565b6102dd6104fd36600461311d565b6113bb565b6102dd610510366004613263565b6118aa565b6102dd610523366004612f3b565b611eca565b610568610536366004613000565b6101356020908152600092835260408084209091529082529020805460019091015460ff808316926101009004169083565b6040805160ff948516815293909216602084015290820152606001610267565b61025d6101305481565b61025d7f3ea2689958c88c435d0a7dbb5b0ba1c45df423c343e033a31f674f7f85e1519681565b6102dd6105c73660046130b9565b611eed565b61025d6105da366004612f3b565b6101396020526000908152604090205481565b6106006105fb366004613103565b611f12565b6040516102679291906136a8565b6102dd61061c366004612f3b565b6123d6565b6102dd61062f3660046130a1565b61244f565b60006001600160e01b03198216158061065157506106518261246e565b92915050565b6000610662816124a3565b600061013460008561ffff1661ffff1681526020019081526020016000209050828160000160008201518160000160006101000a81548161ffff021916908361ffff16021790555060208201518160000160026101000a81548161ffff021916908361ffff16021790555060408201518160000160046101000a81548161ffff021916908361ffff16021790555060608201518160000160066101000a81548161ffff021916908361ffff16021790555060808201518160000160086101000a81548161ffff021916908361ffff16021790555060a082015181600001600a6101000a81548161ffff021916908361ffff16021790555060c082015181600001600c6101000a81548161ffff021916908361ffff16021790555060e082015181600001600e6101000a81548161ffff021916908361ffff1602179055506101008201518160000160106101000a81548161ffff021916908361ffff1602179055506101208201518160000160126101000a81548161ffff021916908361ffff1602179055506101408201518160000160146101000a81548161ffff021916908361ffff1602179055506101608201518160000160166101000a81548161ffff021916908361ffff1602179055509050507f5aeb2e82d74f416d35e9882694a793a1d1ad05992cfe6e904ee13659619bc2f58484604051610863929190613728565b60405180910390a150505050565b600061087c816124a3565b60405180604001604052808581526020018481525061013460008761ffff1661ffff16815260200190815260200160002060008201518160000160008201518160000160006101000a81548161ffff021916908361ffff16021790555060208201518160000160026101000a81548161ffff021916908361ffff16021790555060408201518160000160046101000a81548161ffff021916908361ffff16021790555060608201518160000160066101000a81548161ffff021916908361ffff16021790555060808201518160000160086101000a81548161ffff021916908361ffff16021790555060a082015181600001600a6101000a81548161ffff021916908361ffff16021790555060c082015181600001600c6101000a81548161ffff021916908361ffff16021790555060e082015181600001600e6101000a81548161ffff021916908361ffff1602179055506101008201518160000160106101000a81548161ffff021916908361ffff1602179055506101208201518160000160126101000a81548161ffff021916908361ffff1602179055506101408201518160000160146101000a81548161ffff021916908361ffff1602179055506101608201518160000160166101000a81548161ffff021916908361ffff160217905550505060208201518160010160008201518160000160006101000a81548160ff021916908360ff16021790555060208201518160000160016101000a81548160ff021916908360ff16021790555060408201518160000160026101000a81548160ff021916908360ff16021790555060608201518160000160036101000a81548160ff021916908360ff1602179055506080820151816001015560a0820151816002019080519060200190610b13929190612b5c565b5060c08201518051610b2f916003840191602090910190612b5c565b5060e08201518051610b4b916004840191602090910190612b5c565b506101008201518051610b68916005840191602090910190612b5c565b506101208201518051610b85916006840191602090910190612b5c565b506101408201518051610ba2916007840191602090910190612b5c565b50610160820151600890910180546101809093015115156101000261ff00199215159290921661ffff199093169290921717905550506040517fc8066592988cea1d047a1a59d3ea7bd081e03ef64966c008f86a0b8d1222202590610c0e908790879087908790613741565b60405180910390a15050505050565b600080516020613948833981519152610c35816124a3565b5061012d80546001600160a01b0319166001600160a01b0392909216919091179055565b600082815260976020526040902060010154610c74816124a3565b610c7e83836124ad565b505050565b6001600160a01b0381163314610cf85760405162461bcd60e51b815260206004820152602f60248201527f416363657373436f6e74726f6c3a2063616e206f6e6c792072656e6f756e636560448201526e103937b632b9903337b91039b2b63360891b60648201526084015b60405180910390fd5b610d028282612533565b5050565b6000610d11816124a3565b61ffff83166000908152610134602090815260409182902084516001820180548785015195880151606089015160ff90811663010000000263ff0000001992821662010000029290921663ffff0000199882166101000261ffff1990941691909516179190911795909516919091179390931783556080850151600282015560a08501518051919386939092610dad9260038701920190612b5c565b5060c08201518051610dc9916003840191602090910190612b5c565b5060e08201518051610de5916004840191602090910190612b5c565b506101008201518051610e02916005840191602090910190612b5c565b506101208201518051610e1f916006840191602090910190612b5c565b506101408201518051610e3c916007840191602090910190612b5c565b50610160820151600890910180546101809093015115156101000261ff00199215159290921661ffff19909316929092171790556040517f96b835f7f494e227cb90792a2033658d6458ed10c3ea93056480a85b58d79bb0906108639086908690613703565b600260c9541415610ec55760405162461bcd60e51b8152600401610cef90613671565b600260c981905561ffff8416600090815261013460205260409020908101544210610f325760405162461bcd60e51b815260206004820152601e60248201527f43616e2070726564696374206265666f7265206d6174636820737461727400006044820152606401610cef565b6040805160608101825260ff8086168252848116602080840191825242848601818152336000818152610135855288812061ffff8e1682529094529287902095518654945186166101000261ffff19909516951694909417929092178455915160019093019290925591517f9503495a6b7978c11c59bf26f2bbab15a8e2226808b034d02d4db327e44966a991610fef918891889188919061ffff94909416845260ff928316602085015291166040830152606082015260800190565b60405180910390a25050600160c9555050565b60008051602061394883398151915261101a816124a3565b5061012e80546001600160a01b0319166001600160a01b0392909216919091179055565b61104661259a565b61105060006125f4565b565b600054610100900460ff16158080156110725750600054600160ff909116105b8061108c5750303b15801561108c575060005460ff166001145b6110ef5760405162461bcd60e51b815260206004820152602e60248201527f496e697469616c697a61626c653a20636f6e747261637420697320616c72656160448201526d191e481a5b9a5d1a585b1a5e995960921b6064820152608401610cef565b6000805460ff191660011790558015611112576000805461ff0019166101001790555b6001600160a01b0383166111685760405162461bcd60e51b815260206004820152601c60248201527f4249524420746f6b656e2061646472657373206e6f7420666f756e64000000006044820152606401610cef565b611170612646565b61117b600033612675565b61119360008051602061394883398151915233612675565b61012d80546001600160a01b038086166001600160a01b0319928316179092556101318054928516929091169190911790558015610c7e576000805461ff0019169055604051600181527f7f26b83ff96e1f2b6a682f133852f6798a09c465da95921460cefb38474024989060200160405180910390a1505050565b6000600080516020613948833981519152611229816124a3565b61012e546001600160a01b031691505b5090565b600080516020613948833981519152611255816124a3565b5061013055565b600080516020613948833981519152611274816124a3565b5061013180546001600160a01b0319166001600160a01b0392909216919091179055565b60009182526097602090815260408084206001600160a01b0393909316845291905290205460ff1690565b6000805160206139488339815191526112db816124a3565b610d02600083611eed565b6101326020908152600093845260408085208252928452919092208251808401830180519281529083019390920192909220919052805460018201805491929161132f906138bd565b80601f016020809104026020016040519081016040528092919081815260200182805461135b906138bd565b80156113a85780601f1061137d576101008083540402835291602001916113a8565b820191906000526020600020905b81548152906001019060200180831161138b57829003601f168201915b5050506002909301549192505060ff1683565b600260c95414156113de5760405162461bcd60e51b8152600401610cef90613671565b600260c955816114265760405162461bcd60e51b8152602060048201526013602482015272105b5bdd5b9d081a5cc81a5b98dbdc9c9958dd606a1b6044820152606401610cef565b3360009081526101326020908152604080832061ffff88168452909152908190209051611454908590613582565b9081526040519081900360200190206002015460ff16156114a65760405162461bcd60e51b815260206004820152600c60248201526b109254910818db185a5b595960a21b6044820152606401610cef565b803515806114b5575042813510155b6114f55760405162461bcd60e51b815260206004820152601160248201527014da59db985d1d5c9948195e1c1a5c9959607a1b6044820152606401610cef565b61012f543360009081526101366020526040902054429161151591613843565b111561155e5760405162461bcd60e51b8152602060048201526018602482015277436c61696d2077697468696e207370616365722074696d6560401b6044820152606401610cef565b600061156861267f565b90506000817f85bb58e21b417d6d2cfae9510e0b2c5d654e789d05f42e52ef29c3183bfae8b061159933601461274c565b6040516020016115a99190613582565b6040516020818303038152906040528051906020012088886040516020016115d19190613582565b60408051601f198184030181529181528151602092830120336000908152610137909352908220805491928b929190611609836138f2565b9091555060408051602081019790975286019490945261ffff9092166060850152608084015260a083015260c0820152843560e0820152610100016040516020818303038152906040528051906020012060405160200161168192919061190160f01b81526002810192909252602282015260420190565b60405160208183030381529060405280519060200120905060006001828560200160208101906116b19190613333565b6040805160008152602081018083529390935260ff90911682820152860135606080830191909152860135608082015260a0016020604051602081039080840390855afa158015611706573d6000803e3d6000fd5b5050604051601f19015161012e549092506001600160a01b0380841691161490506117675760405162461bcd60e51b815260206004820152601160248201527014da59db985d1d5c99481a5b9d985b1a59607a1b6044820152606401610cef565b61012d54610131546040516323b872dd60e01b81526001600160a01b039182166004820152336024820152604481018890529116906323b872dd90606401602060405180830381600087803b1580156117bf57600080fd5b505af11580156117d3573d6000803e3d6000fd5b505050506040513d601f19601f820116820180604052508101906117f79190613085565b503360009081526101326020908152604080832061ffff8b1684529091529081902090516001919061182a908990613582565b9081526040805160209281900383018120600201805460ff1916941515949094179093553360008181526101369093529120429055907f562c6729051acd34cd66053b5bdc394a3bf5d6eeed0ea8b0f4aeab6050031c2690611894908a908a908a908a35906136d3565b60405180910390a25050600160c9555050505050565b600260c95414156118cd5760405162461bcd60e51b8152600401610cef90613671565b600260c95561012d546001600160a01b03166119235760405162461bcd60e51b815260206004820152601560248201527414995dd85c991cc81d1bdad95b881b9bdd081cd95d605a1b6044820152606401610cef565b610130546119685760405162461bcd60e51b815260206004820152601260248201527113585e08185b5bdd5b9d081b9bdd081cd95d60721b6044820152606401610cef565b3360009081526101326020908152604080832061ffff89168452909152908190209051611996908590613582565b90815260405190819003602001902054156119f35760405162461bcd60e51b815260206004820152601c60248201527f596f752077657265207072656469637420696e207468697320626574000000006044820152606401610cef565b80351580611a02575042813510155b611a425760405162461bcd60e51b815260206004820152601160248201527014da59db985d1d5c9948195e1c1a5c9959607a1b6044820152606401610cef565b61012f5433600090815261013860205260409020544291611a6291613843565b1115611aab5760405162461bcd60e51b8152602060048201526018602482015277436c61696d2077697468696e207370616365722074696d6560401b6044820152606401610cef565b61ffff851660009081526101346020526040902060028101544210611b125760405162461bcd60e51b815260206004820152601e60248201527f43616e2070726564696374206265666f7265206d6174636820737461727400006044820152606401610cef565b6000611b1c61267f565b90506000817f3ea2689958c88c435d0a7dbb5b0ba1c45df423c343e033a31f674f7f85e15196611b4d33601461274c565b604051602001611b5d9190613582565b604051602081830303815290604052805190602001208a89604051602001611b859190613582565b6040516020818303038152906040528051906020012089604051602001611bac9190613582565b60408051601f198184030181529181528151602092830120336000908152610139909352908220805491928f929190611be4836138f2565b9091555060408051602081019890985287019590955261ffff9093166060860152608085019190915260a084015260c083015260e082015285356101008201526101200160405160208183030381529060405280519060200120604051602001611c6592919061190160f01b81526002810192909252602282015260420190565b6040516020818303038152906040528051906020012090506000600182866020016020810190611c959190613333565b6040805160008152602081018083529390935260ff90911682820152870135606080830191909152870135608082015260a0016020604051602081039080840390855afa158015611cea573d6000803e3d6000fd5b5050604051601f19015161012e549092506001600160a01b038084169116149050611d4b5760405162461bcd60e51b815260206004820152601160248201527014da59db985d1d5c99481a5b9d985b1a59607a1b6044820152606401610cef565b6040805160608101825289815260208082018990526000828401819052338152610132825283812061ffff8e1682529091528290209151909190611d90908a90613582565b9081526020016040518091039020600082015181600001556020820151816001019080519060200190611dc4929190612b5c565b50604091820151600291909101805460ff191691151591909117905561012d546101315491516323b872dd60e01b81523360048201526001600160a01b039283166024820152604481018b90529116906323b872dd90606401602060405180830381600087803b158015611e3757600080fd5b505af1158015611e4b573d6000803e3d6000fd5b505050506040513d601f19601f82011682018060405250810190611e6f9190613085565b50336001600160a01b03167f9c654b8a4a967ed24b656bf5b2d1dfc1c6e1de5c051a3b85105b11671693df148a8a8a8a6000604051611eb2959493929190613780565b60405180910390a25050600160c95550505050505050565b600080516020613948833981519152611ee2816124a3565b610d02600083610c59565b600082815260976020526040902060010154611f08816124a3565b610c7e8383612533565b61013460209081526000918252604091829020825161018081018452815461ffff80821683526201000080830482168487015264010000000083048216848801526601000000000000830482166060808601919091526801000000000000000084048316608080870191909152600160501b8504841660a080880191909152600160601b8604851660c0880152600160701b8604851660e0880152600160801b8604851661010080890191909152600160901b87048616610120890152600160a01b87048616610140890152600160b01b90960490941661016087015288516101a081018a5260018801805460ff808216845297810488169a83019a909a5293890486169981019990995263010000009097049093169287019290925260028401549486019490945260038301805492959394919291840191612054906138bd565b80601f0160208091040260200160405190810160405280929190818152602001828054612080906138bd565b80156120cd5780601f106120a2576101008083540402835291602001916120cd565b820191906000526020600020905b8154815290600101906020018083116120b057829003601f168201915b505050505081526020016003820180546120e6906138bd565b80601f0160208091040260200160405190810160405280929190818152602001828054612112906138bd565b801561215f5780601f106121345761010080835404028352916020019161215f565b820191906000526020600020905b81548152906001019060200180831161214257829003601f168201915b50505050508152602001600482018054612178906138bd565b80601f01602080910402602001604051908101604052809291908181526020018280546121a4906138bd565b80156121f15780601f106121c6576101008083540402835291602001916121f1565b820191906000526020600020905b8154815290600101906020018083116121d457829003601f168201915b5050505050815260200160058201805461220a906138bd565b80601f0160208091040260200160405190810160405280929190818152602001828054612236906138bd565b80156122835780601f1061225857610100808354040283529160200191612283565b820191906000526020600020905b81548152906001019060200180831161226657829003601f168201915b5050505050815260200160068201805461229c906138bd565b80601f01602080910402602001604051908101604052809291908181526020018280546122c8906138bd565b80156123155780601f106122ea57610100808354040283529160200191612315565b820191906000526020600020905b8154815290600101906020018083116122f857829003601f168201915b5050505050815260200160078201805461232e906138bd565b80601f016020809104026020016040519081016040528092919081815260200182805461235a906138bd565b80156123a75780601f1061237c576101008083540402835291602001916123a7565b820191906000526020600020905b81548152906001019060200180831161238a57829003601f168201915b50505091835250506008919091015460ff80821615156020840152610100909104161515604090910152905082565b6123de61259a565b6001600160a01b0381166124435760405162461bcd60e51b815260206004820152602660248201527f4f776e61626c653a206e6577206f776e657220697320746865207a65726f206160448201526564647265737360d01b6064820152608401610cef565b61244c816125f4565b50565b600080516020613948833981519152612467816124a3565b5061012f55565b60006001600160e01b03198216637965db0b60e01b148061065157506301ffc9a760e01b6001600160e01b0319831614610651565b61244c8133612935565b6124b78282611298565b610d025760008281526097602090815260408083206001600160a01b03851684529091529020805460ff191660011790556124ef3390565b6001600160a01b0316816001600160a01b0316837f2f8788117e7eff1d82e926ec794901d17c78024a50270940304540a733656f0d60405160405180910390a45050565b61253d8282611298565b15610d025760008281526097602090815260408083206001600160a01b0385168085529252808320805460ff1916905551339285917ff6391f5c32d9c69d2a47ea670b442974b53935d1edc7fd64eb21e047a839171b9190a45050565b6033546001600160a01b031633146110505760405162461bcd60e51b815260206004820181905260248201527f4f776e61626c653a2063616c6c6572206973206e6f7420746865206f776e65726044820152606401610cef565b603380546001600160a01b038381166001600160a01b0319831681179093556040519116919082907f8be0079c531659141344cd1fd0a4f28419497f9722a3daafe3b4186f6b6457e090600090a35050565b600054610100900460ff1661266d5760405162461bcd60e51b8152600401610cef90613626565b611050612999565b610d0282826124ad565b604080518082018252600c81526b466972656269726447616d6560a01b6020918201528151808301835260018152603160f81b9082015281517f91ab3d17e3a50a9d89e63fd30b92be7f5336b03b287bb946787a83a9d62a2766818301527fea55f854b003845a72bd53f92850259d60335315fde9cce440ee9b3bd2c9369d818401527fc89efdaa54c0f20c7adf612882df0950f5a951637e0307cdcb4c672f298b8bc66060820152306080808301919091528351808303909101815260a0909101909252815191012090565b6060600061275b83600261385b565b612766906002613843565b67ffffffffffffffff81111561278c57634e487b7160e01b600052604160045260246000fd5b6040519080825280601f01601f1916602001820160405280156127b6576020820181803683370190505b509050600360fc1b816000815181106127df57634e487b7160e01b600052603260045260246000fd5b60200101906001600160f81b031916908160001a905350600f60fb1b8160018151811061281c57634e487b7160e01b600052603260045260246000fd5b60200101906001600160f81b031916908160001a905350600061284084600261385b565b61284b906001613843565b90505b60018111156128df576f181899199a1a9b1b9c1cb0b131b232b360811b85600f166010811061288d57634e487b7160e01b600052603260045260246000fd5b1a60f81b8282815181106128b157634e487b7160e01b600052603260045260246000fd5b60200101906001600160f81b031916908160001a90535060049490941c936128d8816138a6565b905061284e565b50831561292e5760405162461bcd60e51b815260206004820181905260248201527f537472696e67733a20686578206c656e67746820696e73756666696369656e746044820152606401610cef565b9392505050565b61293f8282611298565b610d0257612957816001600160a01b031660146129c9565b6129628360206129c9565b60405160200161297392919061359e565b60408051601f198184030181529082905262461bcd60e51b8252610cef91600401613613565b600054610100900460ff166129c05760405162461bcd60e51b8152600401610cef90613626565b611050336125f4565b606060006129d883600261385b565b6129e3906002613843565b67ffffffffffffffff811115612a0957634e487b7160e01b600052604160045260246000fd5b6040519080825280601f01601f191660200182016040528015612a33576020820181803683370190505b509050600360fc1b81600081518110612a5c57634e487b7160e01b600052603260045260246000fd5b60200101906001600160f81b031916908160001a905350600f60fb1b81600181518110612a9957634e487b7160e01b600052603260045260246000fd5b60200101906001600160f81b031916908160001a9053506000612abd84600261385b565b612ac8906001613843565b90505b60018111156128df576f181899199a1a9b1b9c1cb0b131b232b360811b85600f1660108110612b0a57634e487b7160e01b600052603260045260246000fd5b1a60f81b828281518110612b2e57634e487b7160e01b600052603260045260246000fd5b60200101906001600160f81b031916908160001a90535060049490941c93612b55816138a6565b9050612acb565b828054612b68906138bd565b90600052602060002090601f016020900481019282612b8a5760008555612bd0565b82601f10612ba357805160ff1916838001178555612bd0565b82800160010185558215612bd0579182015b82811115612bd0578251825591602001919060010190612bb5565b506112399291505b808211156112395760008155600101612bd8565b600067ffffffffffffffff80841115612c0757612c07613923565b604051601f8501601f19908116603f01168101908282118183101715612c2f57612c2f613923565b81604052809350858152868686011115612c4857600080fd5b858560208301376000602087830101525050509392505050565b80356001600160a01b0381168114612c7957600080fd5b919050565b8035612c7981613939565b600082601f830112612c99578081fd5b61292e83833560208501612bec565b600060808284031215612cb9578081fd5b50919050565b60006101a08284031215612cd1578081fd5b612cd96137f5565b9050612ce482612f2a565b8152612cf260208301612f2a565b6020820152612d0360408301612f2a565b6040820152612d1460608301612f2a565b60608201526080820135608082015260a082013567ffffffffffffffff80821115612d3e57600080fd5b612d4a85838601612c89565b60a084015260c0840135915080821115612d6357600080fd5b612d6f85838601612c89565b60c084015260e0840135915080821115612d8857600080fd5b612d9485838601612c89565b60e084015261010091508184013581811115612daf57600080fd5b612dbb86828701612c89565b838501525061012091508184013581811115612dd657600080fd5b612de286828701612c89565b838501525061014091508184013581811115612dfd57600080fd5b612e0986828701612c89565b83850152505050610160612e1e818401612c7e565b90820152610180612e30838201612c7e565b9082015292915050565b60006101808284031215612e4c578081fd5b612e5461381f565b9050612e5f82612f18565b8152612e6d60208301612f18565b6020820152612e7e60408301612f18565b6040820152612e8f60608301612f18565b6060820152612ea060808301612f18565b6080820152612eb160a08301612f18565b60a0820152612ec260c08301612f18565b60c0820152612ed360e08301612f18565b60e0820152610100612ee6818401612f18565b90820152610120612ef8838201612f18565b90820152610140612f0a838201612f18565b90820152610160612e308382015b803561ffff81168114612c7957600080fd5b803560ff81168114612c7957600080fd5b600060208284031215612f4c578081fd5b61292e82612c62565b60008060408385031215612f67578081fd5b612f7083612c62565b9150612f7e60208401612c62565b90509250929050565b60008060008060808587031215612f9c578182fd5b612fa585612c62565b9350612fb360208601612c62565b925060408501359150606085013567ffffffffffffffff811115612fd5578182fd5b8501601f81018713612fe5578182fd5b612ff487823560208401612bec565b91505092959194509250565b60008060408385031215613012578182fd5b61301b83612c62565b9150612f7e60208401612f18565b60008060006060848603121561303d578283fd5b61304684612c62565b925061305460208501612f18565b9150604084013567ffffffffffffffff81111561306f578182fd5b61307b86828701612c89565b9150509250925092565b600060208284031215613096578081fd5b815161292e81613939565b6000602082840312156130b2578081fd5b5035919050565b600080604083850312156130cb578182fd5b82359150612f7e60208401612c62565b6000602082840312156130ec578081fd5b81356001600160e01b03198116811461292e578182fd5b600060208284031215613114578081fd5b61292e82612f18565b60008060008060e08587031215613132578182fd5b61313b85612f18565b9350602085013567ffffffffffffffff811115613156578283fd5b61316287828801612c89565b935050604085013591506131798660608701612ca8565b905092959194509250565b60008060408385031215613196578182fd5b61319f83612f18565b9150602083013567ffffffffffffffff8111156131ba578182fd5b6131c685828601612cbf565b9150509250929050565b6000806101a083850312156131e3578182fd5b6131ec83612f18565b9150612f7e8460208501612e3a565b6000806000806101e08587031215613211578182fd5b61321a85612f18565b93506132298660208701612e3a565b92506101a085013567ffffffffffffffff811115613245578283fd5b61325187828801612cbf565b949793965093946101c0013593505050565b6000806000806000610100868803121561327b578283fd5b61328486612f18565b945060208601359350604086013567ffffffffffffffff808211156132a7578485fd5b6132b389838a01612c89565b945060608801359150808211156132c8578283fd5b506132d588828901612c89565b9250506132e58760808801612ca8565b90509295509295909350565b600080600060608486031215613305578081fd5b61330e84612f18565b925061331c60208501612f2a565b915061332a60408501612f2a565b90509250925092565b600060208284031215613344578081fd5b61292e82612f2a565b6000815180845261336581602086016020860161387a565b601f01601f19169290920160200192915050565b805160ff16825260006101a06020830151613399602086018260ff169052565b5060408301516133ae604086018260ff169052565b5060608301516133c3606086018260ff169052565b506080830151608085015260a08301518160a08601526133e58286018261334d565b91505060c083015184820360c08601526133ff828261334d565b91505060e083015184820360e0860152613419828261334d565b9150506101008084015185830382870152613434838261334d565b925050506101208084015185830382870152613450838261334d565b92505050610140808401518583038287015261346c838261334d565b92505050610160808401516134848287018215159052565b50506101809283015115159390920192909252919050565b805161ffff16825260208101516134b9602084018261ffff169052565b5060408101516134cf604084018261ffff169052565b5060608101516134e5606084018261ffff169052565b5060808101516134fb608084018261ffff169052565b5060a081015161351160a084018261ffff169052565b5060c081015161352760c084018261ffff169052565b5060e081015161353d60e084018261ffff169052565b506101008181015161ffff9081169184019190915261012080830151821690840152610140808301518216908401526101608083015191821681850152905b50505050565b6000825161359481846020870161387a565b9190910192915050565b7f416363657373436f6e74726f6c3a206163636f756e74200000000000000000008152600083516135d681601785016020880161387a565b7001034b99036b4b9b9b4b733903937b6329607d1b601791840191820152835161360781602884016020880161387a565b01602801949350505050565b60208152600061292e602083018461334d565b6020808252602b908201527f496e697469616c697a61626c653a20636f6e7472616374206973206e6f74206960408201526a6e697469616c697a696e6760a81b606082015260800190565b6020808252601f908201527f5265656e7472616e637947756172643a207265656e7472616e742063616c6c00604082015260600190565b60006101a06136b7838661349c565b806101808401526136ca81840185613379565b95945050505050565b61ffff851681526080602082015260006136f0608083018661334d565b6040830194909452506060015292915050565b61ffff831681526040602082015260006137206040830184613379565b949350505050565b61ffff831681526101a0810161292e602083018461349c565b60006101e061ffff8716835261375a602084018761349c565b806101a084015261376d81840186613379565b915050826101c083015295945050505050565b61ffff8616815284602082015260a0604082015260006137a360a083018661334d565b82810360608401526137b5818661334d565b91505082151560808301529695505050505050565b8381526060602082015260006137e3606083018561334d565b90508215156040830152949350505050565b6040516101a0810167ffffffffffffffff8111828210171561381957613819613923565b60405290565b604051610180810167ffffffffffffffff8111828210171561381957613819613923565b600082198211156138565761385661390d565b500190565b60008160001904831182151516156138755761387561390d565b500290565b60005b8381101561389557818101518382015260200161387d565b8381111561357c5750506000910152565b6000816138b5576138b561390d565b506000190190565b600181811c908216806138d157607f821691505b60208210811415612cb957634e487b7160e01b600052602260045260246000fd5b60006000198214156139065761390661390d565b5060010190565b634e487b7160e01b600052601160045260246000fd5b634e487b7160e01b600052604160045260246000fd5b801515811461244c57600080fdfeb19546dff01e856fb3f010c267a7b1c60363cf8a4664e21cc89c26224620214ea264697066735822122027200dc6c7f24837406cbae8ee76932f7b1996143f5f034e7a5fe617863fd2e164736f6c63430008040033",
  "linkReferences": {},
  "deployedLinkReferences": {}
}