{
  "_format": "hh-sol-artifact-1",
  "contractName": "EpicWarBox",
  "sourceName": "contracts/EpicWarBox.sol",
  "abi": [
    {
      "anonymous": false,
      "inputs": [
        {
          "indexed": true,
          "internalType": "address",
          "name": "owner",
          "type": "address"
        },
        {
          "indexed": true,
          "internalType": "address",
          "name": "approved",
          "type": "address"
        },
        {
          "indexed": true,
          "internalType": "uint256",
          "name": "tokenId",
          "type": "uint256"
        }
      ],
      "name": "Approval",
      "type": "event"
    },
    {
      "anonymous": false,
      "inputs": [
        {
          "indexed": true,
          "internalType": "address",
          "name": "owner",
          "type": "address"
        },
        {
          "indexed": true,
          "internalType": "address",
          "name": "operator",
          "type": "address"
        },
        {
          "indexed": false,
          "internalType": "bool",
          "name": "approved",
          "type": "bool"
        }
      ],
      "name": "ApprovalForAll",
      "type": "event"
    },
    {
      "anonymous": false,
      "inputs": [
        {
          "indexed": true,
          "internalType": "uint256",
          "name": "id",
          "type": "uint256"
        },
        {
          "indexed": false,
          "internalType": "address",
          "name": "boxOwner",
          "type": "address"
        },
        {
          "indexed": false,
          "internalType": "uint16",
          "name": "eventId",
          "type": "uint16"
        },
        {
          "indexed": false,
          "internalType": "string",
          "name": "eventType",
          "type": "string"
        },
        {
          "indexed": false,
          "internalType": "string",
          "name": "boxUri",
          "type": "string"
        },
        {
          "indexed": false,
          "internalType": "string",
          "name": "boxName",
          "type": "string"
        },
        {
          "indexed": false,
          "internalType": "address",
          "name": "boxContractAddress",
          "type": "address"
        },
        {
          "indexed": false,
          "internalType": "uint256",
          "name": "price",
          "type": "uint256"
        },
        {
          "indexed": false,
          "internalType": "address",
          "name": "currency",
          "type": "address"
        }
      ],
      "name": "BoxCreated",
      "type": "event"
    },
    {
      "anonymous": false,
      "inputs": [
        {
          "indexed": true,
          "internalType": "address",
          "name": "user",
          "type": "address"
        },
        {
          "indexed": false,
          "internalType": "uint256",
          "name": "boxId",
          "type": "uint256"
        },
        {
          "indexed": false,
          "internalType": "uint256",
          "name": "nftId",
          "type": "uint256"
        },
        {
          "indexed": false,
          "internalType": "uint16",
          "name": "eventId",
          "type": "uint16"
        }
      ],
      "name": "BoxOpened",
      "type": "event"
    },
    {
      "anonymous": false,
      "inputs": [
        {
          "indexed": false,
          "internalType": "uint16",
          "name": "totalSupply",
          "type": "uint16"
        },
        {
          "indexed": false,
          "internalType": "uint256",
          "name": "price",
          "type": "uint256"
        },
        {
          "indexed": false,
          "internalType": "address",
          "name": "currency",
          "type": "address"
        },
        {
          "indexed": false,
          "internalType": "uint256",
          "name": "startTime",
          "type": "uint256"
        },
        {
          "indexed": false,
          "internalType": "uint256",
          "name": "endTime",
          "type": "uint256"
        },
        {
          "indexed": false,
          "internalType": "uint16",
          "name": "maxBuy",
          "type": "uint16"
        },
        {
          "indexed": false,
          "internalType": "uint256",
          "name": "startID",
          "type": "uint256"
        },
        {
          "indexed": false,
          "internalType": "uint256",
          "name": "openBoxTime",
          "type": "uint256"
        },
        {
          "indexed": false,
          "internalType": "address",
          "name": "nftContract",
          "type": "address"
        }
      ],
      "name": "EventCreated",
      "type": "event"
    },
    {
      "anonymous": false,
      "inputs": [
        {
          "indexed": false,
          "internalType": "uint8",
          "name": "version",
          "type": "uint8"
        }
      ],
      "name": "Initialized",
      "type": "event"
    },
    {
      "anonymous": false,
      "inputs": [
        {
          "indexed": true,
          "internalType": "address",
          "name": "previousOwner",
          "type": "address"
        },
        {
          "indexed": true,
          "internalType": "address",
          "name": "newOwner",
          "type": "address"
        }
      ],
      "name": "OwnershipTransferred",
      "type": "event"
    },
    {
      "anonymous": false,
      "inputs": [
        {
          "indexed": true,
          "internalType": "address",
          "name": "from",
          "type": "address"
        },
        {
          "indexed": true,
          "internalType": "address",
          "name": "to",
          "type": "address"
        },
        {
          "indexed": true,
          "internalType": "uint256",
          "name": "tokenId",
          "type": "uint256"
        }
      ],
      "name": "Transfer",
      "type": "event"
    },
    {
      "inputs": [],
      "name": "VRFContract",
      "outputs": [
        {
          "internalType": "address",
          "name": "",
          "type": "address"
        }
      ],
      "stateMutability": "view",
      "type": "function"
    },
    {
      "inputs": [
        {
          "internalType": "string",
          "name": "name",
          "type": "string"
        },
        {
          "internalType": "string",
          "name": "symbol",
          "type": "string"
        },
        {
          "internalType": "string",
          "name": "_uri",
          "type": "string"
        },
        {
          "internalType": "address",
          "name": "_fundWallet",
          "type": "address"
        },
        {
          "internalType": "address",
          "name": "_VRFContract",
          "type": "address"
        }
      ],
      "name": "__EpicWarBox_init",
      "outputs": [],
      "stateMutability": "nonpayable",
      "type": "function"
    },
    {
      "inputs": [
        {
          "internalType": "uint16",
          "name": "_eventID",
          "type": "uint16"
        },
        {
          "internalType": "uint16[]",
          "name": "_quantity",
          "type": "uint16[]"
        },
        {
          "internalType": "string[]",
          "name": "_boxName",
          "type": "string[]"
        },
        {
          "internalType": "string[]",
          "name": "_boxImageUri",
          "type": "string[]"
        }
      ],
      "name": "addBox",
      "outputs": [],
      "stateMutability": "nonpayable",
      "type": "function"
    },
    {
      "inputs": [
        {
          "internalType": "uint16",
          "name": "_eventID",
          "type": "uint16"
        },
        {
          "internalType": "uint16[]",
          "name": "_boxIDList",
          "type": "uint16[]"
        }
      ],
      "name": "addBoxID",
      "outputs": [],
      "stateMutability": "nonpayable",
      "type": "function"
    },
    {
      "inputs": [],
      "name": "allowTransfer",
      "outputs": [
        {
          "internalType": "bool",
          "name": "",
          "type": "bool"
        }
      ],
      "stateMutability": "view",
      "type": "function"
    },
    {
      "inputs": [
        {
          "internalType": "address",
          "name": "to",
          "type": "address"
        },
        {
          "internalType": "uint256",
          "name": "tokenId",
          "type": "uint256"
        }
      ],
      "name": "approve",
      "outputs": [],
      "stateMutability": "nonpayable",
      "type": "function"
    },
    {
      "inputs": [
        {
          "internalType": "address",
          "name": "owner",
          "type": "address"
        }
      ],
      "name": "balanceOf",
      "outputs": [
        {
          "internalType": "uint256",
          "name": "",
          "type": "uint256"
        }
      ],
      "stateMutability": "view",
      "type": "function"
    },
    {
      "inputs": [
        {
          "internalType": "uint256",
          "name": "",
          "type": "uint256"
        }
      ],
      "name": "boxByEvent",
      "outputs": [
        {
          "internalType": "uint16",
          "name": "",
          "type": "uint16"
        }
      ],
      "stateMutability": "view",
      "type": "function"
    },
    {
      "inputs": [
        {
          "internalType": "uint16",
          "name": "",
          "type": "uint16"
        },
        {
          "internalType": "uint16",
          "name": "",
          "type": "uint16"
        }
      ],
      "name": "boxesByEvent",
      "outputs": [
        {
          "internalType": "uint16",
          "name": "quantity",
          "type": "uint16"
        },
        {
          "internalType": "uint16",
          "name": "bought",
          "type": "uint16"
        },
        {
          "internalType": "string",
          "name": "nameBox",
          "type": "string"
        },
        {
          "internalType": "string",
          "name": "uriImage",
          "type": "string"
        }
      ],
      "stateMutability": "view",
      "type": "function"
    },
    {
      "inputs": [
        {
          "internalType": "uint16",
          "name": "_eventID",
          "type": "uint16"
        },
        {
          "internalType": "uint16",
          "name": "_amount",
          "type": "uint16"
        },
        {
          "internalType": "uint16",
          "name": "_indexBoxList",
          "type": "uint16"
        },
        {
          "internalType": "address",
          "name": "_token",
          "type": "address"
        }
      ],
      "name": "buyBox",
      "outputs": [],
      "stateMutability": "payable",
      "type": "function"
    },
    {
      "inputs": [
        {
          "internalType": "uint16",
          "name": "_eventID",
          "type": "uint16"
        },
        {
          "internalType": "string",
          "name": "_eventType",
          "type": "string"
        },
        {
          "internalType": "uint16",
          "name": "_totalSupply",
          "type": "uint16"
        },
        {
          "internalType": "uint256",
          "name": "_price",
          "type": "uint256"
        },
        {
          "internalType": "address",
          "name": "_currency",
          "type": "address"
        },
        {
          "internalType": "uint256",
          "name": "_startTime",
          "type": "uint256"
        },
        {
          "internalType": "uint256",
          "name": "_endTime",
          "type": "uint256"
        },
        {
          "internalType": "uint16",
          "name": "_maxBuy",
          "type": "uint16"
        },
        {
          "internalType": "uint256",
          "name": "_openBoxTime",
          "type": "uint256"
        },
        {
          "internalType": "address",
          "name": "_nftContract",
          "type": "address"
        }
      ],
      "name": "createEvent",
      "outputs": [],
      "stateMutability": "nonpayable",
      "type": "function"
    },
    {
      "inputs": [
        {
          "internalType": "uint16",
          "name": "_eventID",
          "type": "uint16"
        },
        {
          "internalType": "uint256",
          "name": "_id",
          "type": "uint256"
        },
        {
          "internalType": "address",
          "name": "_to",
          "type": "address"
        }
      ],
      "name": "emergencyWithdrawNFT",
      "outputs": [],
      "stateMutability": "nonpayable",
      "type": "function"
    },
    {
      "inputs": [
        {
          "internalType": "uint16",
          "name": "",
          "type": "uint16"
        }
      ],
      "name": "eventByID",
      "outputs": [
        {
          "internalType": "uint16",
          "name": "totalSupply",
          "type": "uint16"
        },
        {
          "internalType": "uint256",
          "name": "boxPrice",
          "type": "uint256"
        },
        {
          "internalType": "address",
          "name": "currency",
          "type": "address"
        },
        {
          "internalType": "uint256",
          "name": "startTime",
          "type": "uint256"
        },
        {
          "internalType": "uint256",
          "name": "endTime",
          "type": "uint256"
        },
        {
          "internalType": "uint16",
          "name": "maxBuy",
          "type": "uint16"
        },
        {
          "internalType": "uint256",
          "name": "startID",
          "type": "uint256"
        },
        {
          "internalType": "uint256",
          "name": "openBoxTime",
          "type": "uint256"
        },
        {
          "internalType": "address",
          "name": "nftContract",
          "type": "address"
        },
        {
          "internalType": "string",
          "name": "eventType",
          "type": "string"
        },
        {
          "internalType": "uint16",
          "name": "boxCount",
          "type": "uint16"
        }
      ],
      "stateMutability": "view",
      "type": "function"
    },
    {
      "inputs": [],
      "name": "eventStartId",
      "outputs": [
        {
          "internalType": "uint256",
          "name": "",
          "type": "uint256"
        }
      ],
      "stateMutability": "view",
      "type": "function"
    },
    {
      "inputs": [],
      "name": "fundWallet",
      "outputs": [
        {
          "internalType": "address",
          "name": "",
          "type": "address"
        }
      ],
      "stateMutability": "view",
      "type": "function"
    },
    {
      "inputs": [
        {
          "internalType": "uint256",
          "name": "tokenId",
          "type": "uint256"
        }
      ],
      "name": "getApproved",
      "outputs": [
        {
          "internalType": "address",
          "name": "",
          "type": "address"
        }
      ],
      "stateMutability": "view",
      "type": "function"
    },
    {
      "inputs": [
        {
          "internalType": "uint16",
          "name": "_eventID",
          "type": "uint16"
        }
      ],
      "name": "getBoxID",
      "outputs": [
        {
          "internalType": "uint16[]",
          "name": "",
          "type": "uint16[]"
        }
      ],
      "stateMutability": "view",
      "type": "function"
    },
    {
      "inputs": [
        {
          "internalType": "address",
          "name": "owner",
          "type": "address"
        },
        {
          "internalType": "address",
          "name": "operator",
          "type": "address"
        }
      ],
      "name": "isApprovedForAll",
      "outputs": [
        {
          "internalType": "bool",
          "name": "",
          "type": "bool"
        }
      ],
      "stateMutability": "view",
      "type": "function"
    },
    {
      "inputs": [
        {
          "internalType": "uint16",
          "name": "_eventID",
          "type": "uint16"
        },
        {
          "internalType": "address[]",
          "name": "_adds",
          "type": "address[]"
        },
        {
          "internalType": "uint16",
          "name": "_indexBoxList",
          "type": "uint16"
        }
      ],
      "name": "mintBox",
      "outputs": [],
      "stateMutability": "nonpayable",
      "type": "function"
    },
    {
      "inputs": [],
      "name": "name",
      "outputs": [
        {
          "internalType": "string",
          "name": "",
          "type": "string"
        }
      ],
      "stateMutability": "view",
      "type": "function"
    },
    {
      "inputs": [
        {
          "internalType": "address",
          "name": "",
          "type": "address"
        },
        {
          "internalType": "address",
          "name": "",
          "type": "address"
        },
        {
          "internalType": "uint256",
          "name": "",
          "type": "uint256"
        },
        {
          "internalType": "bytes",
          "name": "",
          "type": "bytes"
        }
      ],
      "name": "onERC721Received",
      "outputs": [
        {
          "internalType": "bytes4",
          "name": "",
          "type": "bytes4"
        }
      ],
      "stateMutability": "nonpayable",
      "type": "function"
    },
    {
      "inputs": [],
      "name": "openAllBox",
      "outputs": [],
      "stateMutability": "nonpayable",
      "type": "function"
    },
    {
      "inputs": [
        {
          "internalType": "uint256",
          "name": "_boxId",
          "type": "uint256"
        },
        {
          "internalType": "uint16",
          "name": "_eventID",
          "type": "uint16"
        }
      ],
      "name": "openBox",
      "outputs": [],
      "stateMutability": "nonpayable",
      "type": "function"
    },
    {
      "inputs": [
        {
          "internalType": "uint256[]",
          "name": "nftIds",
          "type": "uint256[]"
        }
      ],
      "name": "openSelectedBox",
      "outputs": [],
      "stateMutability": "nonpayable",
      "type": "function"
    },
    {
      "inputs": [],
      "name": "owner",
      "outputs": [
        {
          "internalType": "address",
          "name": "",
          "type": "address"
        }
      ],
      "stateMutability": "view",
      "type": "function"
    },
    {
      "inputs": [
        {
          "internalType": "uint256",
          "name": "tokenId",
          "type": "uint256"
        }
      ],
      "name": "ownerOf",
      "outputs": [
        {
          "internalType": "address",
          "name": "",
          "type": "address"
        }
      ],
      "stateMutability": "view",
      "type": "function"
    },
    {
      "inputs": [
        {
          "internalType": "uint16",
          "name": "",
          "type": "uint16"
        }
      ],
      "name": "randomNumber",
      "outputs": [
        {
          "internalType": "uint256",
          "name": "",
          "type": "uint256"
        }
      ],
      "stateMutability": "view",
      "type": "function"
    },
    {
      "inputs": [],
      "name": "renounceOwnership",
      "outputs": [],
      "stateMutability": "nonpayable",
      "type": "function"
    },
    {
      "inputs": [
        {
          "internalType": "uint16",
          "name": "_eventID",
          "type": "uint16"
        }
      ],
      "name": "requestRandomNumber",
      "outputs": [],
      "stateMutability": "nonpayable",
      "type": "function"
    },
    {
      "inputs": [
        {
          "internalType": "address",
          "name": "from",
          "type": "address"
        },
        {
          "internalType": "address",
          "name": "to",
          "type": "address"
        },
        {
          "internalType": "uint256",
          "name": "tokenId",
          "type": "uint256"
        }
      ],
      "name": "safeTransferFrom",
      "outputs": [],
      "stateMutability": "nonpayable",
      "type": "function"
    },
    {
      "inputs": [
        {
          "internalType": "address",
          "name": "from",
          "type": "address"
        },
        {
          "internalType": "address",
          "name": "to",
          "type": "address"
        },
        {
          "internalType": "uint256",
          "name": "tokenId",
          "type": "uint256"
        },
        {
          "internalType": "bytes",
          "name": "data",
          "type": "bytes"
        }
      ],
      "name": "safeTransferFrom",
      "outputs": [],
      "stateMutability": "nonpayable",
      "type": "function"
    },
    {
      "inputs": [
        {
          "internalType": "bool",
          "name": "allow",
          "type": "bool"
        }
      ],
      "name": "setAllowTransfer",
      "outputs": [],
      "stateMutability": "nonpayable",
      "type": "function"
    },
    {
      "inputs": [
        {
          "internalType": "address",
          "name": "operator",
          "type": "address"
        },
        {
          "internalType": "bool",
          "name": "approved",
          "type": "bool"
        }
      ],
      "name": "setApprovalForAll",
      "outputs": [],
      "stateMutability": "nonpayable",
      "type": "function"
    },
    {
      "inputs": [
        {
          "internalType": "string",
          "name": "_uri",
          "type": "string"
        }
      ],
      "name": "setBaseURI",
      "outputs": [],
      "stateMutability": "nonpayable",
      "type": "function"
    },
    {
      "inputs": [
        {
          "internalType": "uint256",
          "name": "_startId",
          "type": "uint256"
        }
      ],
      "name": "setEventStartId",
      "outputs": [],
      "stateMutability": "nonpayable",
      "type": "function"
    },
    {
      "inputs": [
        {
          "internalType": "address",
          "name": "_fund",
          "type": "address"
        }
      ],
      "name": "setFundWallet",
      "outputs": [],
      "stateMutability": "nonpayable",
      "type": "function"
    },
    {
      "inputs": [
        {
          "internalType": "uint16",
          "name": "_eventID",
          "type": "uint16"
        },
        {
          "internalType": "uint256",
          "name": "_randomness",
          "type": "uint256"
        }
      ],
      "name": "setRandomNumber",
      "outputs": [],
      "stateMutability": "nonpayable",
      "type": "function"
    },
    {
      "inputs": [
        {
          "internalType": "address",
          "name": "_VRFContract",
          "type": "address"
        }
      ],
      "name": "setVRFContract",
      "outputs": [],
      "stateMutability": "nonpayable",
      "type": "function"
    },
    {
      "inputs": [
        {
          "internalType": "bytes4",
          "name": "interfaceId",
          "type": "bytes4"
        }
      ],
      "name": "supportsInterface",
      "outputs": [
        {
          "internalType": "bool",
          "name": "",
          "type": "bool"
        }
      ],
      "stateMutability": "view",
      "type": "function"
    },
    {
      "inputs": [],
      "name": "symbol",
      "outputs": [
        {
          "internalType": "string",
          "name": "",
          "type": "string"
        }
      ],
      "stateMutability": "view",
      "type": "function"
    },
    {
      "inputs": [
        {
          "internalType": "uint256",
          "name": "index",
          "type": "uint256"
        }
      ],
      "name": "tokenByIndex",
      "outputs": [
        {
          "internalType": "uint256",
          "name": "",
          "type": "uint256"
        }
      ],
      "stateMutability": "view",
      "type": "function"
    },
    {
      "inputs": [
        {
          "internalType": "address",
          "name": "owner",
          "type": "address"
        },
        {
          "internalType": "uint256",
          "name": "index",
          "type": "uint256"
        }
      ],
      "name": "tokenOfOwnerByIndex",
      "outputs": [
        {
          "internalType": "uint256",
          "name": "",
          "type": "uint256"
        }
      ],
      "stateMutability": "view",
      "type": "function"
    },
    {
      "inputs": [
        {
          "internalType": "uint256",
          "name": "tokenId",
          "type": "uint256"
        }
      ],
      "name": "tokenURI",
      "outputs": [
        {
          "internalType": "string",
          "name": "",
          "type": "string"
        }
      ],
      "stateMutability": "view",
      "type": "function"
    },
    {
      "inputs": [],
      "name": "totalSupply",
      "outputs": [
        {
          "internalType": "uint256",
          "name": "",
          "type": "uint256"
        }
      ],
      "stateMutability": "view",
      "type": "function"
    },
    {
      "inputs": [
        {
          "internalType": "address",
          "name": "from",
          "type": "address"
        },
        {
          "internalType": "address",
          "name": "to",
          "type": "address"
        },
        {
          "internalType": "uint256",
          "name": "tokenId",
          "type": "uint256"
        }
      ],
      "name": "transferFrom",
      "outputs": [],
      "stateMutability": "nonpayable",
      "type": "function"
    },
    {
      "inputs": [
        {
          "internalType": "address",
          "name": "newOwner",
          "type": "address"
        }
      ],
      "name": "transferOwnership",
      "outputs": [],
      "stateMutability": "nonpayable",
      "type": "function"
    },
    {
      "inputs": [
        {
          "internalType": "uint16",
          "name": "_eventID",
          "type": "uint16"
        },
        {
          "internalType": "uint16",
          "name": "_count",
          "type": "uint16"
        }
      ],
      "name": "updateBoxEventCount",
      "outputs": [],
      "stateMutability": "nonpayable",
      "type": "function"
    },
    {
      "inputs": [
        {
          "internalType": "uint16",
          "name": "_eventID",
          "type": "uint16"
        },
        {
          "internalType": "uint256",
          "name": "_price",
          "type": "uint256"
        },
        {
          "internalType": "address",
          "name": "_currency",
          "type": "address"
        }
      ],
      "name": "updateEventPriceInfo",
      "outputs": [],
      "stateMutability": "nonpayable",
      "type": "function"
    },
    {
      "inputs": [
        {
          "internalType": "uint16",
          "name": "_eventID",
          "type": "uint16"
        },
        {
          "internalType": "uint256",
          "name": "_startTime",
          "type": "uint256"
        },
        {
          "internalType": "uint256",
          "name": "_endTime",
          "type": "uint256"
        }
      ],
      "name": "updateEventTimeInfo",
      "outputs": [],
      "stateMutability": "nonpayable",
      "type": "function"
    },
    {
      "inputs": [
        {
          "internalType": "uint16",
          "name": "_eventID",
          "type": "uint16"
        },
        {
          "internalType": "uint16",
          "name": "_totalSupply",
          "type": "uint16"
        },
        {
          "internalType": "uint256",
          "name": "_startID",
          "type": "uint256"
        },
        {
          "internalType": "uint16",
          "name": "_maxBuy",
          "type": "uint16"
        }
      ],
      "name": "updateEventTotalSupplyInfo",
      "outputs": [],
      "stateMutability": "nonpayable",
      "type": "function"
    },
    {
      "inputs": [
        {
          "internalType": "uint16",
          "name": "_eventID",
          "type": "uint16"
        },
        {
          "internalType": "uint256",
          "name": "_openBoxTime",
          "type": "uint256"
        },
        {
          "internalType": "address",
          "name": "_nftContract",
          "type": "address"
        }
      ],
      "name": "updateOpenBoxInfo",
      "outputs": [],
      "stateMutability": "nonpayable",
      "type": "function"
    },
    {
      "inputs": [],
      "name": "uri",
      "outputs": [
        {
          "internalType": "string",
          "name": "",
          "type": "string"
        }
      ],
      "stateMutability": "view",
      "type": "function"
    },
    {
      "inputs": [
        {
          "internalType": "uint16",
          "name": "",
          "type": "uint16"
        },
        {
          "internalType": "address",
          "name": "",
          "type": "address"
        }
      ],
      "name": "userBought",
      "outputs": [
        {
          "internalType": "uint16",
          "name": "",
          "type": "uint16"
        }
      ],
      "stateMutability": "view",
      "type": "function"
    }
  ],
  "bytecode": "0x608060405234801561001057600080fd5b50614acf806100206000396000f3fe6080604052600436106103195760003560e01c8063664a1ad6116101ab578063a22cb465116100f7578063d6d5729811610095578063e84920761161006f578063e8492076146109d5578063e985e9c5146109f6578063eac989f814610a3f578063f2fde38b14610a5457600080fd5b8063d6d5729814610975578063da64630114610995578063dceba70d146109b557600080fd5b8063b9905e95116100d1578063b9905e95146108ba578063c87b56dd146108f7578063cec750ba14610917578063cfa4b15e1461094757600080fd5b8063a22cb46514610835578063b4f37d4114610855578063b88d4fde1461089a57600080fd5b806384b58cbe1161016457806395d89b411161013e57806395d89b41146107be5780639b08a22f146107d35780639d8c9241146107f55780639fcb5bf01461081557600080fd5b806384b58cbe14610769578063853b2b88146107805780638da5cb5b146107a057600080fd5b8063664a1ad6146106b157806370a08231146106d2578063715018a6146106f25780637574fd9d14610707578063775467d81461071c5780638218bec51461073c57600080fd5b80632f745c591161026a5780634f6ccce71161022357806355ce3b9a116101fd57806355ce3b9a1461063157806355f804b31461065157806362a82e32146106715780636352211e1461069157600080fd5b80634f6ccce7146105ba57806350567494146105da578063511beb6c1461061157600080fd5b80632f745c59146104fa5780633a79e60c1461051a57806342842e0e1461053a578063438599b91461055a5780634678a6ad1461057a57806347b834b21461059a57600080fd5b80630b81e216116102d757806318160ddd116102b157806318160ddd146104885780631a77646a146104a757806323b872dd146104ba5780632e1a53dc146104da57600080fd5b80630b81e2161461040f578063150b7a021461042f57806316b32fa91461046857600080fd5b80623782ae1461031e57806301ffc9a714610340578063045cc8b41461037557806306fdde0314610395578063081812fc146103b7578063095ea7b3146103ef575b600080fd5b34801561032a57600080fd5b5061033e610339366004614332565b610a74565b005b34801561034c57600080fd5b5061036061035b366004613fa7565b610aa4565b60405190151581526020015b60405180910390f35b34801561038157600080fd5b5061033e61039036600461443a565b610acf565b3480156103a157600080fd5b506103aa610b3d565b60405161036c919061469f565b3480156103c357600080fd5b506103d76103d236600461446c565b610bcf565b6040516001600160a01b03909116815260200161036c565b3480156103fb57600080fd5b5061033e61040a366004613f06565b610bf6565b34801561041b57600080fd5b5061033e61042a366004613f6f565b610d0c565b34801561043b57600080fd5b5061044f61044a366004613e57565b610d33565b6040516001600160e01b0319909116815260200161036c565b34801561047457600080fd5b5061033e6104833660046143ff565b610d44565b34801561049457600080fd5b5060cb545b60405190815260200161036c565b61033e6104b536600461435b565b610d8c565b3480156104c657600080fd5b5061033e6104d5366004613e1c565b6111c9565b3480156104e657600080fd5b5061033e6104f53660046141a1565b6111fa565b34801561050657600080fd5b50610499610515366004613f06565b6114ff565b34801561052657600080fd5b5061033e610535366004614484565b611595565b34801561054657600080fd5b5061033e610555366004613e1c565b6118d8565b34801561056657600080fd5b5061033e610575366004614150565b6118f3565b34801561058657600080fd5b5061033e61059536600461446c565b611989565b3480156105a657600080fd5b5061033e6105b5366004614248565b611997565b3480156105c657600080fd5b506104996105d536600461446c565b611c95565b3480156105e657600080fd5b506105fa6105f53660046140b8565b611d36565b60405161036c9b9a99989796959493929190614818565b34801561061d57600080fd5b5061033e61062c3660046143ff565b611e30565b34801561063d57600080fd5b5061033e61064c366004613dd0565b611ef4565b34801561065d57600080fd5b5061033e61066c366004613fdf565b611f1f565b34801561067d57600080fd5b5061033e61068c366004614012565b611f3f565b34801561069d57600080fd5b506103d76106ac36600461446c565b6120b5565b3480156106bd57600080fd5b50610167546103d7906001600160a01b031681565b3480156106de57600080fd5b506104996106ed366004613dd0565b612115565b3480156106fe57600080fd5b5061033e61219b565b34801561071357600080fd5b5061033e6121af565b34801561072857600080fd5b5061033e6107373660046143e4565b61228d565b34801561074857600080fd5b5061075c6107573660046140b8565b6122f6565b60405161036c9190614657565b34801561077557600080fd5b506104996101695481565b34801561078c57600080fd5b5061033e61079b366004613dd0565b61238f565b3480156107ac57600080fd5b506033546001600160a01b03166103d7565b3480156107ca57600080fd5b506103aa612403565b3480156107df57600080fd5b506101685461036090600160a01b900460ff1681565b34801561080157600080fd5b5061033e6108103660046143ff565b612412565b34801561082157600080fd5b5061033e6108303660046140b8565b61245a565b34801561084157600080fd5b5061033e610850366004613ed0565b61251e565b34801561086157600080fd5b5061088761087036600461446c565b6101636020526000908152604090205461ffff1681565b60405161ffff909116815260200161036c565b3480156108a657600080fd5b5061033e6108b5366004613e57565b612529565b3480156108c657600080fd5b506108876108d53660046140d2565b61016460209081526000928352604080842090915290825290205461ffff1681565b34801561090357600080fd5b506103aa61091236600461446c565b612561565b34801561092357600080fd5b50610937610932366004614332565b6125c8565b60405161036c94939291906147d4565b34801561095357600080fd5b506104996109623660046140b8565b6101656020526000908152604090205481565b34801561098157600080fd5b5061033e610990366004613f2f565b612716565b3480156109a157600080fd5b5061033e6109b03660046140ed565b6128a1565b3480156109c157600080fd5b5061033e6109d03660046143a3565b612bbe565b3480156109e157600080fd5b50610168546103d7906001600160a01b031681565b348015610a0257600080fd5b50610360610a11366004613dea565b6001600160a01b039182166000908152609c6020908152604080832093909416825291909152205460ff1690565b348015610a4b57600080fd5b506103aa612c04565b348015610a6057600080fd5b5061033e610a6f366004613dd0565b612c93565b610a7c612d0c565b61ffff918216600090815261016060205260409020600a01805461ffff191691909216179055565b60006001600160e01b0319821663780e9d6360e01b1480610ac95750610ac982612d66565b92915050565b610ad7612d0c565b808210610b1a5760405162461bcd60e51b815260206004820152600c60248201526b496e76616c69642074696d6560a01b60448201526064015b60405180910390fd5b61ffff909216600090815261016060205260409020600381019190915560040155565b606060978054610b4c906149a7565b80601f0160208091040260200160405190810160405280929190818152602001828054610b78906149a7565b8015610bc55780601f10610b9a57610100808354040283529160200191610bc5565b820191906000526020600020905b815481529060010190602001808311610ba857829003601f168201915b5050505050905090565b6000610bda82612db6565b506000908152609b60205260409020546001600160a01b031690565b6000610c01826120b5565b9050806001600160a01b0316836001600160a01b03161415610c6f5760405162461bcd60e51b815260206004820152602160248201527f4552433732313a20617070726f76616c20746f2063757272656e74206f776e656044820152603960f91b6064820152608401610b11565b336001600160a01b0382161480610c8b5750610c8b8133610a11565b610cfd5760405162461bcd60e51b815260206004820152603e60248201527f4552433732313a20617070726f76652063616c6c6572206973206e6f7420746f60448201527f6b656e206f776e6572206e6f7220617070726f76656420666f7220616c6c00006064820152608401610b11565b610d078383612e15565b505050565b610d14612d0c565b6101688054911515600160a01b0260ff60a01b19909216919091179055565b630a85bd0160e11b5b949350505050565b610d4c612d0c565b61ffff92909216600090815261016060205260409020600781019190915560080180546001600160a01b0319166001600160a01b03909216919091179055565b600261012d541415610db05760405162461bcd60e51b8152600401610b119061479d565b600261012d5561ffff80851660009081526101606020526040902090841615801590610e135750600581015461ffff86811660009081526101646020908152604080832033845290915290205491811691610e0c9116866148d9565b61ffff1611155b610e555760405162461bcd60e51b815260206004820152601360248201527214985d19481b1a5b5a5d08195e18d959591959606a1b6044820152606401610b11565b8060030154421015610ea05760405162461bcd60e51b815260206004820152601460248201527314d85b19481a185cc81b9bdd081cdd185c9d195960621b6044820152606401610b11565b8060040154421115610ee55760405162461bcd60e51b815260206004820152600e60248201526d14d85b19481a185cc8195b99195960921b6044820152606401610b11565b60028101546001600160a01b03838116911614610f345760405162461bcd60e51b815260206004820152600d60248201526c24b73b30b634b2103a37b5b2b760991b6044820152606401610b11565b61ffff808616600090815261016260209081526040808320878516845290915290208054909186811691610f719162010000820481169116614941565b61ffff161015610fae5760405162461bcd60e51b81526020600482015260086024820152671cdbdb19081bdd5d60c21b6044820152606401610b11565b60008561ffff168360010154610fc49190614922565b90506001600160a01b038416611013573481146110135760405162461bcd60e51b815260206004820152600d60248201526c696e76616c69642076616c756560981b6044820152606401610b11565b61101d8185612e83565b60005b8661ffff168161ffff16101561117e576006840154600a85015460009161104a9161ffff166148f6565b6110559060016148f6565b90506110613382612fc2565b600081815261016360209081526040808320805461ffff191661ffff8e8116918217909255845261016483528184203385529092528220805460019391926110ab918591166148d9565b92506101000a81548161ffff021916908361ffff160217905550600185600a0160008282829054906101000a900461ffff166110e791906148d9565b92506101000a81548161ffff021916908361ffff160217905550807f807186fc26183dbaa165b08a5a1ef847390de8fc3e5867072449abf1541e5175338b886009018860020189600101308c600101548d60020160009054906101000a90046001600160a01b03166040516111639897969594939291906145dc565b60405180910390a25080611176816149e2565b915050611020565b5081548690839060029061119d90849062010000900461ffff166148d9565b92506101000a81548161ffff021916908361ffff160217905550505050600161012d8190555050505050565b6111d33382612fdc565b6111ef5760405162461bcd60e51b8152600401610b119061474f565b610d0783838361305a565b611202612d0c565b848314801561121057508281145b61124d5760405162461bcd60e51b815260206004820152600e60248201526d2137bc103230ba309032b93937b960911b6044820152606401610b11565b6000805b61ffff81168711156112b45787878261ffff1681811061128157634e487b7160e01b600052603260045260246000fd5b905060200201602081019061129691906140b8565b6112a090836148d9565b9150806112ac816149e2565b915050611251565b5061ffff808916600090815261016060205260409020805490918381169116146113205760405162461bcd60e51b815260206004820152601f60248201527f5175616e74697479206e6f7420657175616c20746f74616c20737570706c79006044820152606401610b11565b60005b61ffff81168811156114f35760405180608001604052808a8a8461ffff1681811061135e57634e487b7160e01b600052603260045260246000fd5b905060200201602081019061137391906140b8565b61ffff168152602001600061ffff16815260200188888461ffff168181106113ab57634e487b7160e01b600052603260045260246000fd5b90506020028101906113bd9190614894565b8080601f016020809104026020016040519081016040528093929190818152602001838380828437600092019190915250505090825250602001868661ffff851681811061141b57634e487b7160e01b600052603260045260246000fd5b905060200281019061142d9190614894565b8080601f016020809104026020016040519081016040528093929190818152602001838380828437600092018290525093909452505061ffff808e16825261016260209081526040808420878416855282529283902085518154878401518516620100000263ffffffff1990911691909416179290921782559184015180519193506114c0926001850192910190613b8b565b50606082015180516114dc916002840191602090910190613b8b565b5090505080806114eb906149e2565b915050611323565b50505050505050505050565b600061150a83612115565b821061156c5760405162461bcd60e51b815260206004820152602b60248201527f455243373231456e756d657261626c653a206f776e657220696e646578206f7560448201526a74206f6620626f756e647360a81b6064820152608401610b11565b506001600160a01b0391909116600090815260c960209081526040808320938352929052205490565b6000828152610163602052604090205461ffff8281169116146115ed5760405162461bcd60e51b815260206004820152601060248201526f109bde081b9bdd081a5b88195d995b9d60821b6044820152606401610b11565b61ffff81166000908152610160602052604090203361160b846120b5565b6001600160a01b0316146116615760405162461bcd60e51b815260206004820152601a60248201527f55736572206d757374206265206f776e6572206f6620626f78210000000000006044820152606401610b11565b80600701544210156116b55760405162461bcd60e51b815260206004820152601860248201527f4f70656e20626f7820686173206e6f74207374617274656400000000000000006044820152606401610b11565b805461ffff8381166000908152610165602052604081205490926116da921690614a1f565b825490915060009061ffff166116f083876148f6565b6116fa9190614a1f565b61ffff85166000908152610161602090815260408083208054825181850281018501909352808352949550929390929183018282801561178157602002820191906000526020600020906000905b82829054906101000a900461ffff1661ffff16815260200190600201906020826001010492830192600103820291508084116117485790505b5050506008870154600688015484519495506001600160a01b039091169363d1194e2b93503392508590879081106117c957634e487b7160e01b600052603260045260246000fd5b602002602001015161ffff166117df91906148f6565b6040516001600160e01b031960e085901b1681526001600160a01b0390921660048301526024820152604401600060405180830381600087803b15801561182557600080fd5b505af1158015611839573d6000803e3d6000fd5b5050505061184686613201565b336001600160a01b03167f2e5f848d262c3b99f978597072ebbe85b3264ec5948b1c257aac786fdc13e7c387866006015484868151811061189757634e487b7160e01b600052603260045260246000fd5b602002602001015161ffff166118ad91906148f6565b60408051928352602083019190915261ffff89169082015260600160405180910390a2505050505050565b610d0783838360405180602001604052806000815250612529565b6118fb612d0c565b61ffff808416600090815261016060205260409020805490911682146119635760405162461bcd60e51b815260206004820152601f60248201527f426f78206c697374206e6f7420657175616c20746f74616c20737570706c79006044820152606401610b11565b61ffff8416600090815261016160205260409020611982908484613c0f565b5050505050565b611991612d0c565b61016955565b61199f612d0c565b60008861ffff16116119e45760405162461bcd60e51b815260206004820152600e60248201526d496e76616c696420537570706c7960901b6044820152606401610b11565b838510611a225760405162461bcd60e51b815260206004820152600c60248201526b496e76616c69642074696d6560a01b6044820152606401610b11565b60008361ffff1611611a695760405162461bcd60e51b815260206004820152601060248201526f4e65656420736574206d61782062757960801b6044820152606401610b11565b6040518061016001604052808961ffff168152602001888152602001876001600160a01b031681526020018681526020018581526020018461ffff168152602001610169548152602001838152602001826001600160a01b031681526020018b8b8080601f0160208091040260200160405190810160405280939291908181526020018383808284376000920182905250938552505050602091820181905261ffff8e8116825261016083526040918290208451815490831661ffff19918216178255858501516001830155928501516002820180546001600160a01b039283166001600160a01b031991821617909155606087015160038401556080870151600484015560a08701516005840180549190951695169490941790925560c0850151600682015560e0850151600782015561010085015160088201805491909316931692909217905561012083015180519192611bce92600985019290910190613b8b565b506101409190910151600a909101805461ffff191661ffff9283161790556101698054918a1691600090611c039084906148f6565b9091555050610169546040805161ffff8b81168252602082018b90526001600160a01b038a811683850152606083018a90526080830189905290871660a083015260c082019390935260e08101859052918316610100830152517f30d207594d35714ecee63eda09ddb9d6aef14ea9ffe923ea5bd1d17f6f9c2b37918190036101200190a15050505050505050505050565b6000611ca060cb5490565b8210611d035760405162461bcd60e51b815260206004820152602c60248201527f455243373231456e756d657261626c653a20676c6f62616c20696e646578206f60448201526b7574206f6620626f756e647360a01b6064820152608401610b11565b60cb8281548110611d2457634e487b7160e01b600052603260045260246000fd5b90600052602060002001549050919050565b61016060205260009081526040902080546001820154600283015460038401546004850154600586015460068701546007880154600889015460098a01805461ffff9a8b169b999a6001600160a01b03998a169a98999798961696949593949092169291611da3906149a7565b80601f0160208091040260200160405190810160405280929190818152602001828054611dcf906149a7565b8015611e1c5780601f10611df157610100808354040283529160200191611e1c565b820191906000526020600020905b815481529060010190602001808311611dff57829003601f168201915b505050600a909301549192505061ffff168b565b611e38612d0c565b600261012d541415611e5c5760405162461bcd60e51b8152600401610b119061479d565b600261012d5561ffff8316600090815261016060205260409081902060088101549151632142170760e11b81523060048201526001600160a01b03848116602483015260448201869052919291909116906342842e0e90606401600060405180830381600087803b158015611ed057600080fd5b505af1158015611ee4573d6000803e3d6000fd5b5050600161012d55505050505050565b611efc612d0c565b61016780546001600160a01b0319166001600160a01b0392909216919091179055565b611f27612d0c565b8051611f3b90610166906020840190613b8b565b5050565b600054610100900460ff1615808015611f5f5750600054600160ff909116105b80611f795750303b158015611f79575060005460ff166001145b611fdc5760405162461bcd60e51b815260206004820152602e60248201527f496e697469616c697a61626c653a20636f6e747261637420697320616c72656160448201526d191e481a5b9a5d1a585b1a5e995960921b6064820152608401610b11565b6000805460ff191660011790558015611fff576000805461ff0019166101001790555b6120076132a8565b61201186866132d7565b835161202590610166906020870190613b8b565b5061016780546001600160a01b038086166001600160a01b03199092169190911790915561016880546001600160a81b03191691841691909117905560006101695580156120ad576000805461ff0019169055604051600181527f7f26b83ff96e1f2b6a682f133852f6798a09c465da95921460cefb38474024989060200160405180910390a15b505050505050565b6000818152609960205260408120546001600160a01b031680610ac95760405162461bcd60e51b8152602060048201526018602482015277115490cdcc8c4e881a5b9d985b1a59081d1bdad95b88125160421b6044820152606401610b11565b60006001600160a01b03821661217f5760405162461bcd60e51b815260206004820152602960248201527f4552433732313a2061646472657373207a65726f206973206e6f7420612076616044820152683634b21037bbb732b960b91b6064820152608401610b11565b506001600160a01b03166000908152609a602052604090205490565b6121a3612d0c565b6121ad6000613308565b565b600261012d5414156121d35760405162461bcd60e51b8152600401610b119061479d565b600261012d5560006121e433612115565b9050600081116122365760405162461bcd60e51b815260206004820152601960248201527f55736572206e6f74206f776e6572206f6620616e7920626f78000000000000006044820152606401610b11565b60005b8181101561228357600061224e3360006114ff565b6000818152610163602052604090205490915061227090829061ffff16611595565b508061227b81614a04565b915050612239565b5050600161012d55565b610168546001600160a01b031633146122de5760405162461bcd60e51b815260206004820152601360248201527215949190dbdb9d1c9858dd081a5b9d985b1a59606a1b6044820152606401610b11565b61ffff90911660009081526101656020526040902055565b6060612300612d0c565b61ffff8216600090815261016160209081526040918290208054835181840281018401909452808452909183018282801561238257602002820191906000526020600020906000905b82829054906101000a900461ffff1661ffff16815260200190600201906020826001010492830192600103820291508084116123495790505b505050505090505b919050565b612397612d0c565b6001600160a01b0381166123e05760405162461bcd60e51b815260206004820152601060248201526f125b9d985b1a590818dbdb9d1c9858dd60821b6044820152606401610b11565b61016880546001600160a01b0319166001600160a01b0392909216919091179055565b606060988054610b4c906149a7565b61241a612d0c565b61ffff92909216600090815261016060205260409020600181019190915560020180546001600160a01b0319166001600160a01b03909216919091179055565b612462612d0c565b61ffff8116600090815261016060205260409020600781015442106124c05760405162461bcd60e51b815260206004820152601460248201527313dc195b88189bde081a185cc81cdd185c9d195960621b6044820152606401610b11565b61016854604051631f14c64f60e01b815261ffff841660048201526001600160a01b0390911690631f14c64f90602401600060405180830381600087803b15801561250a57600080fd5b505af11580156120ad573d6000803e3d6000fd5b611f3b33838361335a565b6125333383612fdc565b61254f5760405162461bcd60e51b8152600401610b119061474f565b61255b84848484613429565b50505050565b606061256c82612db6565b600061257661345c565b9050600081511161259657604051806020016040528060008152506125c1565b806125a08461346c565b6040516020016125b1929190614570565b6040516020818303038152906040525b9392505050565b6101626020908152600092835260408084209091529082529020805460018201805461ffff808416946201000090940416929190612605906149a7565b80601f0160208091040260200160405190810160405280929190818152602001828054612631906149a7565b801561267e5780601f106126535761010080835404028352916020019161267e565b820191906000526020600020905b81548152906001019060200180831161266157829003601f168201915b505050505090806002018054612693906149a7565b80601f01602080910402602001604051908101604052809291908181526020018280546126bf906149a7565b801561270c5780601f106126e15761010080835404028352916020019161270c565b820191906000526020600020905b8154815290600101906020018083116126ef57829003601f168201915b5050505050905084565b600261012d54141561273a5760405162461bcd60e51b8152600401610b119061479d565b600261012d55806127815760405162461bcd60e51b81526020600482015260116024820152704e6f74206f70656e20616e7920626f783f60781b6044820152606401610b11565b60005b8181101561289657336127bc8484848181106127b057634e487b7160e01b600052603260045260246000fd5b905060200201356120b5565b6001600160a01b0316146128125760405162461bcd60e51b815260206004820152601a60248201527f55736572206d757374206265206f776e6572206f6620626f78210000000000006044820152606401610b11565b61288483838381811061283557634e487b7160e01b600052603260045260246000fd5b90506020020135610163600086868681811061286157634e487b7160e01b600052603260045260246000fd5b602090810292909201358352508101919091526040016000205461ffff16611595565b8061288e81614a04565b915050612784565b5050600161012d5550565b6128a9612d0c565b600261012d5414156128cd5760405162461bcd60e51b8152600401610b119061479d565b600261012d5561ffff8085166000908152610160602090815260408083206101628352818420868616855290925290912080549192909185916129199162010000810482169116614941565b61ffff1610156129565760405162461bcd60e51b81526020600482015260086024820152671cdbdb19081bdd5d60c21b6044820152606401610b11565b60005b61ffff8116851115612b74576006830154600a84015460009161297f9161ffff166148f6565b61298a9060016148f6565b90506129ce87878461ffff168181106129b357634e487b7160e01b600052603260045260246000fd5b90506020020160208101906129c89190613dd0565b82612fc2565b600081815261016360209081526040808320805461ffff191661ffff8d81169182179092558452610164909252822060019290918a908a908716818110612a2557634e487b7160e01b600052603260045260246000fd5b9050602002016020810190612a3a9190613dd0565b6001600160a01b03168152602081019190915260400160009081208054909190612a6990849061ffff166148d9565b92506101000a81548161ffff021916908361ffff160217905550600184600a0160008282829054906101000a900461ffff16612aa591906148d9565b92506101000a81548161ffff021916908361ffff160217905550807f807186fc26183dbaa165b08a5a1ef847390de8fc3e5867072449abf1541e517588888561ffff16818110612b0557634e487b7160e01b600052603260045260246000fd5b9050602002016020810190612b1a9190613dd0565b8a876009018760020188600101308b600101548c60020160009054906101000a90046001600160a01b0316604051612b599897969594939291906145dc565b60405180910390a25080612b6c816149e2565b915050612959565b50805484908290600290612b9390849062010000900461ffff166148d9565b92506101000a81548161ffff021916908361ffff1602179055505050600161012d8190555050505050565b612bc6612d0c565b61ffff938416600090815261016060205260409020805493851661ffff19948516178155600681019290925560059091018054919093169116179055565b6101668054612c12906149a7565b80601f0160208091040260200160405190810160405280929190818152602001828054612c3e906149a7565b8015612c8b5780601f10612c6057610100808354040283529160200191612c8b565b820191906000526020600020905b815481529060010190602001808311612c6e57829003601f168201915b505050505081565b612c9b612d0c565b6001600160a01b038116612d005760405162461bcd60e51b815260206004820152602660248201527f4f776e61626c653a206e6577206f776e657220697320746865207a65726f206160448201526564647265737360d01b6064820152608401610b11565b612d0981613308565b50565b6033546001600160a01b031633146121ad5760405162461bcd60e51b815260206004820181905260248201527f4f776e61626c653a2063616c6c6572206973206e6f7420746865206f776e65726044820152606401610b11565b60006001600160e01b031982166380ac58cd60e01b1480612d9757506001600160e01b03198216635b5e139f60e01b145b80610ac957506301ffc9a760e01b6001600160e01b0319831614610ac9565b6000818152609960205260409020546001600160a01b0316612d095760405162461bcd60e51b8152602060048201526018602482015277115490cdcc8c4e881a5b9d985b1a59081d1bdad95b88125160421b6044820152606401610b11565b6000818152609b6020526040902080546001600160a01b0319166001600160a01b0384169081179091558190612e4a826120b5565b6001600160a01b03167f8c5be1e5ebec7d5bd14f71427d1e84f3dd0314c0f7b2291e5b200ac8c7c3b92560405160405180910390a45050565b6001600160a01b038116612f3557610167546040516000916001600160a01b03169084908381818185875af1925050503d8060008114612edf576040519150601f19603f3d011682016040523d82523d6000602084013e612ee4565b606091505b5050905080610d075760405162461bcd60e51b815260206004820152601a60248201527f5472616e73666572206661696c65643a20676173206572726f720000000000006044820152606401610b11565b610167546040516323b872dd60e01b81523360048201526001600160a01b03918216602482015260448101849052908216906323b872dd90606401602060405180830381600087803b158015612f8a57600080fd5b505af1158015612f9e573d6000803e3d6000fd5b505050506040513d601f19601f82011682018060405250810190610d079190613f8b565b611f3b828260405180602001604052806000815250613586565b600080612fe8836120b5565b9050806001600160a01b0316846001600160a01b0316148061302f57506001600160a01b038082166000908152609c602090815260408083209388168352929052205460ff165b80610d3c5750836001600160a01b031661304884610bcf565b6001600160a01b031614949350505050565b826001600160a01b031661306d826120b5565b6001600160a01b0316146130d15760405162461bcd60e51b815260206004820152602560248201527f4552433732313a207472616e736665722066726f6d20696e636f72726563742060448201526437bbb732b960d91b6064820152608401610b11565b6001600160a01b0382166131335760405162461bcd60e51b8152602060048201526024808201527f4552433732313a207472616e7366657220746f20746865207a65726f206164646044820152637265737360e01b6064820152608401610b11565b61313e8383836135b9565b613149600082612e15565b6001600160a01b0383166000908152609a60205260408120805460019290613172908490614964565b90915550506001600160a01b0382166000908152609a602052604081208054600192906131a09084906148f6565b909155505060008181526099602052604080822080546001600160a01b0319166001600160a01b0386811691821790925591518493918716917fddf252ad1be2c89b69c2b068fc378daa952ba7f163c4a11628f55a4df523b3ef91a4505050565b600061320c826120b5565b905061321a816000846135b9565b613225600083612e15565b6001600160a01b0381166000908152609a6020526040812080546001929061324e908490614964565b909155505060008281526099602052604080822080546001600160a01b0319169055518391906001600160a01b038416907fddf252ad1be2c89b69c2b068fc378daa952ba7f163c4a11628f55a4df523b3ef908390a45050565b600054610100900460ff166132cf5760405162461bcd60e51b8152600401610b1190614704565b6121ad613643565b600054610100900460ff166132fe5760405162461bcd60e51b8152600401610b1190614704565b611f3b8282613673565b603380546001600160a01b038381166001600160a01b0319831681179093556040519116919082907f8be0079c531659141344cd1fd0a4f28419497f9722a3daafe3b4186f6b6457e090600090a35050565b816001600160a01b0316836001600160a01b031614156133bc5760405162461bcd60e51b815260206004820152601960248201527f4552433732313a20617070726f766520746f2063616c6c6572000000000000006044820152606401610b11565b6001600160a01b038381166000818152609c6020908152604080832094871680845294825291829020805460ff191686151590811790915591519182527f17307eab39ab6107e8899845ad3d59bd9653f200f220920489ca2b5937696c31910160405180910390a3505050565b61343484848461305a565b613440848484846136c1565b61255b5760405162461bcd60e51b8152600401610b11906146b2565b60606101668054610b4c906149a7565b6060816134905750506040805180820190915260018152600360fc1b602082015290565b8160005b81156134ba57806134a481614a04565b91506134b39050600a8361490e565b9150613494565b60008167ffffffffffffffff8111156134e357634e487b7160e01b600052604160045260246000fd5b6040519080825280601f01601f19166020018201604052801561350d576020820181803683370190505b5090505b8415610d3c57613522600183614964565b915061352f600a86614a1f565b61353a9060306148f6565b60f81b81838151811061355d57634e487b7160e01b600052603260045260246000fd5b60200101906001600160f81b031916908160001a90535061357f600a8661490e565b9450613511565b61359083836137cb565b61359d60008484846136c1565b610d075760405162461bcd60e51b8152600401610b11906146b2565b6001600160a01b038316158015906135d957506001600160a01b03821615155b156136385761016854600160a01b900460ff166136385760405162461bcd60e51b815260206004820152601e60248201527f426f78206973206e6f7420616c6c6f77656420746f207472616e7366657200006044820152606401610b11565b610d07838383613919565b600054610100900460ff1661366a5760405162461bcd60e51b8152600401610b1190614704565b6121ad33613308565b600054610100900460ff1661369a5760405162461bcd60e51b8152600401610b1190614704565b81516136ad906097906020850190613b8b565b508051610d07906098906020840190613b8b565b60006001600160a01b0384163b156137c357604051630a85bd0160e11b81526001600160a01b0385169063150b7a029061370590339089908890889060040161459f565b602060405180830381600087803b15801561371f57600080fd5b505af192505050801561374f575060408051601f3d908101601f1916820190925261374c91810190613fc3565b60015b6137a9573d80801561377d576040519150601f19603f3d011682016040523d82523d6000602084013e613782565b606091505b5080516137a15760405162461bcd60e51b8152600401610b11906146b2565b805181602001fd5b6001600160e01b031916630a85bd0160e11b149050610d3c565b506001610d3c565b6001600160a01b0382166138215760405162461bcd60e51b815260206004820181905260248201527f4552433732313a206d696e7420746f20746865207a65726f20616464726573736044820152606401610b11565b6000818152609960205260409020546001600160a01b0316156138865760405162461bcd60e51b815260206004820152601c60248201527f4552433732313a20746f6b656e20616c7265616479206d696e746564000000006044820152606401610b11565b613892600083836135b9565b6001600160a01b0382166000908152609a602052604081208054600192906138bb9084906148f6565b909155505060008181526099602052604080822080546001600160a01b0319166001600160a01b03861690811790915590518392907fddf252ad1be2c89b69c2b068fc378daa952ba7f163c4a11628f55a4df523b3ef908290a45050565b6001600160a01b0383166139745761396f8160cb8054600083815260cc60205260408120829055600182018355919091527fa7ce836d032b2bf62b7e2097a8e0a6d8aeb35405ad15271e96d3b0188a1d06fb0155565b613997565b816001600160a01b0316836001600160a01b0316146139975761399783826139d1565b6001600160a01b0382166139ae57610d0781613a6e565b826001600160a01b0316826001600160a01b031614610d0757610d078282613b47565b600060016139de84612115565b6139e89190614964565b600083815260ca6020526040902054909150808214613a3b576001600160a01b038416600090815260c960209081526040808320858452825280832054848452818420819055835260ca90915290208190555b50600091825260ca602090815260408084208490556001600160a01b03909416835260c981528383209183525290812055565b60cb54600090613a8090600190614964565b600083815260cc602052604081205460cb8054939450909284908110613ab657634e487b7160e01b600052603260045260246000fd5b906000526020600020015490508060cb8381548110613ae557634e487b7160e01b600052603260045260246000fd5b600091825260208083209091019290925582815260cc909152604080822084905585825281205560cb805480613b2b57634e487b7160e01b600052603160045260246000fd5b6001900381819060005260206000200160009055905550505050565b6000613b5283612115565b6001600160a01b03909316600090815260c960209081526040808320868452825280832085905593825260ca9052919091209190915550565b828054613b97906149a7565b90600052602060002090601f016020900481019282613bb95760008555613bff565b82601f10613bd257805160ff1916838001178555613bff565b82800160010185558215613bff579182015b82811115613bff578251825591602001919060010190613be4565b50613c0b929150613cb3565b5090565b82805482825590600052602060002090600f01601090048101928215613bff5791602002820160005b83821115613c7c57833561ffff1683826101000a81548161ffff021916908361ffff1602179055509260200192600201602081600101049283019260010302613c38565b8015613caa5782816101000a81549061ffff0219169055600201602081600101049283019260010302613c7c565b5050613c0b9291505b5b80821115613c0b5760008155600101613cb4565b600067ffffffffffffffff80841115613ce357613ce3614a5f565b604051601f8501601f19908116603f01168101908282118183101715613d0b57613d0b614a5f565b81604052809350858152868686011115613d2457600080fd5b858560208301376000602087830101525050509392505050565b80356001600160a01b038116811461238a57600080fd5b60008083601f840112613d66578081fd5b50813567ffffffffffffffff811115613d7d578182fd5b6020830191508360208260051b8501011115613d9857600080fd5b9250929050565b600082601f830112613daf578081fd5b6125c183833560208501613cc8565b803561ffff8116811461238a57600080fd5b600060208284031215613de1578081fd5b6125c182613d3e565b60008060408385031215613dfc578081fd5b613e0583613d3e565b9150613e1360208401613d3e565b90509250929050565b600080600060608486031215613e30578081fd5b613e3984613d3e565b9250613e4760208501613d3e565b9150604084013590509250925092565b60008060008060808587031215613e6c578081fd5b613e7585613d3e565b9350613e8360208601613d3e565b925060408501359150606085013567ffffffffffffffff811115613ea5578182fd5b8501601f81018713613eb5578182fd5b613ec487823560208401613cc8565b91505092959194509250565b60008060408385031215613ee2578182fd5b613eeb83613d3e565b91506020830135613efb81614a75565b809150509250929050565b60008060408385031215613f18578182fd5b613f2183613d3e565b946020939093013593505050565b60008060208385031215613f41578182fd5b823567ffffffffffffffff811115613f57578283fd5b613f6385828601613d55565b90969095509350505050565b600060208284031215613f80578081fd5b81356125c181614a75565b600060208284031215613f9c578081fd5b81516125c181614a75565b600060208284031215613fb8578081fd5b81356125c181614a83565b600060208284031215613fd4578081fd5b81516125c181614a83565b600060208284031215613ff0578081fd5b813567ffffffffffffffff811115614006578182fd5b610d3c84828501613d9f565b600080600080600060a08688031215614029578283fd5b853567ffffffffffffffff80821115614040578485fd5b61404c89838a01613d9f565b96506020880135915080821115614061578485fd5b61406d89838a01613d9f565b95506040880135915080821115614082578485fd5b5061408f88828901613d9f565b93505061409e60608701613d3e565b91506140ac60808701613d3e565b90509295509295909350565b6000602082840312156140c9578081fd5b6125c182613dbe565b600080604083850312156140e4578182fd5b613e0583613dbe565b60008060008060608587031215614102578182fd5b61410b85613dbe565b9350602085013567ffffffffffffffff811115614126578283fd5b61413287828801613d55565b9094509250614145905060408601613dbe565b905092959194509250565b600080600060408486031215614164578081fd5b61416d84613dbe565b9250602084013567ffffffffffffffff811115614188578182fd5b61419486828701613d55565b9497909650939450505050565b60008060008060008060006080888a0312156141bb578485fd5b6141c488613dbe565b9650602088013567ffffffffffffffff808211156141e0578687fd5b6141ec8b838c01613d55565b909850965060408a0135915080821115614204578384fd5b6142108b838c01613d55565b909650945060608a0135915080821115614228578384fd5b506142358a828b01613d55565b989b979a50959850939692959293505050565b60008060008060008060008060008060006101408c8e031215614269578485fd5b6142728c613dbe565b9a5060208c013567ffffffffffffffff8082111561428e578687fd5b818e0191508e601f8301126142a1578687fd5b8135818111156142af578788fd5b8f60208285010111156142c0578788fd5b602083019c50809b505050506142d860408d01613dbe565b975060608c013596506142ed60808d01613d3e565b955060a08c0135945060c08c0135935061430960e08d01613dbe565b92506101008c013591506143206101208d01613d3e565b90509295989b509295989b9093969950565b60008060408385031215614344578182fd5b61434d83613dbe565b9150613e1360208401613dbe565b60008060008060808587031215614370578182fd5b61437985613dbe565b935061438760208601613dbe565b925061439560408601613dbe565b915061414560608601613d3e565b600080600080608085870312156143b8578182fd5b6143c185613dbe565b93506143cf60208601613dbe565b92506040850135915061414560608601613dbe565b600080604083850312156143f6578182fd5b613f2183613dbe565b600080600060608486031215614413578081fd5b61441c84613dbe565b92506020840135915061443160408501613d3e565b90509250925092565b60008060006060848603121561444e578081fd5b61445784613dbe565b95602085013595506040909401359392505050565b60006020828403121561447d578081fd5b5035919050565b60008060408385031215614496578182fd5b82359150613e1360208401613dbe565b600081518084526144be81602086016020860161497b565b601f01601f19169290920160200192915050565b8054600090600181811c90808316806144ec57607f831692505b602080841082141561450c57634e487b7160e01b86526022600452602486fd5b83885260208801828015614527576001811461453857614563565b60ff19871682528282019750614563565b60008981526020902060005b8781101561455d57815484820152908601908401614544565b83019850505b5050505050505092915050565b6000835161458281846020880161497b565b83519083019061459681836020880161497b565b01949350505050565b6001600160a01b03858116825284166020820152604081018390526080606082018190526000906145d2908301846144a6565b9695505050505050565b6001600160a01b03898116825261ffff891660208301526101006040830181905260009161460c8483018b6144d2565b91508382036060850152614620828a6144d2565b9150838203608085015261463482896144d2565b96811660a085015260c08401959095525050911660e09091015295945050505050565b6020808252825182820181905260009190848201906040850190845b8181101561469357835161ffff1683529284019291840191600101614673565b50909695505050505050565b6020815260006125c160208301846144a6565b60208082526032908201527f4552433732313a207472616e7366657220746f206e6f6e20455243373231526560408201527131b2b4bb32b91034b6b83632b6b2b73a32b960711b606082015260800190565b6020808252602b908201527f496e697469616c697a61626c653a20636f6e7472616374206973206e6f74206960408201526a6e697469616c697a696e6760a81b606082015260800190565b6020808252602e908201527f4552433732313a2063616c6c6572206973206e6f7420746f6b656e206f776e6560408201526d1c881b9bdc88185c1c1c9bdd995960921b606082015260800190565b6020808252601f908201527f5265656e7472616e637947756172643a207265656e7472616e742063616c6c00604082015260600190565b600061ffff8087168352808616602084015250608060408301526147fb60808301856144a6565b828103606084015261480d81856144a6565b979650505050505050565b600061016061ffff808f1684528d602085015260018060a01b03808e1660408601528c60608601528b6080860152818b1660a08601528960c08601528860e08601528088166101008601525081610120850152614877828501876144a6565b925080851661014085015250509c9b505050505050505050505050565b6000808335601e198436030181126148aa578283fd5b83018035915067ffffffffffffffff8211156148c4578283fd5b602001915036819003821315613d9857600080fd5b600061ffff80831681851680830382111561459657614596614a33565b6000821982111561490957614909614a33565b500190565b60008261491d5761491d614a49565b500490565b600081600019048311821515161561493c5761493c614a33565b500290565b600061ffff8381169083168181101561495c5761495c614a33565b039392505050565b60008282101561497657614976614a33565b500390565b60005b8381101561499657818101518382015260200161497e565b8381111561255b5750506000910152565b600181811c908216806149bb57607f821691505b602082108114156149dc57634e487b7160e01b600052602260045260246000fd5b50919050565b600061ffff808316818114156149fa576149fa614a33565b6001019392505050565b6000600019821415614a1857614a18614a33565b5060010190565b600082614a2e57614a2e614a49565b500690565b634e487b7160e01b600052601160045260246000fd5b634e487b7160e01b600052601260045260246000fd5b634e487b7160e01b600052604160045260246000fd5b8015158114612d0957600080fd5b6001600160e01b031981168114612d0957600080fdfea26469706673582212206b59ee65df88d1993324efee86c489cf63024f1634d36987927031bb5643f4c964736f6c63430008040033",
  "linkReferences": {},
  "deployedLinkReferences": {}
}