{
  "_format": "hh-sol-artifact-1",
  "contractName": "PickWinner",
  "sourceName": "contracts/PickPredictWinner.sol",
  "abi": [
    {
      "inputs": [],
      "stateMutability": "nonpayable",
      "type": "constructor"
    },
    {
      "anonymous": false,
      "inputs": [
        {
          "indexed": true,
          "internalType": "address",
          "name": "from",
          "type": "address"
        },
        {
          "indexed": true,
          "internalType": "address",
          "name": "to",
          "type": "address"
        }
      ],
      "name": "OwnershipTransferRequested",
      "type": "event"
    },
    {
      "anonymous": false,
      "inputs": [
        {
          "indexed": true,
          "internalType": "address",
          "name": "from",
          "type": "address"
        },
        {
          "indexed": true,
          "internalType": "address",
          "name": "to",
          "type": "address"
        }
      ],
      "name": "OwnershipTransferred",
      "type": "event"
    },
    {
      "anonymous": false,
      "inputs": [
        {
          "indexed": false,
          "internalType": "bytes32",
          "name": "requestId",
          "type": "bytes32"
        },
        {
          "indexed": false,
          "internalType": "uint256",
          "name": "matchID",
          "type": "uint256"
        },
        {
          "indexed": false,
          "internalType": "uint256",
          "name": "result",
          "type": "uint256"
        },
        {
          "indexed": false,
          "internalType": "address",
          "name": "winner",
          "type": "address"
        }
      ],
      "name": "ReceiveRandomNumber",
      "type": "event"
    },
    {
      "anonymous": false,
      "inputs": [
        {
          "indexed": false,
          "internalType": "bytes32",
          "name": "requestId",
          "type": "bytes32"
        },
        {
          "indexed": false,
          "internalType": "uint16",
          "name": "matchID",
          "type": "uint16"
        }
      ],
      "name": "RequestRandomNumber",
      "type": "event"
    },
    {
      "anonymous": false,
      "inputs": [
        {
          "indexed": true,
          "internalType": "bytes32",
          "name": "role",
          "type": "bytes32"
        },
        {
          "indexed": true,
          "internalType": "bytes32",
          "name": "previousAdminRole",
          "type": "bytes32"
        },
        {
          "indexed": true,
          "internalType": "bytes32",
          "name": "newAdminRole",
          "type": "bytes32"
        }
      ],
      "name": "RoleAdminChanged",
      "type": "event"
    },
    {
      "anonymous": false,
      "inputs": [
        {
          "indexed": true,
          "internalType": "bytes32",
          "name": "role",
          "type": "bytes32"
        },
        {
          "indexed": true,
          "internalType": "address",
          "name": "account",
          "type": "address"
        },
        {
          "indexed": true,
          "internalType": "address",
          "name": "sender",
          "type": "address"
        }
      ],
      "name": "RoleGranted",
      "type": "event"
    },
    {
      "anonymous": false,
      "inputs": [
        {
          "indexed": true,
          "internalType": "bytes32",
          "name": "role",
          "type": "bytes32"
        },
        {
          "indexed": true,
          "internalType": "address",
          "name": "account",
          "type": "address"
        },
        {
          "indexed": true,
          "internalType": "address",
          "name": "sender",
          "type": "address"
        }
      ],
      "name": "RoleRevoked",
      "type": "event"
    },
    {
      "inputs": [],
      "name": "DEFAULT_ADMIN_ROLE",
      "outputs": [
        {
          "internalType": "bytes32",
          "name": "",
          "type": "bytes32"
        }
      ],
      "stateMutability": "view",
      "type": "function"
    },
    {
      "inputs": [],
      "name": "acceptOwnership",
      "outputs": [],
      "stateMutability": "nonpayable",
      "type": "function"
    },
    {
      "inputs": [
        {
          "internalType": "uint16",
          "name": "_matchID",
          "type": "uint16"
        }
      ],
      "name": "getRandomNumber",
      "outputs": [],
      "stateMutability": "nonpayable",
      "type": "function"
    },
    {
      "inputs": [
        {
          "internalType": "bytes32",
          "name": "role",
          "type": "bytes32"
        }
      ],
      "name": "getRoleAdmin",
      "outputs": [
        {
          "internalType": "bytes32",
          "name": "",
          "type": "bytes32"
        }
      ],
      "stateMutability": "view",
      "type": "function"
    },
    {
      "inputs": [
        {
          "internalType": "uint16",
          "name": "_matchID",
          "type": "uint16"
        }
      ],
      "name": "getWinnerInMatch",
      "outputs": [
        {
          "internalType": "address[]",
          "name": "",
          "type": "address[]"
        }
      ],
      "stateMutability": "view",
      "type": "function"
    },
    {
      "inputs": [
        {
          "internalType": "bytes32",
          "name": "role",
          "type": "bytes32"
        },
        {
          "internalType": "address",
          "name": "account",
          "type": "address"
        }
      ],
      "name": "grantRole",
      "outputs": [],
      "stateMutability": "nonpayable",
      "type": "function"
    },
    {
      "inputs": [
        {
          "internalType": "bytes32",
          "name": "role",
          "type": "bytes32"
        },
        {
          "internalType": "address",
          "name": "account",
          "type": "address"
        }
      ],
      "name": "hasRole",
      "outputs": [
        {
          "internalType": "bool",
          "name": "",
          "type": "bool"
        }
      ],
      "stateMutability": "view",
      "type": "function"
    },
    {
      "inputs": [
        {
          "internalType": "uint16",
          "name": "",
          "type": "uint16"
        },
        {
          "internalType": "uint256",
          "name": "",
          "type": "uint256"
        }
      ],
      "name": "listWinnerByMatch",
      "outputs": [
        {
          "internalType": "address",
          "name": "",
          "type": "address"
        }
      ],
      "stateMutability": "view",
      "type": "function"
    },
    {
      "inputs": [],
      "name": "owner",
      "outputs": [
        {
          "internalType": "address",
          "name": "",
          "type": "address"
        }
      ],
      "stateMutability": "view",
      "type": "function"
    },
    {
      "inputs": [],
      "name": "pickCount",
      "outputs": [
        {
          "internalType": "uint256",
          "name": "",
          "type": "uint256"
        }
      ],
      "stateMutability": "view",
      "type": "function"
    },
    {
      "inputs": [],
      "name": "randoomm",
      "outputs": [
        {
          "internalType": "uint256",
          "name": "",
          "type": "uint256"
        }
      ],
      "stateMutability": "view",
      "type": "function"
    },
    {
      "inputs": [
        {
          "internalType": "bytes32",
          "name": "requestId",
          "type": "bytes32"
        },
        {
          "internalType": "uint256",
          "name": "randomness",
          "type": "uint256"
        }
      ],
      "name": "rawFulfillRandomness",
      "outputs": [],
      "stateMutability": "nonpayable",
      "type": "function"
    },
    {
      "inputs": [
        {
          "internalType": "bytes32",
          "name": "role",
          "type": "bytes32"
        },
        {
          "internalType": "address",
          "name": "account",
          "type": "address"
        }
      ],
      "name": "renounceRole",
      "outputs": [],
      "stateMutability": "nonpayable",
      "type": "function"
    },
    {
      "inputs": [
        {
          "internalType": "bytes32",
          "name": "role",
          "type": "bytes32"
        },
        {
          "internalType": "address",
          "name": "account",
          "type": "address"
        }
      ],
      "name": "revokeRole",
      "outputs": [],
      "stateMutability": "nonpayable",
      "type": "function"
    },
    {
      "inputs": [
        {
          "internalType": "address",
          "name": "account",
          "type": "address"
        }
      ],
      "name": "setAdminRole",
      "outputs": [],
      "stateMutability": "nonpayable",
      "type": "function"
    },
    {
      "inputs": [
        {
          "internalType": "uint256",
          "name": "_fee",
          "type": "uint256"
        }
      ],
      "name": "setFee",
      "outputs": [],
      "stateMutability": "nonpayable",
      "type": "function"
    },
    {
      "inputs": [
        {
          "internalType": "bytes32",
          "name": "_keyHash",
          "type": "bytes32"
        }
      ],
      "name": "setKeyHash",
      "outputs": [],
      "stateMutability": "nonpayable",
      "type": "function"
    },
    {
      "inputs": [
        {
          "internalType": "uint16",
          "name": "_matchID",
          "type": "uint16"
        },
        {
          "internalType": "address[]",
          "name": "_winners",
          "type": "address[]"
        }
      ],
      "name": "setListWinnerInMatch",
      "outputs": [],
      "stateMutability": "nonpayable",
      "type": "function"
    },
    {
      "inputs": [
        {
          "internalType": "bytes4",
          "name": "interfaceId",
          "type": "bytes4"
        }
      ],
      "name": "supportsInterface",
      "outputs": [
        {
          "internalType": "bool",
          "name": "",
          "type": "bool"
        }
      ],
      "stateMutability": "view",
      "type": "function"
    },
    {
      "inputs": [
        {
          "internalType": "address",
          "name": "to",
          "type": "address"
        }
      ],
      "name": "transferOwnership",
      "outputs": [],
      "stateMutability": "nonpayable",
      "type": "function"
    },
    {
      "inputs": [
        {
          "internalType": "uint16",
          "name": "",
          "type": "uint16"
        }
      ],
      "name": "winnerByMatch",
      "outputs": [
        {
          "internalType": "address",
          "name": "",
          "type": "address"
        }
      ],
      "stateMutability": "view",
      "type": "function"
    },
    {
      "inputs": [
        {
          "internalType": "address",
          "name": "to",
          "type": "address"
        },
        {
          "internalType": "uint256",
          "name": "value",
          "type": "uint256"
        }
      ],
      "name": "withdrawLINK",
      "outputs": [],
      "stateMutability": "nonpayable",
      "type": "function"
    }
  ],
  "bytecode": "0x60c06040523480156200001157600080fd5b507f3d9d7efb320a09bb9948668606cee5f5dc4c34fb00000000000000000000000060a0527f16e8fe972c4bd58eb4fb56df456bba3dfb8db80f0000000000000000000000006080523380600081620000b15760405162461bcd60e51b815260206004820152601860248201527f43616e6e6f7420736574206f776e657220746f207a65726f000000000000000060448201526064015b60405180910390fd5b600180546001600160a01b0319166001600160a01b0384811691909117909155811615620000e457620000e4816200012b565b50620000f691506000905033620001d8565b7f862875140400f368476af543e3dc9f5df7c16f8a77e9c04ee429fa7795fa1ae6600455662386f26fc100006005556200028c565b6001600160a01b038116331415620001865760405162461bcd60e51b815260206004820152601760248201527f43616e6e6f74207472616e7366657220746f2073656c660000000000000000006044820152606401620000a8565b600280546001600160a01b0319166001600160a01b03838116918217909255600154604051919216907fed8889f560326eb138920d842192f0eb3dd22b4f139c87a2c57538e05bae127890600090a350565b620001e48282620001e8565b5050565b60008281526003602090815260408083206001600160a01b038516845290915290205460ff16620001e45760008281526003602090815260408083206001600160a01b03851684529091529020805460ff19166001179055620002483390565b6001600160a01b0316816001600160a01b0316837f2f8788117e7eff1d82e926ec794901d17c78024a50270940304540a733656f0d60405160405180910390a45050565b60805160601c60a05160601c61160c620002cd6000396000818161076d0152610b090152600081816104b7015281816108120152610ada015261160c6000f3fe608060405234801561001057600080fd5b50600436106101425760003560e01c806379ba5097116100b8578063985447101161007c57806398544710146102a3578063a217fddf146102b6578063d547741f146102be578063df11873e146102d1578063ea372048146102fa578063f2fde38b1461031a57600080fd5b806379ba5097146102515780638da5cb5b1461025957806391d148541461026a57806394985ddd1461027d578063983fbab21461029057600080fd5b806336568abe1161010a57806336568abe146101e95780633e8c7aee146101fc57806341be00a21461020f5780634adc7cfd146102185780635b03e41a1461022b57806369fe0e2d1461023e57600080fd5b806301ffc9a7146101475780631bd214011461016f578063248a9ca3146101865780632ca57a8d146101a95780632f2ff15d146101d4575b600080fd5b61015a610155366004611275565b61032d565b60405190151581526020015b60405180910390f35b61017860075481565b604051908152602001610166565b610178610194366004611211565b60009081526003602052604090206001015490565b6101bc6101b7366004611391565b610364565b6040516001600160a01b039091168152602001610166565b6101e76101e2366004611229565b61039c565b005b6101e76101f7366004611229565b6103c6565b6101e761020a3660046112b7565b610449565b61017860065481565b6101e76102263660046111ae565b61047e565b6101e761023936600461129d565b610494565b6101e761024c366004611211565b61067c565b6101e7610689565b6001546001600160a01b03166101bc565b61015a610278366004611229565b610737565b6101e761028b366004611254565b610762565b6101e761029e3660046111c8565b6107e4565b6101e76102b1366004611211565b6108cc565b610178600081565b6101e76102cc366004611229565b6108d9565b6101bc6102df36600461129d565b600a602052600090815260409020546001600160a01b031681565b61030d61030836600461129d565b6108fe565b6040516101669190611495565b6101e76103283660046111ae565b61096f565b60006001600160e01b03198216637965db0b60e01b148061035e57506301ffc9a760e01b6001600160e01b03198316145b92915050565b6009602052816000526040600020818154811061038057600080fd5b6000918252602090912001546001600160a01b03169150829050565b6000828152600360205260409020600101546103b781610980565b6103c1838361098a565b505050565b6001600160a01b038116331461043b5760405162461bcd60e51b815260206004820152602f60248201527f416363657373436f6e74726f6c3a2063616e206f6e6c792072656e6f756e636560448201526e103937b632b9903337b91039b2b63360891b60648201526084015b60405180910390fd5b6104458282610a10565b5050565b600061045481610980565b61ffff83166000908152600960209081526040909120835161047892850190611106565b50505050565b610486610a77565b610491600082610acc565b50565b600061049f81610980565b6005546040516370a0823160e01b81523060048201527f00000000000000000000000000000000000000000000000000000000000000006001600160a01b0316906370a082319060240160206040518083038186803b15801561050157600080fd5b505afa158015610515573d6000803e3d6000fd5b505050506040513d601f19601f8201168201806040525081019061053991906113ac565b10156105935760405162461bcd60e51b815260206004820152602360248201527f436f6e7472616374206e6f7420656e6f756768204c494e4b20746f207061792060448201526266656560e81b6064820152608401610432565b61ffff82166000908152600a60205260409020546001600160a01b03161561060c5760405162461bcd60e51b815260206004820152602660248201527f43616e6e6f74207069636b2077696e6e657220696e206d6174636820686173206044820152653bb4b73732b960d11b6064820152608401610432565b600061061c600454600554610ad6565b600081815260086020908152604091829020805461ffff191661ffff88169081179091558251848152918201529192507f7725e21e96385a9f48d843de7b8d5fb6541a9b7271facf2971d3effeb1c241ee910160405180910390a1505050565b610684610a77565b600555565b6002546001600160a01b031633146106dc5760405162461bcd60e51b815260206004820152601660248201527526bab9ba10313290383937b837b9b2b21037bbb732b960511b6044820152606401610432565b600180546001600160a01b0319808216339081179093556002805490911690556040516001600160a01b03909116919082907f8be0079c531659141344cd1fd0a4f28419497f9722a3daafe3b4186f6b6457e090600090a350565b60009182526003602090815260408084206001600160a01b0393909316845291905290205460ff1690565b336001600160a01b037f000000000000000000000000000000000000000000000000000000000000000016146107da5760405162461bcd60e51b815260206004820152601f60248201527f4f6e6c7920565246436f6f7264696e61746f722063616e2066756c66696c6c006044820152606401610432565b6104458282610c5f565b6107ec610a77565b60405163a9059cbb60e01b81526001600160a01b038381166004830152602482018390527f0000000000000000000000000000000000000000000000000000000000000000169063a9059cbb90604401602060405180830381600087803b15801561085657600080fd5b505af115801561086a573d6000803e3d6000fd5b505050506040513d601f19601f8201168201806040525081019061088e91906111f1565b6104455760405162461bcd60e51b815260206004820152600f60248201526e4e6f7420656e6f756768204c494e4b60881b6044820152606401610432565b6108d4610a77565b600455565b6000828152600360205260409020600101546108f481610980565b6103c18383610a10565b61ffff811660009081526009602090815260409182902080548351818402810184019094528084526060939283018282801561096357602002820191906000526020600020905b81546001600160a01b03168152600190910190602001808311610945575b50505050509050919050565b610977610a77565b61049181610e0e565b6104918133610eb9565b6109948282610737565b6104455760008281526003602090815260408083206001600160a01b03851684529091529020805460ff191660011790556109cc3390565b6001600160a01b0316816001600160a01b0316837f2f8788117e7eff1d82e926ec794901d17c78024a50270940304540a733656f0d60405160405180910390a45050565b610a1a8282610737565b156104455760008281526003602090815260408083206001600160a01b0385168085529252808320805460ff1916905551339285917ff6391f5c32d9c69d2a47ea670b442974b53935d1edc7fd64eb21e047a839171b9190a45050565b6001546001600160a01b03163314610aca5760405162461bcd60e51b815260206004820152601660248201527527b7363c9031b0b63630b1363290313c9037bbb732b960511b6044820152606401610432565b565b610445828261098a565b60007f00000000000000000000000000000000000000000000000000000000000000006001600160a01b0316634000aea07f000000000000000000000000000000000000000000000000000000000000000084866000604051602001610b46929190918252602082015260400190565b6040516020818303038152906040526040518463ffffffff1660e01b8152600401610b7393929190611465565b602060405180830381600087803b158015610b8d57600080fd5b505af1158015610ba1573d6000803e3d6000fd5b505050506040513d601f19601f82011682018060405250810190610bc591906111f1565b5060008381526020818152604080832054815180840188905280830185905230606082015260808082018390528351808303909101815260a090910190925281519183019190912086845292909152610c1f9060016114f5565b6000858152602081815260409182902092909255805180830187905280820184905281518082038301815260609091019091528051910120949350505050565b600082815260086020908152604080832054600685905561ffff16808452600990925290912054610cc95760405162461bcd60e51b81526020600482015260146024820152734e6f742077696e6e657220696e206d617463682760601b6044820152606401610432565b61ffff8116600090815260096020526040812054610ce7908461158a565b61ffff8316600090815260096020526040902080549192509082908110610d1e57634e487b7160e01b600052603260045260246000fd5b600091825260208083209091015461ffff85168352600a9091526040822080546001600160a01b0319166001600160a01b039092169190911790556007805491610d678361156f565b91905055507f8df146958c2456d6533d0e04a91faea50af1cde6c52d9d6bd8cec403d767ec03848385600960008761ffff1661ffff1681526020019081526020016000208581548110610dca57634e487b7160e01b600052603260045260246000fd5b600091825260209182902001546040805195865261ffff90941691850191909152918301526001600160a01b0316606082015260800160405180910390a150505050565b6001600160a01b038116331415610e675760405162461bcd60e51b815260206004820152601760248201527f43616e6e6f74207472616e7366657220746f2073656c660000000000000000006044820152606401610432565b600280546001600160a01b0319166001600160a01b03838116918217909255600154604051919216907fed8889f560326eb138920d842192f0eb3dd22b4f139c87a2c57538e05bae127890600090a350565b610ec38282610737565b61044557610edb816001600160a01b03166014610f1d565b610ee6836020610f1d565b604051602001610ef79291906113f0565b60408051601f198184030181529082905262461bcd60e51b8252610432916004016114e2565b60606000610f2c83600261150d565b610f379060026114f5565b67ffffffffffffffff811115610f5d57634e487b7160e01b600052604160045260246000fd5b6040519080825280601f01601f191660200182016040528015610f87576020820181803683370190505b509050600360fc1b81600081518110610fb057634e487b7160e01b600052603260045260246000fd5b60200101906001600160f81b031916908160001a905350600f60fb1b81600181518110610fed57634e487b7160e01b600052603260045260246000fd5b60200101906001600160f81b031916908160001a905350600061101184600261150d565b61101c9060016114f5565b90505b60018111156110b0576f181899199a1a9b1b9c1cb0b131b232b360811b85600f166010811061105e57634e487b7160e01b600052603260045260246000fd5b1a60f81b82828151811061108257634e487b7160e01b600052603260045260246000fd5b60200101906001600160f81b031916908160001a90535060049490941c936110a981611558565b905061101f565b5083156110ff5760405162461bcd60e51b815260206004820181905260248201527f537472696e67733a20686578206c656e67746820696e73756666696369656e746044820152606401610432565b9392505050565b82805482825590600052602060002090810192821561115b579160200282015b8281111561115b57825182546001600160a01b0319166001600160a01b03909116178255602090920191600190910190611126565b5061116792915061116b565b5090565b5b80821115611167576000815560010161116c565b80356001600160a01b038116811461119757600080fd5b919050565b803561ffff8116811461119757600080fd5b6000602082840312156111bf578081fd5b6110ff82611180565b600080604083850312156111da578081fd5b6111e383611180565b946020939093013593505050565b600060208284031215611202578081fd5b815180151581146110ff578182fd5b600060208284031215611222578081fd5b5035919050565b6000806040838503121561123b578182fd5b8235915061124b60208401611180565b90509250929050565b60008060408385031215611266578182fd5b50508035926020909101359150565b600060208284031215611286578081fd5b81356001600160e01b0319811681146110ff578182fd5b6000602082840312156112ae578081fd5b6110ff8261119c565b600080604083850312156112c9578182fd5b6112d28361119c565b915060208084013567ffffffffffffffff808211156112ef578384fd5b818601915086601f830112611302578384fd5b813581811115611314576113146115c0565b8060051b604051601f19603f83011681018181108582111715611339576113396115c0565b604052828152858101935084860182860187018b1015611357578788fd5b8795505b838610156113805761136c81611180565b85526001959095019493860193860161135b565b508096505050505050509250929050565b600080604083850312156113a3578182fd5b6111e38361119c565b6000602082840312156113bd578081fd5b5051919050565b600081518084526113dc81602086016020860161152c565b601f01601f19169290920160200192915050565b7f416363657373436f6e74726f6c3a206163636f756e742000000000000000000081526000835161142881601785016020880161152c565b7001034b99036b4b9b9b4b733903937b6329607d1b601791840191820152835161145981602884016020880161152c565b01602801949350505050565b60018060a01b038416815282602082015260606040820152600061148c60608301846113c4565b95945050505050565b6020808252825182820181905260009190848201906040850190845b818110156114d65783516001600160a01b0316835292840192918401916001016114b1565b50909695505050505050565b6020815260006110ff60208301846113c4565b60008219821115611508576115086115aa565b500190565b6000816000190483118215151615611527576115276115aa565b500290565b60005b8381101561154757818101518382015260200161152f565b838111156104785750506000910152565b600081611567576115676115aa565b506000190190565b6000600019821415611583576115836115aa565b5060010190565b6000826115a557634e487b7160e01b81526012600452602481fd5b500690565b634e487b7160e01b600052601160045260246000fd5b634e487b7160e01b600052604160045260246000fdfea26469706673582212202057578fe42a92a55c5e0208dd5a30d983f7908abb03d7d718273af56679841c64736f6c63430008040033",
  "linkReferences": {},
  "deployedLinkReferences": {}
}