{
  "_format": "hh-sol-artifact-1",
  "contractName": "SBirdBetting",
  "sourceName": "contracts/SBirdBetting.sol",
  "abi": [
    {
      "anonymous": false,
      "inputs": [
        {
          "indexed": false,
          "internalType": "uint16",
          "name": "matchID",
          "type": "uint16"
        },
        {
          "components": [
            {
              "internalType": "uint16",
              "name": "ouHtOver",
              "type": "uint16"
            },
            {
              "internalType": "uint16",
              "name": "ouHtRatio",
              "type": "uint16"
            },
            {
              "internalType": "uint16",
              "name": "ouHtUnder",
              "type": "uint16"
            },
            {
              "internalType": "uint16",
              "name": "ouFtOver",
              "type": "uint16"
            },
            {
              "internalType": "uint16",
              "name": "ouFtRatio",
              "type": "uint16"
            },
            {
              "internalType": "uint16",
              "name": "ouFtUnder",
              "type": "uint16"
            },
            {
              "internalType": "uint16",
              "name": "oddsHtHome",
              "type": "uint16"
            },
            {
              "internalType": "uint16",
              "name": "oddsHtDraw",
              "type": "uint16"
            },
            {
              "internalType": "uint16",
              "name": "oddsHtAway",
              "type": "uint16"
            },
            {
              "internalType": "uint16",
              "name": "oddsFtHome",
              "type": "uint16"
            },
            {
              "internalType": "uint16",
              "name": "oddsFtDraw",
              "type": "uint16"
            },
            {
              "internalType": "uint16",
              "name": "oddsFtAway",
              "type": "uint16"
            }
          ],
          "indexed": false,
          "internalType": "struct IBirdBetting.MatchStatistics",
          "name": "mSta",
          "type": "tuple"
        },
        {
          "components": [
            {
              "internalType": "uint8",
              "name": "ht_homeScore",
              "type": "uint8"
            },
            {
              "internalType": "uint8",
              "name": "ht_awayScore",
              "type": "uint8"
            },
            {
              "internalType": "uint8",
              "name": "ft_homeScore",
              "type": "uint8"
            },
            {
              "internalType": "uint8",
              "name": "ft_awayScore",
              "type": "uint8"
            },
            {
              "internalType": "uint256",
              "name": "startTime",
              "type": "uint256"
            },
            {
              "internalType": "string",
              "name": "homeName",
              "type": "string"
            },
            {
              "internalType": "string",
              "name": "awayName",
              "type": "string"
            },
            {
              "internalType": "string",
              "name": "location",
              "type": "string"
            },
            {
              "internalType": "string",
              "name": "round",
              "type": "string"
            },
            {
              "internalType": "bool",
              "name": "isHalfTime",
              "type": "bool"
            },
            {
              "internalType": "bool",
              "name": "isFinished",
              "type": "bool"
            }
          ],
          "indexed": false,
          "internalType": "struct IBirdBetting.MatchInfo",
          "name": "mInf",
          "type": "tuple"
        },
        {
          "indexed": false,
          "internalType": "uint256",
          "name": "sofaMatchID",
          "type": "uint256"
        }
      ],
      "name": "CreateMatch",
      "type": "event"
    },
    {
      "anonymous": false,
      "inputs": [
        {
          "indexed": false,
          "internalType": "uint8",
          "name": "version",
          "type": "uint8"
        }
      ],
      "name": "Initialized",
      "type": "event"
    },
    {
      "anonymous": false,
      "inputs": [
        {
          "indexed": true,
          "internalType": "address",
          "name": "previousOwner",
          "type": "address"
        },
        {
          "indexed": true,
          "internalType": "address",
          "name": "newOwner",
          "type": "address"
        }
      ],
      "name": "OwnershipTransferred",
      "type": "event"
    },
    {
      "anonymous": false,
      "inputs": [
        {
          "indexed": true,
          "internalType": "bytes32",
          "name": "role",
          "type": "bytes32"
        },
        {
          "indexed": true,
          "internalType": "bytes32",
          "name": "previousAdminRole",
          "type": "bytes32"
        },
        {
          "indexed": true,
          "internalType": "bytes32",
          "name": "newAdminRole",
          "type": "bytes32"
        }
      ],
      "name": "RoleAdminChanged",
      "type": "event"
    },
    {
      "anonymous": false,
      "inputs": [
        {
          "indexed": true,
          "internalType": "bytes32",
          "name": "role",
          "type": "bytes32"
        },
        {
          "indexed": true,
          "internalType": "address",
          "name": "account",
          "type": "address"
        },
        {
          "indexed": true,
          "internalType": "address",
          "name": "sender",
          "type": "address"
        }
      ],
      "name": "RoleGranted",
      "type": "event"
    },
    {
      "anonymous": false,
      "inputs": [
        {
          "indexed": true,
          "internalType": "bytes32",
          "name": "role",
          "type": "bytes32"
        },
        {
          "indexed": true,
          "internalType": "address",
          "name": "account",
          "type": "address"
        },
        {
          "indexed": true,
          "internalType": "address",
          "name": "sender",
          "type": "address"
        }
      ],
      "name": "RoleRevoked",
      "type": "event"
    },
    {
      "anonymous": false,
      "inputs": [
        {
          "indexed": false,
          "internalType": "uint16",
          "name": "matchID",
          "type": "uint16"
        },
        {
          "components": [
            {
              "internalType": "uint8",
              "name": "ht_homeScore",
              "type": "uint8"
            },
            {
              "internalType": "uint8",
              "name": "ht_awayScore",
              "type": "uint8"
            },
            {
              "internalType": "uint8",
              "name": "ft_homeScore",
              "type": "uint8"
            },
            {
              "internalType": "uint8",
              "name": "ft_awayScore",
              "type": "uint8"
            },
            {
              "internalType": "uint256",
              "name": "startTime",
              "type": "uint256"
            },
            {
              "internalType": "string",
              "name": "homeName",
              "type": "string"
            },
            {
              "internalType": "string",
              "name": "awayName",
              "type": "string"
            },
            {
              "internalType": "string",
              "name": "location",
              "type": "string"
            },
            {
              "internalType": "string",
              "name": "round",
              "type": "string"
            },
            {
              "internalType": "bool",
              "name": "isHalfTime",
              "type": "bool"
            },
            {
              "internalType": "bool",
              "name": "isFinished",
              "type": "bool"
            }
          ],
          "indexed": false,
          "internalType": "struct IBirdBetting.MatchInfo",
          "name": "mInf",
          "type": "tuple"
        }
      ],
      "name": "UpdateMatchInfo",
      "type": "event"
    },
    {
      "anonymous": false,
      "inputs": [
        {
          "indexed": false,
          "internalType": "uint16",
          "name": "matchID",
          "type": "uint16"
        },
        {
          "components": [
            {
              "internalType": "uint16",
              "name": "ouHtOver",
              "type": "uint16"
            },
            {
              "internalType": "uint16",
              "name": "ouHtRatio",
              "type": "uint16"
            },
            {
              "internalType": "uint16",
              "name": "ouHtUnder",
              "type": "uint16"
            },
            {
              "internalType": "uint16",
              "name": "ouFtOver",
              "type": "uint16"
            },
            {
              "internalType": "uint16",
              "name": "ouFtRatio",
              "type": "uint16"
            },
            {
              "internalType": "uint16",
              "name": "ouFtUnder",
              "type": "uint16"
            },
            {
              "internalType": "uint16",
              "name": "oddsHtHome",
              "type": "uint16"
            },
            {
              "internalType": "uint16",
              "name": "oddsHtDraw",
              "type": "uint16"
            },
            {
              "internalType": "uint16",
              "name": "oddsHtAway",
              "type": "uint16"
            },
            {
              "internalType": "uint16",
              "name": "oddsFtHome",
              "type": "uint16"
            },
            {
              "internalType": "uint16",
              "name": "oddsFtDraw",
              "type": "uint16"
            },
            {
              "internalType": "uint16",
              "name": "oddsFtAway",
              "type": "uint16"
            }
          ],
          "indexed": false,
          "internalType": "struct IBirdBetting.MatchStatistics",
          "name": "mSta",
          "type": "tuple"
        }
      ],
      "name": "UpdateMatchStatistics",
      "type": "event"
    },
    {
      "anonymous": false,
      "inputs": [
        {
          "indexed": true,
          "internalType": "address",
          "name": "user",
          "type": "address"
        },
        {
          "indexed": false,
          "internalType": "uint16",
          "name": "matchID",
          "type": "uint16"
        },
        {
          "indexed": false,
          "internalType": "uint256",
          "name": "amount",
          "type": "uint256"
        },
        {
          "indexed": false,
          "internalType": "string",
          "name": "betType",
          "type": "string"
        },
        {
          "indexed": false,
          "internalType": "string",
          "name": "betPlace",
          "type": "string"
        },
        {
          "indexed": false,
          "internalType": "bool",
          "name": "isClaimed",
          "type": "bool"
        }
      ],
      "name": "UserBetting",
      "type": "event"
    },
    {
      "anonymous": false,
      "inputs": [
        {
          "indexed": false,
          "internalType": "uint16",
          "name": "matchID",
          "type": "uint16"
        },
        {
          "indexed": false,
          "internalType": "uint256",
          "name": "amount",
          "type": "uint256"
        },
        {
          "indexed": true,
          "internalType": "address",
          "name": "user",
          "type": "address"
        },
        {
          "indexed": false,
          "internalType": "uint256",
          "name": "deadline",
          "type": "uint256"
        }
      ],
      "name": "UserClaim",
      "type": "event"
    },
    {
      "anonymous": false,
      "inputs": [
        {
          "indexed": true,
          "internalType": "address",
          "name": "user",
          "type": "address"
        },
        {
          "indexed": false,
          "internalType": "uint16",
          "name": "matchID",
          "type": "uint16"
        },
        {
          "indexed": false,
          "internalType": "uint8",
          "name": "homeScore",
          "type": "uint8"
        },
        {
          "indexed": false,
          "internalType": "uint8",
          "name": "awayScore",
          "type": "uint8"
        },
        {
          "indexed": false,
          "internalType": "uint256",
          "name": "time",
          "type": "uint256"
        }
      ],
      "name": "UserPredicting",
      "type": "event"
    },
    {
      "inputs": [],
      "name": "CLAIM_TOKEN_WITH_SIG_TYPEHASH",
      "outputs": [
        {
          "internalType": "bytes32",
          "name": "",
          "type": "bytes32"
        }
      ],
      "stateMutability": "view",
      "type": "function"
    },
    {
      "inputs": [],
      "name": "DEFAULT_ADMIN_ROLE",
      "outputs": [
        {
          "internalType": "bytes32",
          "name": "",
          "type": "bytes32"
        }
      ],
      "stateMutability": "view",
      "type": "function"
    },
    {
      "inputs": [
        {
          "internalType": "address",
          "name": "",
          "type": "address"
        }
      ],
      "name": "TokenClaimNonces",
      "outputs": [
        {
          "internalType": "uint256",
          "name": "",
          "type": "uint256"
        }
      ],
      "stateMutability": "view",
      "type": "function"
    },
    {
      "inputs": [
        {
          "internalType": "address",
          "name": "",
          "type": "address"
        }
      ],
      "name": "TokenClaimTimeStamp",
      "outputs": [
        {
          "internalType": "uint256",
          "name": "",
          "type": "uint256"
        }
      ],
      "stateMutability": "view",
      "type": "function"
    },
    {
      "inputs": [
        {
          "internalType": "address",
          "name": "_token",
          "type": "address"
        },
        {
          "internalType": "address",
          "name": "_fundWallet",
          "type": "address"
        }
      ],
      "name": "__SBirdBetting_init",
      "outputs": [],
      "stateMutability": "nonpayable",
      "type": "function"
    },
    {
      "inputs": [
        {
          "internalType": "uint16",
          "name": "_matchID",
          "type": "uint16"
        },
        {
          "internalType": "uint256",
          "name": "_amount",
          "type": "uint256"
        },
        {
          "internalType": "string",
          "name": "_betType",
          "type": "string"
        },
        {
          "internalType": "string",
          "name": "_betPlace",
          "type": "string"
        }
      ],
      "name": "betting",
      "outputs": [],
      "stateMutability": "nonpayable",
      "type": "function"
    },
    {
      "inputs": [
        {
          "internalType": "address",
          "name": "",
          "type": "address"
        },
        {
          "internalType": "uint16",
          "name": "",
          "type": "uint16"
        }
      ],
      "name": "claimInMatch",
      "outputs": [
        {
          "internalType": "bool",
          "name": "",
          "type": "bool"
        }
      ],
      "stateMutability": "view",
      "type": "function"
    },
    {
      "inputs": [],
      "name": "fundWallet",
      "outputs": [
        {
          "internalType": "address",
          "name": "",
          "type": "address"
        }
      ],
      "stateMutability": "view",
      "type": "function"
    },
    {
      "inputs": [
        {
          "internalType": "bytes32",
          "name": "role",
          "type": "bytes32"
        }
      ],
      "name": "getRoleAdmin",
      "outputs": [
        {
          "internalType": "bytes32",
          "name": "",
          "type": "bytes32"
        }
      ],
      "stateMutability": "view",
      "type": "function"
    },
    {
      "inputs": [
        {
          "internalType": "address",
          "name": "account",
          "type": "address"
        }
      ],
      "name": "grantAdminRole",
      "outputs": [],
      "stateMutability": "nonpayable",
      "type": "function"
    },
    {
      "inputs": [
        {
          "internalType": "bytes32",
          "name": "role",
          "type": "bytes32"
        },
        {
          "internalType": "address",
          "name": "account",
          "type": "address"
        }
      ],
      "name": "grantRole",
      "outputs": [],
      "stateMutability": "nonpayable",
      "type": "function"
    },
    {
      "inputs": [
        {
          "internalType": "bytes32",
          "name": "role",
          "type": "bytes32"
        },
        {
          "internalType": "address",
          "name": "account",
          "type": "address"
        }
      ],
      "name": "hasRole",
      "outputs": [
        {
          "internalType": "bool",
          "name": "",
          "type": "bool"
        }
      ],
      "stateMutability": "view",
      "type": "function"
    },
    {
      "inputs": [
        {
          "internalType": "uint16",
          "name": "",
          "type": "uint16"
        }
      ],
      "name": "matchByID",
      "outputs": [
        {
          "components": [
            {
              "internalType": "uint16",
              "name": "ouHtOver",
              "type": "uint16"
            },
            {
              "internalType": "uint16",
              "name": "ouHtRatio",
              "type": "uint16"
            },
            {
              "internalType": "uint16",
              "name": "ouHtUnder",
              "type": "uint16"
            },
            {
              "internalType": "uint16",
              "name": "ouFtOver",
              "type": "uint16"
            },
            {
              "internalType": "uint16",
              "name": "ouFtRatio",
              "type": "uint16"
            },
            {
              "internalType": "uint16",
              "name": "ouFtUnder",
              "type": "uint16"
            },
            {
              "internalType": "uint16",
              "name": "oddsHtHome",
              "type": "uint16"
            },
            {
              "internalType": "uint16",
              "name": "oddsHtDraw",
              "type": "uint16"
            },
            {
              "internalType": "uint16",
              "name": "oddsHtAway",
              "type": "uint16"
            },
            {
              "internalType": "uint16",
              "name": "oddsFtHome",
              "type": "uint16"
            },
            {
              "internalType": "uint16",
              "name": "oddsFtDraw",
              "type": "uint16"
            },
            {
              "internalType": "uint16",
              "name": "oddsFtAway",
              "type": "uint16"
            }
          ],
          "internalType": "struct IBirdBetting.MatchStatistics",
          "name": "mSta",
          "type": "tuple"
        },
        {
          "components": [
            {
              "internalType": "uint8",
              "name": "ht_homeScore",
              "type": "uint8"
            },
            {
              "internalType": "uint8",
              "name": "ht_awayScore",
              "type": "uint8"
            },
            {
              "internalType": "uint8",
              "name": "ft_homeScore",
              "type": "uint8"
            },
            {
              "internalType": "uint8",
              "name": "ft_awayScore",
              "type": "uint8"
            },
            {
              "internalType": "uint256",
              "name": "startTime",
              "type": "uint256"
            },
            {
              "internalType": "string",
              "name": "homeName",
              "type": "string"
            },
            {
              "internalType": "string",
              "name": "awayName",
              "type": "string"
            },
            {
              "internalType": "string",
              "name": "location",
              "type": "string"
            },
            {
              "internalType": "string",
              "name": "round",
              "type": "string"
            },
            {
              "internalType": "bool",
              "name": "isHalfTime",
              "type": "bool"
            },
            {
              "internalType": "bool",
              "name": "isFinished",
              "type": "bool"
            }
          ],
          "internalType": "struct IBirdBetting.MatchInfo",
          "name": "mInf",
          "type": "tuple"
        }
      ],
      "stateMutability": "view",
      "type": "function"
    },
    {
      "inputs": [],
      "name": "maxBetAmount",
      "outputs": [
        {
          "internalType": "uint256",
          "name": "",
          "type": "uint256"
        }
      ],
      "stateMutability": "view",
      "type": "function"
    },
    {
      "inputs": [
        {
          "internalType": "address",
          "name": "",
          "type": "address"
        },
        {
          "internalType": "address",
          "name": "",
          "type": "address"
        },
        {
          "internalType": "uint256",
          "name": "",
          "type": "uint256"
        },
        {
          "internalType": "bytes",
          "name": "",
          "type": "bytes"
        }
      ],
      "name": "onERC721Received",
      "outputs": [
        {
          "internalType": "bytes4",
          "name": "",
          "type": "bytes4"
        }
      ],
      "stateMutability": "nonpayable",
      "type": "function"
    },
    {
      "inputs": [],
      "name": "owner",
      "outputs": [
        {
          "internalType": "address",
          "name": "",
          "type": "address"
        }
      ],
      "stateMutability": "view",
      "type": "function"
    },
    {
      "inputs": [
        {
          "internalType": "uint16",
          "name": "_matchID",
          "type": "uint16"
        },
        {
          "internalType": "uint8",
          "name": "_homeScore",
          "type": "uint8"
        },
        {
          "internalType": "uint8",
          "name": "_awayScore",
          "type": "uint8"
        }
      ],
      "name": "predict",
      "outputs": [],
      "stateMutability": "nonpayable",
      "type": "function"
    },
    {
      "inputs": [],
      "name": "renounceOwnership",
      "outputs": [],
      "stateMutability": "nonpayable",
      "type": "function"
    },
    {
      "inputs": [
        {
          "internalType": "bytes32",
          "name": "role",
          "type": "bytes32"
        },
        {
          "internalType": "address",
          "name": "account",
          "type": "address"
        }
      ],
      "name": "renounceRole",
      "outputs": [],
      "stateMutability": "nonpayable",
      "type": "function"
    },
    {
      "inputs": [
        {
          "internalType": "address",
          "name": "account",
          "type": "address"
        }
      ],
      "name": "revokeAdminRole",
      "outputs": [],
      "stateMutability": "nonpayable",
      "type": "function"
    },
    {
      "inputs": [
        {
          "internalType": "bytes32",
          "name": "role",
          "type": "bytes32"
        },
        {
          "internalType": "address",
          "name": "account",
          "type": "address"
        }
      ],
      "name": "revokeRole",
      "outputs": [],
      "stateMutability": "nonpayable",
      "type": "function"
    },
    {
      "inputs": [
        {
          "internalType": "address",
          "name": "_fund",
          "type": "address"
        }
      ],
      "name": "setFundAddress",
      "outputs": [],
      "stateMutability": "nonpayable",
      "type": "function"
    },
    {
      "inputs": [
        {
          "internalType": "uint16",
          "name": "_matchID",
          "type": "uint16"
        },
        {
          "components": [
            {
              "internalType": "uint16",
              "name": "ouHtOver",
              "type": "uint16"
            },
            {
              "internalType": "uint16",
              "name": "ouHtRatio",
              "type": "uint16"
            },
            {
              "internalType": "uint16",
              "name": "ouHtUnder",
              "type": "uint16"
            },
            {
              "internalType": "uint16",
              "name": "ouFtOver",
              "type": "uint16"
            },
            {
              "internalType": "uint16",
              "name": "ouFtRatio",
              "type": "uint16"
            },
            {
              "internalType": "uint16",
              "name": "ouFtUnder",
              "type": "uint16"
            },
            {
              "internalType": "uint16",
              "name": "oddsHtHome",
              "type": "uint16"
            },
            {
              "internalType": "uint16",
              "name": "oddsHtDraw",
              "type": "uint16"
            },
            {
              "internalType": "uint16",
              "name": "oddsHtAway",
              "type": "uint16"
            },
            {
              "internalType": "uint16",
              "name": "oddsFtHome",
              "type": "uint16"
            },
            {
              "internalType": "uint16",
              "name": "oddsFtDraw",
              "type": "uint16"
            },
            {
              "internalType": "uint16",
              "name": "oddsFtAway",
              "type": "uint16"
            }
          ],
          "internalType": "struct IBirdBetting.MatchStatistics",
          "name": "_mSta",
          "type": "tuple"
        },
        {
          "components": [
            {
              "internalType": "uint8",
              "name": "ht_homeScore",
              "type": "uint8"
            },
            {
              "internalType": "uint8",
              "name": "ht_awayScore",
              "type": "uint8"
            },
            {
              "internalType": "uint8",
              "name": "ft_homeScore",
              "type": "uint8"
            },
            {
              "internalType": "uint8",
              "name": "ft_awayScore",
              "type": "uint8"
            },
            {
              "internalType": "uint256",
              "name": "startTime",
              "type": "uint256"
            },
            {
              "internalType": "string",
              "name": "homeName",
              "type": "string"
            },
            {
              "internalType": "string",
              "name": "awayName",
              "type": "string"
            },
            {
              "internalType": "string",
              "name": "location",
              "type": "string"
            },
            {
              "internalType": "string",
              "name": "round",
              "type": "string"
            },
            {
              "internalType": "bool",
              "name": "isHalfTime",
              "type": "bool"
            },
            {
              "internalType": "bool",
              "name": "isFinished",
              "type": "bool"
            }
          ],
          "internalType": "struct IBirdBetting.MatchInfo",
          "name": "_mInf",
          "type": "tuple"
        },
        {
          "internalType": "uint256",
          "name": "_sofaMatchID",
          "type": "uint256"
        }
      ],
      "name": "setMatchInfo",
      "outputs": [],
      "stateMutability": "nonpayable",
      "type": "function"
    },
    {
      "inputs": [
        {
          "internalType": "uint256",
          "name": "_amount",
          "type": "uint256"
        }
      ],
      "name": "setMaxBetAmount",
      "outputs": [],
      "stateMutability": "nonpayable",
      "type": "function"
    },
    {
      "inputs": [
        {
          "internalType": "address",
          "name": "_signer",
          "type": "address"
        }
      ],
      "name": "setSigner",
      "outputs": [],
      "stateMutability": "nonpayable",
      "type": "function"
    },
    {
      "inputs": [
        {
          "internalType": "uint256",
          "name": "spacer",
          "type": "uint256"
        }
      ],
      "name": "setSpacer",
      "outputs": [],
      "stateMutability": "nonpayable",
      "type": "function"
    },
    {
      "inputs": [
        {
          "internalType": "address",
          "name": "_tokenAddress",
          "type": "address"
        }
      ],
      "name": "setTokenAddress",
      "outputs": [],
      "stateMutability": "nonpayable",
      "type": "function"
    },
    {
      "inputs": [
        {
          "internalType": "bytes4",
          "name": "interfaceId",
          "type": "bytes4"
        }
      ],
      "name": "supportsInterface",
      "outputs": [
        {
          "internalType": "bool",
          "name": "",
          "type": "bool"
        }
      ],
      "stateMutability": "view",
      "type": "function"
    },
    {
      "inputs": [
        {
          "internalType": "uint16",
          "name": "_matchID",
          "type": "uint16"
        },
        {
          "internalType": "uint256",
          "name": "_amount",
          "type": "uint256"
        },
        {
          "components": [
            {
              "internalType": "uint256",
              "name": "deadline",
              "type": "uint256"
            },
            {
              "internalType": "uint8",
              "name": "v",
              "type": "uint8"
            },
            {
              "internalType": "bytes32",
              "name": "r",
              "type": "bytes32"
            },
            {
              "internalType": "bytes32",
              "name": "s",
              "type": "bytes32"
            }
          ],
          "internalType": "struct IBirdBetting.EIP712Signature",
          "name": "_signature",
          "type": "tuple"
        }
      ],
      "name": "tokenClaim",
      "outputs": [],
      "stateMutability": "nonpayable",
      "type": "function"
    },
    {
      "inputs": [
        {
          "internalType": "address",
          "name": "newOwner",
          "type": "address"
        }
      ],
      "name": "transferOwnership",
      "outputs": [],
      "stateMutability": "nonpayable",
      "type": "function"
    },
    {
      "inputs": [
        {
          "internalType": "uint16",
          "name": "_matchID",
          "type": "uint16"
        },
        {
          "components": [
            {
              "internalType": "uint8",
              "name": "ht_homeScore",
              "type": "uint8"
            },
            {
              "internalType": "uint8",
              "name": "ht_awayScore",
              "type": "uint8"
            },
            {
              "internalType": "uint8",
              "name": "ft_homeScore",
              "type": "uint8"
            },
            {
              "internalType": "uint8",
              "name": "ft_awayScore",
              "type": "uint8"
            },
            {
              "internalType": "uint256",
              "name": "startTime",
              "type": "uint256"
            },
            {
              "internalType": "string",
              "name": "homeName",
              "type": "string"
            },
            {
              "internalType": "string",
              "name": "awayName",
              "type": "string"
            },
            {
              "internalType": "string",
              "name": "location",
              "type": "string"
            },
            {
              "internalType": "string",
              "name": "round",
              "type": "string"
            },
            {
              "internalType": "bool",
              "name": "isHalfTime",
              "type": "bool"
            },
            {
              "internalType": "bool",
              "name": "isFinished",
              "type": "bool"
            }
          ],
          "internalType": "struct IBirdBetting.MatchInfo",
          "name": "_mInf",
          "type": "tuple"
        }
      ],
      "name": "updateMatchInfo",
      "outputs": [],
      "stateMutability": "nonpayable",
      "type": "function"
    },
    {
      "inputs": [
        {
          "internalType": "uint16",
          "name": "_matchID",
          "type": "uint16"
        },
        {
          "components": [
            {
              "internalType": "uint16",
              "name": "ouHtOver",
              "type": "uint16"
            },
            {
              "internalType": "uint16",
              "name": "ouHtRatio",
              "type": "uint16"
            },
            {
              "internalType": "uint16",
              "name": "ouHtUnder",
              "type": "uint16"
            },
            {
              "internalType": "uint16",
              "name": "ouFtOver",
              "type": "uint16"
            },
            {
              "internalType": "uint16",
              "name": "ouFtRatio",
              "type": "uint16"
            },
            {
              "internalType": "uint16",
              "name": "ouFtUnder",
              "type": "uint16"
            },
            {
              "internalType": "uint16",
              "name": "oddsHtHome",
              "type": "uint16"
            },
            {
              "internalType": "uint16",
              "name": "oddsHtDraw",
              "type": "uint16"
            },
            {
              "internalType": "uint16",
              "name": "oddsHtAway",
              "type": "uint16"
            },
            {
              "internalType": "uint16",
              "name": "oddsFtHome",
              "type": "uint16"
            },
            {
              "internalType": "uint16",
              "name": "oddsFtDraw",
              "type": "uint16"
            },
            {
              "internalType": "uint16",
              "name": "oddsFtAway",
              "type": "uint16"
            }
          ],
          "internalType": "struct IBirdBetting.MatchStatistics",
          "name": "mSta",
          "type": "tuple"
        }
      ],
      "name": "updateMatchStatistics",
      "outputs": [],
      "stateMutability": "nonpayable",
      "type": "function"
    },
    {
      "inputs": [
        {
          "internalType": "address",
          "name": "",
          "type": "address"
        },
        {
          "internalType": "uint16",
          "name": "",
          "type": "uint16"
        },
        {
          "internalType": "string",
          "name": "",
          "type": "string"
        }
      ],
      "name": "userBettingInMatch",
      "outputs": [
        {
          "internalType": "uint256",
          "name": "amount",
          "type": "uint256"
        },
        {
          "internalType": "string",
          "name": "place",
          "type": "string"
        }
      ],
      "stateMutability": "view",
      "type": "function"
    },
    {
      "inputs": [
        {
          "internalType": "address",
          "name": "",
          "type": "address"
        },
        {
          "internalType": "uint16",
          "name": "",
          "type": "uint16"
        }
      ],
      "name": "userPredictByMatch",
      "outputs": [
        {
          "internalType": "uint8",
          "name": "homeScore",
          "type": "uint8"
        },
        {
          "internalType": "uint8",
          "name": "awayScore",
          "type": "uint8"
        },
        {
          "internalType": "uint256",
          "name": "time",
          "type": "uint256"
        }
      ],
      "stateMutability": "view",
      "type": "function"
    }
  ],
  "bytecode": "0x608060405234801561001057600080fd5b50613124806100206000396000f3fe608060405234801561001057600080fd5b50600436106102055760003560e01c806385dc30041161011a578063c634b78e116100ad578063d93eb4851161007c578063d93eb48514610529578063e327f48a1461053c578063f15381601461054f578063f2fde38b14610570578063f62611621461058357600080fd5b8063c634b78e14610499578063c99392df146104ac578063cab11d5d1461050c578063d547741f1461051657600080fd5b80639881dce0116100e95780639881dce01461042e5780639a19c7b01461045d578063a1dda53514610470578063a217fddf1461049157600080fd5b806385dc3004146103d65780638da5cb5b146103e9578063902fc128146103fa57806391d148541461041b57600080fd5b806336568abe1161019d5780636a34f43b1161016c5780636a34f43b146103825780636c19e78314610395578063715018a6146103a85780637a080ab4146103b05780637cfbc7a5146103c357600080fd5b806336568abe1461030f5780633d77a8a51461032257806350bd5f6c14610335578063664a1ad61461035657600080fd5b80631de7c94a116101d95780631de7c94a146102b3578063248a9ca3146102c657806326a4e8d2146102e95780632f2ff15d146102fc57600080fd5b8062c712291461020a57806301ffc9a71461024457806310439b6414610267578063150b7a021461027c575b600080fd5b6102317f91b4e17a240545175a79d7c03eeaaae9a2eb9481b5ef81266d3ef1aa8daf9ec281565b6040519081526020015b60405180910390f35b610257610252366004612916565b610596565b604051901515815260200161023b565b61027a610275366004612958565b6105b9565b005b61029a61028a3660046127c2565b630a85bd0160e11b949350505050565b6040516001600160e01b0319909116815260200161023b565b61027a6102c13660046129a4565b610729565b6102316102d43660046128dc565b60009081526097602052604090206001015490565b61027a6102f7366004612776565b610935565b61027a61030a3660046128f4565b610971565b61027a61031d3660046128f4565b61099b565b61027a610330366004612aa6565b610a1e565b610231610343366004612776565b6101376020526000908152604090205481565b6101315461036a906001600160a01b031681565b6040516001600160a01b03909116815260200161023b565b61027a610390366004612aec565b610f1e565b61027a6103a3366004612776565b61107e565b61027a6110ba565b61027a6103be366004612790565b6110ce565b61027a6103d13660046128dc565b61128b565b61027a6103e4366004612776565b6112aa565b6033546001600160a01b031661036a565b610231610408366004612776565b6101366020526000908152604090205481565b6102576104293660046128f4565b6112e6565b61025761043c36600461283b565b61013360209081526000928352604080842090915290825290205460ff1681565b61027a61046b366004612776565b611311565b61048361047e366004612864565b611334565b60405161023b929190612f5d565b610231600081565b61027a6104a7366004612776565b611400565b6104ec6104ba36600461283b565b6101356020908152600092835260408084209091529082529020805460019091015460ff808316926101009004169083565b6040805160ff94851681529390921660208401529082015260600161023b565b6102316101305481565b61027a6105243660046128f4565b611423565b61027a6105373660046129cf565b611448565b61027a61054a366004612a37565b6117ba565b61056261055d36600461293e565b611b2b565b60405161023b929190612e6b565b61027a61057e366004612776565b611ecd565b61027a6105913660046128dc565b611f46565b60006001600160e01b0319821615806105b357506105b382611f65565b92915050565b60006105c481611f9a565b61ffff83166000908152610134602090815260409182902084516001820180548785015195880151606089015160ff90811663010000000263ff0000001992821662010000029290921663ffff0000199882166101000261ffff1990941691909516179190911795909516919091179390931783556080850151600282015560a0850151805191938693909261066092600387019201906123f3565b5060c0820151805161067c9160038401916020909101906123f3565b5060e082015180516106989160048401916020909101906123f3565b5061010082015180516106b59160058401916020909101906123f3565b50610120820151600690910180546101409093015115156101000261ff00199215159290921661ffff19909316929092171790556040517f28506f4cc7561ef93ee7c0e4a6bdad8d6853ee6ee502ec25045f5dceb0f0d2ea9061071b9086908690612e96565b60405180910390a150505050565b600061073481611f9a565b600061013460008561ffff1661ffff1681526020019081526020016000209050828160000160008201518160000160006101000a81548161ffff021916908361ffff16021790555060208201518160000160026101000a81548161ffff021916908361ffff16021790555060408201518160000160046101000a81548161ffff021916908361ffff16021790555060608201518160000160066101000a81548161ffff021916908361ffff16021790555060808201518160000160086101000a81548161ffff021916908361ffff16021790555060a082015181600001600a6101000a81548161ffff021916908361ffff16021790555060c082015181600001600c6101000a81548161ffff021916908361ffff16021790555060e082015181600001600e6101000a81548161ffff021916908361ffff1602179055506101008201518160000160106101000a81548161ffff021916908361ffff1602179055506101208201518160000160126101000a81548161ffff021916908361ffff1602179055506101408201518160000160146101000a81548161ffff021916908361ffff1602179055506101608201518160000160166101000a81548161ffff021916908361ffff1602179055509050507f5aeb2e82d74f416d35e9882694a793a1d1ad05992cfe6e904ee13659619bc2f5848460405161071b929190612ebb565b6000805160206130cf83398151915261094d81611f9a565b5061012d80546001600160a01b0319166001600160a01b0392909216919091179055565b60008281526097602052604090206001015461098c81611f9a565b6109968383611fa4565b505050565b6001600160a01b0381163314610a105760405162461bcd60e51b815260206004820152602f60248201527f416363657373436f6e74726f6c3a2063616e206f6e6c792072656e6f756e636560448201526e103937b632b9903337b91039b2b63360891b60648201526084015b60405180910390fd5b610a1a828261202a565b5050565b600260c9541415610a415760405162461bcd60e51b8152600401610a0790612e34565b600260c95581610a895760405162461bcd60e51b8152602060048201526013602482015272105b5bdd5b9d081a5cc81a5b98dbdc9c9958dd606a1b6044820152606401610a07565b3360009081526101336020908152604080832061ffff8716845290915290205460ff1615610ae95760405162461bcd60e51b815260206004820152600d60248201526c151bdad95b8818db185a5b5959609a1b6044820152606401610a07565b80351580610af8575042813510155b610b385760405162461bcd60e51b815260206004820152601160248201527014da59db985d1d5c9948195e1c1a5c9959607a1b6044820152606401610a07565b61012f5433600090815261013660205260409020544291610b5891612fc4565b1115610ba65760405162461bcd60e51b815260206004820152601860248201527f436c61696d2077697468696e207370616365722074696d6500000000000000006044820152606401610a07565b6000610c78604080518082018252600c81526b466972656269726447616d6560a01b6020918201528151808301835260018152603160f81b9082015281517f91ab3d17e3a50a9d89e63fd30b92be7f5336b03b287bb946787a83a9d62a2766818301527fea55f854b003845a72bd53f92850259d60335315fde9cce440ee9b3bd2c9369d818401527fc89efdaa54c0f20c7adf612882df0950f5a951637e0307cdcb4c672f298b8bc66060820152306080808301919091528351808303909101815260a0909101909252815191012090565b336000908152610137602052604081208054929350909183917f91b4e17a240545175a79d7c03eeaaae9a2eb9481b5ef81266d3ef1aa8daf9ec291879185610cbf83613079565b9091555060408051602081019490945283019190915260608201528435608082015260a00160405160208183030381529060405280519060200120604051602001610d2192919061190160f01b81526002810192909252602282015260420190565b6040516020818303038152906040528051906020012090506000600182856020016020810190610d519190612b2e565b6040805160008152602081018083529390935260ff90911682820152860135606080830191909152860135608082015260a0016020604051602081039080840390855afa158015610da6573d6000803e3d6000fd5b5050604051601f19015161012e549092506001600160a01b038084169116149050610e075760405162461bcd60e51b815260206004820152601160248201527014da59db985d1d5c99481a5b9d985b1a59607a1b6044820152606401610a07565b61012d54610131546040516323b872dd60e01b81526001600160a01b039182166004820152336024820152604481018890529116906323b872dd90606401602060405180830381600087803b158015610e5f57600080fd5b505af1158015610e73573d6000803e3d6000fd5b505050506040513d601f19601f82011682018060405250810190610e9791906128c0565b503360008181526101336020908152604080832061ffff8b16808552908352818420805460ff1916600117905584845261013683529281902042905580519283529082018890528635908201527fc9ce93d954b6fedbb9adc7288761c9683ebaaa14de224e0cf26a43f6f997d3af9060600160405180910390a25050600160c95550505050565b600260c9541415610f415760405162461bcd60e51b8152600401610a0790612e34565b600260c981905561ffff8416600090815261013460205260409020908101544210610fae5760405162461bcd60e51b815260206004820152601e60248201527f43616e2070726564696374206265666f7265206d6174636820737461727400006044820152606401610a07565b6040805160608101825260ff8086168252848116602080840191825242848601818152336000818152610135855288812061ffff8e1682529094529287902095518654945186166101000261ffff19909516951694909417929092178455915160019093019290925591517f9503495a6b7978c11c59bf26f2bbab15a8e2226808b034d02d4db327e44966a99161106b918891889188919061ffff94909416845260ff928316602085015291166040830152606082015260800190565b60405180910390a25050600160c9555050565b6000805160206130cf83398151915261109681611f9a565b5061012e80546001600160a01b0319166001600160a01b0392909216919091179055565b6110c2612091565b6110cc60006120eb565b565b600054610100900460ff16158080156110ee5750600054600160ff909116105b806111085750303b158015611108575060005460ff166001145b61116b5760405162461bcd60e51b815260206004820152602e60248201527f496e697469616c697a61626c653a20636f6e747261637420697320616c72656160448201526d191e481a5b9a5d1a585b1a5e995960921b6064820152608401610a07565b6000805460ff19166001179055801561118e576000805461ff0019166101001790555b6001600160a01b0383166111e45760405162461bcd60e51b815260206004820152601f60248201527f42657474696e6720746f6b656e2061646472657373206e6f7420666f756e64006044820152606401610a07565b6111ec61213d565b6111f760003361216c565b61120f6000805160206130cf8339815191523361216c565b61012d80546001600160a01b038086166001600160a01b0319928316179092556101318054928516929091169190911790558015610996576000805461ff0019169055604051600181527f7f26b83ff96e1f2b6a682f133852f6798a09c465da95921460cefb38474024989060200160405180910390a1505050565b6000805160206130cf8339815191526112a381611f9a565b5061013055565b6000805160206130cf8339815191526112c281611f9a565b5061013180546001600160a01b0319166001600160a01b0392909216919091179055565b60009182526097602090815260408084206001600160a01b0393909316845291905290205460ff1690565b6000805160206130cf83398151915261132981611f9a565b610a1a600083611423565b6101326020908152600093845260408085208252928452919092208251808401830180519281529083019390920192909220919052805460018201805491929161137d9061303e565b80601f01602080910402602001604051908101604052809291908181526020018280546113a99061303e565b80156113f65780601f106113cb576101008083540402835291602001916113f6565b820191906000526020600020905b8154815290600101906020018083116113d957829003601f168201915b5050505050905082565b6000805160206130cf83398151915261141881611f9a565b610a1a600083610971565b60008281526097602052604090206001015461143e81611f9a565b610996838361202a565b600061145381611f9a565b60405180604001604052808581526020018481525061013460008761ffff1661ffff16815260200190815260200160002060008201518160000160008201518160000160006101000a81548161ffff021916908361ffff16021790555060208201518160000160026101000a81548161ffff021916908361ffff16021790555060408201518160000160046101000a81548161ffff021916908361ffff16021790555060608201518160000160066101000a81548161ffff021916908361ffff16021790555060808201518160000160086101000a81548161ffff021916908361ffff16021790555060a082015181600001600a6101000a81548161ffff021916908361ffff16021790555060c082015181600001600c6101000a81548161ffff021916908361ffff16021790555060e082015181600001600e6101000a81548161ffff021916908361ffff1602179055506101008201518160000160106101000a81548161ffff021916908361ffff1602179055506101208201518160000160126101000a81548161ffff021916908361ffff1602179055506101408201518160000160146101000a81548161ffff021916908361ffff1602179055506101608201518160000160166101000a81548161ffff021916908361ffff160217905550505060208201518160010160008201518160000160006101000a81548160ff021916908360ff16021790555060208201518160000160016101000a81548160ff021916908360ff16021790555060408201518160000160026101000a81548160ff021916908360ff16021790555060608201518160000160036101000a81548160ff021916908360ff1602179055506080820151816001015560a08201518160020190805190602001906116ea9291906123f3565b5060c082015180516117069160038401916020909101906123f3565b5060e082015180516117229160048401916020909101906123f3565b50610100820151805161173f9160058401916020909101906123f3565b50610120820151600690910180546101409093015115156101000261ff00199215159290921661ffff199093169290921717905550506040517f54f42153e9090a67e8dcbed1ad1c301a88b54d29a060d600ff9387b5e6fdeb3d906117ab908790879087908790612ed4565b60405180910390a15050505050565b600260c95414156117dd5760405162461bcd60e51b8152600401610a0790612e34565b600260c95561012d546001600160a01b03166118335760405162461bcd60e51b815260206004820152601560248201527414995dd85c991cc81d1bdad95b881b9bdd081cd95d605a1b6044820152606401610a07565b610130546118785760405162461bcd60e51b815260206004820152601260248201527110995d08185b5bdd5b9d081b9bdd081cd95d60721b6044820152606401610a07565b3360009081526101326020908152604080832061ffff881684529091529081902090516118a6908490612d45565b90815260405190819003602001902054156119035760405162461bcd60e51b815260206004820152601c60248201527f596f7520776572652062657474696e6720696e207468697320626574000000006044820152606401610a07565b6101305483111561194d5760405162461bcd60e51b8152602060048201526014602482015273115e18d9595908185b5bdd5b9d081a5b8818995d60621b6044820152606401610a07565b61ffff8416600090815261013460205260409020600281015442106119b45760405162461bcd60e51b815260206004820152601e60248201527f43616e2062657474696e67206265666f7265206d6174636820737461727400006044820152606401610a07565b6040805180820182528581526020808201859052336000908152610132825283812061ffff8a16825290915282902091519091906119f3908690612d45565b9081526020016040518091039020600082015181600001556020820151816001019080519060200190611a279291906123f3565b505061012d54610131546040516323b872dd60e01b81523360048201526001600160a01b03918216602482015260448101889052911691506323b872dd90606401602060405180830381600087803b158015611a8257600080fd5b505af1158015611a96573d6000803e3d6000fd5b505050506040513d601f19601f82011682018060405250810190611aba91906128c0565b503360008181526101336020908152604080832061ffff8a168452909152808220805460ff19169055517f9c654b8a4a967ed24b656bf5b2d1dfc1c6e1de5c051a3b85105b11671693df1491611b17918991899189918991612f13565b60405180910390a25050600160c955505050565b61013460209081526000918252604091829020825161018081018452815461ffff80821683526201000080830482168487015264010000000083048216848801526601000000000000830482166060808601919091526801000000000000000084048316608080870191909152600160501b8504841660a080880191909152600160601b8604851660c0880152600160701b8604851660e0880152600160801b8604851661010080890191909152600160901b87048616610120890152600160a01b87048616610140890152600160b01b9096049094166101608088019190915289519081018a5260018801805460ff808216845297810488169a83019a909a5293890486169981019990995263010000009097049093169287019290925260028401549486019490945260038301805492959394919291840191611c6f9061303e565b80601f0160208091040260200160405190810160405280929190818152602001828054611c9b9061303e565b8015611ce85780601f10611cbd57610100808354040283529160200191611ce8565b820191906000526020600020905b815481529060010190602001808311611ccb57829003601f168201915b50505050508152602001600382018054611d019061303e565b80601f0160208091040260200160405190810160405280929190818152602001828054611d2d9061303e565b8015611d7a5780601f10611d4f57610100808354040283529160200191611d7a565b820191906000526020600020905b815481529060010190602001808311611d5d57829003601f168201915b50505050508152602001600482018054611d939061303e565b80601f0160208091040260200160405190810160405280929190818152602001828054611dbf9061303e565b8015611e0c5780601f10611de157610100808354040283529160200191611e0c565b820191906000526020600020905b815481529060010190602001808311611def57829003601f168201915b50505050508152602001600582018054611e259061303e565b80601f0160208091040260200160405190810160405280929190818152602001828054611e519061303e565b8015611e9e5780601f10611e7357610100808354040283529160200191611e9e565b820191906000526020600020905b815481529060010190602001808311611e8157829003601f168201915b50505091835250506006919091015460ff80821615156020840152610100909104161515604090910152905082565b611ed5612091565b6001600160a01b038116611f3a5760405162461bcd60e51b815260206004820152602660248201527f4f776e61626c653a206e6577206f776e657220697320746865207a65726f206160448201526564647265737360d01b6064820152608401610a07565b611f43816120eb565b50565b6000805160206130cf833981519152611f5e81611f9a565b5061012f55565b60006001600160e01b03198216637965db0b60e01b14806105b357506301ffc9a760e01b6001600160e01b03198316146105b3565b611f438133612176565b611fae82826112e6565b610a1a5760008281526097602090815260408083206001600160a01b03851684529091529020805460ff19166001179055611fe63390565b6001600160a01b0316816001600160a01b0316837f2f8788117e7eff1d82e926ec794901d17c78024a50270940304540a733656f0d60405160405180910390a45050565b61203482826112e6565b15610a1a5760008281526097602090815260408083206001600160a01b0385168085529252808320805460ff1916905551339285917ff6391f5c32d9c69d2a47ea670b442974b53935d1edc7fd64eb21e047a839171b9190a45050565b6033546001600160a01b031633146110cc5760405162461bcd60e51b815260206004820181905260248201527f4f776e61626c653a2063616c6c6572206973206e6f7420746865206f776e65726044820152606401610a07565b603380546001600160a01b038381166001600160a01b0319831681179093556040519116919082907f8be0079c531659141344cd1fd0a4f28419497f9722a3daafe3b4186f6b6457e090600090a35050565b600054610100900460ff166121645760405162461bcd60e51b8152600401610a0790612de9565b6110cc6121da565b610a1a8282611fa4565b61218082826112e6565b610a1a57612198816001600160a01b0316601461220a565b6121a383602061220a565b6040516020016121b4929190612d61565b60408051601f198184030181529082905262461bcd60e51b8252610a0791600401612dd6565b600054610100900460ff166122015760405162461bcd60e51b8152600401610a0790612de9565b6110cc336120eb565b60606000612219836002612fdc565b612224906002612fc4565b67ffffffffffffffff81111561224a57634e487b7160e01b600052604160045260246000fd5b6040519080825280601f01601f191660200182016040528015612274576020820181803683370190505b509050600360fc1b8160008151811061229d57634e487b7160e01b600052603260045260246000fd5b60200101906001600160f81b031916908160001a905350600f60fb1b816001815181106122da57634e487b7160e01b600052603260045260246000fd5b60200101906001600160f81b031916908160001a90535060006122fe846002612fdc565b612309906001612fc4565b90505b600181111561239d576f181899199a1a9b1b9c1cb0b131b232b360811b85600f166010811061234b57634e487b7160e01b600052603260045260246000fd5b1a60f81b82828151811061236f57634e487b7160e01b600052603260045260246000fd5b60200101906001600160f81b031916908160001a90535060049490941c9361239681613027565b905061230c565b5083156123ec5760405162461bcd60e51b815260206004820181905260248201527f537472696e67733a20686578206c656e67746820696e73756666696369656e746044820152606401610a07565b9392505050565b8280546123ff9061303e565b90600052602060002090601f0160209004810192826124215760008555612467565b82601f1061243a57805160ff1916838001178555612467565b82800160010185558215612467579182015b8281111561246757825182559160200191906001019061244c565b50612473929150612477565b5090565b5b808211156124735760008155600101612478565b600067ffffffffffffffff808411156124a7576124a76130aa565b604051601f8501601f19908116603f011681019082821181831017156124cf576124cf6130aa565b816040528093508581528686860111156124e857600080fd5b858560208301376000602087830101525050509392505050565b80356001600160a01b038116811461251957600080fd5b919050565b8035612519816130c0565b600082601f830112612539578081fd5b6123ec8383356020850161248c565b6000610160828403121561255a578081fd5b612562612f76565b905061256d82612765565b815261257b60208301612765565b602082015261258c60408301612765565b604082015261259d60608301612765565b60608201526080820135608082015260a082013567ffffffffffffffff808211156125c757600080fd5b6125d385838601612529565b60a084015260c08401359150808211156125ec57600080fd5b6125f885838601612529565b60c084015260e084013591508082111561261157600080fd5b61261d85838601612529565b60e08401526101009150818401358181111561263857600080fd5b61264486828701612529565b8385015250505061012061265981840161251e565b9082015261014061266b83820161251e565b9082015292915050565b60006101808284031215612687578081fd5b61268f612fa0565b905061269a82612753565b81526126a860208301612753565b60208201526126b960408301612753565b60408201526126ca60608301612753565b60608201526126db60808301612753565b60808201526126ec60a08301612753565b60a08201526126fd60c08301612753565b60c082015261270e60e08301612753565b60e0820152610100612721818401612753565b90820152610120612733838201612753565b90820152610140612745838201612753565b9082015261016061266b8382015b803561ffff8116811461251957600080fd5b803560ff8116811461251957600080fd5b600060208284031215612787578081fd5b6123ec82612502565b600080604083850312156127a2578081fd5b6127ab83612502565b91506127b960208401612502565b90509250929050565b600080600080608085870312156127d7578182fd5b6127e085612502565b93506127ee60208601612502565b925060408501359150606085013567ffffffffffffffff811115612810578182fd5b8501601f81018713612820578182fd5b61282f8782356020840161248c565b91505092959194509250565b6000806040838503121561284d578182fd5b61285683612502565b91506127b960208401612753565b600080600060608486031215612878578283fd5b61288184612502565b925061288f60208501612753565b9150604084013567ffffffffffffffff8111156128aa578182fd5b6128b686828701612529565b9150509250925092565b6000602082840312156128d1578081fd5b81516123ec816130c0565b6000602082840312156128ed578081fd5b5035919050565b60008060408385031215612906578182fd5b823591506127b960208401612502565b600060208284031215612927578081fd5b81356001600160e01b0319811681146123ec578182fd5b60006020828403121561294f578081fd5b6123ec82612753565b6000806040838503121561296a578182fd5b61297383612753565b9150602083013567ffffffffffffffff81111561298e578182fd5b61299a85828601612548565b9150509250929050565b6000806101a083850312156129b7578182fd5b6129c083612753565b91506127b98460208501612675565b6000806000806101e085870312156129e5578182fd5b6129ee85612753565b93506129fd8660208701612675565b92506101a085013567ffffffffffffffff811115612a19578283fd5b612a2587828801612548565b949793965093946101c0013593505050565b60008060008060808587031215612a4c578182fd5b612a5585612753565b935060208501359250604085013567ffffffffffffffff80821115612a78578384fd5b612a8488838901612529565b93506060870135915080821115612a99578283fd5b5061282f87828801612529565b600080600083850360c0811215612abb578182fd5b612ac485612753565b9350602085013592506080603f1982011215612ade578182fd5b506040840190509250925092565b600080600060608486031215612b00578081fd5b612b0984612753565b9250612b1760208501612765565b9150612b2560408501612765565b90509250925092565b600060208284031215612b3f578081fd5b6123ec82612765565b60008151808452612b60816020860160208601612ffb565b601f01601f19169290920160200192915050565b805160ff16825260006101606020830151612b94602086018260ff169052565b506040830151612ba9604086018260ff169052565b506060830151612bbe606086018260ff169052565b506080830151608085015260a08301518160a0860152612be082860182612b48565b91505060c083015184820360c0860152612bfa8282612b48565b91505060e083015184820360e0860152612c148282612b48565b9150506101008084015185830382870152612c2f8382612b48565b9250505061012080840151612c478287018215159052565b50506101409283015115159390920192909252919050565b805161ffff1682526020810151612c7c602084018261ffff169052565b506040810151612c92604084018261ffff169052565b506060810151612ca8606084018261ffff169052565b506080810151612cbe608084018261ffff169052565b5060a0810151612cd460a084018261ffff169052565b5060c0810151612cea60c084018261ffff169052565b5060e0810151612d0060e084018261ffff169052565b506101008181015161ffff9081169184019190915261012080830151821690840152610140808301518216908401526101608083015191821681850152905b50505050565b60008251612d57818460208701612ffb565b9190910192915050565b7f416363657373436f6e74726f6c3a206163636f756e7420000000000000000000815260008351612d99816017850160208801612ffb565b7001034b99036b4b9b9b4b733903937b6329607d1b6017918401918201528351612dca816028840160208801612ffb565b01602801949350505050565b6020815260006123ec6020830184612b48565b6020808252602b908201527f496e697469616c697a61626c653a20636f6e7472616374206973206e6f74206960408201526a6e697469616c697a696e6760a81b606082015260800190565b6020808252601f908201527f5265656e7472616e637947756172643a207265656e7472616e742063616c6c00604082015260600190565b60006101a0612e7a8386612c5f565b80610180840152612e8d81840185612b74565b95945050505050565b61ffff83168152604060208201526000612eb36040830184612b74565b949350505050565b61ffff831681526101a081016123ec6020830184612c5f565b60006101e061ffff87168352612eed6020840187612c5f565b806101a0840152612f0081840186612b74565b915050826101c083015295945050505050565b61ffff8616815284602082015260a060408201526000612f3660a0830186612b48565b8281036060840152612f488186612b48565b91505082151560808301529695505050505050565b828152604060208201526000612eb36040830184612b48565b604051610160810167ffffffffffffffff81118282101715612f9a57612f9a6130aa565b60405290565b604051610180810167ffffffffffffffff81118282101715612f9a57612f9a6130aa565b60008219821115612fd757612fd7613094565b500190565b6000816000190483118215151615612ff657612ff6613094565b500290565b60005b83811015613016578181015183820152602001612ffe565b83811115612d3f5750506000910152565b60008161303657613036613094565b506000190190565b600181811c9082168061305257607f821691505b6020821081141561307357634e487b7160e01b600052602260045260246000fd5b50919050565b600060001982141561308d5761308d613094565b5060010190565b634e487b7160e01b600052601160045260246000fd5b634e487b7160e01b600052604160045260246000fd5b8015158114611f4357600080fdfeb19546dff01e856fb3f010c267a7b1c60363cf8a4664e21cc89c26224620214ea2646970667358221220cac5bba8dd1a26fe98c8664a5d5a8af617a71017946e21b7207ef6e1176222a964736f6c63430008040033",
  "linkReferences": {},
  "deployedLinkReferences": {}
}