{
  "_format": "hh-sol-artifact-1",
  "contractName": "SBirdGiftCode",
  "sourceName": "contracts/GiftCode.sol",
  "abi": [
    {
      "anonymous": false,
      "inputs": [
        {
          "indexed": false,
          "internalType": "uint16",
          "name": "matchID",
          "type": "uint16"
        },
        {
          "components": [
            {
              "internalType": "uint16",
              "name": "ouHtOver",
              "type": "uint16"
            },
            {
              "internalType": "uint16",
              "name": "ouHtRatio",
              "type": "uint16"
            },
            {
              "internalType": "uint16",
              "name": "ouHtUnder",
              "type": "uint16"
            },
            {
              "internalType": "uint16",
              "name": "ouFtOver",
              "type": "uint16"
            },
            {
              "internalType": "uint16",
              "name": "ouFtRatio",
              "type": "uint16"
            },
            {
              "internalType": "uint16",
              "name": "ouFtUnder",
              "type": "uint16"
            },
            {
              "internalType": "uint16",
              "name": "oddsHtHome",
              "type": "uint16"
            },
            {
              "internalType": "uint16",
              "name": "oddsHtDraw",
              "type": "uint16"
            },
            {
              "internalType": "uint16",
              "name": "oddsHtAway",
              "type": "uint16"
            },
            {
              "internalType": "uint16",
              "name": "oddsFtHome",
              "type": "uint16"
            },
            {
              "internalType": "uint16",
              "name": "oddsFtDraw",
              "type": "uint16"
            },
            {
              "internalType": "uint16",
              "name": "oddsFtAway",
              "type": "uint16"
            }
          ],
          "indexed": false,
          "internalType": "struct IBirdBetting.MatchStatistics",
          "name": "mSta",
          "type": "tuple"
        },
        {
          "components": [
            {
              "internalType": "uint8",
              "name": "ht_homeScore",
              "type": "uint8"
            },
            {
              "internalType": "uint8",
              "name": "ht_awayScore",
              "type": "uint8"
            },
            {
              "internalType": "uint8",
              "name": "ft_homeScore",
              "type": "uint8"
            },
            {
              "internalType": "uint8",
              "name": "ft_awayScore",
              "type": "uint8"
            },
            {
              "internalType": "uint256",
              "name": "startTime",
              "type": "uint256"
            },
            {
              "internalType": "string",
              "name": "homeName",
              "type": "string"
            },
            {
              "internalType": "string",
              "name": "homeIcon",
              "type": "string"
            },
            {
              "internalType": "string",
              "name": "awayName",
              "type": "string"
            },
            {
              "internalType": "string",
              "name": "awayIcon",
              "type": "string"
            },
            {
              "internalType": "string",
              "name": "location",
              "type": "string"
            },
            {
              "internalType": "string",
              "name": "round",
              "type": "string"
            },
            {
              "internalType": "bool",
              "name": "isHalfTime",
              "type": "bool"
            },
            {
              "internalType": "bool",
              "name": "isFinished",
              "type": "bool"
            }
          ],
          "indexed": false,
          "internalType": "struct IBirdBetting.MatchInfo",
          "name": "mInf",
          "type": "tuple"
        },
        {
          "indexed": false,
          "internalType": "uint256",
          "name": "sofaMatchID",
          "type": "uint256"
        }
      ],
      "name": "CreateMatch",
      "type": "event"
    },
    {
      "anonymous": false,
      "inputs": [
        {
          "indexed": false,
          "internalType": "uint8",
          "name": "version",
          "type": "uint8"
        }
      ],
      "name": "Initialized",
      "type": "event"
    },
    {
      "anonymous": false,
      "inputs": [
        {
          "indexed": true,
          "internalType": "address",
          "name": "previousOwner",
          "type": "address"
        },
        {
          "indexed": true,
          "internalType": "address",
          "name": "newOwner",
          "type": "address"
        }
      ],
      "name": "OwnershipTransferred",
      "type": "event"
    },
    {
      "anonymous": false,
      "inputs": [
        {
          "indexed": true,
          "internalType": "bytes32",
          "name": "role",
          "type": "bytes32"
        },
        {
          "indexed": true,
          "internalType": "bytes32",
          "name": "previousAdminRole",
          "type": "bytes32"
        },
        {
          "indexed": true,
          "internalType": "bytes32",
          "name": "newAdminRole",
          "type": "bytes32"
        }
      ],
      "name": "RoleAdminChanged",
      "type": "event"
    },
    {
      "anonymous": false,
      "inputs": [
        {
          "indexed": true,
          "internalType": "bytes32",
          "name": "role",
          "type": "bytes32"
        },
        {
          "indexed": true,
          "internalType": "address",
          "name": "account",
          "type": "address"
        },
        {
          "indexed": true,
          "internalType": "address",
          "name": "sender",
          "type": "address"
        }
      ],
      "name": "RoleGranted",
      "type": "event"
    },
    {
      "anonymous": false,
      "inputs": [
        {
          "indexed": true,
          "internalType": "bytes32",
          "name": "role",
          "type": "bytes32"
        },
        {
          "indexed": true,
          "internalType": "address",
          "name": "account",
          "type": "address"
        },
        {
          "indexed": true,
          "internalType": "address",
          "name": "sender",
          "type": "address"
        }
      ],
      "name": "RoleRevoked",
      "type": "event"
    },
    {
      "anonymous": false,
      "inputs": [
        {
          "indexed": false,
          "internalType": "uint16",
          "name": "matchID",
          "type": "uint16"
        },
        {
          "components": [
            {
              "internalType": "uint8",
              "name": "ht_homeScore",
              "type": "uint8"
            },
            {
              "internalType": "uint8",
              "name": "ht_awayScore",
              "type": "uint8"
            },
            {
              "internalType": "uint8",
              "name": "ft_homeScore",
              "type": "uint8"
            },
            {
              "internalType": "uint8",
              "name": "ft_awayScore",
              "type": "uint8"
            },
            {
              "internalType": "uint256",
              "name": "startTime",
              "type": "uint256"
            },
            {
              "internalType": "string",
              "name": "homeName",
              "type": "string"
            },
            {
              "internalType": "string",
              "name": "homeIcon",
              "type": "string"
            },
            {
              "internalType": "string",
              "name": "awayName",
              "type": "string"
            },
            {
              "internalType": "string",
              "name": "awayIcon",
              "type": "string"
            },
            {
              "internalType": "string",
              "name": "location",
              "type": "string"
            },
            {
              "internalType": "string",
              "name": "round",
              "type": "string"
            },
            {
              "internalType": "bool",
              "name": "isHalfTime",
              "type": "bool"
            },
            {
              "internalType": "bool",
              "name": "isFinished",
              "type": "bool"
            }
          ],
          "indexed": false,
          "internalType": "struct IBirdBetting.MatchInfo",
          "name": "mInf",
          "type": "tuple"
        }
      ],
      "name": "UpdateMatchInfo",
      "type": "event"
    },
    {
      "anonymous": false,
      "inputs": [
        {
          "indexed": false,
          "internalType": "uint16",
          "name": "matchID",
          "type": "uint16"
        },
        {
          "components": [
            {
              "internalType": "uint16",
              "name": "ouHtOver",
              "type": "uint16"
            },
            {
              "internalType": "uint16",
              "name": "ouHtRatio",
              "type": "uint16"
            },
            {
              "internalType": "uint16",
              "name": "ouHtUnder",
              "type": "uint16"
            },
            {
              "internalType": "uint16",
              "name": "ouFtOver",
              "type": "uint16"
            },
            {
              "internalType": "uint16",
              "name": "ouFtRatio",
              "type": "uint16"
            },
            {
              "internalType": "uint16",
              "name": "ouFtUnder",
              "type": "uint16"
            },
            {
              "internalType": "uint16",
              "name": "oddsHtHome",
              "type": "uint16"
            },
            {
              "internalType": "uint16",
              "name": "oddsHtDraw",
              "type": "uint16"
            },
            {
              "internalType": "uint16",
              "name": "oddsHtAway",
              "type": "uint16"
            },
            {
              "internalType": "uint16",
              "name": "oddsFtHome",
              "type": "uint16"
            },
            {
              "internalType": "uint16",
              "name": "oddsFtDraw",
              "type": "uint16"
            },
            {
              "internalType": "uint16",
              "name": "oddsFtAway",
              "type": "uint16"
            }
          ],
          "indexed": false,
          "internalType": "struct IBirdBetting.MatchStatistics",
          "name": "mSta",
          "type": "tuple"
        }
      ],
      "name": "UpdateMatchStatistics",
      "type": "event"
    },
    {
      "anonymous": false,
      "inputs": [
        {
          "indexed": true,
          "internalType": "address",
          "name": "user",
          "type": "address"
        },
        {
          "indexed": false,
          "internalType": "uint16",
          "name": "matchID",
          "type": "uint16"
        },
        {
          "indexed": false,
          "internalType": "uint256",
          "name": "amount",
          "type": "uint256"
        },
        {
          "indexed": false,
          "internalType": "string",
          "name": "betType",
          "type": "string"
        },
        {
          "indexed": false,
          "internalType": "string",
          "name": "betPlace",
          "type": "string"
        },
        {
          "indexed": false,
          "internalType": "bool",
          "name": "claimed",
          "type": "bool"
        }
      ],
      "name": "UserBetting",
      "type": "event"
    },
    {
      "anonymous": false,
      "inputs": [
        {
          "indexed": false,
          "internalType": "uint16",
          "name": "matchID",
          "type": "uint16"
        },
        {
          "indexed": false,
          "internalType": "string",
          "name": "betType",
          "type": "string"
        },
        {
          "indexed": false,
          "internalType": "uint256",
          "name": "amount",
          "type": "uint256"
        },
        {
          "indexed": true,
          "internalType": "address",
          "name": "user",
          "type": "address"
        },
        {
          "indexed": false,
          "internalType": "uint256",
          "name": "deadline",
          "type": "uint256"
        }
      ],
      "name": "UserClaim",
      "type": "event"
    },
    {
      "anonymous": false,
      "inputs": [
        {
          "indexed": true,
          "internalType": "address",
          "name": "user",
          "type": "address"
        },
        {
          "indexed": false,
          "internalType": "uint16",
          "name": "matchID",
          "type": "uint16"
        },
        {
          "indexed": false,
          "internalType": "uint8",
          "name": "homeScore",
          "type": "uint8"
        },
        {
          "indexed": false,
          "internalType": "uint8",
          "name": "awayScore",
          "type": "uint8"
        },
        {
          "indexed": false,
          "internalType": "uint256",
          "name": "time",
          "type": "uint256"
        }
      ],
      "name": "UserPredicting",
      "type": "event"
    },
    {
      "anonymous": false,
      "inputs": [
        {
          "indexed": false,
          "internalType": "string",
          "name": "code",
          "type": "string"
        },
        {
          "indexed": false,
          "internalType": "uint256",
          "name": "amount",
          "type": "uint256"
        },
        {
          "indexed": true,
          "internalType": "address",
          "name": "user",
          "type": "address"
        },
        {
          "indexed": false,
          "internalType": "uint256",
          "name": "deadline",
          "type": "uint256"
        }
      ],
      "name": "UserUseCode",
      "type": "event"
    },
    {
      "inputs": [],
      "name": "CLAIM_TOKEN_WITH_SIG_TYPEHASH",
      "outputs": [
        {
          "internalType": "bytes32",
          "name": "",
          "type": "bytes32"
        }
      ],
      "stateMutability": "view",
      "type": "function"
    },
    {
      "inputs": [],
      "name": "DEFAULT_ADMIN_ROLE",
      "outputs": [
        {
          "internalType": "bytes32",
          "name": "",
          "type": "bytes32"
        }
      ],
      "stateMutability": "view",
      "type": "function"
    },
    {
      "inputs": [
        {
          "internalType": "address",
          "name": "",
          "type": "address"
        }
      ],
      "name": "TokenClaimNonces",
      "outputs": [
        {
          "internalType": "uint256",
          "name": "",
          "type": "uint256"
        }
      ],
      "stateMutability": "view",
      "type": "function"
    },
    {
      "inputs": [
        {
          "internalType": "address",
          "name": "",
          "type": "address"
        }
      ],
      "name": "TokenClaimTimeStamp",
      "outputs": [
        {
          "internalType": "uint256",
          "name": "",
          "type": "uint256"
        }
      ],
      "stateMutability": "view",
      "type": "function"
    },
    {
      "inputs": [
        {
          "internalType": "address",
          "name": "_token",
          "type": "address"
        },
        {
          "internalType": "address",
          "name": "_fundWallet",
          "type": "address"
        }
      ],
      "name": "__SBirdGiftCode_init",
      "outputs": [],
      "stateMutability": "nonpayable",
      "type": "function"
    },
    {
      "inputs": [
        {
          "internalType": "address",
          "name": "",
          "type": "address"
        },
        {
          "internalType": "string",
          "name": "",
          "type": "string"
        }
      ],
      "name": "codeUseByUser",
      "outputs": [
        {
          "internalType": "bool",
          "name": "",
          "type": "bool"
        }
      ],
      "stateMutability": "view",
      "type": "function"
    },
    {
      "inputs": [],
      "name": "fundWallet",
      "outputs": [
        {
          "internalType": "address",
          "name": "",
          "type": "address"
        }
      ],
      "stateMutability": "view",
      "type": "function"
    },
    {
      "inputs": [
        {
          "internalType": "bytes32",
          "name": "role",
          "type": "bytes32"
        }
      ],
      "name": "getRoleAdmin",
      "outputs": [
        {
          "internalType": "bytes32",
          "name": "",
          "type": "bytes32"
        }
      ],
      "stateMutability": "view",
      "type": "function"
    },
    {
      "inputs": [],
      "name": "getSigner",
      "outputs": [
        {
          "internalType": "address",
          "name": "",
          "type": "address"
        }
      ],
      "stateMutability": "view",
      "type": "function"
    },
    {
      "inputs": [
        {
          "internalType": "address",
          "name": "account",
          "type": "address"
        }
      ],
      "name": "grantAdminRole",
      "outputs": [],
      "stateMutability": "nonpayable",
      "type": "function"
    },
    {
      "inputs": [
        {
          "internalType": "bytes32",
          "name": "role",
          "type": "bytes32"
        },
        {
          "internalType": "address",
          "name": "account",
          "type": "address"
        }
      ],
      "name": "grantRole",
      "outputs": [],
      "stateMutability": "nonpayable",
      "type": "function"
    },
    {
      "inputs": [
        {
          "internalType": "bytes32",
          "name": "role",
          "type": "bytes32"
        },
        {
          "internalType": "address",
          "name": "account",
          "type": "address"
        }
      ],
      "name": "hasRole",
      "outputs": [
        {
          "internalType": "bool",
          "name": "",
          "type": "bool"
        }
      ],
      "stateMutability": "view",
      "type": "function"
    },
    {
      "inputs": [
        {
          "internalType": "address",
          "name": "",
          "type": "address"
        },
        {
          "internalType": "address",
          "name": "",
          "type": "address"
        },
        {
          "internalType": "uint256",
          "name": "",
          "type": "uint256"
        },
        {
          "internalType": "bytes",
          "name": "",
          "type": "bytes"
        }
      ],
      "name": "onERC721Received",
      "outputs": [
        {
          "internalType": "bytes4",
          "name": "",
          "type": "bytes4"
        }
      ],
      "stateMutability": "nonpayable",
      "type": "function"
    },
    {
      "inputs": [],
      "name": "owner",
      "outputs": [
        {
          "internalType": "address",
          "name": "",
          "type": "address"
        }
      ],
      "stateMutability": "view",
      "type": "function"
    },
    {
      "inputs": [],
      "name": "renounceOwnership",
      "outputs": [],
      "stateMutability": "nonpayable",
      "type": "function"
    },
    {
      "inputs": [
        {
          "internalType": "bytes32",
          "name": "role",
          "type": "bytes32"
        },
        {
          "internalType": "address",
          "name": "account",
          "type": "address"
        }
      ],
      "name": "renounceRole",
      "outputs": [],
      "stateMutability": "nonpayable",
      "type": "function"
    },
    {
      "inputs": [
        {
          "internalType": "address",
          "name": "account",
          "type": "address"
        }
      ],
      "name": "revokeAdminRole",
      "outputs": [],
      "stateMutability": "nonpayable",
      "type": "function"
    },
    {
      "inputs": [
        {
          "internalType": "bytes32",
          "name": "role",
          "type": "bytes32"
        },
        {
          "internalType": "address",
          "name": "account",
          "type": "address"
        }
      ],
      "name": "revokeRole",
      "outputs": [],
      "stateMutability": "nonpayable",
      "type": "function"
    },
    {
      "inputs": [
        {
          "internalType": "address",
          "name": "_fund",
          "type": "address"
        }
      ],
      "name": "setFundAddress",
      "outputs": [],
      "stateMutability": "nonpayable",
      "type": "function"
    },
    {
      "inputs": [
        {
          "internalType": "address",
          "name": "_signer",
          "type": "address"
        }
      ],
      "name": "setSigner",
      "outputs": [],
      "stateMutability": "nonpayable",
      "type": "function"
    },
    {
      "inputs": [
        {
          "internalType": "uint256",
          "name": "spacer",
          "type": "uint256"
        }
      ],
      "name": "setSpacer",
      "outputs": [],
      "stateMutability": "nonpayable",
      "type": "function"
    },
    {
      "inputs": [
        {
          "internalType": "address",
          "name": "_tokenAddress",
          "type": "address"
        }
      ],
      "name": "setTokenAddress",
      "outputs": [],
      "stateMutability": "nonpayable",
      "type": "function"
    },
    {
      "inputs": [
        {
          "internalType": "bytes4",
          "name": "interfaceId",
          "type": "bytes4"
        }
      ],
      "name": "supportsInterface",
      "outputs": [
        {
          "internalType": "bool",
          "name": "",
          "type": "bool"
        }
      ],
      "stateMutability": "view",
      "type": "function"
    },
    {
      "inputs": [
        {
          "internalType": "address",
          "name": "newOwner",
          "type": "address"
        }
      ],
      "name": "transferOwnership",
      "outputs": [],
      "stateMutability": "nonpayable",
      "type": "function"
    },
    {
      "inputs": [
        {
          "internalType": "string",
          "name": "_code",
          "type": "string"
        },
        {
          "internalType": "uint256",
          "name": "_amount",
          "type": "uint256"
        },
        {
          "components": [
            {
              "internalType": "uint256",
              "name": "deadline",
              "type": "uint256"
            },
            {
              "internalType": "uint8",
              "name": "v",
              "type": "uint8"
            },
            {
              "internalType": "bytes32",
              "name": "r",
              "type": "bytes32"
            },
            {
              "internalType": "bytes32",
              "name": "s",
              "type": "bytes32"
            }
          ],
          "internalType": "struct IBirdBetting.EIP712Signature",
          "name": "_signature",
          "type": "tuple"
        }
      ],
      "name": "useCode",
      "outputs": [],
      "stateMutability": "nonpayable",
      "type": "function"
    }
  ],
  "bytecode": "0x608060405234801561001057600080fd5b506119a6806100206000396000f3fe608060405234801561001057600080fd5b50600436106101725760003560e01c80637ac3c02f116100de578063a217fddf11610097578063d547741f11610071578063d547741f146103b2578063e7dd4e4e146103c5578063f2fde38b146103d8578063f6261162146103eb57600080fd5b8063a217fddf14610384578063a31c0a6f1461038c578063c634b78e1461039f57600080fd5b80637ac3c02f1461031157806385dc3004146103195780638da5cb5b1461032c578063902fc1281461033d57806391d148541461035e5780639a19c7b01461037157600080fd5b80632f2ff15d116101305780632f2ff15d1461028357806336568abe1461029657806350bd5f6c146102a9578063664a1ad6146102ca5780636c19e783146102f6578063715018a61461030957600080fd5b8062c712291461017757806301ffc9a7146101b1578063150b7a02146101d45780631e4d403b1461020b578063248a9ca31461024b57806326a4e8d21461026e575b600080fd5b61019e7f62400b9c56651640542a5222bfbe5ecc92a38c4d996684a904e3c4cac9d6c31b81565b6040519081526020015b60405180910390f35b6101c46101bf3660046116a2565b6103fe565b60405190151581526020016101a8565b6101f26101e2366004611583565b630a85bd0160e11b949350505050565b6040516001600160e01b031990911681526020016101a8565b6101c46102193660046115fc565b610131602090815260009283526040909220815180830184018051928152908401929093019190912091525460ff1681565b61019e610259366004611668565b60009081526097602052604090206001015490565b61028161027c366004611537565b610421565b005b610281610291366004611680565b61045d565b6102816102a4366004611680565b610487565b61019e6102b7366004611537565b6101336020526000908152604090205481565b610130546102de906001600160a01b031681565b6040516001600160a01b0390911681526020016101a8565b610281610304366004611537565b61050a565b610281610546565b6102de61055a565b610281610327366004611537565b610586565b6033546001600160a01b03166102de565b61019e61034b366004611537565b6101326020526000908152604090205481565b6101c461036c366004611680565b6105c2565b61028161037f366004611537565b6105ed565b61019e600081565b61028161039a366004611551565b610610565b6102816103ad366004611537565b6107cd565b6102816103c0366004611680565b6107f0565b6102816103d33660046116ca565b610815565b6102816103e6366004611537565b610dcd565b6102816103f9366004611668565b610e46565b60006001600160e01b03198216158061041b575061041b82610e65565b92915050565b60008051602061195183398151915261043981610e9a565b5061012d80546001600160a01b0319166001600160a01b0392909216919091179055565b60008281526097602052604090206001015461047881610e9a565b6104828383610ea4565b505050565b6001600160a01b03811633146104fc5760405162461bcd60e51b815260206004820152602f60248201527f416363657373436f6e74726f6c3a2063616e206f6e6c792072656e6f756e636560448201526e103937b632b9903337b91039b2b63360891b60648201526084015b60405180910390fd5b6105068282610f2a565b5050565b60008051602061195183398151915261052281610e9a565b5061012e80546001600160a01b0319166001600160a01b0392909216919091179055565b61054e610f91565b6105586000610feb565b565b600060008051602061195183398151915261057481610e9a565b505061012e546001600160a01b031690565b60008051602061195183398151915261059e81610e9a565b5061013080546001600160a01b0319166001600160a01b0392909216919091179055565b60009182526097602090815260408084206001600160a01b0393909316845291905290205460ff1690565b60008051602061195183398151915261060581610e9a565b6105066000836107f0565b600054610100900460ff16158080156106305750600054600160ff909116105b8061064a5750303b15801561064a575060005460ff166001145b6106ad5760405162461bcd60e51b815260206004820152602e60248201527f496e697469616c697a61626c653a20636f6e747261637420697320616c72656160448201526d191e481a5b9a5d1a585b1a5e995960921b60648201526084016104f3565b6000805460ff1916600117905580156106d0576000805461ff0019166101001790555b6001600160a01b0383166107265760405162461bcd60e51b815260206004820152601c60248201527f4249524420746f6b656e2061646472657373206e6f7420666f756e640000000060448201526064016104f3565b61072e61103d565b61073960003361106c565b6107516000805160206119518339815191523361106c565b61012d80546001600160a01b038086166001600160a01b0319928316179092556101308054928516929091169190911790558015610482576000805461ff0019169055604051600181527f7f26b83ff96e1f2b6a682f133852f6798a09c465da95921460cefb38474024989060200160405180910390a1505050565b6000805160206119518339815191526107e581610e9a565b61050660008361045d565b60008281526097602052604090206001015461080b81610e9a565b6104828383610f2a565b600260c95414156108685760405162461bcd60e51b815260206004820152601f60248201527f5265656e7472616e637947756172643a207265656e7472616e742063616c6c0060448201526064016104f3565b600260c955816108b05760405162461bcd60e51b8152602060048201526013602482015272105b5bdd5b9d081a5cc81a5b98dbdc9c9958dd606a1b60448201526064016104f3565b33600090815261013160205260409081902090516108cf908590611777565b9081526040519081900360200190205460ff161561091b5760405162461bcd60e51b815260206004820152600960248201526810dbd919481d5cd95960ba1b60448201526064016104f3565b8035158061092a575042813510155b61096a5760405162461bcd60e51b815260206004820152601160248201527014da59db985d1d5c9948195e1c1a5c9959607a1b60448201526064016104f3565b61012f543360009081526101326020526040902054429161098a9161188b565b11156109d85760405162461bcd60e51b815260206004820152601860248201527f436c61696d2077697468696e207370616365722074696d65000000000000000060448201526064016104f3565b6000610aaa604080518082018252600c81526b466972656269726447616d6560a01b6020918201528151808301835260018152603160f81b9082015281517f91ab3d17e3a50a9d89e63fd30b92be7f5336b03b287bb946787a83a9d62a2766818301527fea55f854b003845a72bd53f92850259d60335315fde9cce440ee9b3bd2c9369d818401527fc89efdaa54c0f20c7adf612882df0950f5a951637e0307cdcb4c672f298b8bc66060820152306080808301919091528351808303909101815260a0909101909252815191012090565b90506000817f62400b9c56651640542a5222bfbe5ecc92a38c4d996684a904e3c4cac9d6c31b610adb336014611076565b604051602001610aeb9190611777565b6040516020818303038152906040528051906020012087604051602001610b129190611777565b60408051601f198184030181529181528151602092830120336000908152610133909352908220805491928a929190610b4a83611909565b909155506040805160208101969096528501939093526060840191909152608083015260a0820152843560c082015260e00160405160208183030381529060405280519060200120604051602001610bb992919061190160f01b81526002810192909252602282015260420190565b6040516020818303038152906040528051906020012090506000600182856020016020810190610be9919061172a565b6040805160008152602081018083529390935260ff90911682820152860135606080830191909152860135608082015260a0016020604051602081039080840390855afa158015610c3e573d6000803e3d6000fd5b5050604051601f19015161012e549092506001600160a01b038084169116149050610c9f5760405162461bcd60e51b815260206004820152601160248201527014da59db985d1d5c99481a5b9d985b1a59607a1b60448201526064016104f3565b61012d54610130546040516323b872dd60e01b81526001600160a01b039182166004820152336024820152604481018890529116906323b872dd90606401602060405180830381600087803b158015610cf757600080fd5b505af1158015610d0b573d6000803e3d6000fd5b505050506040513d601f19601f82011682018060405250810190610d2f9190611648565b50336000908152610131602052604090819020905160019190610d53908990611777565b9081526040805160209281900383018120805460ff1916941515949094179093553360008181526101329093529120429055907f17bd39170bbd81d3a7ab430fe8b79543dab292190697e6714d4801df4dd1104090610db8908990899089359061181b565b60405180910390a25050600160c95550505050565b610dd5610f91565b6001600160a01b038116610e3a5760405162461bcd60e51b815260206004820152602660248201527f4f776e61626c653a206e6577206f776e657220697320746865207a65726f206160448201526564647265737360d01b60648201526084016104f3565b610e4381610feb565b50565b600080516020611951833981519152610e5e81610e9a565b5061012f55565b60006001600160e01b03198216637965db0b60e01b148061041b57506301ffc9a760e01b6001600160e01b031983161461041b565b610e43813361125f565b610eae82826105c2565b6105065760008281526097602090815260408083206001600160a01b03851684529091529020805460ff19166001179055610ee63390565b6001600160a01b0316816001600160a01b0316837f2f8788117e7eff1d82e926ec794901d17c78024a50270940304540a733656f0d60405160405180910390a45050565b610f3482826105c2565b156105065760008281526097602090815260408083206001600160a01b0385168085529252808320805460ff1916905551339285917ff6391f5c32d9c69d2a47ea670b442974b53935d1edc7fd64eb21e047a839171b9190a45050565b6033546001600160a01b031633146105585760405162461bcd60e51b815260206004820181905260248201527f4f776e61626c653a2063616c6c6572206973206e6f7420746865206f776e657260448201526064016104f3565b603380546001600160a01b038381166001600160a01b0319831681179093556040519116919082907f8be0079c531659141344cd1fd0a4f28419497f9722a3daafe3b4186f6b6457e090600090a35050565b600054610100900460ff166110645760405162461bcd60e51b81526004016104f390611840565b6105586112c3565b6105068282610ea4565b606060006110858360026118a3565b61109090600261188b565b67ffffffffffffffff8111156110b657634e487b7160e01b600052604160045260246000fd5b6040519080825280601f01601f1916602001820160405280156110e0576020820181803683370190505b509050600360fc1b8160008151811061110957634e487b7160e01b600052603260045260246000fd5b60200101906001600160f81b031916908160001a905350600f60fb1b8160018151811061114657634e487b7160e01b600052603260045260246000fd5b60200101906001600160f81b031916908160001a905350600061116a8460026118a3565b61117590600161188b565b90505b6001811115611209576f181899199a1a9b1b9c1cb0b131b232b360811b85600f16601081106111b757634e487b7160e01b600052603260045260246000fd5b1a60f81b8282815181106111db57634e487b7160e01b600052603260045260246000fd5b60200101906001600160f81b031916908160001a90535060049490941c93611202816118f2565b9050611178565b5083156112585760405162461bcd60e51b815260206004820181905260248201527f537472696e67733a20686578206c656e67746820696e73756666696369656e7460448201526064016104f3565b9392505050565b61126982826105c2565b61050657611281816001600160a01b031660146112f3565b61128c8360206112f3565b60405160200161129d929190611793565b60408051601f198184030181529082905262461bcd60e51b82526104f391600401611808565b600054610100900460ff166112ea5760405162461bcd60e51b81526004016104f390611840565b61055833610feb565b606060006113028360026118a3565b61130d90600261188b565b67ffffffffffffffff81111561133357634e487b7160e01b600052604160045260246000fd5b6040519080825280601f01601f19166020018201604052801561135d576020820181803683370190505b509050600360fc1b8160008151811061138657634e487b7160e01b600052603260045260246000fd5b60200101906001600160f81b031916908160001a905350600f60fb1b816001815181106113c357634e487b7160e01b600052603260045260246000fd5b60200101906001600160f81b031916908160001a90535060006113e78460026118a3565b6113f290600161188b565b90505b6001811115611209576f181899199a1a9b1b9c1cb0b131b232b360811b85600f166010811061143457634e487b7160e01b600052603260045260246000fd5b1a60f81b82828151811061145857634e487b7160e01b600052603260045260246000fd5b60200101906001600160f81b031916908160001a90535060049490941c9361147f816118f2565b90506113f5565b600067ffffffffffffffff808411156114a1576114a161193a565b604051601f8501601f19908116603f011681019082821181831017156114c9576114c961193a565b816040528093508581528686860111156114e257600080fd5b858560208301376000602087830101525050509392505050565b80356001600160a01b038116811461151357600080fd5b919050565b600082601f830112611528578081fd5b61125883833560208501611486565b600060208284031215611548578081fd5b611258826114fc565b60008060408385031215611563578081fd5b61156c836114fc565b915061157a602084016114fc565b90509250929050565b60008060008060808587031215611598578182fd5b6115a1856114fc565b93506115af602086016114fc565b925060408501359150606085013567ffffffffffffffff8111156115d1578182fd5b8501601f810187136115e1578182fd5b6115f087823560208401611486565b91505092959194509250565b6000806040838503121561160e578182fd5b611617836114fc565b9150602083013567ffffffffffffffff811115611632578182fd5b61163e85828601611518565b9150509250929050565b600060208284031215611659578081fd5b81518015158114611258578182fd5b600060208284031215611679578081fd5b5035919050565b60008060408385031215611692578182fd5b8235915061157a602084016114fc565b6000602082840312156116b3578081fd5b81356001600160e01b031981168114611258578182fd5b600080600083850360c08112156116df578384fd5b843567ffffffffffffffff8111156116f5578485fd5b61170187828801611518565b945050602085013592506080603f198201121561171c578182fd5b506040840190509250925092565b60006020828403121561173b578081fd5b813560ff81168114611258578182fd5b600081518084526117638160208601602086016118c2565b601f01601f19169290920160200192915050565b600082516117898184602087016118c2565b9190910192915050565b7f416363657373436f6e74726f6c3a206163636f756e74200000000000000000008152600083516117cb8160178501602088016118c2565b7001034b99036b4b9b9b4b733903937b6329607d1b60179184019182015283516117fc8160288401602088016118c2565b01602801949350505050565b602081526000611258602083018461174b565b60608152600061182e606083018661174b565b60208301949094525060400152919050565b6020808252602b908201527f496e697469616c697a61626c653a20636f6e7472616374206973206e6f74206960408201526a6e697469616c697a696e6760a81b606082015260800190565b6000821982111561189e5761189e611924565b500190565b60008160001904831182151516156118bd576118bd611924565b500290565b60005b838110156118dd5781810151838201526020016118c5565b838111156118ec576000848401525b50505050565b60008161190157611901611924565b506000190190565b600060001982141561191d5761191d611924565b5060010190565b634e487b7160e01b600052601160045260246000fd5b634e487b7160e01b600052604160045260246000fdfeb19546dff01e856fb3f010c267a7b1c60363cf8a4664e21cc89c26224620214ea264697066735822122028cb231c700e7e3d40eed4a6124b022f55cd0b3775f81f273b5ae140f3df062c64736f6c63430008040033",
  "linkReferences": {},
  "deployedLinkReferences": {}
}