{
  "_format": "hh-sol-artifact-1",
  "contractName": "SBirdBetting",
  "sourceName": "contracts/SBirdBetting.sol",
  "abi": [
    {
      "anonymous": false,
      "inputs": [
        {
          "indexed": false,
          "internalType": "uint16",
          "name": "matchID",
          "type": "uint16"
        },
        {
          "components": [
            {
              "internalType": "uint16",
              "name": "ouHtOver",
              "type": "uint16"
            },
            {
              "internalType": "uint16",
              "name": "ouHtRatio",
              "type": "uint16"
            },
            {
              "internalType": "uint16",
              "name": "ouHtUnder",
              "type": "uint16"
            },
            {
              "internalType": "uint16",
              "name": "ouFtOver",
              "type": "uint16"
            },
            {
              "internalType": "uint16",
              "name": "ouFtRatio",
              "type": "uint16"
            },
            {
              "internalType": "uint16",
              "name": "ouFtUnder",
              "type": "uint16"
            },
            {
              "internalType": "uint16",
              "name": "oddsHtHome",
              "type": "uint16"
            },
            {
              "internalType": "uint16",
              "name": "oddsHtDraw",
              "type": "uint16"
            },
            {
              "internalType": "uint16",
              "name": "oddsHtAway",
              "type": "uint16"
            },
            {
              "internalType": "uint16",
              "name": "oddsFtHome",
              "type": "uint16"
            },
            {
              "internalType": "uint16",
              "name": "oddsFtDraw",
              "type": "uint16"
            },
            {
              "internalType": "uint16",
              "name": "oddsFtAway",
              "type": "uint16"
            }
          ],
          "indexed": false,
          "internalType": "struct IBirdBetting.MatchStatistics",
          "name": "mSta",
          "type": "tuple"
        },
        {
          "components": [
            {
              "internalType": "uint8",
              "name": "ht_homeScore",
              "type": "uint8"
            },
            {
              "internalType": "uint8",
              "name": "ht_awayScore",
              "type": "uint8"
            },
            {
              "internalType": "uint8",
              "name": "ft_homeScore",
              "type": "uint8"
            },
            {
              "internalType": "uint8",
              "name": "ft_awayScore",
              "type": "uint8"
            },
            {
              "internalType": "uint256",
              "name": "startTime",
              "type": "uint256"
            },
            {
              "internalType": "string",
              "name": "homeName",
              "type": "string"
            },
            {
              "internalType": "string",
              "name": "homeIcon",
              "type": "string"
            },
            {
              "internalType": "string",
              "name": "awayName",
              "type": "string"
            },
            {
              "internalType": "string",
              "name": "awayIcon",
              "type": "string"
            },
            {
              "internalType": "string",
              "name": "location",
              "type": "string"
            },
            {
              "internalType": "string",
              "name": "round",
              "type": "string"
            },
            {
              "internalType": "bool",
              "name": "isHalfTime",
              "type": "bool"
            },
            {
              "internalType": "bool",
              "name": "isFinished",
              "type": "bool"
            }
          ],
          "indexed": false,
          "internalType": "struct IBirdBetting.MatchInfo",
          "name": "mInf",
          "type": "tuple"
        },
        {
          "indexed": false,
          "internalType": "uint256",
          "name": "sofaMatchID",
          "type": "uint256"
        }
      ],
      "name": "CreateMatch",
      "type": "event"
    },
    {
      "anonymous": false,
      "inputs": [
        {
          "indexed": false,
          "internalType": "uint8",
          "name": "version",
          "type": "uint8"
        }
      ],
      "name": "Initialized",
      "type": "event"
    },
    {
      "anonymous": false,
      "inputs": [
        {
          "indexed": true,
          "internalType": "address",
          "name": "previousOwner",
          "type": "address"
        },
        {
          "indexed": true,
          "internalType": "address",
          "name": "newOwner",
          "type": "address"
        }
      ],
      "name": "OwnershipTransferred",
      "type": "event"
    },
    {
      "anonymous": false,
      "inputs": [
        {
          "indexed": true,
          "internalType": "bytes32",
          "name": "role",
          "type": "bytes32"
        },
        {
          "indexed": true,
          "internalType": "bytes32",
          "name": "previousAdminRole",
          "type": "bytes32"
        },
        {
          "indexed": true,
          "internalType": "bytes32",
          "name": "newAdminRole",
          "type": "bytes32"
        }
      ],
      "name": "RoleAdminChanged",
      "type": "event"
    },
    {
      "anonymous": false,
      "inputs": [
        {
          "indexed": true,
          "internalType": "bytes32",
          "name": "role",
          "type": "bytes32"
        },
        {
          "indexed": true,
          "internalType": "address",
          "name": "account",
          "type": "address"
        },
        {
          "indexed": true,
          "internalType": "address",
          "name": "sender",
          "type": "address"
        }
      ],
      "name": "RoleGranted",
      "type": "event"
    },
    {
      "anonymous": false,
      "inputs": [
        {
          "indexed": true,
          "internalType": "bytes32",
          "name": "role",
          "type": "bytes32"
        },
        {
          "indexed": true,
          "internalType": "address",
          "name": "account",
          "type": "address"
        },
        {
          "indexed": true,
          "internalType": "address",
          "name": "sender",
          "type": "address"
        }
      ],
      "name": "RoleRevoked",
      "type": "event"
    },
    {
      "anonymous": false,
      "inputs": [
        {
          "indexed": false,
          "internalType": "uint16",
          "name": "matchID",
          "type": "uint16"
        },
        {
          "components": [
            {
              "internalType": "uint8",
              "name": "ht_homeScore",
              "type": "uint8"
            },
            {
              "internalType": "uint8",
              "name": "ht_awayScore",
              "type": "uint8"
            },
            {
              "internalType": "uint8",
              "name": "ft_homeScore",
              "type": "uint8"
            },
            {
              "internalType": "uint8",
              "name": "ft_awayScore",
              "type": "uint8"
            },
            {
              "internalType": "uint256",
              "name": "startTime",
              "type": "uint256"
            },
            {
              "internalType": "string",
              "name": "homeName",
              "type": "string"
            },
            {
              "internalType": "string",
              "name": "homeIcon",
              "type": "string"
            },
            {
              "internalType": "string",
              "name": "awayName",
              "type": "string"
            },
            {
              "internalType": "string",
              "name": "awayIcon",
              "type": "string"
            },
            {
              "internalType": "string",
              "name": "location",
              "type": "string"
            },
            {
              "internalType": "string",
              "name": "round",
              "type": "string"
            },
            {
              "internalType": "bool",
              "name": "isHalfTime",
              "type": "bool"
            },
            {
              "internalType": "bool",
              "name": "isFinished",
              "type": "bool"
            }
          ],
          "indexed": false,
          "internalType": "struct IBirdBetting.MatchInfo",
          "name": "mInf",
          "type": "tuple"
        }
      ],
      "name": "UpdateMatchInfo",
      "type": "event"
    },
    {
      "anonymous": false,
      "inputs": [
        {
          "indexed": false,
          "internalType": "uint16",
          "name": "matchID",
          "type": "uint16"
        },
        {
          "components": [
            {
              "internalType": "uint16",
              "name": "ouHtOver",
              "type": "uint16"
            },
            {
              "internalType": "uint16",
              "name": "ouHtRatio",
              "type": "uint16"
            },
            {
              "internalType": "uint16",
              "name": "ouHtUnder",
              "type": "uint16"
            },
            {
              "internalType": "uint16",
              "name": "ouFtOver",
              "type": "uint16"
            },
            {
              "internalType": "uint16",
              "name": "ouFtRatio",
              "type": "uint16"
            },
            {
              "internalType": "uint16",
              "name": "ouFtUnder",
              "type": "uint16"
            },
            {
              "internalType": "uint16",
              "name": "oddsHtHome",
              "type": "uint16"
            },
            {
              "internalType": "uint16",
              "name": "oddsHtDraw",
              "type": "uint16"
            },
            {
              "internalType": "uint16",
              "name": "oddsHtAway",
              "type": "uint16"
            },
            {
              "internalType": "uint16",
              "name": "oddsFtHome",
              "type": "uint16"
            },
            {
              "internalType": "uint16",
              "name": "oddsFtDraw",
              "type": "uint16"
            },
            {
              "internalType": "uint16",
              "name": "oddsFtAway",
              "type": "uint16"
            }
          ],
          "indexed": false,
          "internalType": "struct IBirdBetting.MatchStatistics",
          "name": "mSta",
          "type": "tuple"
        }
      ],
      "name": "UpdateMatchStatistics",
      "type": "event"
    },
    {
      "anonymous": false,
      "inputs": [
        {
          "indexed": true,
          "internalType": "address",
          "name": "user",
          "type": "address"
        },
        {
          "indexed": false,
          "internalType": "uint16",
          "name": "matchID",
          "type": "uint16"
        },
        {
          "indexed": false,
          "internalType": "uint256",
          "name": "amount",
          "type": "uint256"
        },
        {
          "indexed": false,
          "internalType": "string",
          "name": "betType",
          "type": "string"
        },
        {
          "indexed": false,
          "internalType": "string",
          "name": "betPlace",
          "type": "string"
        },
        {
          "indexed": false,
          "internalType": "bool",
          "name": "claimed",
          "type": "bool"
        }
      ],
      "name": "UserBetting",
      "type": "event"
    },
    {
      "anonymous": false,
      "inputs": [
        {
          "indexed": false,
          "internalType": "uint16",
          "name": "matchID",
          "type": "uint16"
        },
        {
          "indexed": false,
          "internalType": "string",
          "name": "betType",
          "type": "string"
        },
        {
          "indexed": false,
          "internalType": "uint256",
          "name": "amount",
          "type": "uint256"
        },
        {
          "indexed": true,
          "internalType": "address",
          "name": "user",
          "type": "address"
        },
        {
          "indexed": false,
          "internalType": "uint256",
          "name": "deadline",
          "type": "uint256"
        }
      ],
      "name": "UserClaim",
      "type": "event"
    },
    {
      "anonymous": false,
      "inputs": [
        {
          "indexed": true,
          "internalType": "address",
          "name": "user",
          "type": "address"
        },
        {
          "indexed": false,
          "internalType": "uint16",
          "name": "matchID",
          "type": "uint16"
        },
        {
          "indexed": false,
          "internalType": "uint8",
          "name": "homeScore",
          "type": "uint8"
        },
        {
          "indexed": false,
          "internalType": "uint8",
          "name": "awayScore",
          "type": "uint8"
        },
        {
          "indexed": false,
          "internalType": "uint256",
          "name": "time",
          "type": "uint256"
        }
      ],
      "name": "UserPredicting",
      "type": "event"
    },
    {
      "inputs": [],
      "name": "CLAIM_TOKEN_WITH_SIG_TYPEHASH",
      "outputs": [
        {
          "internalType": "bytes32",
          "name": "",
          "type": "bytes32"
        }
      ],
      "stateMutability": "view",
      "type": "function"
    },
    {
      "inputs": [],
      "name": "DEFAULT_ADMIN_ROLE",
      "outputs": [
        {
          "internalType": "bytes32",
          "name": "",
          "type": "bytes32"
        }
      ],
      "stateMutability": "view",
      "type": "function"
    },
    {
      "inputs": [
        {
          "internalType": "address",
          "name": "",
          "type": "address"
        }
      ],
      "name": "TokenClaimNonces",
      "outputs": [
        {
          "internalType": "uint256",
          "name": "",
          "type": "uint256"
        }
      ],
      "stateMutability": "view",
      "type": "function"
    },
    {
      "inputs": [
        {
          "internalType": "address",
          "name": "",
          "type": "address"
        }
      ],
      "name": "TokenClaimTimeStamp",
      "outputs": [
        {
          "internalType": "uint256",
          "name": "",
          "type": "uint256"
        }
      ],
      "stateMutability": "view",
      "type": "function"
    },
    {
      "inputs": [
        {
          "internalType": "address",
          "name": "_token",
          "type": "address"
        },
        {
          "internalType": "address",
          "name": "_fundWallet",
          "type": "address"
        }
      ],
      "name": "__SBirdBetting_init",
      "outputs": [],
      "stateMutability": "nonpayable",
      "type": "function"
    },
    {
      "inputs": [
        {
          "internalType": "uint16",
          "name": "_matchID",
          "type": "uint16"
        },
        {
          "internalType": "uint256",
          "name": "_amount",
          "type": "uint256"
        },
        {
          "internalType": "string",
          "name": "_betType",
          "type": "string"
        },
        {
          "internalType": "string",
          "name": "_betPlace",
          "type": "string"
        }
      ],
      "name": "betting",
      "outputs": [],
      "stateMutability": "nonpayable",
      "type": "function"
    },
    {
      "inputs": [
        {
          "internalType": "address",
          "name": "",
          "type": "address"
        },
        {
          "internalType": "uint16",
          "name": "",
          "type": "uint16"
        }
      ],
      "name": "claimInMatch",
      "outputs": [
        {
          "internalType": "bool",
          "name": "",
          "type": "bool"
        }
      ],
      "stateMutability": "view",
      "type": "function"
    },
    {
      "inputs": [],
      "name": "fundWallet",
      "outputs": [
        {
          "internalType": "address",
          "name": "",
          "type": "address"
        }
      ],
      "stateMutability": "view",
      "type": "function"
    },
    {
      "inputs": [
        {
          "internalType": "bytes32",
          "name": "role",
          "type": "bytes32"
        }
      ],
      "name": "getRoleAdmin",
      "outputs": [
        {
          "internalType": "bytes32",
          "name": "",
          "type": "bytes32"
        }
      ],
      "stateMutability": "view",
      "type": "function"
    },
    {
      "inputs": [
        {
          "internalType": "address",
          "name": "account",
          "type": "address"
        }
      ],
      "name": "grantAdminRole",
      "outputs": [],
      "stateMutability": "nonpayable",
      "type": "function"
    },
    {
      "inputs": [
        {
          "internalType": "bytes32",
          "name": "role",
          "type": "bytes32"
        },
        {
          "internalType": "address",
          "name": "account",
          "type": "address"
        }
      ],
      "name": "grantRole",
      "outputs": [],
      "stateMutability": "nonpayable",
      "type": "function"
    },
    {
      "inputs": [
        {
          "internalType": "bytes32",
          "name": "role",
          "type": "bytes32"
        },
        {
          "internalType": "address",
          "name": "account",
          "type": "address"
        }
      ],
      "name": "hasRole",
      "outputs": [
        {
          "internalType": "bool",
          "name": "",
          "type": "bool"
        }
      ],
      "stateMutability": "view",
      "type": "function"
    },
    {
      "inputs": [
        {
          "internalType": "uint16",
          "name": "",
          "type": "uint16"
        }
      ],
      "name": "matchByID",
      "outputs": [
        {
          "components": [
            {
              "internalType": "uint16",
              "name": "ouHtOver",
              "type": "uint16"
            },
            {
              "internalType": "uint16",
              "name": "ouHtRatio",
              "type": "uint16"
            },
            {
              "internalType": "uint16",
              "name": "ouHtUnder",
              "type": "uint16"
            },
            {
              "internalType": "uint16",
              "name": "ouFtOver",
              "type": "uint16"
            },
            {
              "internalType": "uint16",
              "name": "ouFtRatio",
              "type": "uint16"
            },
            {
              "internalType": "uint16",
              "name": "ouFtUnder",
              "type": "uint16"
            },
            {
              "internalType": "uint16",
              "name": "oddsHtHome",
              "type": "uint16"
            },
            {
              "internalType": "uint16",
              "name": "oddsHtDraw",
              "type": "uint16"
            },
            {
              "internalType": "uint16",
              "name": "oddsHtAway",
              "type": "uint16"
            },
            {
              "internalType": "uint16",
              "name": "oddsFtHome",
              "type": "uint16"
            },
            {
              "internalType": "uint16",
              "name": "oddsFtDraw",
              "type": "uint16"
            },
            {
              "internalType": "uint16",
              "name": "oddsFtAway",
              "type": "uint16"
            }
          ],
          "internalType": "struct IBirdBetting.MatchStatistics",
          "name": "mSta",
          "type": "tuple"
        },
        {
          "components": [
            {
              "internalType": "uint8",
              "name": "ht_homeScore",
              "type": "uint8"
            },
            {
              "internalType": "uint8",
              "name": "ht_awayScore",
              "type": "uint8"
            },
            {
              "internalType": "uint8",
              "name": "ft_homeScore",
              "type": "uint8"
            },
            {
              "internalType": "uint8",
              "name": "ft_awayScore",
              "type": "uint8"
            },
            {
              "internalType": "uint256",
              "name": "startTime",
              "type": "uint256"
            },
            {
              "internalType": "string",
              "name": "homeName",
              "type": "string"
            },
            {
              "internalType": "string",
              "name": "homeIcon",
              "type": "string"
            },
            {
              "internalType": "string",
              "name": "awayName",
              "type": "string"
            },
            {
              "internalType": "string",
              "name": "awayIcon",
              "type": "string"
            },
            {
              "internalType": "string",
              "name": "location",
              "type": "string"
            },
            {
              "internalType": "string",
              "name": "round",
              "type": "string"
            },
            {
              "internalType": "bool",
              "name": "isHalfTime",
              "type": "bool"
            },
            {
              "internalType": "bool",
              "name": "isFinished",
              "type": "bool"
            }
          ],
          "internalType": "struct IBirdBetting.MatchInfo",
          "name": "mInf",
          "type": "tuple"
        }
      ],
      "stateMutability": "view",
      "type": "function"
    },
    {
      "inputs": [],
      "name": "maxBetAmount",
      "outputs": [
        {
          "internalType": "uint256",
          "name": "",
          "type": "uint256"
        }
      ],
      "stateMutability": "view",
      "type": "function"
    },
    {
      "inputs": [
        {
          "internalType": "address",
          "name": "",
          "type": "address"
        },
        {
          "internalType": "address",
          "name": "",
          "type": "address"
        },
        {
          "internalType": "uint256",
          "name": "",
          "type": "uint256"
        },
        {
          "internalType": "bytes",
          "name": "",
          "type": "bytes"
        }
      ],
      "name": "onERC721Received",
      "outputs": [
        {
          "internalType": "bytes4",
          "name": "",
          "type": "bytes4"
        }
      ],
      "stateMutability": "nonpayable",
      "type": "function"
    },
    {
      "inputs": [],
      "name": "owner",
      "outputs": [
        {
          "internalType": "address",
          "name": "",
          "type": "address"
        }
      ],
      "stateMutability": "view",
      "type": "function"
    },
    {
      "inputs": [
        {
          "internalType": "uint16",
          "name": "_matchID",
          "type": "uint16"
        },
        {
          "internalType": "uint8",
          "name": "_homeScore",
          "type": "uint8"
        },
        {
          "internalType": "uint8",
          "name": "_awayScore",
          "type": "uint8"
        }
      ],
      "name": "predict",
      "outputs": [],
      "stateMutability": "nonpayable",
      "type": "function"
    },
    {
      "inputs": [],
      "name": "renounceOwnership",
      "outputs": [],
      "stateMutability": "nonpayable",
      "type": "function"
    },
    {
      "inputs": [
        {
          "internalType": "bytes32",
          "name": "role",
          "type": "bytes32"
        },
        {
          "internalType": "address",
          "name": "account",
          "type": "address"
        }
      ],
      "name": "renounceRole",
      "outputs": [],
      "stateMutability": "nonpayable",
      "type": "function"
    },
    {
      "inputs": [
        {
          "internalType": "address",
          "name": "account",
          "type": "address"
        }
      ],
      "name": "revokeAdminRole",
      "outputs": [],
      "stateMutability": "nonpayable",
      "type": "function"
    },
    {
      "inputs": [
        {
          "internalType": "bytes32",
          "name": "role",
          "type": "bytes32"
        },
        {
          "internalType": "address",
          "name": "account",
          "type": "address"
        }
      ],
      "name": "revokeRole",
      "outputs": [],
      "stateMutability": "nonpayable",
      "type": "function"
    },
    {
      "inputs": [
        {
          "internalType": "address",
          "name": "_fund",
          "type": "address"
        }
      ],
      "name": "setFundAddress",
      "outputs": [],
      "stateMutability": "nonpayable",
      "type": "function"
    },
    {
      "inputs": [
        {
          "internalType": "uint16",
          "name": "_matchID",
          "type": "uint16"
        },
        {
          "components": [
            {
              "internalType": "uint16",
              "name": "ouHtOver",
              "type": "uint16"
            },
            {
              "internalType": "uint16",
              "name": "ouHtRatio",
              "type": "uint16"
            },
            {
              "internalType": "uint16",
              "name": "ouHtUnder",
              "type": "uint16"
            },
            {
              "internalType": "uint16",
              "name": "ouFtOver",
              "type": "uint16"
            },
            {
              "internalType": "uint16",
              "name": "ouFtRatio",
              "type": "uint16"
            },
            {
              "internalType": "uint16",
              "name": "ouFtUnder",
              "type": "uint16"
            },
            {
              "internalType": "uint16",
              "name": "oddsHtHome",
              "type": "uint16"
            },
            {
              "internalType": "uint16",
              "name": "oddsHtDraw",
              "type": "uint16"
            },
            {
              "internalType": "uint16",
              "name": "oddsHtAway",
              "type": "uint16"
            },
            {
              "internalType": "uint16",
              "name": "oddsFtHome",
              "type": "uint16"
            },
            {
              "internalType": "uint16",
              "name": "oddsFtDraw",
              "type": "uint16"
            },
            {
              "internalType": "uint16",
              "name": "oddsFtAway",
              "type": "uint16"
            }
          ],
          "internalType": "struct IBirdBetting.MatchStatistics",
          "name": "_mSta",
          "type": "tuple"
        },
        {
          "components": [
            {
              "internalType": "uint8",
              "name": "ht_homeScore",
              "type": "uint8"
            },
            {
              "internalType": "uint8",
              "name": "ht_awayScore",
              "type": "uint8"
            },
            {
              "internalType": "uint8",
              "name": "ft_homeScore",
              "type": "uint8"
            },
            {
              "internalType": "uint8",
              "name": "ft_awayScore",
              "type": "uint8"
            },
            {
              "internalType": "uint256",
              "name": "startTime",
              "type": "uint256"
            },
            {
              "internalType": "string",
              "name": "homeName",
              "type": "string"
            },
            {
              "internalType": "string",
              "name": "homeIcon",
              "type": "string"
            },
            {
              "internalType": "string",
              "name": "awayName",
              "type": "string"
            },
            {
              "internalType": "string",
              "name": "awayIcon",
              "type": "string"
            },
            {
              "internalType": "string",
              "name": "location",
              "type": "string"
            },
            {
              "internalType": "string",
              "name": "round",
              "type": "string"
            },
            {
              "internalType": "bool",
              "name": "isHalfTime",
              "type": "bool"
            },
            {
              "internalType": "bool",
              "name": "isFinished",
              "type": "bool"
            }
          ],
          "internalType": "struct IBirdBetting.MatchInfo",
          "name": "_mInf",
          "type": "tuple"
        },
        {
          "internalType": "uint256",
          "name": "_sofaMatchID",
          "type": "uint256"
        }
      ],
      "name": "setMatchInfo",
      "outputs": [],
      "stateMutability": "nonpayable",
      "type": "function"
    },
    {
      "inputs": [
        {
          "internalType": "uint256",
          "name": "_amount",
          "type": "uint256"
        }
      ],
      "name": "setMaxBetAmount",
      "outputs": [],
      "stateMutability": "nonpayable",
      "type": "function"
    },
    {
      "inputs": [
        {
          "internalType": "address",
          "name": "_signer",
          "type": "address"
        }
      ],
      "name": "setSigner",
      "outputs": [],
      "stateMutability": "nonpayable",
      "type": "function"
    },
    {
      "inputs": [
        {
          "internalType": "uint256",
          "name": "spacer",
          "type": "uint256"
        }
      ],
      "name": "setSpacer",
      "outputs": [],
      "stateMutability": "nonpayable",
      "type": "function"
    },
    {
      "inputs": [
        {
          "internalType": "address",
          "name": "_tokenAddress",
          "type": "address"
        }
      ],
      "name": "setTokenAddress",
      "outputs": [],
      "stateMutability": "nonpayable",
      "type": "function"
    },
    {
      "inputs": [
        {
          "internalType": "bytes4",
          "name": "interfaceId",
          "type": "bytes4"
        }
      ],
      "name": "supportsInterface",
      "outputs": [
        {
          "internalType": "bool",
          "name": "",
          "type": "bool"
        }
      ],
      "stateMutability": "view",
      "type": "function"
    },
    {
      "inputs": [
        {
          "internalType": "uint16",
          "name": "_matchID",
          "type": "uint16"
        },
        {
          "internalType": "string",
          "name": "_betType",
          "type": "string"
        },
        {
          "internalType": "uint256",
          "name": "_amount",
          "type": "uint256"
        },
        {
          "components": [
            {
              "internalType": "uint256",
              "name": "deadline",
              "type": "uint256"
            },
            {
              "internalType": "uint8",
              "name": "v",
              "type": "uint8"
            },
            {
              "internalType": "bytes32",
              "name": "r",
              "type": "bytes32"
            },
            {
              "internalType": "bytes32",
              "name": "s",
              "type": "bytes32"
            }
          ],
          "internalType": "struct IBirdBetting.EIP712Signature",
          "name": "_signature",
          "type": "tuple"
        }
      ],
      "name": "tokenClaim",
      "outputs": [],
      "stateMutability": "nonpayable",
      "type": "function"
    },
    {
      "inputs": [
        {
          "internalType": "address",
          "name": "newOwner",
          "type": "address"
        }
      ],
      "name": "transferOwnership",
      "outputs": [],
      "stateMutability": "nonpayable",
      "type": "function"
    },
    {
      "inputs": [
        {
          "internalType": "uint16",
          "name": "_matchID",
          "type": "uint16"
        },
        {
          "components": [
            {
              "internalType": "uint8",
              "name": "ht_homeScore",
              "type": "uint8"
            },
            {
              "internalType": "uint8",
              "name": "ht_awayScore",
              "type": "uint8"
            },
            {
              "internalType": "uint8",
              "name": "ft_homeScore",
              "type": "uint8"
            },
            {
              "internalType": "uint8",
              "name": "ft_awayScore",
              "type": "uint8"
            },
            {
              "internalType": "uint256",
              "name": "startTime",
              "type": "uint256"
            },
            {
              "internalType": "string",
              "name": "homeName",
              "type": "string"
            },
            {
              "internalType": "string",
              "name": "homeIcon",
              "type": "string"
            },
            {
              "internalType": "string",
              "name": "awayName",
              "type": "string"
            },
            {
              "internalType": "string",
              "name": "awayIcon",
              "type": "string"
            },
            {
              "internalType": "string",
              "name": "location",
              "type": "string"
            },
            {
              "internalType": "string",
              "name": "round",
              "type": "string"
            },
            {
              "internalType": "bool",
              "name": "isHalfTime",
              "type": "bool"
            },
            {
              "internalType": "bool",
              "name": "isFinished",
              "type": "bool"
            }
          ],
          "internalType": "struct IBirdBetting.MatchInfo",
          "name": "_mInf",
          "type": "tuple"
        }
      ],
      "name": "updateMatchInfo",
      "outputs": [],
      "stateMutability": "nonpayable",
      "type": "function"
    },
    {
      "inputs": [
        {
          "internalType": "uint16",
          "name": "_matchID",
          "type": "uint16"
        },
        {
          "components": [
            {
              "internalType": "uint16",
              "name": "ouHtOver",
              "type": "uint16"
            },
            {
              "internalType": "uint16",
              "name": "ouHtRatio",
              "type": "uint16"
            },
            {
              "internalType": "uint16",
              "name": "ouHtUnder",
              "type": "uint16"
            },
            {
              "internalType": "uint16",
              "name": "ouFtOver",
              "type": "uint16"
            },
            {
              "internalType": "uint16",
              "name": "ouFtRatio",
              "type": "uint16"
            },
            {
              "internalType": "uint16",
              "name": "ouFtUnder",
              "type": "uint16"
            },
            {
              "internalType": "uint16",
              "name": "oddsHtHome",
              "type": "uint16"
            },
            {
              "internalType": "uint16",
              "name": "oddsHtDraw",
              "type": "uint16"
            },
            {
              "internalType": "uint16",
              "name": "oddsHtAway",
              "type": "uint16"
            },
            {
              "internalType": "uint16",
              "name": "oddsFtHome",
              "type": "uint16"
            },
            {
              "internalType": "uint16",
              "name": "oddsFtDraw",
              "type": "uint16"
            },
            {
              "internalType": "uint16",
              "name": "oddsFtAway",
              "type": "uint16"
            }
          ],
          "internalType": "struct IBirdBetting.MatchStatistics",
          "name": "mSta",
          "type": "tuple"
        }
      ],
      "name": "updateMatchStatistics",
      "outputs": [],
      "stateMutability": "nonpayable",
      "type": "function"
    },
    {
      "inputs": [
        {
          "internalType": "address",
          "name": "",
          "type": "address"
        },
        {
          "internalType": "uint16",
          "name": "",
          "type": "uint16"
        },
        {
          "internalType": "string",
          "name": "",
          "type": "string"
        }
      ],
      "name": "userBettingInMatch",
      "outputs": [
        {
          "internalType": "uint256",
          "name": "amount",
          "type": "uint256"
        },
        {
          "internalType": "string",
          "name": "place",
          "type": "string"
        },
        {
          "internalType": "bool",
          "name": "isClaimed",
          "type": "bool"
        }
      ],
      "stateMutability": "view",
      "type": "function"
    },
    {
      "inputs": [
        {
          "internalType": "address",
          "name": "",
          "type": "address"
        },
        {
          "internalType": "uint16",
          "name": "",
          "type": "uint16"
        }
      ],
      "name": "userPredictByMatch",
      "outputs": [
        {
          "internalType": "uint8",
          "name": "homeScore",
          "type": "uint8"
        },
        {
          "internalType": "uint8",
          "name": "awayScore",
          "type": "uint8"
        },
        {
          "internalType": "uint256",
          "name": "time",
          "type": "uint256"
        }
      ],
      "stateMutability": "view",
      "type": "function"
    }
  ],
  "bytecode": "0x608060405234801561001057600080fd5b506133d2806100206000396000f3fe608060405234801561001057600080fd5b50600436106102055760003560e01c806385dc30041161011a578063a42bcc0c116100ad578063d547741f1161007c578063d547741f1461052a578063e327f48a1461053d578063f153816014610550578063f2fde38b14610571578063f62611621461058457600080fd5b8063a42bcc0c1461049a578063c634b78e146104ad578063c99392df146104c0578063cab11d5d1461052057600080fd5b80639881dce0116100e95780639881dce01461042e5780639a19c7b01461045d578063a1dda53514610470578063a217fddf1461049257600080fd5b806385dc3004146103d65780638da5cb5b146103e9578063902fc128146103fa57806391d148541461041b57600080fd5b806336568abe1161019d5780636a34f43b1161016c5780636a34f43b146103825780636c19e78314610395578063715018a6146103a85780637a080ab4146103b05780637cfbc7a5146103c357600080fd5b806336568abe1461030f578063449a5f0f1461032257806350bd5f6c14610335578063664a1ad61461035657600080fd5b806321a083d3116101d957806321a083d3146102b3578063248a9ca3146102c657806326a4e8d2146102e95780632f2ff15d146102fc57600080fd5b8062c712291461020a57806301ffc9a714610244578063150b7a02146102675780631de7c94a1461029e575b600080fd5b6102317f8c85d9977eaf15ba37eb63056b3cd2b70f16be41cb3f78118489de2565dd033381565b6040519081526020015b60405180910390f35b610257610252366004612b21565b610597565b604051901515815260200161023b565b6102856102753660046129cd565b630a85bd0160e11b949350505050565b6040516001600160e01b0319909116815260200161023b565b6102b16102ac366004612c1e565b6105ba565b005b6102b16102c1366004612c49565b6107d4565b6102316102d4366004612ae7565b60009081526097602052604090206001015490565b6102b16102f7366004612981565b610b80565b6102b161030a366004612aff565b610bbc565b6102b161031d366004612aff565b610be6565b6102b1610330366004612bd2565b610c69565b610231610343366004612981565b6101376020526000908152604090205481565b6101315461036a906001600160a01b031681565b6040516001600160a01b03909116815260200161023b565b6102b1610390366004612d20565b610e05565b6102b16103a3366004612981565b610f65565b6102b1610fa1565b6102b16103be36600461299b565b610fb5565b6102b16103d1366004612ae7565b611172565b6102b16103e4366004612981565b611191565b6033546001600160a01b031661036a565b610231610408366004612981565b6101366020526000908152604090205481565b610257610429366004612aff565b6111cd565b61025761043c366004612a46565b61013360209081526000928352604080842090915290825290205460ff1681565b6102b161046b366004612981565b6111f8565b61048361047e366004612a6f565b61121b565b60405161023b939291906131f9565b610231600081565b6102b16104a8366004612b63565b6112f0565b6102b16104bb366004612981565b6117ef565b6105006104ce366004612a46565b6101356020908152600092835260408084209091529082529020805460019091015460ff808316926101009004169083565b6040805160ff94851681529390921660208401529082015260600161023b565b6102316101305481565b6102b1610538366004612aff565b611812565b6102b161054b366004612cb1565b611837565b61056361055e366004612b49565b611bc6565b60405161023b9291906130d7565b6102b161057f366004612981565b61208a565b6102b1610592366004612ae7565b612103565b60006001600160e01b0319821615806105b457506105b482612122565b92915050565b60006105c581612157565b600061013460008561ffff1661ffff1681526020019081526020016000209050828160000160008201518160000160006101000a81548161ffff021916908361ffff16021790555060208201518160000160026101000a81548161ffff021916908361ffff16021790555060408201518160000160046101000a81548161ffff021916908361ffff16021790555060608201518160000160066101000a81548161ffff021916908361ffff16021790555060808201518160000160086101000a81548161ffff021916908361ffff16021790555060a082015181600001600a6101000a81548161ffff021916908361ffff16021790555060c082015181600001600c6101000a81548161ffff021916908361ffff16021790555060e082015181600001600e6101000a81548161ffff021916908361ffff1602179055506101008201518160000160106101000a81548161ffff021916908361ffff1602179055506101208201518160000160126101000a81548161ffff021916908361ffff1602179055506101408201518160000160146101000a81548161ffff021916908361ffff1602179055506101608201518160000160166101000a81548161ffff021916908361ffff1602179055509050507f5aeb2e82d74f416d35e9882694a793a1d1ad05992cfe6e904ee13659619bc2f584846040516107c6929190613157565b60405180910390a150505050565b60006107df81612157565b60405180604001604052808581526020018481525061013460008761ffff1661ffff16815260200190815260200160002060008201518160000160008201518160000160006101000a81548161ffff021916908361ffff16021790555060208201518160000160026101000a81548161ffff021916908361ffff16021790555060408201518160000160046101000a81548161ffff021916908361ffff16021790555060608201518160000160066101000a81548161ffff021916908361ffff16021790555060808201518160000160086101000a81548161ffff021916908361ffff16021790555060a082015181600001600a6101000a81548161ffff021916908361ffff16021790555060c082015181600001600c6101000a81548161ffff021916908361ffff16021790555060e082015181600001600e6101000a81548161ffff021916908361ffff1602179055506101008201518160000160106101000a81548161ffff021916908361ffff1602179055506101208201518160000160126101000a81548161ffff021916908361ffff1602179055506101408201518160000160146101000a81548161ffff021916908361ffff1602179055506101608201518160000160166101000a81548161ffff021916908361ffff160217905550505060208201518160010160008201518160000160006101000a81548160ff021916908360ff16021790555060208201518160000160016101000a81548160ff021916908360ff16021790555060408201518160000160026101000a81548160ff021916908360ff16021790555060608201518160000160036101000a81548160ff021916908360ff1602179055506080820151816001015560a0820151816002019080519060200190610a769291906125b0565b5060c08201518051610a929160038401916020909101906125b0565b5060e08201518051610aae9160048401916020909101906125b0565b506101008201518051610acb9160058401916020909101906125b0565b506101208201518051610ae89160068401916020909101906125b0565b506101408201518051610b059160078401916020909101906125b0565b50610160820151600890910180546101809093015115156101000261ff00199215159290921661ffff199093169290921717905550506040517fc8066592988cea1d047a1a59d3ea7bd081e03ef64966c008f86a0b8d1222202590610b71908790879087908790613170565b60405180910390a15050505050565b60008051602061337d833981519152610b9881612157565b5061012d80546001600160a01b0319166001600160a01b0392909216919091179055565b600082815260976020526040902060010154610bd781612157565b610be18383612161565b505050565b6001600160a01b0381163314610c5b5760405162461bcd60e51b815260206004820152602f60248201527f416363657373436f6e74726f6c3a2063616e206f6e6c792072656e6f756e636560448201526e103937b632b9903337b91039b2b63360891b60648201526084015b60405180910390fd5b610c6582826121e7565b5050565b6000610c7481612157565b61ffff83166000908152610134602090815260409182902084516001820180548785015195880151606089015160ff90811663010000000263ff0000001992821662010000029290921663ffff0000199882166101000261ffff1990941691909516179190911795909516919091179390931783556080850151600282015560a08501518051919386939092610d1092600387019201906125b0565b5060c08201518051610d2c9160038401916020909101906125b0565b5060e08201518051610d489160048401916020909101906125b0565b506101008201518051610d659160058401916020909101906125b0565b506101208201518051610d829160068401916020909101906125b0565b506101408201518051610d9f9160078401916020909101906125b0565b50610160820151600890910180546101809093015115156101000261ff00199215159290921661ffff19909316929092171790556040517f96b835f7f494e227cb90792a2033658d6458ed10c3ea93056480a85b58d79bb0906107c69086908690613132565b600260c9541415610e285760405162461bcd60e51b8152600401610c52906130a0565b600260c981905561ffff8416600090815261013460205260409020908101544210610e955760405162461bcd60e51b815260206004820152601e60248201527f43616e2070726564696374206265666f7265206d6174636820737461727400006044820152606401610c52565b6040805160608101825260ff8086168252848116602080840191825242848601818152336000818152610135855288812061ffff8e1682529094529287902095518654945186166101000261ffff19909516951694909417929092178455915160019093019290925591517f9503495a6b7978c11c59bf26f2bbab15a8e2226808b034d02d4db327e44966a991610f52918891889188919061ffff94909416845260ff928316602085015291166040830152606082015260800190565b60405180910390a25050600160c9555050565b60008051602061337d833981519152610f7d81612157565b5061012e80546001600160a01b0319166001600160a01b0392909216919091179055565b610fa961224e565b610fb360006122a8565b565b600054610100900460ff1615808015610fd55750600054600160ff909116105b80610fef5750303b158015610fef575060005460ff166001145b6110525760405162461bcd60e51b815260206004820152602e60248201527f496e697469616c697a61626c653a20636f6e747261637420697320616c72656160448201526d191e481a5b9a5d1a585b1a5e995960921b6064820152608401610c52565b6000805460ff191660011790558015611075576000805461ff0019166101001790555b6001600160a01b0383166110cb5760405162461bcd60e51b815260206004820152601f60248201527f42657474696e6720746f6b656e2061646472657373206e6f7420666f756e64006044820152606401610c52565b6110d36122fa565b6110de600033612329565b6110f660008051602061337d83398151915233612329565b61012d80546001600160a01b038086166001600160a01b0319928316179092556101318054928516929091169190911790558015610be1576000805461ff0019169055604051600181527f7f26b83ff96e1f2b6a682f133852f6798a09c465da95921460cefb38474024989060200160405180910390a1505050565b60008051602061337d83398151915261118a81612157565b5061013055565b60008051602061337d8339815191526111a981612157565b5061013180546001600160a01b0319166001600160a01b0392909216919091179055565b60009182526097602090815260408084206001600160a01b0393909316845291905290205460ff1690565b60008051602061337d83398151915261121081612157565b610c65600083611812565b61013260209081526000938452604080852082529284529190922082518084018301805192815290830193909201929092209190528054600182018054919291611264906132ec565b80601f0160208091040260200160405190810160405280929190818152602001828054611290906132ec565b80156112dd5780601f106112b2576101008083540402835291602001916112dd565b820191906000526020600020905b8154815290600101906020018083116112c057829003601f168201915b5050506002909301549192505060ff1683565b600260c95414156113135760405162461bcd60e51b8152600401610c52906130a0565b600260c9558161135b5760405162461bcd60e51b8152602060048201526013602482015272105b5bdd5b9d081a5cc81a5b98dbdc9c9958dd606a1b6044820152606401610c52565b3360009081526101336020908152604080832061ffff8816845290915290205460ff16156113bb5760405162461bcd60e51b815260206004820152600d60248201526c151bdad95b8818db185a5b5959609a1b6044820152606401610c52565b803515806113ca575042813510155b61140a5760405162461bcd60e51b815260206004820152601160248201527014da59db985d1d5c9948195e1c1a5c9959607a1b6044820152606401610c52565b61012f543360009081526101366020526040902054429161142a91613272565b11156114785760405162461bcd60e51b815260206004820152601860248201527f436c61696d2077697468696e207370616365722074696d6500000000000000006044820152606401610c52565b600061154a604080518082018252600c81526b466972656269726447616d6560a01b6020918201528151808301835260018152603160f81b9082015281517f91ab3d17e3a50a9d89e63fd30b92be7f5336b03b287bb946787a83a9d62a2766818301527fea55f854b003845a72bd53f92850259d60335315fde9cce440ee9b3bd2c9369d818401527fc89efdaa54c0f20c7adf612882df0950f5a951637e0307cdcb4c672f298b8bc66060820152306080808301919091528351808303909101815260a0909101909252815191012090565b336000908152610137602052604081208054929350909183917f8c85d9977eaf15ba37eb63056b3cd2b70f16be41cb3f78118489de2565dd03339187918561159183613327565b9091555060408051602081019490945283019190915260608201528435608082015260a001604051602081830303815290604052805190602001206040516020016115f392919061190160f01b81526002810192909252602282015260420190565b60405160208183030381529060405280519060200120905060006001828560200160208101906116239190612d62565b6040805160008152602081018083529390935260ff90911682820152860135606080830191909152860135608082015260a0016020604051602081039080840390855afa158015611678573d6000803e3d6000fd5b5050604051601f19015161012e549092506001600160a01b0380841691161490506116d95760405162461bcd60e51b815260206004820152601160248201527014da59db985d1d5c99481a5b9d985b1a59607a1b6044820152606401610c52565b61012d54610131546040516323b872dd60e01b81526001600160a01b039182166004820152336024820152604481018890529116906323b872dd90606401602060405180830381600087803b15801561173157600080fd5b505af1158015611745573d6000803e3d6000fd5b505050506040513d601f19601f820116820180604052508101906117699190612acb565b503360008181526101336020908152604080832061ffff8c1684528252808320805460ff1916600117905583835261013690915290819020429055517f562c6729051acd34cd66053b5bdc394a3bf5d6eeed0ea8b0f4aeab6050031c26906117d9908a908a908a908a3590613102565b60405180910390a25050600160c9555050505050565b60008051602061337d83398151915261180781612157565b610c65600083610bbc565b60008281526097602052604090206001015461182d81612157565b610be183836121e7565b600260c954141561185a5760405162461bcd60e51b8152600401610c52906130a0565b600260c95561012d546001600160a01b03166118b05760405162461bcd60e51b815260206004820152601560248201527414995dd85c991cc81d1bdad95b881b9bdd081cd95d605a1b6044820152606401610c52565b610130546118f55760405162461bcd60e51b815260206004820152601260248201527110995d08185b5bdd5b9d081b9bdd081cd95d60721b6044820152606401610c52565b3360009081526101326020908152604080832061ffff88168452909152908190209051611923908490612fb1565b90815260405190819003602001902054156119805760405162461bcd60e51b815260206004820152601c60248201527f596f7520776572652062657474696e6720696e207468697320626574000000006044820152606401610c52565b610130548311156119ca5760405162461bcd60e51b8152602060048201526014602482015273115e18d9595908185b5bdd5b9d081a5b8818995d60621b6044820152606401610c52565b61ffff841660009081526101346020526040902060028101544210611a315760405162461bcd60e51b815260206004820152601e60248201527f43616e2062657474696e67206265666f7265206d6174636820737461727400006044820152606401610c52565b6040805160608101825285815260208082018590526000828401819052338152610132825283812061ffff8a1682529091528290209151909190611a76908690612fb1565b9081526020016040518091039020600082015181600001556020820151816001019080519060200190611aaa9291906125b0565b50604091820151600291909101805460ff191691151591909117905561012d546101315491516323b872dd60e01b81523360048201526001600160a01b039283166024820152604481018790529116906323b872dd90606401602060405180830381600087803b158015611b1d57600080fd5b505af1158015611b31573d6000803e3d6000fd5b505050506040513d601f19601f82011682018060405250810190611b559190612acb565b503360008181526101336020908152604080832061ffff8a168452909152808220805460ff19169055517f9c654b8a4a967ed24b656bf5b2d1dfc1c6e1de5c051a3b85105b11671693df1491611bb29189918991899189916131af565b60405180910390a25050600160c955505050565b61013460209081526000918252604091829020825161018081018452815461ffff80821683526201000080830482168487015264010000000083048216848801526601000000000000830482166060808601919091526801000000000000000084048316608080870191909152600160501b8504841660a080880191909152600160601b8604851660c0880152600160701b8604851660e0880152600160801b8604851661010080890191909152600160901b87048616610120890152600160a01b87048616610140890152600160b01b90960490941661016087015288516101a081018a5260018801805460ff808216845297810488169a83019a909a5293890486169981019990995263010000009097049093169287019290925260028401549486019490945260038301805492959394919291840191611d08906132ec565b80601f0160208091040260200160405190810160405280929190818152602001828054611d34906132ec565b8015611d815780601f10611d5657610100808354040283529160200191611d81565b820191906000526020600020905b815481529060010190602001808311611d6457829003601f168201915b50505050508152602001600382018054611d9a906132ec565b80601f0160208091040260200160405190810160405280929190818152602001828054611dc6906132ec565b8015611e135780601f10611de857610100808354040283529160200191611e13565b820191906000526020600020905b815481529060010190602001808311611df657829003601f168201915b50505050508152602001600482018054611e2c906132ec565b80601f0160208091040260200160405190810160405280929190818152602001828054611e58906132ec565b8015611ea55780601f10611e7a57610100808354040283529160200191611ea5565b820191906000526020600020905b815481529060010190602001808311611e8857829003601f168201915b50505050508152602001600582018054611ebe906132ec565b80601f0160208091040260200160405190810160405280929190818152602001828054611eea906132ec565b8015611f375780601f10611f0c57610100808354040283529160200191611f37565b820191906000526020600020905b815481529060010190602001808311611f1a57829003601f168201915b50505050508152602001600682018054611f50906132ec565b80601f0160208091040260200160405190810160405280929190818152602001828054611f7c906132ec565b8015611fc95780601f10611f9e57610100808354040283529160200191611fc9565b820191906000526020600020905b815481529060010190602001808311611fac57829003601f168201915b50505050508152602001600782018054611fe2906132ec565b80601f016020809104026020016040519081016040528092919081815260200182805461200e906132ec565b801561205b5780601f106120305761010080835404028352916020019161205b565b820191906000526020600020905b81548152906001019060200180831161203e57829003601f168201915b50505091835250506008919091015460ff80821615156020840152610100909104161515604090910152905082565b61209261224e565b6001600160a01b0381166120f75760405162461bcd60e51b815260206004820152602660248201527f4f776e61626c653a206e6577206f776e657220697320746865207a65726f206160448201526564647265737360d01b6064820152608401610c52565b612100816122a8565b50565b60008051602061337d83398151915261211b81612157565b5061012f55565b60006001600160e01b03198216637965db0b60e01b14806105b457506301ffc9a760e01b6001600160e01b03198316146105b4565b6121008133612333565b61216b82826111cd565b610c655760008281526097602090815260408083206001600160a01b03851684529091529020805460ff191660011790556121a33390565b6001600160a01b0316816001600160a01b0316837f2f8788117e7eff1d82e926ec794901d17c78024a50270940304540a733656f0d60405160405180910390a45050565b6121f182826111cd565b15610c655760008281526097602090815260408083206001600160a01b0385168085529252808320805460ff1916905551339285917ff6391f5c32d9c69d2a47ea670b442974b53935d1edc7fd64eb21e047a839171b9190a45050565b6033546001600160a01b03163314610fb35760405162461bcd60e51b815260206004820181905260248201527f4f776e61626c653a2063616c6c6572206973206e6f7420746865206f776e65726044820152606401610c52565b603380546001600160a01b038381166001600160a01b0319831681179093556040519116919082907f8be0079c531659141344cd1fd0a4f28419497f9722a3daafe3b4186f6b6457e090600090a35050565b600054610100900460ff166123215760405162461bcd60e51b8152600401610c5290613055565b610fb3612397565b610c658282612161565b61233d82826111cd565b610c6557612355816001600160a01b031660146123c7565b6123608360206123c7565b604051602001612371929190612fcd565b60408051601f198184030181529082905262461bcd60e51b8252610c5291600401613042565b600054610100900460ff166123be5760405162461bcd60e51b8152600401610c5290613055565b610fb3336122a8565b606060006123d683600261328a565b6123e1906002613272565b67ffffffffffffffff81111561240757634e487b7160e01b600052604160045260246000fd5b6040519080825280601f01601f191660200182016040528015612431576020820181803683370190505b509050600360fc1b8160008151811061245a57634e487b7160e01b600052603260045260246000fd5b60200101906001600160f81b031916908160001a905350600f60fb1b8160018151811061249757634e487b7160e01b600052603260045260246000fd5b60200101906001600160f81b031916908160001a90535060006124bb84600261328a565b6124c6906001613272565b90505b600181111561255a576f181899199a1a9b1b9c1cb0b131b232b360811b85600f166010811061250857634e487b7160e01b600052603260045260246000fd5b1a60f81b82828151811061252c57634e487b7160e01b600052603260045260246000fd5b60200101906001600160f81b031916908160001a90535060049490941c93612553816132d5565b90506124c9565b5083156125a95760405162461bcd60e51b815260206004820181905260248201527f537472696e67733a20686578206c656e67746820696e73756666696369656e746044820152606401610c52565b9392505050565b8280546125bc906132ec565b90600052602060002090601f0160209004810192826125de5760008555612624565b82601f106125f757805160ff1916838001178555612624565b82800160010185558215612624579182015b82811115612624578251825591602001919060010190612609565b50612630929150612634565b5090565b5b808211156126305760008155600101612635565b600067ffffffffffffffff8084111561266457612664613358565b604051601f8501601f19908116603f0116810190828211818310171561268c5761268c613358565b816040528093508581528686860111156126a557600080fd5b858560208301376000602087830101525050509392505050565b80356001600160a01b03811681146126d657600080fd5b919050565b80356126d68161336e565b600082601f8301126126f6578081fd5b6125a983833560208501612649565b60006101a08284031215612717578081fd5b61271f613224565b905061272a82612970565b815261273860208301612970565b602082015261274960408301612970565b604082015261275a60608301612970565b60608201526080820135608082015260a082013567ffffffffffffffff8082111561278457600080fd5b612790858386016126e6565b60a084015260c08401359150808211156127a957600080fd5b6127b5858386016126e6565b60c084015260e08401359150808211156127ce57600080fd5b6127da858386016126e6565b60e0840152610100915081840135818111156127f557600080fd5b612801868287016126e6565b83850152506101209150818401358181111561281c57600080fd5b612828868287016126e6565b83850152506101409150818401358181111561284357600080fd5b61284f868287016126e6565b838501525050506101606128648184016126db565b908201526101806128768382016126db565b9082015292915050565b60006101808284031215612892578081fd5b61289a61324e565b90506128a58261295e565b81526128b36020830161295e565b60208201526128c46040830161295e565b60408201526128d56060830161295e565b60608201526128e66080830161295e565b60808201526128f760a0830161295e565b60a082015261290860c0830161295e565b60c082015261291960e0830161295e565b60e082015261010061292c81840161295e565b9082015261012061293e83820161295e565b9082015261014061295083820161295e565b908201526101606128768382015b803561ffff811681146126d657600080fd5b803560ff811681146126d657600080fd5b600060208284031215612992578081fd5b6125a9826126bf565b600080604083850312156129ad578081fd5b6129b6836126bf565b91506129c4602084016126bf565b90509250929050565b600080600080608085870312156129e2578182fd5b6129eb856126bf565b93506129f9602086016126bf565b925060408501359150606085013567ffffffffffffffff811115612a1b578182fd5b8501601f81018713612a2b578182fd5b612a3a87823560208401612649565b91505092959194509250565b60008060408385031215612a58578182fd5b612a61836126bf565b91506129c46020840161295e565b600080600060608486031215612a83578283fd5b612a8c846126bf565b9250612a9a6020850161295e565b9150604084013567ffffffffffffffff811115612ab5578182fd5b612ac1868287016126e6565b9150509250925092565b600060208284031215612adc578081fd5b81516125a98161336e565b600060208284031215612af8578081fd5b5035919050565b60008060408385031215612b11578182fd5b823591506129c4602084016126bf565b600060208284031215612b32578081fd5b81356001600160e01b0319811681146125a9578182fd5b600060208284031215612b5a578081fd5b6125a98261295e565b60008060008084860360e0811215612b79578283fd5b612b828661295e565b9450602086013567ffffffffffffffff811115612b9d578384fd5b612ba9888289016126e6565b945050604086013592506080605f1982011215612bc4578182fd5b509295919450926060019150565b60008060408385031215612be4578182fd5b612bed8361295e565b9150602083013567ffffffffffffffff811115612c08578182fd5b612c1485828601612705565b9150509250929050565b6000806101a08385031215612c31578182fd5b612c3a8361295e565b91506129c48460208501612880565b6000806000806101e08587031215612c5f578182fd5b612c688561295e565b9350612c778660208701612880565b92506101a085013567ffffffffffffffff811115612c93578283fd5b612c9f87828801612705565b949793965093946101c0013593505050565b60008060008060808587031215612cc6578182fd5b612ccf8561295e565b935060208501359250604085013567ffffffffffffffff80821115612cf2578384fd5b612cfe888389016126e6565b93506060870135915080821115612d13578283fd5b50612a3a878288016126e6565b600080600060608486031215612d34578081fd5b612d3d8461295e565b9250612d4b60208501612970565b9150612d5960408501612970565b90509250925092565b600060208284031215612d73578081fd5b6125a982612970565b60008151808452612d948160208601602086016132a9565b601f01601f19169290920160200192915050565b805160ff16825260006101a06020830151612dc8602086018260ff169052565b506040830151612ddd604086018260ff169052565b506060830151612df2606086018260ff169052565b506080830151608085015260a08301518160a0860152612e1482860182612d7c565b91505060c083015184820360c0860152612e2e8282612d7c565b91505060e083015184820360e0860152612e488282612d7c565b9150506101008084015185830382870152612e638382612d7c565b925050506101208084015185830382870152612e7f8382612d7c565b925050506101408084015185830382870152612e9b8382612d7c565b9250505061016080840151612eb38287018215159052565b50506101809283015115159390920192909252919050565b805161ffff1682526020810151612ee8602084018261ffff169052565b506040810151612efe604084018261ffff169052565b506060810151612f14606084018261ffff169052565b506080810151612f2a608084018261ffff169052565b5060a0810151612f4060a084018261ffff169052565b5060c0810151612f5660c084018261ffff169052565b5060e0810151612f6c60e084018261ffff169052565b506101008181015161ffff9081169184019190915261012080830151821690840152610140808301518216908401526101608083015191821681850152905b50505050565b60008251612fc38184602087016132a9565b9190910192915050565b7f416363657373436f6e74726f6c3a206163636f756e74200000000000000000008152600083516130058160178501602088016132a9565b7001034b99036b4b9b9b4b733903937b6329607d1b60179184019182015283516130368160288401602088016132a9565b01602801949350505050565b6020815260006125a96020830184612d7c565b6020808252602b908201527f496e697469616c697a61626c653a20636f6e7472616374206973206e6f74206960408201526a6e697469616c697a696e6760a81b606082015260800190565b6020808252601f908201527f5265656e7472616e637947756172643a207265656e7472616e742063616c6c00604082015260600190565b60006101a06130e68386612ecb565b806101808401526130f981840185612da8565b95945050505050565b61ffff8516815260806020820152600061311f6080830186612d7c565b6040830194909452506060015292915050565b61ffff8316815260406020820152600061314f6040830184612da8565b949350505050565b61ffff831681526101a081016125a96020830184612ecb565b60006101e061ffff871683526131896020840187612ecb565b806101a084015261319c81840186612da8565b915050826101c083015295945050505050565b61ffff8616815284602082015260a0604082015260006131d260a0830186612d7c565b82810360608401526131e48186612d7c565b91505082151560808301529695505050505050565b8381526060602082015260006132126060830185612d7c565b90508215156040830152949350505050565b6040516101a0810167ffffffffffffffff8111828210171561324857613248613358565b60405290565b604051610180810167ffffffffffffffff8111828210171561324857613248613358565b6000821982111561328557613285613342565b500190565b60008160001904831182151516156132a4576132a4613342565b500290565b60005b838110156132c45781810151838201526020016132ac565b83811115612fab5750506000910152565b6000816132e4576132e4613342565b506000190190565b600181811c9082168061330057607f821691505b6020821081141561332157634e487b7160e01b600052602260045260246000fd5b50919050565b600060001982141561333b5761333b613342565b5060010190565b634e487b7160e01b600052601160045260246000fd5b634e487b7160e01b600052604160045260246000fd5b801515811461210057600080fdfeb19546dff01e856fb3f010c267a7b1c60363cf8a4664e21cc89c26224620214ea26469706673582212203f2087b0a35404fd731872acf8b57099c7afaa737170af5acd7078c2f9d4e4f664736f6c63430008040033",
  "linkReferences": {},
  "deployedLinkReferences": {}
}