{
  "_format": "hh-sol-artifact-1",
  "contractName": "SBirdToken",
  "sourceName": "contracts/SBirdToken.sol",
  "abi": [
    {
      "inputs": [],
      "stateMutability": "nonpayable",
      "type": "constructor"
    },
    {
      "anonymous": false,
      "inputs": [
        {
          "indexed": true,
          "internalType": "address",
          "name": "owner",
          "type": "address"
        },
        {
          "indexed": true,
          "internalType": "address",
          "name": "spender",
          "type": "address"
        },
        {
          "indexed": false,
          "internalType": "uint256",
          "name": "value",
          "type": "uint256"
        }
      ],
      "name": "Approval",
      "type": "event"
    },
    {
      "anonymous": false,
      "inputs": [
        {
          "indexed": true,
          "internalType": "address",
          "name": "previousOwner",
          "type": "address"
        },
        {
          "indexed": true,
          "internalType": "address",
          "name": "newOwner",
          "type": "address"
        }
      ],
      "name": "OwnershipTransferred",
      "type": "event"
    },
    {
      "anonymous": false,
      "inputs": [
        {
          "indexed": true,
          "internalType": "bytes32",
          "name": "role",
          "type": "bytes32"
        },
        {
          "indexed": true,
          "internalType": "bytes32",
          "name": "previousAdminRole",
          "type": "bytes32"
        },
        {
          "indexed": true,
          "internalType": "bytes32",
          "name": "newAdminRole",
          "type": "bytes32"
        }
      ],
      "name": "RoleAdminChanged",
      "type": "event"
    },
    {
      "anonymous": false,
      "inputs": [
        {
          "indexed": true,
          "internalType": "bytes32",
          "name": "role",
          "type": "bytes32"
        },
        {
          "indexed": true,
          "internalType": "address",
          "name": "account",
          "type": "address"
        },
        {
          "indexed": true,
          "internalType": "address",
          "name": "sender",
          "type": "address"
        }
      ],
      "name": "RoleGranted",
      "type": "event"
    },
    {
      "anonymous": false,
      "inputs": [
        {
          "indexed": true,
          "internalType": "bytes32",
          "name": "role",
          "type": "bytes32"
        },
        {
          "indexed": true,
          "internalType": "address",
          "name": "account",
          "type": "address"
        },
        {
          "indexed": true,
          "internalType": "address",
          "name": "sender",
          "type": "address"
        }
      ],
      "name": "RoleRevoked",
      "type": "event"
    },
    {
      "anonymous": false,
      "inputs": [
        {
          "indexed": true,
          "internalType": "address",
          "name": "from",
          "type": "address"
        },
        {
          "indexed": true,
          "internalType": "address",
          "name": "to",
          "type": "address"
        },
        {
          "indexed": false,
          "internalType": "uint256",
          "name": "value",
          "type": "uint256"
        }
      ],
      "name": "Transfer",
      "type": "event"
    },
    {
      "inputs": [],
      "name": "DEFAULT_ADMIN_ROLE",
      "outputs": [
        {
          "internalType": "bytes32",
          "name": "",
          "type": "bytes32"
        }
      ],
      "stateMutability": "view",
      "type": "function"
    },
    {
      "inputs": [
        {
          "internalType": "address",
          "name": "owner",
          "type": "address"
        },
        {
          "internalType": "address",
          "name": "spender",
          "type": "address"
        }
      ],
      "name": "allowance",
      "outputs": [
        {
          "internalType": "uint256",
          "name": "",
          "type": "uint256"
        }
      ],
      "stateMutability": "view",
      "type": "function"
    },
    {
      "inputs": [
        {
          "internalType": "address",
          "name": "spender",
          "type": "address"
        },
        {
          "internalType": "uint256",
          "name": "amount",
          "type": "uint256"
        }
      ],
      "name": "approve",
      "outputs": [
        {
          "internalType": "bool",
          "name": "",
          "type": "bool"
        }
      ],
      "stateMutability": "nonpayable",
      "type": "function"
    },
    {
      "inputs": [
        {
          "internalType": "address",
          "name": "account",
          "type": "address"
        }
      ],
      "name": "balanceOf",
      "outputs": [
        {
          "internalType": "uint256",
          "name": "",
          "type": "uint256"
        }
      ],
      "stateMutability": "view",
      "type": "function"
    },
    {
      "inputs": [
        {
          "internalType": "address",
          "name": "addr",
          "type": "address"
        }
      ],
      "name": "checkWhitelistAddress",
      "outputs": [
        {
          "internalType": "bool",
          "name": "",
          "type": "bool"
        }
      ],
      "stateMutability": "view",
      "type": "function"
    },
    {
      "inputs": [],
      "name": "decimals",
      "outputs": [
        {
          "internalType": "uint8",
          "name": "",
          "type": "uint8"
        }
      ],
      "stateMutability": "view",
      "type": "function"
    },
    {
      "inputs": [
        {
          "internalType": "address",
          "name": "spender",
          "type": "address"
        },
        {
          "internalType": "uint256",
          "name": "subtractedValue",
          "type": "uint256"
        }
      ],
      "name": "decreaseAllowance",
      "outputs": [
        {
          "internalType": "bool",
          "name": "",
          "type": "bool"
        }
      ],
      "stateMutability": "nonpayable",
      "type": "function"
    },
    {
      "inputs": [
        {
          "internalType": "bytes32",
          "name": "role",
          "type": "bytes32"
        }
      ],
      "name": "getRoleAdmin",
      "outputs": [
        {
          "internalType": "bytes32",
          "name": "",
          "type": "bytes32"
        }
      ],
      "stateMutability": "view",
      "type": "function"
    },
    {
      "inputs": [
        {
          "internalType": "bytes32",
          "name": "role",
          "type": "bytes32"
        },
        {
          "internalType": "address",
          "name": "account",
          "type": "address"
        }
      ],
      "name": "grantRole",
      "outputs": [],
      "stateMutability": "nonpayable",
      "type": "function"
    },
    {
      "inputs": [
        {
          "internalType": "bytes32",
          "name": "role",
          "type": "bytes32"
        },
        {
          "internalType": "address",
          "name": "account",
          "type": "address"
        }
      ],
      "name": "hasRole",
      "outputs": [
        {
          "internalType": "bool",
          "name": "",
          "type": "bool"
        }
      ],
      "stateMutability": "view",
      "type": "function"
    },
    {
      "inputs": [
        {
          "internalType": "address",
          "name": "spender",
          "type": "address"
        },
        {
          "internalType": "uint256",
          "name": "addedValue",
          "type": "uint256"
        }
      ],
      "name": "increaseAllowance",
      "outputs": [
        {
          "internalType": "bool",
          "name": "",
          "type": "bool"
        }
      ],
      "stateMutability": "nonpayable",
      "type": "function"
    },
    {
      "inputs": [],
      "name": "name",
      "outputs": [
        {
          "internalType": "string",
          "name": "",
          "type": "string"
        }
      ],
      "stateMutability": "view",
      "type": "function"
    },
    {
      "inputs": [],
      "name": "owner",
      "outputs": [
        {
          "internalType": "address",
          "name": "",
          "type": "address"
        }
      ],
      "stateMutability": "view",
      "type": "function"
    },
    {
      "inputs": [],
      "name": "renounceOwnership",
      "outputs": [],
      "stateMutability": "nonpayable",
      "type": "function"
    },
    {
      "inputs": [
        {
          "internalType": "bytes32",
          "name": "role",
          "type": "bytes32"
        },
        {
          "internalType": "address",
          "name": "account",
          "type": "address"
        }
      ],
      "name": "renounceRole",
      "outputs": [],
      "stateMutability": "nonpayable",
      "type": "function"
    },
    {
      "inputs": [
        {
          "internalType": "bytes32",
          "name": "role",
          "type": "bytes32"
        },
        {
          "internalType": "address",
          "name": "account",
          "type": "address"
        }
      ],
      "name": "revokeRole",
      "outputs": [],
      "stateMutability": "nonpayable",
      "type": "function"
    },
    {
      "inputs": [
        {
          "internalType": "address",
          "name": "addr",
          "type": "address"
        }
      ],
      "name": "setAdminRole",
      "outputs": [],
      "stateMutability": "nonpayable",
      "type": "function"
    },
    {
      "inputs": [
        {
          "internalType": "address",
          "name": "addr",
          "type": "address"
        }
      ],
      "name": "setWhitelistAddress",
      "outputs": [],
      "stateMutability": "nonpayable",
      "type": "function"
    },
    {
      "inputs": [
        {
          "internalType": "bytes4",
          "name": "interfaceId",
          "type": "bytes4"
        }
      ],
      "name": "supportsInterface",
      "outputs": [
        {
          "internalType": "bool",
          "name": "",
          "type": "bool"
        }
      ],
      "stateMutability": "view",
      "type": "function"
    },
    {
      "inputs": [],
      "name": "symbol",
      "outputs": [
        {
          "internalType": "string",
          "name": "",
          "type": "string"
        }
      ],
      "stateMutability": "view",
      "type": "function"
    },
    {
      "inputs": [],
      "name": "totalSupply",
      "outputs": [
        {
          "internalType": "uint256",
          "name": "",
          "type": "uint256"
        }
      ],
      "stateMutability": "view",
      "type": "function"
    },
    {
      "inputs": [
        {
          "internalType": "address",
          "name": "to",
          "type": "address"
        },
        {
          "internalType": "uint256",
          "name": "amount",
          "type": "uint256"
        }
      ],
      "name": "transfer",
      "outputs": [
        {
          "internalType": "bool",
          "name": "",
          "type": "bool"
        }
      ],
      "stateMutability": "nonpayable",
      "type": "function"
    },
    {
      "inputs": [
        {
          "internalType": "address",
          "name": "from",
          "type": "address"
        },
        {
          "internalType": "address",
          "name": "to",
          "type": "address"
        },
        {
          "internalType": "uint256",
          "name": "amount",
          "type": "uint256"
        }
      ],
      "name": "transferFrom",
      "outputs": [
        {
          "internalType": "bool",
          "name": "",
          "type": "bool"
        }
      ],
      "stateMutability": "nonpayable",
      "type": "function"
    },
    {
      "inputs": [
        {
          "internalType": "address",
          "name": "newOwner",
          "type": "address"
        }
      ],
      "name": "transferOwnership",
      "outputs": [],
      "stateMutability": "nonpayable",
      "type": "function"
    }
  ],
  "bytecode": "0x60806040523480156200001157600080fd5b50604080518082018252600b81526a29a134b932102a37b5b2b760a91b60208083019182528351808501909452600584526414d09a5c9960da1b9084015281519192916200006291600391620003b7565b50805162000078906004906020840190620003b7565b505050620000956200008f620000d160201b60201c565b620000d5565b620000a260003362000127565b620000cb33620000b56012600a620004c1565b620000c590633b9aca006200058a565b62000137565b620005ff565b3390565b600680546001600160a01b038381166001600160a01b0319831681179093556040519116919082907f8be0079c531659141344cd1fd0a4f28419497f9722a3daafe3b4186f6b6457e090600090a35050565b6200013382826200022e565b5050565b6001600160a01b038216620001935760405162461bcd60e51b815260206004820152601f60248201527f45524332303a206d696e7420746f20746865207a65726f20616464726573730060448201526064015b60405180910390fd5b620001a160008383620002b8565b8060026000828254620001b591906200045d565b90915550506001600160a01b03821660009081526020819052604081208054839290620001e49084906200045d565b90915550506040518181526001600160a01b038316906000907fddf252ad1be2c89b69c2b068fc378daa952ba7f163c4a11628f55a4df523b3ef9060200160405180910390a35050565b6200023a82826200038a565b620001335760008281526005602090815260408083206001600160a01b03851684529091529020805460ff19166001179055620002743390565b6001600160a01b0316816001600160a01b0316837f2f8788117e7eff1d82e926ec794901d17c78024a50270940304540a733656f0d60405160405180910390a45050565b6001600160a01b03831615801590620002d957506001600160a01b03821615155b156200036d576001600160a01b03831660009081526007602052604090205460ff16806200031f57506001600160a01b03821660009081526007602052604090205460ff165b6200036d5760405162461bcd60e51b815260206004820152601660248201527f43616e206e6f74207472616e7366657220746f6b656e0000000000000000000060448201526064016200018a565b620003858383836200038560201b620004701760201c565b505050565b60008281526005602090815260408083206001600160a01b038516845290915290205460ff165b92915050565b828054620003c590620005ac565b90600052602060002090601f016020900481019282620003e9576000855562000434565b82601f106200040457805160ff191683800117855562000434565b8280016001018555821562000434579182015b828111156200043457825182559160200191906001019062000417565b506200044292915062000446565b5090565b5b8082111562000442576000815560010162000447565b60008219821115620004735762000473620005e9565b500190565b600181815b80851115620004b95781600019048211156200049d576200049d620005e9565b80851615620004ab57918102915b93841c93908002906200047d565b509250929050565b6000620004cf8383620004d6565b9392505050565b600082620004e757506001620003b1565b81620004f657506000620003b1565b81600181146200050f57600281146200051a576200053a565b6001915050620003b1565b60ff8411156200052e576200052e620005e9565b50506001821b620003b1565b5060208310610133831016604e8410600b84101617156200055f575081810a620003b1565b6200056b838362000478565b8060001904821115620005825762000582620005e9565b029392505050565b6000816000190483118215151615620005a757620005a7620005e9565b500290565b600181811c90821680620005c157607f821691505b60208210811415620005e357634e487b7160e01b600052602260045260246000fd5b50919050565b634e487b7160e01b600052601160045260246000fd5b611216806200060f6000396000f3fe608060405234801561001057600080fd5b50600436106101585760003560e01c8063715018a6116100c3578063a224c7451161007c578063a224c745146102d4578063a457c2d7146102e7578063a9059cbb146102fa578063d547741f1461030d578063dd62ed3e14610320578063f2fde38b1461033357600080fd5b8063715018a61461027b578063761da1d0146102835780638da5cb5b1461029657806391d14854146102b157806395d89b41146102c4578063a217fddf146102cc57600080fd5b80632f2ff15d116101155780632f2ff15d146101f5578063313ce5671461020a57806336568abe14610219578063395093511461022c5780634adc7cfd1461023f57806370a082311461025257600080fd5b806301ffc9a71461015d57806306fdde0314610185578063095ea7b31461019a57806318160ddd146101ad57806323b872dd146101bf578063248a9ca3146101d2575b600080fd5b61017061016b366004611045565b610346565b60405190151581526020015b60405180910390f35b61018d61037d565b60405161017c91906110e2565b6101706101a8366004610fe2565b61040f565b6002545b60405190815260200161017c565b6101706101cd366004610fa7565b610427565b6101b16101e036600461100b565b60009081526005602052604090206001015490565b610208610203366004611023565b61044b565b005b6040516012815260200161017c565b610208610227366004611023565b610475565b61017061023a366004610fe2565b6104f8565b61020861024d366004610f5b565b61051a565b6101b1610260366004610f5b565b6001600160a01b031660009081526020819052604090205490565b610208610530565b610170610291366004610f5b565b610544565b6006546040516001600160a01b03909116815260200161017c565b6101706102bf366004611023565b610571565b61018d61059c565b6101b1600081565b6102086102e2366004610f5b565b6105ab565b6101706102f5366004610fe2565b6105db565b610170610308366004610fe2565b610656565b61020861031b366004611023565b610664565b6101b161032e366004610f75565b610689565b610208610341366004610f5b565b6106b4565b60006001600160e01b03198216637965db0b60e01b148061037757506301ffc9a760e01b6001600160e01b03198316145b92915050565b60606003805461038c9061118f565b80601f01602080910402602001604051908101604052809291908181526020018280546103b89061118f565b80156104055780601f106103da57610100808354040283529160200191610405565b820191906000526020600020905b8154815290600101906020018083116103e857829003601f168201915b5050505050905090565b60003361041d81858561072a565b5060019392505050565b60003361043585828561084e565b6104408585856108c8565b506001949350505050565b60008281526005602052604090206001015461046681610aa1565b6104708383610aab565b505050565b6001600160a01b03811633146104ea5760405162461bcd60e51b815260206004820152602f60248201527f416363657373436f6e74726f6c3a2063616e206f6e6c792072656e6f756e636560448201526e103937b632b9903337b91039b2b63360891b60648201526084015b60405180910390fd5b6104f48282610b31565b5050565b60003361041d81858561050b8383610689565b6105159190611115565b61072a565b610522610b98565b61052d600082610bf2565b50565b610538610b98565b6105426000610bfc565b565b600061054e610b98565b506001600160a01b03811660009081526007602052604090205460ff165b919050565b60009182526005602090815260408084206001600160a01b0393909316845291905290205460ff1690565b60606004805461038c9061118f565b60006105b681610aa1565b506001600160a01b03166000908152600760205260409020805460ff19166001179055565b600033816105e98286610689565b9050838110156106495760405162461bcd60e51b815260206004820152602560248201527f45524332303a2064656372656173656420616c6c6f77616e63652062656c6f77604482015264207a65726f60d81b60648201526084016104e1565b610440828686840361072a565b60003361041d8185856108c8565b60008281526005602052604090206001015461067f81610aa1565b6104708383610b31565b6001600160a01b03918216600090815260016020908152604080832093909416825291909152205490565b6106bc610b98565b6001600160a01b0381166107215760405162461bcd60e51b815260206004820152602660248201527f4f776e61626c653a206e6577206f776e657220697320746865207a65726f206160448201526564647265737360d01b60648201526084016104e1565b61052d81610bfc565b6001600160a01b03831661078c5760405162461bcd60e51b8152602060048201526024808201527f45524332303a20617070726f76652066726f6d20746865207a65726f206164646044820152637265737360e01b60648201526084016104e1565b6001600160a01b0382166107ed5760405162461bcd60e51b815260206004820152602260248201527f45524332303a20617070726f766520746f20746865207a65726f206164647265604482015261737360f01b60648201526084016104e1565b6001600160a01b0383811660008181526001602090815260408083209487168084529482529182902085905590518481527f8c5be1e5ebec7d5bd14f71427d1e84f3dd0314c0f7b2291e5b200ac8c7c3b925910160405180910390a3505050565b600061085a8484610689565b905060001981146108c257818110156108b55760405162461bcd60e51b815260206004820152601d60248201527f45524332303a20696e73756666696369656e7420616c6c6f77616e636500000060448201526064016104e1565b6108c2848484840361072a565b50505050565b6001600160a01b03831661092c5760405162461bcd60e51b815260206004820152602560248201527f45524332303a207472616e736665722066726f6d20746865207a65726f206164604482015264647265737360d81b60648201526084016104e1565b6001600160a01b03821661098e5760405162461bcd60e51b815260206004820152602360248201527f45524332303a207472616e7366657220746f20746865207a65726f206164647260448201526265737360e81b60648201526084016104e1565b610999838383610c4e565b6001600160a01b03831660009081526020819052604090205481811015610a115760405162461bcd60e51b815260206004820152602660248201527f45524332303a207472616e7366657220616d6f756e7420657863656564732062604482015265616c616e636560d01b60648201526084016104e1565b6001600160a01b03808516600090815260208190526040808220858503905591851681529081208054849290610a48908490611115565b92505081905550826001600160a01b0316846001600160a01b03167fddf252ad1be2c89b69c2b068fc378daa952ba7f163c4a11628f55a4df523b3ef84604051610a9491815260200190565b60405180910390a36108c2565b61052d8133610cf7565b610ab58282610571565b6104f45760008281526005602090815260408083206001600160a01b03851684529091529020805460ff19166001179055610aed3390565b6001600160a01b0316816001600160a01b0316837f2f8788117e7eff1d82e926ec794901d17c78024a50270940304540a733656f0d60405160405180910390a45050565b610b3b8282610571565b156104f45760008281526005602090815260408083206001600160a01b0385168085529252808320805460ff1916905551339285917ff6391f5c32d9c69d2a47ea670b442974b53935d1edc7fd64eb21e047a839171b9190a45050565b6006546001600160a01b031633146105425760405162461bcd60e51b815260206004820181905260248201527f4f776e61626c653a2063616c6c6572206973206e6f7420746865206f776e657260448201526064016104e1565b6104f48282610aab565b600680546001600160a01b038381166001600160a01b0319831681179093556040519116919082907f8be0079c531659141344cd1fd0a4f28419497f9722a3daafe3b4186f6b6457e090600090a35050565b6001600160a01b03831615801590610c6e57506001600160a01b03821615155b15610470576001600160a01b03831660009081526007602052604090205460ff1680610cb257506001600160a01b03821660009081526007602052604090205460ff165b6104705760405162461bcd60e51b815260206004820152601660248201527521b0b7103737ba103a3930b739b332b9103a37b5b2b760511b60448201526064016104e1565b610d018282610571565b6104f457610d19816001600160a01b03166014610d5b565b610d24836020610d5b565b604051602001610d3592919061106d565b60408051601f198184030181529082905262461bcd60e51b82526104e1916004016110e2565b60606000610d6a83600261112d565b610d75906002611115565b67ffffffffffffffff811115610d9b57634e487b7160e01b600052604160045260246000fd5b6040519080825280601f01601f191660200182016040528015610dc5576020820181803683370190505b509050600360fc1b81600081518110610dee57634e487b7160e01b600052603260045260246000fd5b60200101906001600160f81b031916908160001a905350600f60fb1b81600181518110610e2b57634e487b7160e01b600052603260045260246000fd5b60200101906001600160f81b031916908160001a9053506000610e4f84600261112d565b610e5a906001611115565b90505b6001811115610eee576f181899199a1a9b1b9c1cb0b131b232b360811b85600f1660108110610e9c57634e487b7160e01b600052603260045260246000fd5b1a60f81b828281518110610ec057634e487b7160e01b600052603260045260246000fd5b60200101906001600160f81b031916908160001a90535060049490941c93610ee781611178565b9050610e5d565b508315610f3d5760405162461bcd60e51b815260206004820181905260248201527f537472696e67733a20686578206c656e67746820696e73756666696369656e7460448201526064016104e1565b9392505050565b80356001600160a01b038116811461056c57600080fd5b600060208284031215610f6c578081fd5b610f3d82610f44565b60008060408385031215610f87578081fd5b610f9083610f44565b9150610f9e60208401610f44565b90509250929050565b600080600060608486031215610fbb578081fd5b610fc484610f44565b9250610fd260208501610f44565b9150604084013590509250925092565b60008060408385031215610ff4578182fd5b610ffd83610f44565b946020939093013593505050565b60006020828403121561101c578081fd5b5035919050565b60008060408385031215611035578182fd5b82359150610f9e60208401610f44565b600060208284031215611056578081fd5b81356001600160e01b031981168114610f3d578182fd5b7f416363657373436f6e74726f6c3a206163636f756e74200000000000000000008152600083516110a581601785016020880161114c565b7001034b99036b4b9b9b4b733903937b6329607d1b60179184019182015283516110d681602884016020880161114c565b01602801949350505050565b602081526000825180602084015261110181604085016020870161114c565b601f01601f19169190910160400192915050565b60008219821115611128576111286111ca565b500190565b6000816000190483118215151615611147576111476111ca565b500290565b60005b8381101561116757818101518382015260200161114f565b838111156108c25750506000910152565b600081611187576111876111ca565b506000190190565b600181811c908216806111a357607f821691505b602082108114156111c457634e487b7160e01b600052602260045260246000fd5b50919050565b634e487b7160e01b600052601160045260246000fdfea2646970667358221220450ae5b7aff7ba7fbad889c0ff06219e13dd32dea8c0579c5465654c9ca5e56164736f6c63430008040033",
  "linkReferences": {},
  "deployedLinkReferences": {}
}