{
  "_format": "hh-sol-artifact-1",
  "contractName": "SBirdBetting",
  "sourceName": "contracts/SBirdBetting.sol",
  "abi": [
    {
      "anonymous": false,
      "inputs": [
        {
          "indexed": false,
          "internalType": "uint16",
          "name": "matchID",
          "type": "uint16"
        },
        {
          "components": [
            {
              "internalType": "uint16",
              "name": "ouHtHome",
              "type": "uint16"
            },
            {
              "internalType": "uint16",
              "name": "ouHtRatio",
              "type": "uint16"
            },
            {
              "internalType": "uint16",
              "name": "ouHtAway",
              "type": "uint16"
            },
            {
              "internalType": "uint16",
              "name": "ouFtHome",
              "type": "uint16"
            },
            {
              "internalType": "uint16",
              "name": "ouFtRatio",
              "type": "uint16"
            },
            {
              "internalType": "uint16",
              "name": "ouFtAway",
              "type": "uint16"
            },
            {
              "internalType": "uint16",
              "name": "oddsHtHome",
              "type": "uint16"
            },
            {
              "internalType": "uint16",
              "name": "oddsHtDraw",
              "type": "uint16"
            },
            {
              "internalType": "uint16",
              "name": "oddsHtAway",
              "type": "uint16"
            },
            {
              "internalType": "uint16",
              "name": "oddsFtHome",
              "type": "uint16"
            },
            {
              "internalType": "uint16",
              "name": "oddsFtDraw",
              "type": "uint16"
            },
            {
              "internalType": "uint16",
              "name": "oddsFtAway",
              "type": "uint16"
            }
          ],
          "indexed": false,
          "internalType": "struct IBirdBetting.MatchStatistics",
          "name": "mSta",
          "type": "tuple"
        },
        {
          "components": [
            {
              "internalType": "uint8",
              "name": "homeScore",
              "type": "uint8"
            },
            {
              "internalType": "uint8",
              "name": "awayScore",
              "type": "uint8"
            },
            {
              "internalType": "uint256",
              "name": "startTime",
              "type": "uint256"
            },
            {
              "internalType": "string",
              "name": "homeName",
              "type": "string"
            },
            {
              "internalType": "string",
              "name": "awayName",
              "type": "string"
            },
            {
              "internalType": "string",
              "name": "location",
              "type": "string"
            },
            {
              "internalType": "string",
              "name": "round",
              "type": "string"
            }
          ],
          "indexed": false,
          "internalType": "struct IBirdBetting.MatchInfo",
          "name": "mInf",
          "type": "tuple"
        }
      ],
      "name": "CreateMatch",
      "type": "event"
    },
    {
      "anonymous": false,
      "inputs": [
        {
          "indexed": false,
          "internalType": "uint8",
          "name": "version",
          "type": "uint8"
        }
      ],
      "name": "Initialized",
      "type": "event"
    },
    {
      "anonymous": false,
      "inputs": [
        {
          "indexed": true,
          "internalType": "address",
          "name": "previousOwner",
          "type": "address"
        },
        {
          "indexed": true,
          "internalType": "address",
          "name": "newOwner",
          "type": "address"
        }
      ],
      "name": "OwnershipTransferred",
      "type": "event"
    },
    {
      "anonymous": false,
      "inputs": [
        {
          "indexed": true,
          "internalType": "bytes32",
          "name": "role",
          "type": "bytes32"
        },
        {
          "indexed": true,
          "internalType": "bytes32",
          "name": "previousAdminRole",
          "type": "bytes32"
        },
        {
          "indexed": true,
          "internalType": "bytes32",
          "name": "newAdminRole",
          "type": "bytes32"
        }
      ],
      "name": "RoleAdminChanged",
      "type": "event"
    },
    {
      "anonymous": false,
      "inputs": [
        {
          "indexed": true,
          "internalType": "bytes32",
          "name": "role",
          "type": "bytes32"
        },
        {
          "indexed": true,
          "internalType": "address",
          "name": "account",
          "type": "address"
        },
        {
          "indexed": true,
          "internalType": "address",
          "name": "sender",
          "type": "address"
        }
      ],
      "name": "RoleGranted",
      "type": "event"
    },
    {
      "anonymous": false,
      "inputs": [
        {
          "indexed": true,
          "internalType": "bytes32",
          "name": "role",
          "type": "bytes32"
        },
        {
          "indexed": true,
          "internalType": "address",
          "name": "account",
          "type": "address"
        },
        {
          "indexed": true,
          "internalType": "address",
          "name": "sender",
          "type": "address"
        }
      ],
      "name": "RoleRevoked",
      "type": "event"
    },
    {
      "anonymous": false,
      "inputs": [
        {
          "indexed": false,
          "internalType": "uint16",
          "name": "matchID",
          "type": "uint16"
        },
        {
          "components": [
            {
              "internalType": "uint8",
              "name": "homeScore",
              "type": "uint8"
            },
            {
              "internalType": "uint8",
              "name": "awayScore",
              "type": "uint8"
            },
            {
              "internalType": "uint256",
              "name": "startTime",
              "type": "uint256"
            },
            {
              "internalType": "string",
              "name": "homeName",
              "type": "string"
            },
            {
              "internalType": "string",
              "name": "awayName",
              "type": "string"
            },
            {
              "internalType": "string",
              "name": "location",
              "type": "string"
            },
            {
              "internalType": "string",
              "name": "round",
              "type": "string"
            }
          ],
          "indexed": false,
          "internalType": "struct IBirdBetting.MatchInfo",
          "name": "mInf",
          "type": "tuple"
        }
      ],
      "name": "UpdateMatchInfo",
      "type": "event"
    },
    {
      "anonymous": false,
      "inputs": [
        {
          "indexed": false,
          "internalType": "uint16",
          "name": "matchID",
          "type": "uint16"
        },
        {
          "components": [
            {
              "internalType": "uint16",
              "name": "ouHtHome",
              "type": "uint16"
            },
            {
              "internalType": "uint16",
              "name": "ouHtRatio",
              "type": "uint16"
            },
            {
              "internalType": "uint16",
              "name": "ouHtAway",
              "type": "uint16"
            },
            {
              "internalType": "uint16",
              "name": "ouFtHome",
              "type": "uint16"
            },
            {
              "internalType": "uint16",
              "name": "ouFtRatio",
              "type": "uint16"
            },
            {
              "internalType": "uint16",
              "name": "ouFtAway",
              "type": "uint16"
            },
            {
              "internalType": "uint16",
              "name": "oddsHtHome",
              "type": "uint16"
            },
            {
              "internalType": "uint16",
              "name": "oddsHtDraw",
              "type": "uint16"
            },
            {
              "internalType": "uint16",
              "name": "oddsHtAway",
              "type": "uint16"
            },
            {
              "internalType": "uint16",
              "name": "oddsFtHome",
              "type": "uint16"
            },
            {
              "internalType": "uint16",
              "name": "oddsFtDraw",
              "type": "uint16"
            },
            {
              "internalType": "uint16",
              "name": "oddsFtAway",
              "type": "uint16"
            }
          ],
          "indexed": false,
          "internalType": "struct IBirdBetting.MatchStatistics",
          "name": "mSta",
          "type": "tuple"
        }
      ],
      "name": "UpdateMatchStatistics",
      "type": "event"
    },
    {
      "anonymous": false,
      "inputs": [
        {
          "indexed": true,
          "internalType": "address",
          "name": "user",
          "type": "address"
        },
        {
          "indexed": false,
          "internalType": "uint16",
          "name": "matchID",
          "type": "uint16"
        },
        {
          "indexed": false,
          "internalType": "uint256",
          "name": "amount",
          "type": "uint256"
        },
        {
          "indexed": false,
          "internalType": "string",
          "name": "betType",
          "type": "string"
        },
        {
          "indexed": false,
          "internalType": "string",
          "name": "betPlace",
          "type": "string"
        }
      ],
      "name": "UserBetting",
      "type": "event"
    },
    {
      "anonymous": false,
      "inputs": [
        {
          "indexed": false,
          "internalType": "uint16",
          "name": "matchID",
          "type": "uint16"
        },
        {
          "indexed": false,
          "internalType": "uint256",
          "name": "amount",
          "type": "uint256"
        },
        {
          "indexed": true,
          "internalType": "address",
          "name": "user",
          "type": "address"
        },
        {
          "indexed": false,
          "internalType": "uint256",
          "name": "deadline",
          "type": "uint256"
        }
      ],
      "name": "UserClaim",
      "type": "event"
    },
    {
      "anonymous": false,
      "inputs": [
        {
          "indexed": true,
          "internalType": "address",
          "name": "user",
          "type": "address"
        },
        {
          "indexed": false,
          "internalType": "uint16",
          "name": "matchID",
          "type": "uint16"
        },
        {
          "indexed": false,
          "internalType": "uint8",
          "name": "homeScore",
          "type": "uint8"
        },
        {
          "indexed": false,
          "internalType": "uint8",
          "name": "awayScore",
          "type": "uint8"
        },
        {
          "indexed": false,
          "internalType": "uint256",
          "name": "time",
          "type": "uint256"
        }
      ],
      "name": "UserPredicting",
      "type": "event"
    },
    {
      "inputs": [],
      "name": "CLAIM_TOKEN_WITH_SIG_TYPEHASH",
      "outputs": [
        {
          "internalType": "bytes32",
          "name": "",
          "type": "bytes32"
        }
      ],
      "stateMutability": "view",
      "type": "function"
    },
    {
      "inputs": [],
      "name": "DEFAULT_ADMIN_ROLE",
      "outputs": [
        {
          "internalType": "bytes32",
          "name": "",
          "type": "bytes32"
        }
      ],
      "stateMutability": "view",
      "type": "function"
    },
    {
      "inputs": [
        {
          "internalType": "address",
          "name": "",
          "type": "address"
        }
      ],
      "name": "TokenClaimNonces",
      "outputs": [
        {
          "internalType": "uint256",
          "name": "",
          "type": "uint256"
        }
      ],
      "stateMutability": "view",
      "type": "function"
    },
    {
      "inputs": [
        {
          "internalType": "address",
          "name": "",
          "type": "address"
        }
      ],
      "name": "TokenClaimTimeStamp",
      "outputs": [
        {
          "internalType": "uint256",
          "name": "",
          "type": "uint256"
        }
      ],
      "stateMutability": "view",
      "type": "function"
    },
    {
      "inputs": [
        {
          "internalType": "address",
          "name": "_token",
          "type": "address"
        },
        {
          "internalType": "address",
          "name": "_fundWallet",
          "type": "address"
        }
      ],
      "name": "__SBirdBetting_init",
      "outputs": [],
      "stateMutability": "nonpayable",
      "type": "function"
    },
    {
      "inputs": [
        {
          "internalType": "uint16",
          "name": "_matchID",
          "type": "uint16"
        },
        {
          "internalType": "uint256",
          "name": "_amount",
          "type": "uint256"
        },
        {
          "internalType": "string",
          "name": "_betType",
          "type": "string"
        },
        {
          "internalType": "string",
          "name": "_betPlace",
          "type": "string"
        }
      ],
      "name": "betting",
      "outputs": [],
      "stateMutability": "nonpayable",
      "type": "function"
    },
    {
      "inputs": [
        {
          "internalType": "address",
          "name": "",
          "type": "address"
        },
        {
          "internalType": "uint16",
          "name": "",
          "type": "uint16"
        }
      ],
      "name": "claimInMatch",
      "outputs": [
        {
          "internalType": "bool",
          "name": "",
          "type": "bool"
        }
      ],
      "stateMutability": "view",
      "type": "function"
    },
    {
      "inputs": [],
      "name": "fundWallet",
      "outputs": [
        {
          "internalType": "address",
          "name": "",
          "type": "address"
        }
      ],
      "stateMutability": "view",
      "type": "function"
    },
    {
      "inputs": [
        {
          "internalType": "bytes32",
          "name": "role",
          "type": "bytes32"
        }
      ],
      "name": "getRoleAdmin",
      "outputs": [
        {
          "internalType": "bytes32",
          "name": "",
          "type": "bytes32"
        }
      ],
      "stateMutability": "view",
      "type": "function"
    },
    {
      "inputs": [
        {
          "internalType": "address",
          "name": "account",
          "type": "address"
        }
      ],
      "name": "grantAdminRole",
      "outputs": [],
      "stateMutability": "nonpayable",
      "type": "function"
    },
    {
      "inputs": [
        {
          "internalType": "bytes32",
          "name": "role",
          "type": "bytes32"
        },
        {
          "internalType": "address",
          "name": "account",
          "type": "address"
        }
      ],
      "name": "grantRole",
      "outputs": [],
      "stateMutability": "nonpayable",
      "type": "function"
    },
    {
      "inputs": [
        {
          "internalType": "bytes32",
          "name": "role",
          "type": "bytes32"
        },
        {
          "internalType": "address",
          "name": "account",
          "type": "address"
        }
      ],
      "name": "hasRole",
      "outputs": [
        {
          "internalType": "bool",
          "name": "",
          "type": "bool"
        }
      ],
      "stateMutability": "view",
      "type": "function"
    },
    {
      "inputs": [
        {
          "internalType": "uint16",
          "name": "",
          "type": "uint16"
        }
      ],
      "name": "matchByID",
      "outputs": [
        {
          "components": [
            {
              "internalType": "uint16",
              "name": "ouHtHome",
              "type": "uint16"
            },
            {
              "internalType": "uint16",
              "name": "ouHtRatio",
              "type": "uint16"
            },
            {
              "internalType": "uint16",
              "name": "ouHtAway",
              "type": "uint16"
            },
            {
              "internalType": "uint16",
              "name": "ouFtHome",
              "type": "uint16"
            },
            {
              "internalType": "uint16",
              "name": "ouFtRatio",
              "type": "uint16"
            },
            {
              "internalType": "uint16",
              "name": "ouFtAway",
              "type": "uint16"
            },
            {
              "internalType": "uint16",
              "name": "oddsHtHome",
              "type": "uint16"
            },
            {
              "internalType": "uint16",
              "name": "oddsHtDraw",
              "type": "uint16"
            },
            {
              "internalType": "uint16",
              "name": "oddsHtAway",
              "type": "uint16"
            },
            {
              "internalType": "uint16",
              "name": "oddsFtHome",
              "type": "uint16"
            },
            {
              "internalType": "uint16",
              "name": "oddsFtDraw",
              "type": "uint16"
            },
            {
              "internalType": "uint16",
              "name": "oddsFtAway",
              "type": "uint16"
            }
          ],
          "internalType": "struct IBirdBetting.MatchStatistics",
          "name": "mSta",
          "type": "tuple"
        },
        {
          "components": [
            {
              "internalType": "uint8",
              "name": "homeScore",
              "type": "uint8"
            },
            {
              "internalType": "uint8",
              "name": "awayScore",
              "type": "uint8"
            },
            {
              "internalType": "uint256",
              "name": "startTime",
              "type": "uint256"
            },
            {
              "internalType": "string",
              "name": "homeName",
              "type": "string"
            },
            {
              "internalType": "string",
              "name": "awayName",
              "type": "string"
            },
            {
              "internalType": "string",
              "name": "location",
              "type": "string"
            },
            {
              "internalType": "string",
              "name": "round",
              "type": "string"
            }
          ],
          "internalType": "struct IBirdBetting.MatchInfo",
          "name": "mInf",
          "type": "tuple"
        }
      ],
      "stateMutability": "view",
      "type": "function"
    },
    {
      "inputs": [],
      "name": "maxBetAmount",
      "outputs": [
        {
          "internalType": "uint256",
          "name": "",
          "type": "uint256"
        }
      ],
      "stateMutability": "view",
      "type": "function"
    },
    {
      "inputs": [
        {
          "internalType": "address",
          "name": "",
          "type": "address"
        },
        {
          "internalType": "address",
          "name": "",
          "type": "address"
        },
        {
          "internalType": "uint256",
          "name": "",
          "type": "uint256"
        },
        {
          "internalType": "bytes",
          "name": "",
          "type": "bytes"
        }
      ],
      "name": "onERC721Received",
      "outputs": [
        {
          "internalType": "bytes4",
          "name": "",
          "type": "bytes4"
        }
      ],
      "stateMutability": "nonpayable",
      "type": "function"
    },
    {
      "inputs": [],
      "name": "owner",
      "outputs": [
        {
          "internalType": "address",
          "name": "",
          "type": "address"
        }
      ],
      "stateMutability": "view",
      "type": "function"
    },
    {
      "inputs": [
        {
          "internalType": "uint16",
          "name": "_matchID",
          "type": "uint16"
        },
        {
          "internalType": "uint8",
          "name": "_homeScore",
          "type": "uint8"
        },
        {
          "internalType": "uint8",
          "name": "_awayScore",
          "type": "uint8"
        }
      ],
      "name": "predict",
      "outputs": [],
      "stateMutability": "nonpayable",
      "type": "function"
    },
    {
      "inputs": [],
      "name": "renounceOwnership",
      "outputs": [],
      "stateMutability": "nonpayable",
      "type": "function"
    },
    {
      "inputs": [
        {
          "internalType": "bytes32",
          "name": "role",
          "type": "bytes32"
        },
        {
          "internalType": "address",
          "name": "account",
          "type": "address"
        }
      ],
      "name": "renounceRole",
      "outputs": [],
      "stateMutability": "nonpayable",
      "type": "function"
    },
    {
      "inputs": [
        {
          "internalType": "address",
          "name": "account",
          "type": "address"
        }
      ],
      "name": "revokeAdminRole",
      "outputs": [],
      "stateMutability": "nonpayable",
      "type": "function"
    },
    {
      "inputs": [
        {
          "internalType": "bytes32",
          "name": "role",
          "type": "bytes32"
        },
        {
          "internalType": "address",
          "name": "account",
          "type": "address"
        }
      ],
      "name": "revokeRole",
      "outputs": [],
      "stateMutability": "nonpayable",
      "type": "function"
    },
    {
      "inputs": [
        {
          "internalType": "uint16",
          "name": "_matchID",
          "type": "uint16"
        },
        {
          "components": [
            {
              "internalType": "uint16",
              "name": "ouHtHome",
              "type": "uint16"
            },
            {
              "internalType": "uint16",
              "name": "ouHtRatio",
              "type": "uint16"
            },
            {
              "internalType": "uint16",
              "name": "ouHtAway",
              "type": "uint16"
            },
            {
              "internalType": "uint16",
              "name": "ouFtHome",
              "type": "uint16"
            },
            {
              "internalType": "uint16",
              "name": "ouFtRatio",
              "type": "uint16"
            },
            {
              "internalType": "uint16",
              "name": "ouFtAway",
              "type": "uint16"
            },
            {
              "internalType": "uint16",
              "name": "oddsHtHome",
              "type": "uint16"
            },
            {
              "internalType": "uint16",
              "name": "oddsHtDraw",
              "type": "uint16"
            },
            {
              "internalType": "uint16",
              "name": "oddsHtAway",
              "type": "uint16"
            },
            {
              "internalType": "uint16",
              "name": "oddsFtHome",
              "type": "uint16"
            },
            {
              "internalType": "uint16",
              "name": "oddsFtDraw",
              "type": "uint16"
            },
            {
              "internalType": "uint16",
              "name": "oddsFtAway",
              "type": "uint16"
            }
          ],
          "internalType": "struct IBirdBetting.MatchStatistics",
          "name": "_mSta",
          "type": "tuple"
        },
        {
          "components": [
            {
              "internalType": "uint8",
              "name": "homeScore",
              "type": "uint8"
            },
            {
              "internalType": "uint8",
              "name": "awayScore",
              "type": "uint8"
            },
            {
              "internalType": "uint256",
              "name": "startTime",
              "type": "uint256"
            },
            {
              "internalType": "string",
              "name": "homeName",
              "type": "string"
            },
            {
              "internalType": "string",
              "name": "awayName",
              "type": "string"
            },
            {
              "internalType": "string",
              "name": "location",
              "type": "string"
            },
            {
              "internalType": "string",
              "name": "round",
              "type": "string"
            }
          ],
          "internalType": "struct IBirdBetting.MatchInfo",
          "name": "_mInf",
          "type": "tuple"
        }
      ],
      "name": "setMatchInfo",
      "outputs": [],
      "stateMutability": "nonpayable",
      "type": "function"
    },
    {
      "inputs": [
        {
          "internalType": "uint256",
          "name": "_amount",
          "type": "uint256"
        }
      ],
      "name": "setMaxBetAmount",
      "outputs": [],
      "stateMutability": "nonpayable",
      "type": "function"
    },
    {
      "inputs": [
        {
          "internalType": "address",
          "name": "_signer",
          "type": "address"
        }
      ],
      "name": "setSigner",
      "outputs": [],
      "stateMutability": "nonpayable",
      "type": "function"
    },
    {
      "inputs": [
        {
          "internalType": "uint256",
          "name": "spacer",
          "type": "uint256"
        }
      ],
      "name": "setSpacer",
      "outputs": [],
      "stateMutability": "nonpayable",
      "type": "function"
    },
    {
      "inputs": [
        {
          "internalType": "bytes4",
          "name": "interfaceId",
          "type": "bytes4"
        }
      ],
      "name": "supportsInterface",
      "outputs": [
        {
          "internalType": "bool",
          "name": "",
          "type": "bool"
        }
      ],
      "stateMutability": "view",
      "type": "function"
    },
    {
      "inputs": [
        {
          "internalType": "uint16",
          "name": "_matchID",
          "type": "uint16"
        },
        {
          "internalType": "uint256",
          "name": "_amount",
          "type": "uint256"
        },
        {
          "components": [
            {
              "internalType": "uint256",
              "name": "deadline",
              "type": "uint256"
            },
            {
              "internalType": "uint8",
              "name": "v",
              "type": "uint8"
            },
            {
              "internalType": "bytes32",
              "name": "r",
              "type": "bytes32"
            },
            {
              "internalType": "bytes32",
              "name": "s",
              "type": "bytes32"
            }
          ],
          "internalType": "struct IBirdBetting.EIP712Signature",
          "name": "_signature",
          "type": "tuple"
        }
      ],
      "name": "tokenClaim",
      "outputs": [],
      "stateMutability": "nonpayable",
      "type": "function"
    },
    {
      "inputs": [
        {
          "internalType": "address",
          "name": "newOwner",
          "type": "address"
        }
      ],
      "name": "transferOwnership",
      "outputs": [],
      "stateMutability": "nonpayable",
      "type": "function"
    },
    {
      "inputs": [
        {
          "internalType": "uint16",
          "name": "_matchID",
          "type": "uint16"
        },
        {
          "components": [
            {
              "internalType": "uint8",
              "name": "homeScore",
              "type": "uint8"
            },
            {
              "internalType": "uint8",
              "name": "awayScore",
              "type": "uint8"
            },
            {
              "internalType": "uint256",
              "name": "startTime",
              "type": "uint256"
            },
            {
              "internalType": "string",
              "name": "homeName",
              "type": "string"
            },
            {
              "internalType": "string",
              "name": "awayName",
              "type": "string"
            },
            {
              "internalType": "string",
              "name": "location",
              "type": "string"
            },
            {
              "internalType": "string",
              "name": "round",
              "type": "string"
            }
          ],
          "internalType": "struct IBirdBetting.MatchInfo",
          "name": "_mInf",
          "type": "tuple"
        }
      ],
      "name": "updateMatchInfo",
      "outputs": [],
      "stateMutability": "nonpayable",
      "type": "function"
    },
    {
      "inputs": [
        {
          "internalType": "uint16",
          "name": "_matchID",
          "type": "uint16"
        },
        {
          "components": [
            {
              "internalType": "uint16",
              "name": "ouHtHome",
              "type": "uint16"
            },
            {
              "internalType": "uint16",
              "name": "ouHtRatio",
              "type": "uint16"
            },
            {
              "internalType": "uint16",
              "name": "ouHtAway",
              "type": "uint16"
            },
            {
              "internalType": "uint16",
              "name": "ouFtHome",
              "type": "uint16"
            },
            {
              "internalType": "uint16",
              "name": "ouFtRatio",
              "type": "uint16"
            },
            {
              "internalType": "uint16",
              "name": "ouFtAway",
              "type": "uint16"
            },
            {
              "internalType": "uint16",
              "name": "oddsHtHome",
              "type": "uint16"
            },
            {
              "internalType": "uint16",
              "name": "oddsHtDraw",
              "type": "uint16"
            },
            {
              "internalType": "uint16",
              "name": "oddsHtAway",
              "type": "uint16"
            },
            {
              "internalType": "uint16",
              "name": "oddsFtHome",
              "type": "uint16"
            },
            {
              "internalType": "uint16",
              "name": "oddsFtDraw",
              "type": "uint16"
            },
            {
              "internalType": "uint16",
              "name": "oddsFtAway",
              "type": "uint16"
            }
          ],
          "internalType": "struct IBirdBetting.MatchStatistics",
          "name": "mSta",
          "type": "tuple"
        }
      ],
      "name": "updateMatchStatistics",
      "outputs": [],
      "stateMutability": "nonpayable",
      "type": "function"
    },
    {
      "inputs": [
        {
          "internalType": "address",
          "name": "",
          "type": "address"
        },
        {
          "internalType": "uint16",
          "name": "",
          "type": "uint16"
        },
        {
          "internalType": "string",
          "name": "",
          "type": "string"
        }
      ],
      "name": "userBettingInMatch",
      "outputs": [
        {
          "internalType": "uint256",
          "name": "amount",
          "type": "uint256"
        },
        {
          "internalType": "string",
          "name": "place",
          "type": "string"
        }
      ],
      "stateMutability": "view",
      "type": "function"
    },
    {
      "inputs": [
        {
          "internalType": "address",
          "name": "",
          "type": "address"
        },
        {
          "internalType": "uint16",
          "name": "",
          "type": "uint16"
        }
      ],
      "name": "userPredictByMatch",
      "outputs": [
        {
          "internalType": "uint8",
          "name": "homeScore",
          "type": "uint8"
        },
        {
          "internalType": "uint8",
          "name": "awayScore",
          "type": "uint8"
        },
        {
          "internalType": "uint256",
          "name": "time",
          "type": "uint256"
        }
      ],
      "stateMutability": "view",
      "type": "function"
    }
  ],
  "bytecode": "0x608060405234801561001057600080fd5b50612f23806100206000396000f3fe608060405234801561001057600080fd5b50600436106101ef5760003560e01c80638da5cb5b1161010f578063c911d906116100a2578063e327f48a11610071578063e327f48a14610500578063f153816014610513578063f2fde38b14610534578063f62611621461054757600080fd5b8063c911d90614610470578063c99392df14610483578063cab11d5d146104e3578063d547741f146104ed57600080fd5b80639a19c7b0116100de5780639a19c7b014610421578063a1dda53514610434578063a217fddf14610455578063c634b78e1461045d57600080fd5b80638da5cb5b146103ad578063902fc128146103be57806391d14854146103df5780639881dce0146103f257600080fd5b806350bd5f6c11610187578063715018a611610156578063715018a61461036c5780637a080ab4146103745780637cfbc7a5146103875780638c3850081461039a57600080fd5b806350bd5f6c146102f9578063664a1ad61461031a5780636a34f43b146103465780636c19e7831461035957600080fd5b8063248a9ca3116101c3578063248a9ca31461029d5780632f2ff15d146102c057806336568abe146102d35780633d77a8a5146102e657600080fd5b8062c71229146101f457806301ffc9a71461022e578063150b7a02146102515780631de7c94a14610288575b600080fd5b61021b7f91b4e17a240545175a79d7c03eeaaae9a2eb9481b5ef81266d3ef1aa8daf9ec281565b6040519081526020015b60405180910390f35b61024161023c366004612776565b61055a565b6040519015158152602001610225565b61026f61025f36600461261e565b630a85bd0160e11b949350505050565b6040516001600160e01b03199091168152602001610225565b61029b610296366004612804565b61057d565b005b61021b6102ab36600461273c565b60009081526097602052604090206001015490565b61029b6102ce366004612754565b610797565b61029b6102e1366004612754565b6107c1565b61029b6102f436600461290b565b610844565b61021b6103073660046125d2565b6101376020526000908152604090205481565b6101315461032e906001600160a01b031681565b6040516001600160a01b039091168152602001610225565b61029b610354366004612951565b610d44565b61029b6103673660046125d2565b610ea4565b61029b610ee0565b61029b6103823660046125ec565b610ef4565b61029b61039536600461273c565b6110b1565b61029b6103a83660046127b8565b6110d0565b6033546001600160a01b031661032e565b61021b6103cc3660046125d2565b6101366020526000908152604090205481565b6102416103ed366004612754565b6111ca565b610241610400366004612697565b61013360209081526000928352604080842090915290825290205460ff1681565b61029b61042f3660046125d2565b6111f5565b6104476104423660046126c0565b611218565b604051610225929190612d6b565b61021b600081565b61029b61046b3660046125d2565b6112e4565b61029b61047e36600461282f565b611307565b6104c3610491366004612697565b6101356020908152600092835260408084209091529082529020805460019091015460ff808316926101009004169083565b6040805160ff948516815293909216602084015290820152606001610225565b61021b6101305481565b61029b6104fb366004612754565b6115f4565b61029b61050e366004612884565b611619565b61052661052136600461279e565b6119cd565b604051610225929190612c91565b61029b6105423660046125d2565b611d28565b61029b61055536600461273c565b611da1565b60006001600160e01b031982161580610577575061057782611dc0565b92915050565b600061058881611df5565b600061013460008561ffff1661ffff1681526020019081526020016000209050828160000160008201518160000160006101000a81548161ffff021916908361ffff16021790555060208201518160000160026101000a81548161ffff021916908361ffff16021790555060408201518160000160046101000a81548161ffff021916908361ffff16021790555060608201518160000160066101000a81548161ffff021916908361ffff16021790555060808201518160000160086101000a81548161ffff021916908361ffff16021790555060a082015181600001600a6101000a81548161ffff021916908361ffff16021790555060c082015181600001600c6101000a81548161ffff021916908361ffff16021790555060e082015181600001600e6101000a81548161ffff021916908361ffff1602179055506101008201518160000160106101000a81548161ffff021916908361ffff1602179055506101208201518160000160126101000a81548161ffff021916908361ffff1602179055506101408201518160000160146101000a81548161ffff021916908361ffff1602179055506101608201518160000160166101000a81548161ffff021916908361ffff1602179055509050507f5aeb2e82d74f416d35e9882694a793a1d1ad05992cfe6e904ee13659619bc2f58484604051610789929190612cd8565b60405180910390a150505050565b6000828152609760205260409020600101546107b281611df5565b6107bc8383611dff565b505050565b6001600160a01b03811633146108365760405162461bcd60e51b815260206004820152602f60248201527f416363657373436f6e74726f6c3a2063616e206f6e6c792072656e6f756e636560448201526e103937b632b9903337b91039b2b63360891b60648201526084015b60405180910390fd5b6108408282611e85565b5050565b600260c95414156108675760405162461bcd60e51b815260040161082d90612c5a565b600260c955816108af5760405162461bcd60e51b8152602060048201526013602482015272105b5bdd5b9d081a5cc81a5b98dbdc9c9958dd606a1b604482015260640161082d565b3360009081526101336020908152604080832061ffff8716845290915290205460ff161561090f5760405162461bcd60e51b815260206004820152600d60248201526c151bdad95b8818db185a5b5959609a1b604482015260640161082d565b8035158061091e575042813510155b61095e5760405162461bcd60e51b815260206004820152601160248201527014da59db985d1d5c9948195e1c1a5c9959607a1b604482015260640161082d565b61012f543360009081526101366020526040902054429161097e91612dd1565b11156109cc5760405162461bcd60e51b815260206004820152601860248201527f436c61696d2077697468696e207370616365722074696d650000000000000000604482015260640161082d565b6000610a9e604080518082018252600c81526b466972656269726447616d6560a01b6020918201528151808301835260018152603160f81b9082015281517f91ab3d17e3a50a9d89e63fd30b92be7f5336b03b287bb946787a83a9d62a2766818301527fea55f854b003845a72bd53f92850259d60335315fde9cce440ee9b3bd2c9369d818401527fc89efdaa54c0f20c7adf612882df0950f5a951637e0307cdcb4c672f298b8bc66060820152306080808301919091528351808303909101815260a0909101909252815191012090565b336000908152610137602052604081208054929350909183917f91b4e17a240545175a79d7c03eeaaae9a2eb9481b5ef81266d3ef1aa8daf9ec291879185610ae583612e86565b9091555060408051602081019490945283019190915260608201528435608082015260a00160405160208183030381529060405280519060200120604051602001610b4792919061190160f01b81526002810192909252602282015260420190565b6040516020818303038152906040528051906020012090506000600182856020016020810190610b779190612993565b6040805160008152602081018083529390935260ff90911682820152860135606080830191909152860135608082015260a0016020604051602081039080840390855afa158015610bcc573d6000803e3d6000fd5b5050604051601f19015161012e549092506001600160a01b038084169116149050610c2d5760405162461bcd60e51b815260206004820152601160248201527014da59db985d1d5c99481a5b9d985b1a59607a1b604482015260640161082d565b61012d54610131546040516323b872dd60e01b81526001600160a01b039182166004820152336024820152604481018890529116906323b872dd90606401602060405180830381600087803b158015610c8557600080fd5b505af1158015610c99573d6000803e3d6000fd5b505050506040513d601f19601f82011682018060405250810190610cbd919061271c565b503360008181526101336020908152604080832061ffff8b16808552908352818420805460ff1916600117905584845261013683529281902042905580519283529082018890528635908201527fc9ce93d954b6fedbb9adc7288761c9683ebaaa14de224e0cf26a43f6f997d3af9060600160405180910390a25050600160c95550505050565b600260c9541415610d675760405162461bcd60e51b815260040161082d90612c5a565b600260c981905561ffff8416600090815261013460205260409020908101544210610dd45760405162461bcd60e51b815260206004820152601e60248201527f43616e2070726564696374206265666f7265206d617463682073746172740000604482015260640161082d565b6040805160608101825260ff8086168252848116602080840191825242848601818152336000818152610135855288812061ffff8e1682529094529287902095518654945186166101000261ffff19909516951694909417929092178455915160019093019290925591517f9503495a6b7978c11c59bf26f2bbab15a8e2226808b034d02d4db327e44966a991610e91918891889188919061ffff94909416845260ff928316602085015291166040830152606082015260800190565b60405180910390a25050600160c9555050565b600080516020612ece833981519152610ebc81611df5565b5061012e80546001600160a01b0319166001600160a01b0392909216919091179055565b610ee8611eec565b610ef26000611f46565b565b600054610100900460ff1615808015610f145750600054600160ff909116105b80610f2e5750303b158015610f2e575060005460ff166001145b610f915760405162461bcd60e51b815260206004820152602e60248201527f496e697469616c697a61626c653a20636f6e747261637420697320616c72656160448201526d191e481a5b9a5d1a585b1a5e995960921b606482015260840161082d565b6000805460ff191660011790558015610fb4576000805461ff0019166101001790555b6001600160a01b03831661100a5760405162461bcd60e51b815260206004820152601f60248201527f42657474696e6720746f6b656e2061646472657373206e6f7420666f756e6400604482015260640161082d565b611012611f98565b61101d600033611fc7565b611035600080516020612ece83398151915233611fc7565b61012d80546001600160a01b038086166001600160a01b03199283161790925561013180549285169290911691909117905580156107bc576000805461ff0019169055604051600181527f7f26b83ff96e1f2b6a682f133852f6798a09c465da95921460cefb38474024989060200160405180910390a1505050565b600080516020612ece8339815191526110c981611df5565b5061013055565b60006110db81611df5565b61ffff83166000908152610134602090815260409182902084516001820180548785015160ff9081166101000261ffff1990921693169290921791909117815592850151600282015560608501518051919386939092611141926003870192019061224e565b506080820151805161115d91600384019160209091019061224e565b5060a0820151805161117991600484019160209091019061224e565b5060c0820151805161119591600584019160209091019061224e565b509050507f04768ff3e5586f277815772a8e2e35bcd014eda551a26018a6b6c5b5e64046b78484604051610789929190612cb3565b60009182526097602090815260408084206001600160a01b0393909316845291905290205460ff1690565b600080516020612ece83398151915261120d81611df5565b6108406000836115f4565b6101326020908152600093845260408085208252928452919092208251808401830180519281529083019390920192909220919052805460018201805491929161126190612e4b565b80601f016020809104026020016040519081016040528092919081815260200182805461128d90612e4b565b80156112da5780601f106112af576101008083540402835291602001916112da565b820191906000526020600020905b8154815290600101906020018083116112bd57829003601f168201915b5050505050905082565b600080516020612ece8339815191526112fc81611df5565b610840600083610797565b600061131281611df5565b60405180604001604052808481526020018381525061013460008661ffff1661ffff16815260200190815260200160002060008201518160000160008201518160000160006101000a81548161ffff021916908361ffff16021790555060208201518160000160026101000a81548161ffff021916908361ffff16021790555060408201518160000160046101000a81548161ffff021916908361ffff16021790555060608201518160000160066101000a81548161ffff021916908361ffff16021790555060808201518160000160086101000a81548161ffff021916908361ffff16021790555060a082015181600001600a6101000a81548161ffff021916908361ffff16021790555060c082015181600001600c6101000a81548161ffff021916908361ffff16021790555060e082015181600001600e6101000a81548161ffff021916908361ffff1602179055506101008201518160000160106101000a81548161ffff021916908361ffff1602179055506101208201518160000160126101000a81548161ffff021916908361ffff1602179055506101408201518160000160146101000a81548161ffff021916908361ffff1602179055506101608201518160000160166101000a81548161ffff021916908361ffff160217905550505060208201518160010160008201518160000160006101000a81548160ff021916908360ff16021790555060208201518160000160016101000a81548160ff021916908360ff16021790555060408201518160010155606082015181600201908051906020019061156792919061224e565b506080820151805161158391600384019160209091019061224e565b5060a0820151805161159f91600484019160209091019061224e565b5060c082015180516115bb91600584019160209091019061224e565b5050509050507fd894f5221c097f522fb743eef4620f872b55d72318de940ae0204625ba2488c884848460405161078993929190612cf1565b60008281526097602052604090206001015461160f81611df5565b6107bc8383611e85565b600260c954141561163c5760405162461bcd60e51b815260040161082d90612c5a565b600260c95561012d546001600160a01b03166116925760405162461bcd60e51b815260206004820152601560248201527414995dd85c991cc81d1bdad95b881b9bdd081cd95d605a1b604482015260640161082d565b610130546116d75760405162461bcd60e51b815260206004820152601260248201527110995d08185b5bdd5b9d081b9bdd081cd95d60721b604482015260640161082d565b3360009081526101326020908152604080832061ffff8a1684529091529081902090516117079086908690612b77565b90815260405190819003602001902054156117645760405162461bcd60e51b815260206004820152601c60248201527f596f7520776572652062657474696e6720696e20746869732062657400000000604482015260640161082d565b610130548511156117ae5760405162461bcd60e51b8152602060048201526014602482015273115e18d9595908185b5bdd5b9d081a5b8818995d60621b604482015260640161082d565b61ffff8616600090815261013460205260409020600281015442106118155760405162461bcd60e51b815260206004820152601e60248201527f43616e2062657474696e67206265666f7265206d617463682073746172740000604482015260640161082d565b604051806040016040528087815260200184848080601f01602080910402602001604051908101604052809392919081815260200183838082843760009201829052509390945250503381526101326020908152604080832061ffff8d16845290915290819020905190915061188e9088908890612b77565b90815260200160405180910390206000820151816000015560208201518160010190805190602001906118c292919061224e565b505061012d54610131546040516323b872dd60e01b81523360048201526001600160a01b039182166024820152604481018a9052911691506323b872dd90606401602060405180830381600087803b15801561191d57600080fd5b505af1158015611931573d6000803e3d6000fd5b505050506040513d601f19601f82011682018060405250810190611955919061271c565b503360008181526101336020908152604080832061ffff8c16845290915290819020805460ff19169055517fc8a59bdc7537eb1473490f78f61e774fb8c6e46b80d8b41cc90b9dca0e4b6946906119b7908a908a908a908a908a908a90612d27565b60405180910390a25050600160c9555050505050565b61013460209081526000918252604091829020825161018081018452815461ffff8082168352620100008204811683860152640100000000820481168387015266010000000000008204811660608085019190915268010000000000000000830482166080850152600160501b8304821660a0850152600160601b8304821660c0850152600160701b8304821660e080860191909152600160801b8404831661010080870191909152600160901b85048416610120870152600160a01b85048416610140870152600160b01b9094049092166101608501528651918201875260018501805460ff80821685529490049093169582019590955260028401549581019590955260038301805492959394919291840191611aeb90612e4b565b80601f0160208091040260200160405190810160405280929190818152602001828054611b1790612e4b565b8015611b645780601f10611b3957610100808354040283529160200191611b64565b820191906000526020600020905b815481529060010190602001808311611b4757829003601f168201915b50505050508152602001600382018054611b7d90612e4b565b80601f0160208091040260200160405190810160405280929190818152602001828054611ba990612e4b565b8015611bf65780601f10611bcb57610100808354040283529160200191611bf6565b820191906000526020600020905b815481529060010190602001808311611bd957829003601f168201915b50505050508152602001600482018054611c0f90612e4b565b80601f0160208091040260200160405190810160405280929190818152602001828054611c3b90612e4b565b8015611c885780601f10611c5d57610100808354040283529160200191611c88565b820191906000526020600020905b815481529060010190602001808311611c6b57829003601f168201915b50505050508152602001600582018054611ca190612e4b565b80601f0160208091040260200160405190810160405280929190818152602001828054611ccd90612e4b565b8015611d1a5780601f10611cef57610100808354040283529160200191611d1a565b820191906000526020600020905b815481529060010190602001808311611cfd57829003601f168201915b505050505081525050905082565b611d30611eec565b6001600160a01b038116611d955760405162461bcd60e51b815260206004820152602660248201527f4f776e61626c653a206e6577206f776e657220697320746865207a65726f206160448201526564647265737360d01b606482015260840161082d565b611d9e81611f46565b50565b600080516020612ece833981519152611db981611df5565b5061012f55565b60006001600160e01b03198216637965db0b60e01b148061057757506301ffc9a760e01b6001600160e01b0319831614610577565b611d9e8133611fd1565b611e0982826111ca565b6108405760008281526097602090815260408083206001600160a01b03851684529091529020805460ff19166001179055611e413390565b6001600160a01b0316816001600160a01b0316837f2f8788117e7eff1d82e926ec794901d17c78024a50270940304540a733656f0d60405160405180910390a45050565b611e8f82826111ca565b156108405760008281526097602090815260408083206001600160a01b0385168085529252808320805460ff1916905551339285917ff6391f5c32d9c69d2a47ea670b442974b53935d1edc7fd64eb21e047a839171b9190a45050565b6033546001600160a01b03163314610ef25760405162461bcd60e51b815260206004820181905260248201527f4f776e61626c653a2063616c6c6572206973206e6f7420746865206f776e6572604482015260640161082d565b603380546001600160a01b038381166001600160a01b0319831681179093556040519116919082907f8be0079c531659141344cd1fd0a4f28419497f9722a3daafe3b4186f6b6457e090600090a35050565b600054610100900460ff16611fbf5760405162461bcd60e51b815260040161082d90612c0f565b610ef2612035565b6108408282611dff565b611fdb82826111ca565b61084057611ff3816001600160a01b03166014612065565b611ffe836020612065565b60405160200161200f929190612b87565b60408051601f198184030181529082905262461bcd60e51b825261082d91600401612bfc565b600054610100900460ff1661205c5760405162461bcd60e51b815260040161082d90612c0f565b610ef233611f46565b60606000612074836002612de9565b61207f906002612dd1565b67ffffffffffffffff8111156120a557634e487b7160e01b600052604160045260246000fd5b6040519080825280601f01601f1916602001820160405280156120cf576020820181803683370190505b509050600360fc1b816000815181106120f857634e487b7160e01b600052603260045260246000fd5b60200101906001600160f81b031916908160001a905350600f60fb1b8160018151811061213557634e487b7160e01b600052603260045260246000fd5b60200101906001600160f81b031916908160001a9053506000612159846002612de9565b612164906001612dd1565b90505b60018111156121f8576f181899199a1a9b1b9c1cb0b131b232b360811b85600f16601081106121a657634e487b7160e01b600052603260045260246000fd5b1a60f81b8282815181106121ca57634e487b7160e01b600052603260045260246000fd5b60200101906001600160f81b031916908160001a90535060049490941c936121f181612e34565b9050612167565b5083156122475760405162461bcd60e51b815260206004820181905260248201527f537472696e67733a20686578206c656e67746820696e73756666696369656e74604482015260640161082d565b9392505050565b82805461225a90612e4b565b90600052602060002090601f01602090048101928261227c57600085556122c2565b82601f1061229557805160ff19168380011785556122c2565b828001600101855582156122c2579182015b828111156122c25782518255916020019190600101906122a7565b506122ce9291506122d2565b5090565b5b808211156122ce57600081556001016122d3565b600067ffffffffffffffff8084111561230257612302612eb7565b604051601f8501601f19908116603f0116810190828211818310171561232a5761232a612eb7565b8160405280935085815286868601111561234357600080fd5b858560208301376000602087830101525050509392505050565b80356001600160a01b038116811461237457600080fd5b919050565b60008083601f84011261238a578182fd5b50813567ffffffffffffffff8111156123a1578182fd5b6020830191508360208285010111156123b957600080fd5b9250929050565b600082601f8301126123d0578081fd5b612247838335602085016122e7565b600060e082840312156123f0578081fd5b6123f8612d84565b9050612403826125c1565b8152612411602083016125c1565b602082015260408201356040820152606082013567ffffffffffffffff8082111561243b57600080fd5b612447858386016123c0565b6060840152608084013591508082111561246057600080fd5b61246c858386016123c0565b608084015260a084013591508082111561248557600080fd5b612491858386016123c0565b60a084015260c08401359150808211156124aa57600080fd5b506124b7848285016123c0565b60c08301525092915050565b600061018082840312156124d5578081fd5b6124dd612dad565b90506124e8826125af565b81526124f6602083016125af565b6020820152612507604083016125af565b6040820152612518606083016125af565b6060820152612529608083016125af565b608082015261253a60a083016125af565b60a082015261254b60c083016125af565b60c082015261255c60e083016125af565b60e082015261010061256f8184016125af565b908201526101206125818382016125af565b908201526101406125938382016125af565b908201526101606125a58382016125af565b9082015292915050565b803561ffff8116811461237457600080fd5b803560ff8116811461237457600080fd5b6000602082840312156125e3578081fd5b6122478261235d565b600080604083850312156125fe578081fd5b6126078361235d565b91506126156020840161235d565b90509250929050565b60008060008060808587031215612633578182fd5b61263c8561235d565b935061264a6020860161235d565b925060408501359150606085013567ffffffffffffffff81111561266c578182fd5b8501601f8101871361267c578182fd5b61268b878235602084016122e7565b91505092959194509250565b600080604083850312156126a9578182fd5b6126b28361235d565b9150612615602084016125af565b6000806000606084860312156126d4578283fd5b6126dd8461235d565b92506126eb602085016125af565b9150604084013567ffffffffffffffff811115612706578182fd5b612712868287016123c0565b9150509250925092565b60006020828403121561272d578081fd5b81518015158114612247578182fd5b60006020828403121561274d578081fd5b5035919050565b60008060408385031215612766578182fd5b823591506126156020840161235d565b600060208284031215612787578081fd5b81356001600160e01b031981168114612247578182fd5b6000602082840312156127af578081fd5b612247826125af565b600080604083850312156127ca578182fd5b6127d3836125af565b9150602083013567ffffffffffffffff8111156127ee578182fd5b6127fa858286016123df565b9150509250929050565b6000806101a08385031215612817578182fd5b612820836125af565b915061261584602085016124c3565b60008060006101c08486031215612844578081fd5b61284d846125af565b925061285c85602086016124c3565b91506101a084013567ffffffffffffffff811115612878578182fd5b612712868287016123df565b6000806000806000806080878903121561289c578384fd5b6128a5876125af565b955060208701359450604087013567ffffffffffffffff808211156128c8578586fd5b6128d48a838b01612379565b909650945060608901359150808211156128ec578384fd5b506128f989828a01612379565b979a9699509497509295939492505050565b600080600083850360c0811215612920578182fd5b612929856125af565b9350602085013592506080603f1982011215612943578182fd5b506040840190509250925092565b600080600060608486031215612965578081fd5b61296e846125af565b925061297c602085016125c1565b915061298a604085016125c1565b90509250925092565b6000602082840312156129a4578081fd5b612247826125c1565b81835281816020850137506000828201602090810191909152601f909101601f19169091010190565b600081518084526129ee816020860160208601612e08565b601f01601f19169290920160200192915050565b60ff815116825260ff6020820151166020830152604081015160408301526000606082015160e06060850152612a3b60e08501826129d6565b905060808301518482036080860152612a5482826129d6565b91505060a083015184820360a0860152612a6e82826129d6565b91505060c083015184820360c0860152612a8882826129d6565b95945050505050565b805161ffff1682526020810151612aae602084018261ffff169052565b506040810151612ac4604084018261ffff169052565b506060810151612ada606084018261ffff169052565b506080810151612af0608084018261ffff169052565b5060a0810151612b0660a084018261ffff169052565b5060c0810151612b1c60c084018261ffff169052565b5060e0810151612b3260e084018261ffff169052565b506101008181015161ffff9081169184019190915261012080830151821690840152610140808301518216908401526101608083015191821681850152905b50505050565b8183823760009101908152919050565b7f416363657373436f6e74726f6c3a206163636f756e7420000000000000000000815260008351612bbf816017850160208801612e08565b7001034b99036b4b9b9b4b733903937b6329607d1b6017918401918201528351612bf0816028840160208801612e08565b01602801949350505050565b60208152600061224760208301846129d6565b6020808252602b908201527f496e697469616c697a61626c653a20636f6e7472616374206973206e6f74206960408201526a6e697469616c697a696e6760a81b606082015260800190565b6020808252601f908201527f5265656e7472616e637947756172643a207265656e7472616e742063616c6c00604082015260600190565b60006101a0612ca08386612a91565b80610180840152612a8881840185612a02565b61ffff83168152604060208201526000612cd06040830184612a02565b949350505050565b61ffff831681526101a081016122476020830184612a91565b60006101c061ffff86168352612d0a6020840186612a91565b806101a0840152612d1d81840185612a02565b9695505050505050565b61ffff87168152856020820152608060408201526000612d4b6080830186886129ad565b8281036060840152612d5e8185876129ad565b9998505050505050505050565b828152604060208201526000612cd060408301846129d6565b60405160e0810167ffffffffffffffff81118282101715612da757612da7612eb7565b60405290565b604051610180810167ffffffffffffffff81118282101715612da757612da7612eb7565b60008219821115612de457612de4612ea1565b500190565b6000816000190483118215151615612e0357612e03612ea1565b500290565b60005b83811015612e23578181015183820152602001612e0b565b83811115612b715750506000910152565b600081612e4357612e43612ea1565b506000190190565b600181811c90821680612e5f57607f821691505b60208210811415612e8057634e487b7160e01b600052602260045260246000fd5b50919050565b6000600019821415612e9a57612e9a612ea1565b5060010190565b634e487b7160e01b600052601160045260246000fd5b634e487b7160e01b600052604160045260246000fdfeb19546dff01e856fb3f010c267a7b1c60363cf8a4664e21cc89c26224620214ea2646970667358221220ecbd80b846890e1ec36d1e12019affa1157658452ad83c9f1aa345525f93a0f864736f6c63430008040033",
  "linkReferences": {},
  "deployedLinkReferences": {}
}