{
  "_format": "hh-sol-artifact-1",
  "contractName": "SBirdBetting",
  "sourceName": "contracts/SBirdBetting.sol",
  "abi": [
    {
      "anonymous": false,
      "inputs": [
        {
          "indexed": false,
          "internalType": "uint16",
          "name": "matchID",
          "type": "uint16"
        },
        {
          "components": [
            {
              "internalType": "uint16",
              "name": "ouHtOver",
              "type": "uint16"
            },
            {
              "internalType": "uint16",
              "name": "ouHtRatio",
              "type": "uint16"
            },
            {
              "internalType": "uint16",
              "name": "ouHtUnder",
              "type": "uint16"
            },
            {
              "internalType": "uint16",
              "name": "ouFtOver",
              "type": "uint16"
            },
            {
              "internalType": "uint16",
              "name": "ouFtRatio",
              "type": "uint16"
            },
            {
              "internalType": "uint16",
              "name": "ouFtUnder",
              "type": "uint16"
            },
            {
              "internalType": "uint16",
              "name": "oddsHtHome",
              "type": "uint16"
            },
            {
              "internalType": "uint16",
              "name": "oddsHtDraw",
              "type": "uint16"
            },
            {
              "internalType": "uint16",
              "name": "oddsHtAway",
              "type": "uint16"
            },
            {
              "internalType": "uint16",
              "name": "oddsFtHome",
              "type": "uint16"
            },
            {
              "internalType": "uint16",
              "name": "oddsFtDraw",
              "type": "uint16"
            },
            {
              "internalType": "uint16",
              "name": "oddsFtAway",
              "type": "uint16"
            }
          ],
          "indexed": false,
          "internalType": "struct IBirdBetting.MatchStatistics",
          "name": "mSta",
          "type": "tuple"
        },
        {
          "components": [
            {
              "internalType": "uint8",
              "name": "ht_homeScore",
              "type": "uint8"
            },
            {
              "internalType": "uint8",
              "name": "ht_awayScore",
              "type": "uint8"
            },
            {
              "internalType": "uint8",
              "name": "ft_homeScore",
              "type": "uint8"
            },
            {
              "internalType": "uint8",
              "name": "ft_awayScore",
              "type": "uint8"
            },
            {
              "internalType": "uint256",
              "name": "startTime",
              "type": "uint256"
            },
            {
              "internalType": "string",
              "name": "homeName",
              "type": "string"
            },
            {
              "internalType": "string",
              "name": "homeIcon",
              "type": "string"
            },
            {
              "internalType": "string",
              "name": "awayName",
              "type": "string"
            },
            {
              "internalType": "string",
              "name": "awayIcon",
              "type": "string"
            },
            {
              "internalType": "string",
              "name": "location",
              "type": "string"
            },
            {
              "internalType": "string",
              "name": "round",
              "type": "string"
            },
            {
              "internalType": "bool",
              "name": "isHalfTime",
              "type": "bool"
            },
            {
              "internalType": "bool",
              "name": "isFinished",
              "type": "bool"
            }
          ],
          "indexed": false,
          "internalType": "struct IBirdBetting.MatchInfo",
          "name": "mInf",
          "type": "tuple"
        },
        {
          "indexed": false,
          "internalType": "uint256",
          "name": "sofaMatchID",
          "type": "uint256"
        }
      ],
      "name": "CreateMatch",
      "type": "event"
    },
    {
      "anonymous": false,
      "inputs": [
        {
          "indexed": false,
          "internalType": "uint8",
          "name": "version",
          "type": "uint8"
        }
      ],
      "name": "Initialized",
      "type": "event"
    },
    {
      "anonymous": false,
      "inputs": [
        {
          "indexed": true,
          "internalType": "address",
          "name": "previousOwner",
          "type": "address"
        },
        {
          "indexed": true,
          "internalType": "address",
          "name": "newOwner",
          "type": "address"
        }
      ],
      "name": "OwnershipTransferred",
      "type": "event"
    },
    {
      "anonymous": false,
      "inputs": [
        {
          "indexed": true,
          "internalType": "bytes32",
          "name": "role",
          "type": "bytes32"
        },
        {
          "indexed": true,
          "internalType": "bytes32",
          "name": "previousAdminRole",
          "type": "bytes32"
        },
        {
          "indexed": true,
          "internalType": "bytes32",
          "name": "newAdminRole",
          "type": "bytes32"
        }
      ],
      "name": "RoleAdminChanged",
      "type": "event"
    },
    {
      "anonymous": false,
      "inputs": [
        {
          "indexed": true,
          "internalType": "bytes32",
          "name": "role",
          "type": "bytes32"
        },
        {
          "indexed": true,
          "internalType": "address",
          "name": "account",
          "type": "address"
        },
        {
          "indexed": true,
          "internalType": "address",
          "name": "sender",
          "type": "address"
        }
      ],
      "name": "RoleGranted",
      "type": "event"
    },
    {
      "anonymous": false,
      "inputs": [
        {
          "indexed": true,
          "internalType": "bytes32",
          "name": "role",
          "type": "bytes32"
        },
        {
          "indexed": true,
          "internalType": "address",
          "name": "account",
          "type": "address"
        },
        {
          "indexed": true,
          "internalType": "address",
          "name": "sender",
          "type": "address"
        }
      ],
      "name": "RoleRevoked",
      "type": "event"
    },
    {
      "anonymous": false,
      "inputs": [
        {
          "indexed": false,
          "internalType": "uint16",
          "name": "matchID",
          "type": "uint16"
        },
        {
          "components": [
            {
              "internalType": "uint8",
              "name": "ht_homeScore",
              "type": "uint8"
            },
            {
              "internalType": "uint8",
              "name": "ht_awayScore",
              "type": "uint8"
            },
            {
              "internalType": "uint8",
              "name": "ft_homeScore",
              "type": "uint8"
            },
            {
              "internalType": "uint8",
              "name": "ft_awayScore",
              "type": "uint8"
            },
            {
              "internalType": "uint256",
              "name": "startTime",
              "type": "uint256"
            },
            {
              "internalType": "string",
              "name": "homeName",
              "type": "string"
            },
            {
              "internalType": "string",
              "name": "homeIcon",
              "type": "string"
            },
            {
              "internalType": "string",
              "name": "awayName",
              "type": "string"
            },
            {
              "internalType": "string",
              "name": "awayIcon",
              "type": "string"
            },
            {
              "internalType": "string",
              "name": "location",
              "type": "string"
            },
            {
              "internalType": "string",
              "name": "round",
              "type": "string"
            },
            {
              "internalType": "bool",
              "name": "isHalfTime",
              "type": "bool"
            },
            {
              "internalType": "bool",
              "name": "isFinished",
              "type": "bool"
            }
          ],
          "indexed": false,
          "internalType": "struct IBirdBetting.MatchInfo",
          "name": "mInf",
          "type": "tuple"
        }
      ],
      "name": "UpdateMatchInfo",
      "type": "event"
    },
    {
      "anonymous": false,
      "inputs": [
        {
          "indexed": false,
          "internalType": "uint16",
          "name": "matchID",
          "type": "uint16"
        },
        {
          "components": [
            {
              "internalType": "uint16",
              "name": "ouHtOver",
              "type": "uint16"
            },
            {
              "internalType": "uint16",
              "name": "ouHtRatio",
              "type": "uint16"
            },
            {
              "internalType": "uint16",
              "name": "ouHtUnder",
              "type": "uint16"
            },
            {
              "internalType": "uint16",
              "name": "ouFtOver",
              "type": "uint16"
            },
            {
              "internalType": "uint16",
              "name": "ouFtRatio",
              "type": "uint16"
            },
            {
              "internalType": "uint16",
              "name": "ouFtUnder",
              "type": "uint16"
            },
            {
              "internalType": "uint16",
              "name": "oddsHtHome",
              "type": "uint16"
            },
            {
              "internalType": "uint16",
              "name": "oddsHtDraw",
              "type": "uint16"
            },
            {
              "internalType": "uint16",
              "name": "oddsHtAway",
              "type": "uint16"
            },
            {
              "internalType": "uint16",
              "name": "oddsFtHome",
              "type": "uint16"
            },
            {
              "internalType": "uint16",
              "name": "oddsFtDraw",
              "type": "uint16"
            },
            {
              "internalType": "uint16",
              "name": "oddsFtAway",
              "type": "uint16"
            }
          ],
          "indexed": false,
          "internalType": "struct IBirdBetting.MatchStatistics",
          "name": "mSta",
          "type": "tuple"
        }
      ],
      "name": "UpdateMatchStatistics",
      "type": "event"
    },
    {
      "anonymous": false,
      "inputs": [
        {
          "indexed": true,
          "internalType": "address",
          "name": "user",
          "type": "address"
        },
        {
          "indexed": false,
          "internalType": "uint16",
          "name": "matchID",
          "type": "uint16"
        },
        {
          "indexed": false,
          "internalType": "uint256",
          "name": "amount",
          "type": "uint256"
        },
        {
          "indexed": false,
          "internalType": "string",
          "name": "betType",
          "type": "string"
        },
        {
          "indexed": false,
          "internalType": "string",
          "name": "betPlace",
          "type": "string"
        },
        {
          "indexed": false,
          "internalType": "bool",
          "name": "claimed",
          "type": "bool"
        }
      ],
      "name": "UserBetting",
      "type": "event"
    },
    {
      "anonymous": false,
      "inputs": [
        {
          "indexed": false,
          "internalType": "uint16",
          "name": "matchID",
          "type": "uint16"
        },
        {
          "indexed": false,
          "internalType": "string",
          "name": "betType",
          "type": "string"
        },
        {
          "indexed": false,
          "internalType": "uint256",
          "name": "amount",
          "type": "uint256"
        },
        {
          "indexed": true,
          "internalType": "address",
          "name": "user",
          "type": "address"
        },
        {
          "indexed": false,
          "internalType": "uint256",
          "name": "deadline",
          "type": "uint256"
        }
      ],
      "name": "UserClaim",
      "type": "event"
    },
    {
      "anonymous": false,
      "inputs": [
        {
          "indexed": true,
          "internalType": "address",
          "name": "user",
          "type": "address"
        },
        {
          "indexed": false,
          "internalType": "uint16",
          "name": "matchID",
          "type": "uint16"
        },
        {
          "indexed": false,
          "internalType": "uint8",
          "name": "homeScore",
          "type": "uint8"
        },
        {
          "indexed": false,
          "internalType": "uint8",
          "name": "awayScore",
          "type": "uint8"
        },
        {
          "indexed": false,
          "internalType": "uint256",
          "name": "time",
          "type": "uint256"
        }
      ],
      "name": "UserPredicting",
      "type": "event"
    },
    {
      "inputs": [],
      "name": "CLAIM_TOKEN_WITH_SIG_TYPEHASH",
      "outputs": [
        {
          "internalType": "bytes32",
          "name": "",
          "type": "bytes32"
        }
      ],
      "stateMutability": "view",
      "type": "function"
    },
    {
      "inputs": [],
      "name": "DEFAULT_ADMIN_ROLE",
      "outputs": [
        {
          "internalType": "bytes32",
          "name": "",
          "type": "bytes32"
        }
      ],
      "stateMutability": "view",
      "type": "function"
    },
    {
      "inputs": [
        {
          "internalType": "address",
          "name": "",
          "type": "address"
        }
      ],
      "name": "TokenClaimNonces",
      "outputs": [
        {
          "internalType": "uint256",
          "name": "",
          "type": "uint256"
        }
      ],
      "stateMutability": "view",
      "type": "function"
    },
    {
      "inputs": [
        {
          "internalType": "address",
          "name": "",
          "type": "address"
        }
      ],
      "name": "TokenClaimTimeStamp",
      "outputs": [
        {
          "internalType": "uint256",
          "name": "",
          "type": "uint256"
        }
      ],
      "stateMutability": "view",
      "type": "function"
    },
    {
      "inputs": [
        {
          "internalType": "address",
          "name": "_token",
          "type": "address"
        },
        {
          "internalType": "address",
          "name": "_fundWallet",
          "type": "address"
        }
      ],
      "name": "__SBirdBetting_init",
      "outputs": [],
      "stateMutability": "nonpayable",
      "type": "function"
    },
    {
      "inputs": [
        {
          "internalType": "uint16",
          "name": "_matchID",
          "type": "uint16"
        },
        {
          "internalType": "uint256",
          "name": "_amount",
          "type": "uint256"
        },
        {
          "internalType": "string",
          "name": "_betType",
          "type": "string"
        },
        {
          "internalType": "string",
          "name": "_betPlace",
          "type": "string"
        }
      ],
      "name": "betting",
      "outputs": [],
      "stateMutability": "nonpayable",
      "type": "function"
    },
    {
      "inputs": [
        {
          "internalType": "address",
          "name": "",
          "type": "address"
        },
        {
          "internalType": "uint16",
          "name": "",
          "type": "uint16"
        }
      ],
      "name": "claimInMatch",
      "outputs": [
        {
          "internalType": "bool",
          "name": "",
          "type": "bool"
        }
      ],
      "stateMutability": "view",
      "type": "function"
    },
    {
      "inputs": [],
      "name": "fundWallet",
      "outputs": [
        {
          "internalType": "address",
          "name": "",
          "type": "address"
        }
      ],
      "stateMutability": "view",
      "type": "function"
    },
    {
      "inputs": [
        {
          "internalType": "bytes32",
          "name": "role",
          "type": "bytes32"
        }
      ],
      "name": "getRoleAdmin",
      "outputs": [
        {
          "internalType": "bytes32",
          "name": "",
          "type": "bytes32"
        }
      ],
      "stateMutability": "view",
      "type": "function"
    },
    {
      "inputs": [],
      "name": "getSigner",
      "outputs": [
        {
          "internalType": "address",
          "name": "",
          "type": "address"
        }
      ],
      "stateMutability": "view",
      "type": "function"
    },
    {
      "inputs": [
        {
          "internalType": "address",
          "name": "account",
          "type": "address"
        }
      ],
      "name": "grantAdminRole",
      "outputs": [],
      "stateMutability": "nonpayable",
      "type": "function"
    },
    {
      "inputs": [
        {
          "internalType": "bytes32",
          "name": "role",
          "type": "bytes32"
        },
        {
          "internalType": "address",
          "name": "account",
          "type": "address"
        }
      ],
      "name": "grantRole",
      "outputs": [],
      "stateMutability": "nonpayable",
      "type": "function"
    },
    {
      "inputs": [
        {
          "internalType": "bytes32",
          "name": "role",
          "type": "bytes32"
        },
        {
          "internalType": "address",
          "name": "account",
          "type": "address"
        }
      ],
      "name": "hasRole",
      "outputs": [
        {
          "internalType": "bool",
          "name": "",
          "type": "bool"
        }
      ],
      "stateMutability": "view",
      "type": "function"
    },
    {
      "inputs": [
        {
          "internalType": "uint16",
          "name": "",
          "type": "uint16"
        }
      ],
      "name": "matchByID",
      "outputs": [
        {
          "components": [
            {
              "internalType": "uint16",
              "name": "ouHtOver",
              "type": "uint16"
            },
            {
              "internalType": "uint16",
              "name": "ouHtRatio",
              "type": "uint16"
            },
            {
              "internalType": "uint16",
              "name": "ouHtUnder",
              "type": "uint16"
            },
            {
              "internalType": "uint16",
              "name": "ouFtOver",
              "type": "uint16"
            },
            {
              "internalType": "uint16",
              "name": "ouFtRatio",
              "type": "uint16"
            },
            {
              "internalType": "uint16",
              "name": "ouFtUnder",
              "type": "uint16"
            },
            {
              "internalType": "uint16",
              "name": "oddsHtHome",
              "type": "uint16"
            },
            {
              "internalType": "uint16",
              "name": "oddsHtDraw",
              "type": "uint16"
            },
            {
              "internalType": "uint16",
              "name": "oddsHtAway",
              "type": "uint16"
            },
            {
              "internalType": "uint16",
              "name": "oddsFtHome",
              "type": "uint16"
            },
            {
              "internalType": "uint16",
              "name": "oddsFtDraw",
              "type": "uint16"
            },
            {
              "internalType": "uint16",
              "name": "oddsFtAway",
              "type": "uint16"
            }
          ],
          "internalType": "struct IBirdBetting.MatchStatistics",
          "name": "mSta",
          "type": "tuple"
        },
        {
          "components": [
            {
              "internalType": "uint8",
              "name": "ht_homeScore",
              "type": "uint8"
            },
            {
              "internalType": "uint8",
              "name": "ht_awayScore",
              "type": "uint8"
            },
            {
              "internalType": "uint8",
              "name": "ft_homeScore",
              "type": "uint8"
            },
            {
              "internalType": "uint8",
              "name": "ft_awayScore",
              "type": "uint8"
            },
            {
              "internalType": "uint256",
              "name": "startTime",
              "type": "uint256"
            },
            {
              "internalType": "string",
              "name": "homeName",
              "type": "string"
            },
            {
              "internalType": "string",
              "name": "homeIcon",
              "type": "string"
            },
            {
              "internalType": "string",
              "name": "awayName",
              "type": "string"
            },
            {
              "internalType": "string",
              "name": "awayIcon",
              "type": "string"
            },
            {
              "internalType": "string",
              "name": "location",
              "type": "string"
            },
            {
              "internalType": "string",
              "name": "round",
              "type": "string"
            },
            {
              "internalType": "bool",
              "name": "isHalfTime",
              "type": "bool"
            },
            {
              "internalType": "bool",
              "name": "isFinished",
              "type": "bool"
            }
          ],
          "internalType": "struct IBirdBetting.MatchInfo",
          "name": "mInf",
          "type": "tuple"
        }
      ],
      "stateMutability": "view",
      "type": "function"
    },
    {
      "inputs": [],
      "name": "maxBetAmount",
      "outputs": [
        {
          "internalType": "uint256",
          "name": "",
          "type": "uint256"
        }
      ],
      "stateMutability": "view",
      "type": "function"
    },
    {
      "inputs": [
        {
          "internalType": "address",
          "name": "",
          "type": "address"
        },
        {
          "internalType": "address",
          "name": "",
          "type": "address"
        },
        {
          "internalType": "uint256",
          "name": "",
          "type": "uint256"
        },
        {
          "internalType": "bytes",
          "name": "",
          "type": "bytes"
        }
      ],
      "name": "onERC721Received",
      "outputs": [
        {
          "internalType": "bytes4",
          "name": "",
          "type": "bytes4"
        }
      ],
      "stateMutability": "nonpayable",
      "type": "function"
    },
    {
      "inputs": [],
      "name": "owner",
      "outputs": [
        {
          "internalType": "address",
          "name": "",
          "type": "address"
        }
      ],
      "stateMutability": "view",
      "type": "function"
    },
    {
      "inputs": [
        {
          "internalType": "uint16",
          "name": "_matchID",
          "type": "uint16"
        },
        {
          "internalType": "uint8",
          "name": "_homeScore",
          "type": "uint8"
        },
        {
          "internalType": "uint8",
          "name": "_awayScore",
          "type": "uint8"
        }
      ],
      "name": "predict",
      "outputs": [],
      "stateMutability": "nonpayable",
      "type": "function"
    },
    {
      "inputs": [],
      "name": "renounceOwnership",
      "outputs": [],
      "stateMutability": "nonpayable",
      "type": "function"
    },
    {
      "inputs": [
        {
          "internalType": "bytes32",
          "name": "role",
          "type": "bytes32"
        },
        {
          "internalType": "address",
          "name": "account",
          "type": "address"
        }
      ],
      "name": "renounceRole",
      "outputs": [],
      "stateMutability": "nonpayable",
      "type": "function"
    },
    {
      "inputs": [
        {
          "internalType": "address",
          "name": "account",
          "type": "address"
        }
      ],
      "name": "revokeAdminRole",
      "outputs": [],
      "stateMutability": "nonpayable",
      "type": "function"
    },
    {
      "inputs": [
        {
          "internalType": "bytes32",
          "name": "role",
          "type": "bytes32"
        },
        {
          "internalType": "address",
          "name": "account",
          "type": "address"
        }
      ],
      "name": "revokeRole",
      "outputs": [],
      "stateMutability": "nonpayable",
      "type": "function"
    },
    {
      "inputs": [
        {
          "internalType": "address",
          "name": "_fund",
          "type": "address"
        }
      ],
      "name": "setFundAddress",
      "outputs": [],
      "stateMutability": "nonpayable",
      "type": "function"
    },
    {
      "inputs": [
        {
          "internalType": "uint16",
          "name": "_matchID",
          "type": "uint16"
        },
        {
          "components": [
            {
              "internalType": "uint16",
              "name": "ouHtOver",
              "type": "uint16"
            },
            {
              "internalType": "uint16",
              "name": "ouHtRatio",
              "type": "uint16"
            },
            {
              "internalType": "uint16",
              "name": "ouHtUnder",
              "type": "uint16"
            },
            {
              "internalType": "uint16",
              "name": "ouFtOver",
              "type": "uint16"
            },
            {
              "internalType": "uint16",
              "name": "ouFtRatio",
              "type": "uint16"
            },
            {
              "internalType": "uint16",
              "name": "ouFtUnder",
              "type": "uint16"
            },
            {
              "internalType": "uint16",
              "name": "oddsHtHome",
              "type": "uint16"
            },
            {
              "internalType": "uint16",
              "name": "oddsHtDraw",
              "type": "uint16"
            },
            {
              "internalType": "uint16",
              "name": "oddsHtAway",
              "type": "uint16"
            },
            {
              "internalType": "uint16",
              "name": "oddsFtHome",
              "type": "uint16"
            },
            {
              "internalType": "uint16",
              "name": "oddsFtDraw",
              "type": "uint16"
            },
            {
              "internalType": "uint16",
              "name": "oddsFtAway",
              "type": "uint16"
            }
          ],
          "internalType": "struct IBirdBetting.MatchStatistics",
          "name": "_mSta",
          "type": "tuple"
        },
        {
          "components": [
            {
              "internalType": "uint8",
              "name": "ht_homeScore",
              "type": "uint8"
            },
            {
              "internalType": "uint8",
              "name": "ht_awayScore",
              "type": "uint8"
            },
            {
              "internalType": "uint8",
              "name": "ft_homeScore",
              "type": "uint8"
            },
            {
              "internalType": "uint8",
              "name": "ft_awayScore",
              "type": "uint8"
            },
            {
              "internalType": "uint256",
              "name": "startTime",
              "type": "uint256"
            },
            {
              "internalType": "string",
              "name": "homeName",
              "type": "string"
            },
            {
              "internalType": "string",
              "name": "homeIcon",
              "type": "string"
            },
            {
              "internalType": "string",
              "name": "awayName",
              "type": "string"
            },
            {
              "internalType": "string",
              "name": "awayIcon",
              "type": "string"
            },
            {
              "internalType": "string",
              "name": "location",
              "type": "string"
            },
            {
              "internalType": "string",
              "name": "round",
              "type": "string"
            },
            {
              "internalType": "bool",
              "name": "isHalfTime",
              "type": "bool"
            },
            {
              "internalType": "bool",
              "name": "isFinished",
              "type": "bool"
            }
          ],
          "internalType": "struct IBirdBetting.MatchInfo",
          "name": "_mInf",
          "type": "tuple"
        },
        {
          "internalType": "uint256",
          "name": "_sofaMatchID",
          "type": "uint256"
        }
      ],
      "name": "setMatchInfo",
      "outputs": [],
      "stateMutability": "nonpayable",
      "type": "function"
    },
    {
      "inputs": [
        {
          "internalType": "uint256",
          "name": "_amount",
          "type": "uint256"
        }
      ],
      "name": "setMaxBetAmount",
      "outputs": [],
      "stateMutability": "nonpayable",
      "type": "function"
    },
    {
      "inputs": [
        {
          "internalType": "address",
          "name": "_signer",
          "type": "address"
        }
      ],
      "name": "setSigner",
      "outputs": [],
      "stateMutability": "nonpayable",
      "type": "function"
    },
    {
      "inputs": [
        {
          "internalType": "uint256",
          "name": "spacer",
          "type": "uint256"
        }
      ],
      "name": "setSpacer",
      "outputs": [],
      "stateMutability": "nonpayable",
      "type": "function"
    },
    {
      "inputs": [
        {
          "internalType": "address",
          "name": "_tokenAddress",
          "type": "address"
        }
      ],
      "name": "setTokenAddress",
      "outputs": [],
      "stateMutability": "nonpayable",
      "type": "function"
    },
    {
      "inputs": [
        {
          "internalType": "bytes4",
          "name": "interfaceId",
          "type": "bytes4"
        }
      ],
      "name": "supportsInterface",
      "outputs": [
        {
          "internalType": "bool",
          "name": "",
          "type": "bool"
        }
      ],
      "stateMutability": "view",
      "type": "function"
    },
    {
      "inputs": [
        {
          "internalType": "uint16",
          "name": "_matchID",
          "type": "uint16"
        },
        {
          "internalType": "string",
          "name": "_betType",
          "type": "string"
        },
        {
          "internalType": "uint256",
          "name": "_amount",
          "type": "uint256"
        },
        {
          "components": [
            {
              "internalType": "uint256",
              "name": "deadline",
              "type": "uint256"
            },
            {
              "internalType": "uint8",
              "name": "v",
              "type": "uint8"
            },
            {
              "internalType": "bytes32",
              "name": "r",
              "type": "bytes32"
            },
            {
              "internalType": "bytes32",
              "name": "s",
              "type": "bytes32"
            }
          ],
          "internalType": "struct IBirdBetting.EIP712Signature",
          "name": "_signature",
          "type": "tuple"
        }
      ],
      "name": "tokenClaim",
      "outputs": [],
      "stateMutability": "nonpayable",
      "type": "function"
    },
    {
      "inputs": [
        {
          "internalType": "address",
          "name": "newOwner",
          "type": "address"
        }
      ],
      "name": "transferOwnership",
      "outputs": [],
      "stateMutability": "nonpayable",
      "type": "function"
    },
    {
      "inputs": [
        {
          "internalType": "uint16",
          "name": "_matchID",
          "type": "uint16"
        },
        {
          "components": [
            {
              "internalType": "uint8",
              "name": "ht_homeScore",
              "type": "uint8"
            },
            {
              "internalType": "uint8",
              "name": "ht_awayScore",
              "type": "uint8"
            },
            {
              "internalType": "uint8",
              "name": "ft_homeScore",
              "type": "uint8"
            },
            {
              "internalType": "uint8",
              "name": "ft_awayScore",
              "type": "uint8"
            },
            {
              "internalType": "uint256",
              "name": "startTime",
              "type": "uint256"
            },
            {
              "internalType": "string",
              "name": "homeName",
              "type": "string"
            },
            {
              "internalType": "string",
              "name": "homeIcon",
              "type": "string"
            },
            {
              "internalType": "string",
              "name": "awayName",
              "type": "string"
            },
            {
              "internalType": "string",
              "name": "awayIcon",
              "type": "string"
            },
            {
              "internalType": "string",
              "name": "location",
              "type": "string"
            },
            {
              "internalType": "string",
              "name": "round",
              "type": "string"
            },
            {
              "internalType": "bool",
              "name": "isHalfTime",
              "type": "bool"
            },
            {
              "internalType": "bool",
              "name": "isFinished",
              "type": "bool"
            }
          ],
          "internalType": "struct IBirdBetting.MatchInfo",
          "name": "_mInf",
          "type": "tuple"
        }
      ],
      "name": "updateMatchInfo",
      "outputs": [],
      "stateMutability": "nonpayable",
      "type": "function"
    },
    {
      "inputs": [
        {
          "internalType": "uint16",
          "name": "_matchID",
          "type": "uint16"
        },
        {
          "components": [
            {
              "internalType": "uint16",
              "name": "ouHtOver",
              "type": "uint16"
            },
            {
              "internalType": "uint16",
              "name": "ouHtRatio",
              "type": "uint16"
            },
            {
              "internalType": "uint16",
              "name": "ouHtUnder",
              "type": "uint16"
            },
            {
              "internalType": "uint16",
              "name": "ouFtOver",
              "type": "uint16"
            },
            {
              "internalType": "uint16",
              "name": "ouFtRatio",
              "type": "uint16"
            },
            {
              "internalType": "uint16",
              "name": "ouFtUnder",
              "type": "uint16"
            },
            {
              "internalType": "uint16",
              "name": "oddsHtHome",
              "type": "uint16"
            },
            {
              "internalType": "uint16",
              "name": "oddsHtDraw",
              "type": "uint16"
            },
            {
              "internalType": "uint16",
              "name": "oddsHtAway",
              "type": "uint16"
            },
            {
              "internalType": "uint16",
              "name": "oddsFtHome",
              "type": "uint16"
            },
            {
              "internalType": "uint16",
              "name": "oddsFtDraw",
              "type": "uint16"
            },
            {
              "internalType": "uint16",
              "name": "oddsFtAway",
              "type": "uint16"
            }
          ],
          "internalType": "struct IBirdBetting.MatchStatistics",
          "name": "mSta",
          "type": "tuple"
        }
      ],
      "name": "updateMatchStatistics",
      "outputs": [],
      "stateMutability": "nonpayable",
      "type": "function"
    },
    {
      "inputs": [
        {
          "internalType": "address",
          "name": "",
          "type": "address"
        },
        {
          "internalType": "uint16",
          "name": "",
          "type": "uint16"
        },
        {
          "internalType": "string",
          "name": "",
          "type": "string"
        }
      ],
      "name": "userBettingInMatch",
      "outputs": [
        {
          "internalType": "uint256",
          "name": "amount",
          "type": "uint256"
        },
        {
          "internalType": "string",
          "name": "place",
          "type": "string"
        },
        {
          "internalType": "bool",
          "name": "isClaimed",
          "type": "bool"
        }
      ],
      "stateMutability": "view",
      "type": "function"
    },
    {
      "inputs": [
        {
          "internalType": "address",
          "name": "",
          "type": "address"
        },
        {
          "internalType": "uint16",
          "name": "",
          "type": "uint16"
        }
      ],
      "name": "userPredictByMatch",
      "outputs": [
        {
          "internalType": "uint8",
          "name": "homeScore",
          "type": "uint8"
        },
        {
          "internalType": "uint8",
          "name": "awayScore",
          "type": "uint8"
        },
        {
          "internalType": "uint256",
          "name": "time",
          "type": "uint256"
        }
      ],
      "stateMutability": "view",
      "type": "function"
    }
  ],
  "bytecode": "0x608060405234801561001057600080fd5b50613641806100206000396000f3fe608060405234801561001057600080fd5b50600436106102105760003560e01c80637cfbc7a511610125578063a42bcc0c116100ad578063d547741f1161007c578063d547741f1461053d578063e327f48a14610550578063f153816014610563578063f2fde38b14610584578063f62611621461059757600080fd5b8063a42bcc0c146104ad578063c634b78e146104c0578063c99392df146104d3578063cab11d5d1461053357600080fd5b806391d14854116100f457806391d148541461042e5780639881dce0146104415780639a19c7b014610470578063a1dda53514610483578063a217fddf146104a557600080fd5b80637cfbc7a5146103d657806385dc3004146103e95780638da5cb5b146103fc578063902fc1281461040d57600080fd5b806336568abe116101a85780636a34f43b116101775780636a34f43b1461038d5780636c19e783146103a0578063715018a6146103b35780637a080ab4146103bb5780637ac3c02f146103ce57600080fd5b806336568abe1461031a578063449a5f0f1461032d57806350bd5f6c14610340578063664a1ad61461036157600080fd5b806321a083d3116101e457806321a083d3146102be578063248a9ca3146102d157806326a4e8d2146102f45780632f2ff15d1461030757600080fd5b8062c712291461021557806301ffc9a71461024f578063150b7a02146102725780631de7c94a146102a9575b600080fd5b61023c7f85bb58e21b417d6d2cfae9510e0b2c5d654e789d05f42e52ef29c3183bfae8b081565b6040519081526020015b60405180910390f35b61026261025d366004612d90565b6105aa565b6040519015158152602001610246565b610290610280366004612c3c565b630a85bd0160e11b949350505050565b6040516001600160e01b03199091168152602001610246565b6102bc6102b7366004612e8d565b6105cd565b005b6102bc6102cc366004612eb8565b6107e7565b61023c6102df366004612d56565b60009081526097602052604090206001015490565b6102bc610302366004612bf0565b610b93565b6102bc610315366004612d6e565b610bcf565b6102bc610328366004612d6e565b610bf9565b6102bc61033b366004612e41565b610c7c565b61023c61034e366004612bf0565b6101376020526000908152604090205481565b61013154610375906001600160a01b031681565b6040516001600160a01b039091168152602001610246565b6102bc61039b366004612f8f565b610e18565b6102bc6103ae366004612bf0565b610f78565b6102bc610fb4565b6102bc6103c9366004612c0a565b610fc8565b610375611185565b6102bc6103e4366004612d56565b6111b3565b6102bc6103f7366004612bf0565b6111d2565b6033546001600160a01b0316610375565b61023c61041b366004612bf0565b6101366020526000908152604090205481565b61026261043c366004612d6e565b61120e565b61026261044f366004612cb5565b61013360209081526000928352604080842090915290825290205460ff1681565b6102bc61047e366004612bf0565b611239565b610496610491366004612cde565b61125c565b60405161024693929190613468565b61023c600081565b6102bc6104bb366004612dd2565b611331565b6102bc6104ce366004612bf0565b6118ed565b6105136104e1366004612cb5565b6101356020908152600092835260408084209091529082529020805460019091015460ff808316926101009004169083565b6040805160ff948516815293909216602084015290820152606001610246565b61023c6101305481565b6102bc61054b366004612d6e565b611910565b6102bc61055e366004612f20565b611935565b610576610571366004612db8565b611cab565b604051610246929190613346565b6102bc610592366004612bf0565b61216f565b6102bc6105a5366004612d56565b6121e8565b60006001600160e01b0319821615806105c757506105c782612207565b92915050565b60006105d88161223c565b600061013460008561ffff1661ffff1681526020019081526020016000209050828160000160008201518160000160006101000a81548161ffff021916908361ffff16021790555060208201518160000160026101000a81548161ffff021916908361ffff16021790555060408201518160000160046101000a81548161ffff021916908361ffff16021790555060608201518160000160066101000a81548161ffff021916908361ffff16021790555060808201518160000160086101000a81548161ffff021916908361ffff16021790555060a082015181600001600a6101000a81548161ffff021916908361ffff16021790555060c082015181600001600c6101000a81548161ffff021916908361ffff16021790555060e082015181600001600e6101000a81548161ffff021916908361ffff1602179055506101008201518160000160106101000a81548161ffff021916908361ffff1602179055506101208201518160000160126101000a81548161ffff021916908361ffff1602179055506101408201518160000160146101000a81548161ffff021916908361ffff1602179055506101608201518160000160166101000a81548161ffff021916908361ffff1602179055509050507f5aeb2e82d74f416d35e9882694a793a1d1ad05992cfe6e904ee13659619bc2f584846040516107d99291906133c6565b60405180910390a150505050565b60006107f28161223c565b60405180604001604052808581526020018481525061013460008761ffff1661ffff16815260200190815260200160002060008201518160000160008201518160000160006101000a81548161ffff021916908361ffff16021790555060208201518160000160026101000a81548161ffff021916908361ffff16021790555060408201518160000160046101000a81548161ffff021916908361ffff16021790555060608201518160000160066101000a81548161ffff021916908361ffff16021790555060808201518160000160086101000a81548161ffff021916908361ffff16021790555060a082015181600001600a6101000a81548161ffff021916908361ffff16021790555060c082015181600001600c6101000a81548161ffff021916908361ffff16021790555060e082015181600001600e6101000a81548161ffff021916908361ffff1602179055506101008201518160000160106101000a81548161ffff021916908361ffff1602179055506101208201518160000160126101000a81548161ffff021916908361ffff1602179055506101408201518160000160146101000a81548161ffff021916908361ffff1602179055506101608201518160000160166101000a81548161ffff021916908361ffff160217905550505060208201518160010160008201518160000160006101000a81548160ff021916908360ff16021790555060208201518160000160016101000a81548160ff021916908360ff16021790555060408201518160000160026101000a81548160ff021916908360ff16021790555060608201518160000160036101000a81548160ff021916908360ff1602179055506080820151816001015560a0820151816002019080519060200190610a89929190612828565b5060c08201518051610aa5916003840191602090910190612828565b5060e08201518051610ac1916004840191602090910190612828565b506101008201518051610ade916005840191602090910190612828565b506101208201518051610afb916006840191602090910190612828565b506101408201518051610b18916007840191602090910190612828565b50610160820151600890910180546101809093015115156101000261ff00199215159290921661ffff199093169290921717905550506040517fc8066592988cea1d047a1a59d3ea7bd081e03ef64966c008f86a0b8d1222202590610b849087908790879087906133df565b60405180910390a15050505050565b6000805160206135ec833981519152610bab8161223c565b5061012d80546001600160a01b0319166001600160a01b0392909216919091179055565b600082815260976020526040902060010154610bea8161223c565b610bf48383612246565b505050565b6001600160a01b0381163314610c6e5760405162461bcd60e51b815260206004820152602f60248201527f416363657373436f6e74726f6c3a2063616e206f6e6c792072656e6f756e636560448201526e103937b632b9903337b91039b2b63360891b60648201526084015b60405180910390fd5b610c7882826122cc565b5050565b6000610c878161223c565b61ffff83166000908152610134602090815260409182902084516001820180548785015195880151606089015160ff90811663010000000263ff0000001992821662010000029290921663ffff0000199882166101000261ffff1990941691909516179190911795909516919091179390931783556080850151600282015560a08501518051919386939092610d239260038701920190612828565b5060c08201518051610d3f916003840191602090910190612828565b5060e08201518051610d5b916004840191602090910190612828565b506101008201518051610d78916005840191602090910190612828565b506101208201518051610d95916006840191602090910190612828565b506101408201518051610db2916007840191602090910190612828565b50610160820151600890910180546101809093015115156101000261ff00199215159290921661ffff19909316929092171790556040517f96b835f7f494e227cb90792a2033658d6458ed10c3ea93056480a85b58d79bb0906107d990869086906133a1565b600260c9541415610e3b5760405162461bcd60e51b8152600401610c659061330f565b600260c981905561ffff8416600090815261013460205260409020908101544210610ea85760405162461bcd60e51b815260206004820152601e60248201527f43616e2070726564696374206265666f7265206d6174636820737461727400006044820152606401610c65565b6040805160608101825260ff8086168252848116602080840191825242848601818152336000818152610135855288812061ffff8e1682529094529287902095518654945186166101000261ffff19909516951694909417929092178455915160019093019290925591517f9503495a6b7978c11c59bf26f2bbab15a8e2226808b034d02d4db327e44966a991610f65918891889188919061ffff94909416845260ff928316602085015291166040830152606082015260800190565b60405180910390a25050600160c9555050565b6000805160206135ec833981519152610f908161223c565b5061012e80546001600160a01b0319166001600160a01b0392909216919091179055565b610fbc612333565b610fc6600061238d565b565b600054610100900460ff1615808015610fe85750600054600160ff909116105b806110025750303b158015611002575060005460ff166001145b6110655760405162461bcd60e51b815260206004820152602e60248201527f496e697469616c697a61626c653a20636f6e747261637420697320616c72656160448201526d191e481a5b9a5d1a585b1a5e995960921b6064820152608401610c65565b6000805460ff191660011790558015611088576000805461ff0019166101001790555b6001600160a01b0383166110de5760405162461bcd60e51b815260206004820152601c60248201527f4249524420746f6b656e2061646472657373206e6f7420666f756e64000000006044820152606401610c65565b6110e66123df565b6110f160003361240e565b6111096000805160206135ec8339815191523361240e565b61012d80546001600160a01b038086166001600160a01b0319928316179092556101318054928516929091169190911790558015610bf4576000805461ff0019169055604051600181527f7f26b83ff96e1f2b6a682f133852f6798a09c465da95921460cefb38474024989060200160405180910390a1505050565b60006000805160206135ec83398151915261119f8161223c565b61012e546001600160a01b031691505b5090565b6000805160206135ec8339815191526111cb8161223c565b5061013055565b6000805160206135ec8339815191526111ea8161223c565b5061013180546001600160a01b0319166001600160a01b0392909216919091179055565b60009182526097602090815260408084206001600160a01b0393909316845291905290205460ff1690565b6000805160206135ec8339815191526112518161223c565b610c78600083611910565b610132602090815260009384526040808520825292845291909220825180840183018051928152908301939092019290922091905280546001820180549192916112a59061355b565b80601f01602080910402602001604051908101604052809291908181526020018280546112d19061355b565b801561131e5780601f106112f35761010080835404028352916020019161131e565b820191906000526020600020905b81548152906001019060200180831161130157829003601f168201915b5050506002909301549192505060ff1683565b600260c95414156113545760405162461bcd60e51b8152600401610c659061330f565b600260c9558161139c5760405162461bcd60e51b8152602060048201526013602482015272105b5bdd5b9d081a5cc81a5b98dbdc9c9958dd606a1b6044820152606401610c65565b3360009081526101326020908152604080832061ffff881684529091529081902090516113ca908590613220565b9081526040519081900360200190206002015460ff161561141c5760405162461bcd60e51b815260206004820152600c60248201526b109254910818db185a5b595960a21b6044820152606401610c65565b8035158061142b575042813510155b61146b5760405162461bcd60e51b815260206004820152601160248201527014da59db985d1d5c9948195e1c1a5c9959607a1b6044820152606401610c65565b61012f543360009081526101366020526040902054429161148b916134e1565b11156114d95760405162461bcd60e51b815260206004820152601860248201527f436c61696d2077697468696e207370616365722074696d6500000000000000006044820152606401610c65565b60006115ab604080518082018252600c81526b466972656269726447616d6560a01b6020918201528151808301835260018152603160f81b9082015281517f91ab3d17e3a50a9d89e63fd30b92be7f5336b03b287bb946787a83a9d62a2766818301527fea55f854b003845a72bd53f92850259d60335315fde9cce440ee9b3bd2c9369d818401527fc89efdaa54c0f20c7adf612882df0950f5a951637e0307cdcb4c672f298b8bc66060820152306080808301919091528351808303909101815260a0909101909252815191012090565b90506000817f85bb58e21b417d6d2cfae9510e0b2c5d654e789d05f42e52ef29c3183bfae8b06115dc336014612418565b6040516020016115ec9190613220565b6040516020818303038152906040528051906020012088886040516020016116149190613220565b60408051601f198184030181529181528151602092830120336000908152610137909352908220805491928b92919061164c83613596565b9091555060408051602081019790975286019490945261ffff9092166060850152608084015260a083015260c0820152843560e082015261010001604051602081830303815290604052805190602001206040516020016116c492919061190160f01b81526002810192909252602282015260420190565b60405160208183030381529060405280519060200120905060006001828560200160208101906116f49190612fd1565b6040805160008152602081018083529390935260ff90911682820152860135606080830191909152860135608082015260a0016020604051602081039080840390855afa158015611749573d6000803e3d6000fd5b5050604051601f19015161012e549092506001600160a01b0380841691161490506117aa5760405162461bcd60e51b815260206004820152601160248201527014da59db985d1d5c99481a5b9d985b1a59607a1b6044820152606401610c65565b61012d54610131546040516323b872dd60e01b81526001600160a01b039182166004820152336024820152604481018890529116906323b872dd90606401602060405180830381600087803b15801561180257600080fd5b505af1158015611816573d6000803e3d6000fd5b505050506040513d601f19601f8201168201806040525081019061183a9190612d3a565b503360009081526101326020908152604080832061ffff8b1684529091529081902090516001919061186d908990613220565b9081526040805160209281900383018120600201805460ff1916941515949094179093553360008181526101369093529120429055907f562c6729051acd34cd66053b5bdc394a3bf5d6eeed0ea8b0f4aeab6050031c26906118d7908a908a908a908a3590613371565b60405180910390a25050600160c9555050505050565b6000805160206135ec8339815191526119058161223c565b610c78600083610bcf565b60008281526097602052604090206001015461192b8161223c565b610bf483836122cc565b600260c95414156119585760405162461bcd60e51b8152600401610c659061330f565b600260c95561012d546001600160a01b03166119ae5760405162461bcd60e51b815260206004820152601560248201527414995dd85c991cc81d1bdad95b881b9bdd081cd95d605a1b6044820152606401610c65565b610130546119f35760405162461bcd60e51b815260206004820152601260248201527113585e08185b5bdd5b9d081b9bdd081cd95d60721b6044820152606401610c65565b3360009081526101326020908152604080832061ffff88168452909152908190209051611a21908490613220565b9081526040519081900360200190205415611a7e5760405162461bcd60e51b815260206004820152601c60248201527f596f752077657265207072656469637420696e207468697320626574000000006044820152606401610c65565b61013054831115611ac95760405162461bcd60e51b8152602060048201526015602482015274115e18d9595908185b5bdd5b9d081a5b881c1bdbdb605a1b6044820152606401610c65565b61ffff841660009081526101346020526040902060028101544210611b305760405162461bcd60e51b815260206004820152601e60248201527f43616e2070726564696374206265666f7265206d6174636820737461727400006044820152606401610c65565b6040805160608101825285815260208082018590526000828401819052338152610132825283812061ffff8a1682529091528290209151909190611b75908690613220565b9081526020016040518091039020600082015181600001556020820151816001019080519060200190611ba9929190612828565b50604091820151600291909101805460ff191691151591909117905561012d546101315491516323b872dd60e01b81523360048201526001600160a01b039283166024820152604481018790529116906323b872dd90606401602060405180830381600087803b158015611c1c57600080fd5b505af1158015611c30573d6000803e3d6000fd5b505050506040513d601f19601f82011682018060405250810190611c549190612d3a565b50336001600160a01b03167f9c654b8a4a967ed24b656bf5b2d1dfc1c6e1de5c051a3b85105b11671693df14868686866000604051611c9795949392919061341e565b60405180910390a25050600160c955505050565b61013460209081526000918252604091829020825161018081018452815461ffff80821683526201000080830482168487015264010000000083048216848801526601000000000000830482166060808601919091526801000000000000000084048316608080870191909152600160501b8504841660a080880191909152600160601b8604851660c0880152600160701b8604851660e0880152600160801b8604851661010080890191909152600160901b87048616610120890152600160a01b87048616610140890152600160b01b90960490941661016087015288516101a081018a5260018801805460ff808216845297810488169a83019a909a5293890486169981019990995263010000009097049093169287019290925260028401549486019490945260038301805492959394919291840191611ded9061355b565b80601f0160208091040260200160405190810160405280929190818152602001828054611e199061355b565b8015611e665780601f10611e3b57610100808354040283529160200191611e66565b820191906000526020600020905b815481529060010190602001808311611e4957829003601f168201915b50505050508152602001600382018054611e7f9061355b565b80601f0160208091040260200160405190810160405280929190818152602001828054611eab9061355b565b8015611ef85780601f10611ecd57610100808354040283529160200191611ef8565b820191906000526020600020905b815481529060010190602001808311611edb57829003601f168201915b50505050508152602001600482018054611f119061355b565b80601f0160208091040260200160405190810160405280929190818152602001828054611f3d9061355b565b8015611f8a5780601f10611f5f57610100808354040283529160200191611f8a565b820191906000526020600020905b815481529060010190602001808311611f6d57829003601f168201915b50505050508152602001600582018054611fa39061355b565b80601f0160208091040260200160405190810160405280929190818152602001828054611fcf9061355b565b801561201c5780601f10611ff15761010080835404028352916020019161201c565b820191906000526020600020905b815481529060010190602001808311611fff57829003601f168201915b505050505081526020016006820180546120359061355b565b80601f01602080910402602001604051908101604052809291908181526020018280546120619061355b565b80156120ae5780601f10612083576101008083540402835291602001916120ae565b820191906000526020600020905b81548152906001019060200180831161209157829003601f168201915b505050505081526020016007820180546120c79061355b565b80601f01602080910402602001604051908101604052809291908181526020018280546120f39061355b565b80156121405780601f1061211557610100808354040283529160200191612140565b820191906000526020600020905b81548152906001019060200180831161212357829003601f168201915b50505091835250506008919091015460ff80821615156020840152610100909104161515604090910152905082565b612177612333565b6001600160a01b0381166121dc5760405162461bcd60e51b815260206004820152602660248201527f4f776e61626c653a206e6577206f776e657220697320746865207a65726f206160448201526564647265737360d01b6064820152608401610c65565b6121e58161238d565b50565b6000805160206135ec8339815191526122008161223c565b5061012f55565b60006001600160e01b03198216637965db0b60e01b14806105c757506301ffc9a760e01b6001600160e01b03198316146105c7565b6121e58133612601565b612250828261120e565b610c785760008281526097602090815260408083206001600160a01b03851684529091529020805460ff191660011790556122883390565b6001600160a01b0316816001600160a01b0316837f2f8788117e7eff1d82e926ec794901d17c78024a50270940304540a733656f0d60405160405180910390a45050565b6122d6828261120e565b15610c785760008281526097602090815260408083206001600160a01b0385168085529252808320805460ff1916905551339285917ff6391f5c32d9c69d2a47ea670b442974b53935d1edc7fd64eb21e047a839171b9190a45050565b6033546001600160a01b03163314610fc65760405162461bcd60e51b815260206004820181905260248201527f4f776e61626c653a2063616c6c6572206973206e6f7420746865206f776e65726044820152606401610c65565b603380546001600160a01b038381166001600160a01b0319831681179093556040519116919082907f8be0079c531659141344cd1fd0a4f28419497f9722a3daafe3b4186f6b6457e090600090a35050565b600054610100900460ff166124065760405162461bcd60e51b8152600401610c65906132c4565b610fc6612665565b610c788282612246565b606060006124278360026134f9565b6124329060026134e1565b67ffffffffffffffff81111561245857634e487b7160e01b600052604160045260246000fd5b6040519080825280601f01601f191660200182016040528015612482576020820181803683370190505b509050600360fc1b816000815181106124ab57634e487b7160e01b600052603260045260246000fd5b60200101906001600160f81b031916908160001a905350600f60fb1b816001815181106124e857634e487b7160e01b600052603260045260246000fd5b60200101906001600160f81b031916908160001a905350600061250c8460026134f9565b6125179060016134e1565b90505b60018111156125ab576f181899199a1a9b1b9c1cb0b131b232b360811b85600f166010811061255957634e487b7160e01b600052603260045260246000fd5b1a60f81b82828151811061257d57634e487b7160e01b600052603260045260246000fd5b60200101906001600160f81b031916908160001a90535060049490941c936125a481613544565b905061251a565b5083156125fa5760405162461bcd60e51b815260206004820181905260248201527f537472696e67733a20686578206c656e67746820696e73756666696369656e746044820152606401610c65565b9392505050565b61260b828261120e565b610c7857612623816001600160a01b03166014612695565b61262e836020612695565b60405160200161263f92919061323c565b60408051601f198184030181529082905262461bcd60e51b8252610c65916004016132b1565b600054610100900460ff1661268c5760405162461bcd60e51b8152600401610c65906132c4565b610fc63361238d565b606060006126a48360026134f9565b6126af9060026134e1565b67ffffffffffffffff8111156126d557634e487b7160e01b600052604160045260246000fd5b6040519080825280601f01601f1916602001820160405280156126ff576020820181803683370190505b509050600360fc1b8160008151811061272857634e487b7160e01b600052603260045260246000fd5b60200101906001600160f81b031916908160001a905350600f60fb1b8160018151811061276557634e487b7160e01b600052603260045260246000fd5b60200101906001600160f81b031916908160001a90535060006127898460026134f9565b6127949060016134e1565b90505b60018111156125ab576f181899199a1a9b1b9c1cb0b131b232b360811b85600f16601081106127d657634e487b7160e01b600052603260045260246000fd5b1a60f81b8282815181106127fa57634e487b7160e01b600052603260045260246000fd5b60200101906001600160f81b031916908160001a90535060049490941c9361282181613544565b9050612797565b8280546128349061355b565b90600052602060002090601f016020900481019282612856576000855561289c565b82601f1061286f57805160ff191683800117855561289c565b8280016001018555821561289c579182015b8281111561289c578251825591602001919060010190612881565b506111af9291505b808211156111af57600081556001016128a4565b600067ffffffffffffffff808411156128d3576128d36135c7565b604051601f8501601f19908116603f011681019082821181831017156128fb576128fb6135c7565b8160405280935085815286868601111561291457600080fd5b858560208301376000602087830101525050509392505050565b80356001600160a01b038116811461294557600080fd5b919050565b8035612945816135dd565b600082601f830112612965578081fd5b6125fa838335602085016128b8565b60006101a08284031215612986578081fd5b61298e613493565b905061299982612bdf565b81526129a760208301612bdf565b60208201526129b860408301612bdf565b60408201526129c960608301612bdf565b60608201526080820135608082015260a082013567ffffffffffffffff808211156129f357600080fd5b6129ff85838601612955565b60a084015260c0840135915080821115612a1857600080fd5b612a2485838601612955565b60c084015260e0840135915080821115612a3d57600080fd5b612a4985838601612955565b60e084015261010091508184013581811115612a6457600080fd5b612a7086828701612955565b838501525061012091508184013581811115612a8b57600080fd5b612a9786828701612955565b838501525061014091508184013581811115612ab257600080fd5b612abe86828701612955565b83850152505050610160612ad381840161294a565b90820152610180612ae583820161294a565b9082015292915050565b60006101808284031215612b01578081fd5b612b096134bd565b9050612b1482612bcd565b8152612b2260208301612bcd565b6020820152612b3360408301612bcd565b6040820152612b4460608301612bcd565b6060820152612b5560808301612bcd565b6080820152612b6660a08301612bcd565b60a0820152612b7760c08301612bcd565b60c0820152612b8860e08301612bcd565b60e0820152610100612b9b818401612bcd565b90820152610120612bad838201612bcd565b90820152610140612bbf838201612bcd565b90820152610160612ae58382015b803561ffff8116811461294557600080fd5b803560ff8116811461294557600080fd5b600060208284031215612c01578081fd5b6125fa8261292e565b60008060408385031215612c1c578081fd5b612c258361292e565b9150612c336020840161292e565b90509250929050565b60008060008060808587031215612c51578182fd5b612c5a8561292e565b9350612c686020860161292e565b925060408501359150606085013567ffffffffffffffff811115612c8a578182fd5b8501601f81018713612c9a578182fd5b612ca9878235602084016128b8565b91505092959194509250565b60008060408385031215612cc7578182fd5b612cd08361292e565b9150612c3360208401612bcd565b600080600060608486031215612cf2578283fd5b612cfb8461292e565b9250612d0960208501612bcd565b9150604084013567ffffffffffffffff811115612d24578182fd5b612d3086828701612955565b9150509250925092565b600060208284031215612d4b578081fd5b81516125fa816135dd565b600060208284031215612d67578081fd5b5035919050565b60008060408385031215612d80578182fd5b82359150612c336020840161292e565b600060208284031215612da1578081fd5b81356001600160e01b0319811681146125fa578182fd5b600060208284031215612dc9578081fd5b6125fa82612bcd565b60008060008084860360e0811215612de8578283fd5b612df186612bcd565b9450602086013567ffffffffffffffff811115612e0c578384fd5b612e1888828901612955565b945050604086013592506080605f1982011215612e33578182fd5b509295919450926060019150565b60008060408385031215612e53578182fd5b612e5c83612bcd565b9150602083013567ffffffffffffffff811115612e77578182fd5b612e8385828601612974565b9150509250929050565b6000806101a08385031215612ea0578182fd5b612ea983612bcd565b9150612c338460208501612aef565b6000806000806101e08587031215612ece578182fd5b612ed785612bcd565b9350612ee68660208701612aef565b92506101a085013567ffffffffffffffff811115612f02578283fd5b612f0e87828801612974565b949793965093946101c0013593505050565b60008060008060808587031215612f35578182fd5b612f3e85612bcd565b935060208501359250604085013567ffffffffffffffff80821115612f61578384fd5b612f6d88838901612955565b93506060870135915080821115612f82578283fd5b50612ca987828801612955565b600080600060608486031215612fa3578081fd5b612fac84612bcd565b9250612fba60208501612bdf565b9150612fc860408501612bdf565b90509250925092565b600060208284031215612fe2578081fd5b6125fa82612bdf565b60008151808452613003816020860160208601613518565b601f01601f19169290920160200192915050565b805160ff16825260006101a06020830151613037602086018260ff169052565b50604083015161304c604086018260ff169052565b506060830151613061606086018260ff169052565b506080830151608085015260a08301518160a086015261308382860182612feb565b91505060c083015184820360c086015261309d8282612feb565b91505060e083015184820360e08601526130b78282612feb565b91505061010080840151858303828701526130d28382612feb565b9250505061012080840151858303828701526130ee8382612feb565b92505050610140808401518583038287015261310a8382612feb565b92505050610160808401516131228287018215159052565b50506101809283015115159390920192909252919050565b805161ffff1682526020810151613157602084018261ffff169052565b50604081015161316d604084018261ffff169052565b506060810151613183606084018261ffff169052565b506080810151613199608084018261ffff169052565b5060a08101516131af60a084018261ffff169052565b5060c08101516131c560c084018261ffff169052565b5060e08101516131db60e084018261ffff169052565b506101008181015161ffff9081169184019190915261012080830151821690840152610140808301518216908401526101608083015191821681850152905b50505050565b60008251613232818460208701613518565b9190910192915050565b7f416363657373436f6e74726f6c3a206163636f756e7420000000000000000000815260008351613274816017850160208801613518565b7001034b99036b4b9b9b4b733903937b6329607d1b60179184019182015283516132a5816028840160208801613518565b01602801949350505050565b6020815260006125fa6020830184612feb565b6020808252602b908201527f496e697469616c697a61626c653a20636f6e7472616374206973206e6f74206960408201526a6e697469616c697a696e6760a81b606082015260800190565b6020808252601f908201527f5265656e7472616e637947756172643a207265656e7472616e742063616c6c00604082015260600190565b60006101a0613355838661313a565b8061018084015261336881840185613017565b95945050505050565b61ffff8516815260806020820152600061338e6080830186612feb565b6040830194909452506060015292915050565b61ffff831681526040602082015260006133be6040830184613017565b949350505050565b61ffff831681526101a081016125fa602083018461313a565b60006101e061ffff871683526133f8602084018761313a565b806101a084015261340b81840186613017565b915050826101c083015295945050505050565b61ffff8616815284602082015260a06040820152600061344160a0830186612feb565b82810360608401526134538186612feb565b91505082151560808301529695505050505050565b8381526060602082015260006134816060830185612feb565b90508215156040830152949350505050565b6040516101a0810167ffffffffffffffff811182821017156134b7576134b76135c7565b60405290565b604051610180810167ffffffffffffffff811182821017156134b7576134b76135c7565b600082198211156134f4576134f46135b1565b500190565b6000816000190483118215151615613513576135136135b1565b500290565b60005b8381101561353357818101518382015260200161351b565b8381111561321a5750506000910152565b600081613553576135536135b1565b506000190190565b600181811c9082168061356f57607f821691505b6020821081141561359057634e487b7160e01b600052602260045260246000fd5b50919050565b60006000198214156135aa576135aa6135b1565b5060010190565b634e487b7160e01b600052601160045260246000fd5b634e487b7160e01b600052604160045260246000fd5b80151581146121e557600080fdfeb19546dff01e856fb3f010c267a7b1c60363cf8a4664e21cc89c26224620214ea2646970667358221220e28944778a37191b47dbf92acb7dceac3ce4abbb5216b096b0b5ae49bd69042364736f6c63430008040033",
  "linkReferences": {},
  "deployedLinkReferences": {}
}