{
  "_format": "hh-sol-artifact-1",
  "contractName": "SBirdBetting",
  "sourceName": "contracts/SBirdBetting.sol",
  "abi": [
    {
      "anonymous": false,
      "inputs": [
        {
          "indexed": false,
          "internalType": "uint16",
          "name": "matchID",
          "type": "uint16"
        },
        {
          "components": [
            {
              "internalType": "uint16",
              "name": "ouHtHome",
              "type": "uint16"
            },
            {
              "internalType": "uint16",
              "name": "ouHtRatio",
              "type": "uint16"
            },
            {
              "internalType": "uint16",
              "name": "ouHtAway",
              "type": "uint16"
            },
            {
              "internalType": "uint16",
              "name": "ouFtHome",
              "type": "uint16"
            },
            {
              "internalType": "uint16",
              "name": "ouFtRatio",
              "type": "uint16"
            },
            {
              "internalType": "uint16",
              "name": "ouFtAway",
              "type": "uint16"
            },
            {
              "internalType": "uint16",
              "name": "oddsHtHome",
              "type": "uint16"
            },
            {
              "internalType": "uint16",
              "name": "oddsHtDraw",
              "type": "uint16"
            },
            {
              "internalType": "uint16",
              "name": "oddsHtAway",
              "type": "uint16"
            },
            {
              "internalType": "uint16",
              "name": "oddsFtHome",
              "type": "uint16"
            },
            {
              "internalType": "uint16",
              "name": "oddsFtDraw",
              "type": "uint16"
            },
            {
              "internalType": "uint16",
              "name": "oddsFtAway",
              "type": "uint16"
            }
          ],
          "indexed": false,
          "internalType": "struct IBirdBetting.MatchStatistics",
          "name": "mSta",
          "type": "tuple"
        },
        {
          "components": [
            {
              "internalType": "uint8",
              "name": "homeScore",
              "type": "uint8"
            },
            {
              "internalType": "uint8",
              "name": "awayScore",
              "type": "uint8"
            },
            {
              "internalType": "uint256",
              "name": "startTime",
              "type": "uint256"
            },
            {
              "internalType": "string",
              "name": "homeName",
              "type": "string"
            },
            {
              "internalType": "string",
              "name": "awayName",
              "type": "string"
            },
            {
              "internalType": "string",
              "name": "location",
              "type": "string"
            },
            {
              "internalType": "string",
              "name": "round",
              "type": "string"
            }
          ],
          "indexed": false,
          "internalType": "struct IBirdBetting.MatchInfo",
          "name": "mInf",
          "type": "tuple"
        }
      ],
      "name": "CreateMatch",
      "type": "event"
    },
    {
      "anonymous": false,
      "inputs": [
        {
          "indexed": false,
          "internalType": "uint8",
          "name": "version",
          "type": "uint8"
        }
      ],
      "name": "Initialized",
      "type": "event"
    },
    {
      "anonymous": false,
      "inputs": [
        {
          "indexed": true,
          "internalType": "address",
          "name": "previousOwner",
          "type": "address"
        },
        {
          "indexed": true,
          "internalType": "address",
          "name": "newOwner",
          "type": "address"
        }
      ],
      "name": "OwnershipTransferred",
      "type": "event"
    },
    {
      "anonymous": false,
      "inputs": [
        {
          "indexed": true,
          "internalType": "bytes32",
          "name": "role",
          "type": "bytes32"
        },
        {
          "indexed": true,
          "internalType": "bytes32",
          "name": "previousAdminRole",
          "type": "bytes32"
        },
        {
          "indexed": true,
          "internalType": "bytes32",
          "name": "newAdminRole",
          "type": "bytes32"
        }
      ],
      "name": "RoleAdminChanged",
      "type": "event"
    },
    {
      "anonymous": false,
      "inputs": [
        {
          "indexed": true,
          "internalType": "bytes32",
          "name": "role",
          "type": "bytes32"
        },
        {
          "indexed": true,
          "internalType": "address",
          "name": "account",
          "type": "address"
        },
        {
          "indexed": true,
          "internalType": "address",
          "name": "sender",
          "type": "address"
        }
      ],
      "name": "RoleGranted",
      "type": "event"
    },
    {
      "anonymous": false,
      "inputs": [
        {
          "indexed": true,
          "internalType": "bytes32",
          "name": "role",
          "type": "bytes32"
        },
        {
          "indexed": true,
          "internalType": "address",
          "name": "account",
          "type": "address"
        },
        {
          "indexed": true,
          "internalType": "address",
          "name": "sender",
          "type": "address"
        }
      ],
      "name": "RoleRevoked",
      "type": "event"
    },
    {
      "anonymous": false,
      "inputs": [
        {
          "indexed": false,
          "internalType": "uint16",
          "name": "matchID",
          "type": "uint16"
        },
        {
          "components": [
            {
              "internalType": "uint8",
              "name": "homeScore",
              "type": "uint8"
            },
            {
              "internalType": "uint8",
              "name": "awayScore",
              "type": "uint8"
            },
            {
              "internalType": "uint256",
              "name": "startTime",
              "type": "uint256"
            },
            {
              "internalType": "string",
              "name": "homeName",
              "type": "string"
            },
            {
              "internalType": "string",
              "name": "awayName",
              "type": "string"
            },
            {
              "internalType": "string",
              "name": "location",
              "type": "string"
            },
            {
              "internalType": "string",
              "name": "round",
              "type": "string"
            }
          ],
          "indexed": false,
          "internalType": "struct IBirdBetting.MatchInfo",
          "name": "mInf",
          "type": "tuple"
        }
      ],
      "name": "UpdateMatchInfo",
      "type": "event"
    },
    {
      "anonymous": false,
      "inputs": [
        {
          "indexed": false,
          "internalType": "uint16",
          "name": "matchID",
          "type": "uint16"
        },
        {
          "components": [
            {
              "internalType": "uint16",
              "name": "ouHtHome",
              "type": "uint16"
            },
            {
              "internalType": "uint16",
              "name": "ouHtRatio",
              "type": "uint16"
            },
            {
              "internalType": "uint16",
              "name": "ouHtAway",
              "type": "uint16"
            },
            {
              "internalType": "uint16",
              "name": "ouFtHome",
              "type": "uint16"
            },
            {
              "internalType": "uint16",
              "name": "ouFtRatio",
              "type": "uint16"
            },
            {
              "internalType": "uint16",
              "name": "ouFtAway",
              "type": "uint16"
            },
            {
              "internalType": "uint16",
              "name": "oddsHtHome",
              "type": "uint16"
            },
            {
              "internalType": "uint16",
              "name": "oddsHtDraw",
              "type": "uint16"
            },
            {
              "internalType": "uint16",
              "name": "oddsHtAway",
              "type": "uint16"
            },
            {
              "internalType": "uint16",
              "name": "oddsFtHome",
              "type": "uint16"
            },
            {
              "internalType": "uint16",
              "name": "oddsFtDraw",
              "type": "uint16"
            },
            {
              "internalType": "uint16",
              "name": "oddsFtAway",
              "type": "uint16"
            }
          ],
          "indexed": false,
          "internalType": "struct IBirdBetting.MatchStatistics",
          "name": "mSta",
          "type": "tuple"
        }
      ],
      "name": "UpdateMatchStatistics",
      "type": "event"
    },
    {
      "anonymous": false,
      "inputs": [
        {
          "indexed": true,
          "internalType": "address",
          "name": "user",
          "type": "address"
        },
        {
          "indexed": false,
          "internalType": "uint16",
          "name": "matchID",
          "type": "uint16"
        },
        {
          "indexed": false,
          "internalType": "uint256",
          "name": "amount",
          "type": "uint256"
        },
        {
          "indexed": false,
          "internalType": "string",
          "name": "betType",
          "type": "string"
        },
        {
          "indexed": false,
          "internalType": "string",
          "name": "betPlace",
          "type": "string"
        }
      ],
      "name": "UserBetting",
      "type": "event"
    },
    {
      "anonymous": false,
      "inputs": [
        {
          "indexed": false,
          "internalType": "uint16",
          "name": "matchID",
          "type": "uint16"
        },
        {
          "indexed": false,
          "internalType": "uint256",
          "name": "amount",
          "type": "uint256"
        },
        {
          "indexed": true,
          "internalType": "address",
          "name": "user",
          "type": "address"
        },
        {
          "indexed": false,
          "internalType": "uint256",
          "name": "deadline",
          "type": "uint256"
        }
      ],
      "name": "UserClaim",
      "type": "event"
    },
    {
      "anonymous": false,
      "inputs": [
        {
          "indexed": true,
          "internalType": "address",
          "name": "user",
          "type": "address"
        },
        {
          "indexed": false,
          "internalType": "uint16",
          "name": "matchID",
          "type": "uint16"
        },
        {
          "indexed": false,
          "internalType": "uint8",
          "name": "homeScore",
          "type": "uint8"
        },
        {
          "indexed": false,
          "internalType": "uint8",
          "name": "awayScore",
          "type": "uint8"
        },
        {
          "indexed": false,
          "internalType": "uint256",
          "name": "time",
          "type": "uint256"
        }
      ],
      "name": "UserPredicting",
      "type": "event"
    },
    {
      "inputs": [],
      "name": "CLAIM_TOKEN_WITH_SIG_TYPEHASH",
      "outputs": [
        {
          "internalType": "bytes32",
          "name": "",
          "type": "bytes32"
        }
      ],
      "stateMutability": "view",
      "type": "function"
    },
    {
      "inputs": [],
      "name": "DEFAULT_ADMIN_ROLE",
      "outputs": [
        {
          "internalType": "bytes32",
          "name": "",
          "type": "bytes32"
        }
      ],
      "stateMutability": "view",
      "type": "function"
    },
    {
      "inputs": [
        {
          "internalType": "address",
          "name": "",
          "type": "address"
        }
      ],
      "name": "TokenClaimNonces",
      "outputs": [
        {
          "internalType": "uint256",
          "name": "",
          "type": "uint256"
        }
      ],
      "stateMutability": "view",
      "type": "function"
    },
    {
      "inputs": [
        {
          "internalType": "address",
          "name": "",
          "type": "address"
        }
      ],
      "name": "TokenClaimTimeStamp",
      "outputs": [
        {
          "internalType": "uint256",
          "name": "",
          "type": "uint256"
        }
      ],
      "stateMutability": "view",
      "type": "function"
    },
    {
      "inputs": [
        {
          "internalType": "address",
          "name": "_token",
          "type": "address"
        },
        {
          "internalType": "address",
          "name": "_fundWallet",
          "type": "address"
        }
      ],
      "name": "__SBirdBetting_init",
      "outputs": [],
      "stateMutability": "nonpayable",
      "type": "function"
    },
    {
      "inputs": [
        {
          "internalType": "uint16",
          "name": "_matchID",
          "type": "uint16"
        },
        {
          "internalType": "uint256",
          "name": "_amount",
          "type": "uint256"
        },
        {
          "internalType": "string",
          "name": "_betType",
          "type": "string"
        },
        {
          "internalType": "string",
          "name": "_betPlace",
          "type": "string"
        }
      ],
      "name": "betting",
      "outputs": [],
      "stateMutability": "nonpayable",
      "type": "function"
    },
    {
      "inputs": [
        {
          "internalType": "address",
          "name": "",
          "type": "address"
        },
        {
          "internalType": "uint16",
          "name": "",
          "type": "uint16"
        }
      ],
      "name": "claimInMatch",
      "outputs": [
        {
          "internalType": "bool",
          "name": "",
          "type": "bool"
        }
      ],
      "stateMutability": "view",
      "type": "function"
    },
    {
      "inputs": [],
      "name": "fundWallet",
      "outputs": [
        {
          "internalType": "address",
          "name": "",
          "type": "address"
        }
      ],
      "stateMutability": "view",
      "type": "function"
    },
    {
      "inputs": [
        {
          "internalType": "bytes32",
          "name": "role",
          "type": "bytes32"
        }
      ],
      "name": "getRoleAdmin",
      "outputs": [
        {
          "internalType": "bytes32",
          "name": "",
          "type": "bytes32"
        }
      ],
      "stateMutability": "view",
      "type": "function"
    },
    {
      "inputs": [
        {
          "internalType": "address",
          "name": "account",
          "type": "address"
        }
      ],
      "name": "grantAdminRole",
      "outputs": [],
      "stateMutability": "nonpayable",
      "type": "function"
    },
    {
      "inputs": [
        {
          "internalType": "bytes32",
          "name": "role",
          "type": "bytes32"
        },
        {
          "internalType": "address",
          "name": "account",
          "type": "address"
        }
      ],
      "name": "grantRole",
      "outputs": [],
      "stateMutability": "nonpayable",
      "type": "function"
    },
    {
      "inputs": [
        {
          "internalType": "bytes32",
          "name": "role",
          "type": "bytes32"
        },
        {
          "internalType": "address",
          "name": "account",
          "type": "address"
        }
      ],
      "name": "hasRole",
      "outputs": [
        {
          "internalType": "bool",
          "name": "",
          "type": "bool"
        }
      ],
      "stateMutability": "view",
      "type": "function"
    },
    {
      "inputs": [
        {
          "internalType": "uint16",
          "name": "",
          "type": "uint16"
        }
      ],
      "name": "matchByID",
      "outputs": [
        {
          "components": [
            {
              "internalType": "uint16",
              "name": "ouHtHome",
              "type": "uint16"
            },
            {
              "internalType": "uint16",
              "name": "ouHtRatio",
              "type": "uint16"
            },
            {
              "internalType": "uint16",
              "name": "ouHtAway",
              "type": "uint16"
            },
            {
              "internalType": "uint16",
              "name": "ouFtHome",
              "type": "uint16"
            },
            {
              "internalType": "uint16",
              "name": "ouFtRatio",
              "type": "uint16"
            },
            {
              "internalType": "uint16",
              "name": "ouFtAway",
              "type": "uint16"
            },
            {
              "internalType": "uint16",
              "name": "oddsHtHome",
              "type": "uint16"
            },
            {
              "internalType": "uint16",
              "name": "oddsHtDraw",
              "type": "uint16"
            },
            {
              "internalType": "uint16",
              "name": "oddsHtAway",
              "type": "uint16"
            },
            {
              "internalType": "uint16",
              "name": "oddsFtHome",
              "type": "uint16"
            },
            {
              "internalType": "uint16",
              "name": "oddsFtDraw",
              "type": "uint16"
            },
            {
              "internalType": "uint16",
              "name": "oddsFtAway",
              "type": "uint16"
            }
          ],
          "internalType": "struct IBirdBetting.MatchStatistics",
          "name": "mSta",
          "type": "tuple"
        },
        {
          "components": [
            {
              "internalType": "uint8",
              "name": "homeScore",
              "type": "uint8"
            },
            {
              "internalType": "uint8",
              "name": "awayScore",
              "type": "uint8"
            },
            {
              "internalType": "uint256",
              "name": "startTime",
              "type": "uint256"
            },
            {
              "internalType": "string",
              "name": "homeName",
              "type": "string"
            },
            {
              "internalType": "string",
              "name": "awayName",
              "type": "string"
            },
            {
              "internalType": "string",
              "name": "location",
              "type": "string"
            },
            {
              "internalType": "string",
              "name": "round",
              "type": "string"
            }
          ],
          "internalType": "struct IBirdBetting.MatchInfo",
          "name": "mInf",
          "type": "tuple"
        }
      ],
      "stateMutability": "view",
      "type": "function"
    },
    {
      "inputs": [],
      "name": "maxBetAmount",
      "outputs": [
        {
          "internalType": "uint256",
          "name": "",
          "type": "uint256"
        }
      ],
      "stateMutability": "view",
      "type": "function"
    },
    {
      "inputs": [
        {
          "internalType": "address",
          "name": "",
          "type": "address"
        },
        {
          "internalType": "address",
          "name": "",
          "type": "address"
        },
        {
          "internalType": "uint256",
          "name": "",
          "type": "uint256"
        },
        {
          "internalType": "bytes",
          "name": "",
          "type": "bytes"
        }
      ],
      "name": "onERC721Received",
      "outputs": [
        {
          "internalType": "bytes4",
          "name": "",
          "type": "bytes4"
        }
      ],
      "stateMutability": "nonpayable",
      "type": "function"
    },
    {
      "inputs": [],
      "name": "owner",
      "outputs": [
        {
          "internalType": "address",
          "name": "",
          "type": "address"
        }
      ],
      "stateMutability": "view",
      "type": "function"
    },
    {
      "inputs": [
        {
          "internalType": "uint16",
          "name": "_matchID",
          "type": "uint16"
        },
        {
          "internalType": "uint8",
          "name": "_homeScore",
          "type": "uint8"
        },
        {
          "internalType": "uint8",
          "name": "_awayScore",
          "type": "uint8"
        }
      ],
      "name": "predict",
      "outputs": [],
      "stateMutability": "nonpayable",
      "type": "function"
    },
    {
      "inputs": [],
      "name": "renounceOwnership",
      "outputs": [],
      "stateMutability": "nonpayable",
      "type": "function"
    },
    {
      "inputs": [
        {
          "internalType": "bytes32",
          "name": "role",
          "type": "bytes32"
        },
        {
          "internalType": "address",
          "name": "account",
          "type": "address"
        }
      ],
      "name": "renounceRole",
      "outputs": [],
      "stateMutability": "nonpayable",
      "type": "function"
    },
    {
      "inputs": [
        {
          "internalType": "address",
          "name": "account",
          "type": "address"
        }
      ],
      "name": "revokeAdminRole",
      "outputs": [],
      "stateMutability": "nonpayable",
      "type": "function"
    },
    {
      "inputs": [
        {
          "internalType": "bytes32",
          "name": "role",
          "type": "bytes32"
        },
        {
          "internalType": "address",
          "name": "account",
          "type": "address"
        }
      ],
      "name": "revokeRole",
      "outputs": [],
      "stateMutability": "nonpayable",
      "type": "function"
    },
    {
      "inputs": [
        {
          "internalType": "uint16",
          "name": "_matchID",
          "type": "uint16"
        },
        {
          "components": [
            {
              "internalType": "uint16",
              "name": "ouHtHome",
              "type": "uint16"
            },
            {
              "internalType": "uint16",
              "name": "ouHtRatio",
              "type": "uint16"
            },
            {
              "internalType": "uint16",
              "name": "ouHtAway",
              "type": "uint16"
            },
            {
              "internalType": "uint16",
              "name": "ouFtHome",
              "type": "uint16"
            },
            {
              "internalType": "uint16",
              "name": "ouFtRatio",
              "type": "uint16"
            },
            {
              "internalType": "uint16",
              "name": "ouFtAway",
              "type": "uint16"
            },
            {
              "internalType": "uint16",
              "name": "oddsHtHome",
              "type": "uint16"
            },
            {
              "internalType": "uint16",
              "name": "oddsHtDraw",
              "type": "uint16"
            },
            {
              "internalType": "uint16",
              "name": "oddsHtAway",
              "type": "uint16"
            },
            {
              "internalType": "uint16",
              "name": "oddsFtHome",
              "type": "uint16"
            },
            {
              "internalType": "uint16",
              "name": "oddsFtDraw",
              "type": "uint16"
            },
            {
              "internalType": "uint16",
              "name": "oddsFtAway",
              "type": "uint16"
            }
          ],
          "internalType": "struct IBirdBetting.MatchStatistics",
          "name": "_mSta",
          "type": "tuple"
        },
        {
          "components": [
            {
              "internalType": "uint8",
              "name": "homeScore",
              "type": "uint8"
            },
            {
              "internalType": "uint8",
              "name": "awayScore",
              "type": "uint8"
            },
            {
              "internalType": "uint256",
              "name": "startTime",
              "type": "uint256"
            },
            {
              "internalType": "string",
              "name": "homeName",
              "type": "string"
            },
            {
              "internalType": "string",
              "name": "awayName",
              "type": "string"
            },
            {
              "internalType": "string",
              "name": "location",
              "type": "string"
            },
            {
              "internalType": "string",
              "name": "round",
              "type": "string"
            }
          ],
          "internalType": "struct IBirdBetting.MatchInfo",
          "name": "_mInf",
          "type": "tuple"
        }
      ],
      "name": "setMatchInfo",
      "outputs": [],
      "stateMutability": "nonpayable",
      "type": "function"
    },
    {
      "inputs": [
        {
          "internalType": "uint256",
          "name": "spacer",
          "type": "uint256"
        }
      ],
      "name": "setMaxBetAmount",
      "outputs": [],
      "stateMutability": "nonpayable",
      "type": "function"
    },
    {
      "inputs": [
        {
          "internalType": "address",
          "name": "_signer",
          "type": "address"
        }
      ],
      "name": "setSigner",
      "outputs": [],
      "stateMutability": "nonpayable",
      "type": "function"
    },
    {
      "inputs": [
        {
          "internalType": "uint256",
          "name": "spacer",
          "type": "uint256"
        }
      ],
      "name": "setSpacer",
      "outputs": [],
      "stateMutability": "nonpayable",
      "type": "function"
    },
    {
      "inputs": [
        {
          "internalType": "bytes4",
          "name": "interfaceId",
          "type": "bytes4"
        }
      ],
      "name": "supportsInterface",
      "outputs": [
        {
          "internalType": "bool",
          "name": "",
          "type": "bool"
        }
      ],
      "stateMutability": "view",
      "type": "function"
    },
    {
      "inputs": [
        {
          "internalType": "uint16",
          "name": "_matchID",
          "type": "uint16"
        },
        {
          "internalType": "uint256",
          "name": "_amount",
          "type": "uint256"
        },
        {
          "components": [
            {
              "internalType": "uint256",
              "name": "deadline",
              "type": "uint256"
            },
            {
              "internalType": "uint8",
              "name": "v",
              "type": "uint8"
            },
            {
              "internalType": "bytes32",
              "name": "r",
              "type": "bytes32"
            },
            {
              "internalType": "bytes32",
              "name": "s",
              "type": "bytes32"
            }
          ],
          "internalType": "struct IBirdBetting.EIP712Signature",
          "name": "_signature",
          "type": "tuple"
        }
      ],
      "name": "tokenClaim",
      "outputs": [],
      "stateMutability": "nonpayable",
      "type": "function"
    },
    {
      "inputs": [
        {
          "internalType": "address",
          "name": "newOwner",
          "type": "address"
        }
      ],
      "name": "transferOwnership",
      "outputs": [],
      "stateMutability": "nonpayable",
      "type": "function"
    },
    {
      "inputs": [
        {
          "internalType": "uint16",
          "name": "_matchID",
          "type": "uint16"
        },
        {
          "components": [
            {
              "internalType": "uint8",
              "name": "homeScore",
              "type": "uint8"
            },
            {
              "internalType": "uint8",
              "name": "awayScore",
              "type": "uint8"
            },
            {
              "internalType": "uint256",
              "name": "startTime",
              "type": "uint256"
            },
            {
              "internalType": "string",
              "name": "homeName",
              "type": "string"
            },
            {
              "internalType": "string",
              "name": "awayName",
              "type": "string"
            },
            {
              "internalType": "string",
              "name": "location",
              "type": "string"
            },
            {
              "internalType": "string",
              "name": "round",
              "type": "string"
            }
          ],
          "internalType": "struct IBirdBetting.MatchInfo",
          "name": "_mInf",
          "type": "tuple"
        }
      ],
      "name": "updateMatchInfo",
      "outputs": [],
      "stateMutability": "nonpayable",
      "type": "function"
    },
    {
      "inputs": [
        {
          "internalType": "uint16",
          "name": "_matchID",
          "type": "uint16"
        },
        {
          "components": [
            {
              "internalType": "uint16",
              "name": "ouHtHome",
              "type": "uint16"
            },
            {
              "internalType": "uint16",
              "name": "ouHtRatio",
              "type": "uint16"
            },
            {
              "internalType": "uint16",
              "name": "ouHtAway",
              "type": "uint16"
            },
            {
              "internalType": "uint16",
              "name": "ouFtHome",
              "type": "uint16"
            },
            {
              "internalType": "uint16",
              "name": "ouFtRatio",
              "type": "uint16"
            },
            {
              "internalType": "uint16",
              "name": "ouFtAway",
              "type": "uint16"
            },
            {
              "internalType": "uint16",
              "name": "oddsHtHome",
              "type": "uint16"
            },
            {
              "internalType": "uint16",
              "name": "oddsHtDraw",
              "type": "uint16"
            },
            {
              "internalType": "uint16",
              "name": "oddsHtAway",
              "type": "uint16"
            },
            {
              "internalType": "uint16",
              "name": "oddsFtHome",
              "type": "uint16"
            },
            {
              "internalType": "uint16",
              "name": "oddsFtDraw",
              "type": "uint16"
            },
            {
              "internalType": "uint16",
              "name": "oddsFtAway",
              "type": "uint16"
            }
          ],
          "internalType": "struct IBirdBetting.MatchStatistics",
          "name": "mSta",
          "type": "tuple"
        }
      ],
      "name": "updateMatchStatistics",
      "outputs": [],
      "stateMutability": "nonpayable",
      "type": "function"
    },
    {
      "inputs": [
        {
          "internalType": "address",
          "name": "",
          "type": "address"
        },
        {
          "internalType": "uint16",
          "name": "",
          "type": "uint16"
        },
        {
          "internalType": "string",
          "name": "",
          "type": "string"
        }
      ],
      "name": "userBettingInMatch",
      "outputs": [
        {
          "internalType": "uint256",
          "name": "totalAmount",
          "type": "uint256"
        }
      ],
      "stateMutability": "view",
      "type": "function"
    },
    {
      "inputs": [
        {
          "internalType": "address",
          "name": "",
          "type": "address"
        },
        {
          "internalType": "uint16",
          "name": "",
          "type": "uint16"
        }
      ],
      "name": "userPredictByMatch",
      "outputs": [
        {
          "internalType": "uint8",
          "name": "homeScore",
          "type": "uint8"
        },
        {
          "internalType": "uint8",
          "name": "awayScore",
          "type": "uint8"
        },
        {
          "internalType": "uint256",
          "name": "time",
          "type": "uint256"
        }
      ],
      "stateMutability": "view",
      "type": "function"
    }
  ],
  "bytecode": "0x608060405234801561001057600080fd5b50613123806100206000396000f3fe608060405234801561001057600080fd5b50600436106101ef5760003560e01c80638da5cb5b1161010f578063c911d906116100a2578063e327f48a11610071578063e327f48a14610526578063f153816014610539578063f2fde38b1461055a578063f62611621461038757600080fd5b8063c911d90614610496578063c99392df146104a9578063cab11d5d14610509578063d547741f1461051357600080fd5b80639a19c7b0116100de5780639a19c7b014610421578063a1dda53514610434578063a217fddf1461047b578063c634b78e1461048357600080fd5b80638da5cb5b146103ad578063902fc128146103be57806391d14854146103df5780639881dce0146103f257600080fd5b806350bd5f6c11610187578063715018a611610156578063715018a61461036c5780637a080ab4146103745780637cfbc7a5146103875780638c3850081461039a57600080fd5b806350bd5f6c146102f9578063664a1ad61461031a5780636a34f43b146103465780636c19e7831461035957600080fd5b8063248a9ca3116101c3578063248a9ca31461029d5780632f2ff15d146102c057806336568abe146102d35780633d77a8a5146102e657600080fd5b8062c71229146101f457806301ffc9a71461022e578063150b7a02146102515780631de7c94a14610288575b600080fd5b61021b7f91b4e17a240545175a79d7c03eeaaae9a2eb9481b5ef81266d3ef1aa8daf9ec281565b6040519081526020015b60405180910390f35b61024161023c36600461298f565b61056d565b6040519015158152602001610225565b61026f61025f366004612837565b630a85bd0160e11b949350505050565b6040516001600160e01b03199091168152602001610225565b61029b610296366004612a1d565b610590565b005b61021b6102ab366004612955565b60009081526097602052604090206001015490565b61029b6102ce36600461296d565b6107aa565b61029b6102e136600461296d565b6107d4565b61029b6102f4366004612b24565b610857565b61021b6103073660046127eb565b6101376020526000908152604090205481565b6101315461032e906001600160a01b031681565b6040516001600160a01b039091168152602001610225565b61029b610354366004612b6a565b610d53565b61029b6103673660046127eb565b610eb3565b61029b610eef565b61029b610382366004612805565b610f03565b61029b610395366004612955565b6110c0565b61029b6103a83660046129d1565b6110df565b6033546001600160a01b031661032e565b61021b6103cc3660046127eb565b6101366020526000908152604090205481565b6102416103ed36600461296d565b6111d9565b6102416104003660046128b0565b61013360209081526000928352604080842090915290825290205460ff1681565b61029b61042f3660046127eb565b611204565b61021b6104423660046128d9565b61013260209081526000938452604080852082529284529190922082518084018301805192815290830193909201929092209190525481565b61021b600081565b61029b6104913660046127eb565b611227565b61029b6104a4366004612a48565b61124a565b6104e96104b73660046128b0565b6101356020908152600092835260408084209091529082529020805460019091015460ff808316926101009004169083565b6040805160ff948516815293909216602084015290820152606001610225565b61021b6101305481565b61029b61052136600461296d565b611537565b61029b610534366004612a9d565b61155c565b61054c6105473660046129b7565b611aa7565b604051610225929190612eaa565b61029b6105683660046127eb565b611e02565b60006001600160e01b03198216158061058a575061058a82611e7b565b92915050565b600061059b81611eb0565b600061013460008561ffff1661ffff1681526020019081526020016000209050828160000160008201518160000160006101000a81548161ffff021916908361ffff16021790555060208201518160000160026101000a81548161ffff021916908361ffff16021790555060408201518160000160046101000a81548161ffff021916908361ffff16021790555060608201518160000160066101000a81548161ffff021916908361ffff16021790555060808201518160000160086101000a81548161ffff021916908361ffff16021790555060a082015181600001600a6101000a81548161ffff021916908361ffff16021790555060c082015181600001600c6101000a81548161ffff021916908361ffff16021790555060e082015181600001600e6101000a81548161ffff021916908361ffff1602179055506101008201518160000160106101000a81548161ffff021916908361ffff1602179055506101208201518160000160126101000a81548161ffff021916908361ffff1602179055506101408201518160000160146101000a81548161ffff021916908361ffff1602179055506101608201518160000160166101000a81548161ffff021916908361ffff1602179055509050507f5aeb2e82d74f416d35e9882694a793a1d1ad05992cfe6e904ee13659619bc2f5848460405161079c929190612ef1565b60405180910390a150505050565b6000828152609760205260409020600101546107c581611eb0565b6107cf8383611eba565b505050565b6001600160a01b03811633146108495760405162461bcd60e51b815260206004820152602f60248201527f416363657373436f6e74726f6c3a2063616e206f6e6c792072656e6f756e636560448201526e103937b632b9903337b91039b2b63360891b60648201526084015b60405180910390fd5b6108538282611f40565b5050565b600260c954141561087a5760405162461bcd60e51b815260040161084090612e73565b600260c955816108c25760405162461bcd60e51b8152602060048201526013602482015272105b5bdd5b9d081a5cc81a5b98dbdc9c9958dd606a1b6044820152606401610840565b3360009081526101336020908152604080832061ffff8716845290915290205460ff16156109225760405162461bcd60e51b815260206004820152600d60248201526c151bdad95b8818db185a5b5959609a1b6044820152606401610840565b80351580610931575042813510155b6109715760405162461bcd60e51b815260206004820152601160248201527014da59db985d1d5c9948195e1c1a5c9959607a1b6044820152606401610840565b61012f543360009081526101366020526040902054429161099191612fd1565b11156109df5760405162461bcd60e51b815260206004820152601860248201527f436c61696d2077697468696e207370616365722074696d6500000000000000006044820152606401610840565b6000610aad60408051808201825260088152674570696347616d6560c01b6020918201528151808301835260018152603160f81b9082015281517f91ab3d17e3a50a9d89e63fd30b92be7f5336b03b287bb946787a83a9d62a2766818301527f034f73db759932f0c3c1beb00c554ddbc8cc77da03cb7d0f4b3c218264900aa9818401527fc89efdaa54c0f20c7adf612882df0950f5a951637e0307cdcb4c672f298b8bc66060820152306080808301919091528351808303909101815260a0909101909252815191012090565b336000908152610137602052604081208054929350909183917f91b4e17a240545175a79d7c03eeaaae9a2eb9481b5ef81266d3ef1aa8daf9ec291879185610af483613086565b9091555060408051602081019490945283019190915260608201528435608082015260a00160405160208183030381529060405280519060200120604051602001610b5692919061190160f01b81526002810192909252602282015260420190565b6040516020818303038152906040528051906020012090506000600182856020016020810190610b869190612bac565b6040805160008152602081018083529390935260ff90911682820152860135606080830191909152860135608082015260a0016020604051602081039080840390855afa158015610bdb573d6000803e3d6000fd5b5050604051601f19015161012e549092506001600160a01b038084169116149050610c3c5760405162461bcd60e51b815260206004820152601160248201527014da59db985d1d5c99481a5b9d985b1a59607a1b6044820152606401610840565b61012d54610131546040516323b872dd60e01b81526001600160a01b039182166004820152336024820152604481018890529116906323b872dd90606401602060405180830381600087803b158015610c9457600080fd5b505af1158015610ca8573d6000803e3d6000fd5b505050506040513d601f19601f82011682018060405250810190610ccc9190612935565b503360008181526101336020908152604080832061ffff8b16808552908352818420805460ff1916600117905584845261013683529281902042905580519283529082018890528635908201527fc9ce93d954b6fedbb9adc7288761c9683ebaaa14de224e0cf26a43f6f997d3af9060600160405180910390a25050600160c95550505050565b600260c9541415610d765760405162461bcd60e51b815260040161084090612e73565b600260c981905561ffff8416600090815261013460205260409020908101544210610de35760405162461bcd60e51b815260206004820152601e60248201527f43616e2070726564696374206265666f7265206d6174636820737461727400006044820152606401610840565b6040805160608101825260ff8086168252848116602080840191825242848601818152336000818152610135855288812061ffff8e1682529094529287902095518654945186166101000261ffff19909516951694909417929092178455915160019093019290925591517f9503495a6b7978c11c59bf26f2bbab15a8e2226808b034d02d4db327e44966a991610ea0918891889188919061ffff94909416845260ff928316602085015291166040830152606082015260800190565b60405180910390a25050600160c9555050565b6000805160206130ce833981519152610ecb81611eb0565b5061012e80546001600160a01b0319166001600160a01b0392909216919091179055565b610ef7611fa7565b610f016000612001565b565b600054610100900460ff1615808015610f235750600054600160ff909116105b80610f3d5750303b158015610f3d575060005460ff166001145b610fa05760405162461bcd60e51b815260206004820152602e60248201527f496e697469616c697a61626c653a20636f6e747261637420697320616c72656160448201526d191e481a5b9a5d1a585b1a5e995960921b6064820152608401610840565b6000805460ff191660011790558015610fc3576000805461ff0019166101001790555b6001600160a01b0383166110195760405162461bcd60e51b815260206004820152601f60248201527f42657474696e6720746f6b656e2061646472657373206e6f7420666f756e64006044820152606401610840565b611021612053565b61102c600033612082565b6110446000805160206130ce83398151915233612082565b61012d80546001600160a01b038086166001600160a01b03199283161790925561013180549285169290911691909117905580156107cf576000805461ff0019169055604051600181527f7f26b83ff96e1f2b6a682f133852f6798a09c465da95921460cefb38474024989060200160405180910390a1505050565b6000805160206130ce8339815191526110d881611eb0565b5061012f55565b60006110ea81611eb0565b61ffff83166000908152610134602090815260409182902084516001820180548785015160ff9081166101000261ffff19909216931692909217919091178155928501516002820155606085015180519193869390926111509260038701920190612309565b506080820151805161116c916003840191602090910190612309565b5060a08201518051611188916004840191602090910190612309565b5060c082015180516111a4916005840191602090910190612309565b509050507f04768ff3e5586f277815772a8e2e35bcd014eda551a26018a6b6c5b5e64046b7848460405161079c929190612ecc565b60009182526097602090815260408084206001600160a01b0393909316845291905290205460ff1690565b6000805160206130ce83398151915261121c81611eb0565b610853600083611537565b6000805160206130ce83398151915261123f81611eb0565b6108536000836107aa565b600061125581611eb0565b60405180604001604052808481526020018381525061013460008661ffff1661ffff16815260200190815260200160002060008201518160000160008201518160000160006101000a81548161ffff021916908361ffff16021790555060208201518160000160026101000a81548161ffff021916908361ffff16021790555060408201518160000160046101000a81548161ffff021916908361ffff16021790555060608201518160000160066101000a81548161ffff021916908361ffff16021790555060808201518160000160086101000a81548161ffff021916908361ffff16021790555060a082015181600001600a6101000a81548161ffff021916908361ffff16021790555060c082015181600001600c6101000a81548161ffff021916908361ffff16021790555060e082015181600001600e6101000a81548161ffff021916908361ffff1602179055506101008201518160000160106101000a81548161ffff021916908361ffff1602179055506101208201518160000160126101000a81548161ffff021916908361ffff1602179055506101408201518160000160146101000a81548161ffff021916908361ffff1602179055506101608201518160000160166101000a81548161ffff021916908361ffff160217905550505060208201518160010160008201518160000160006101000a81548160ff021916908360ff16021790555060208201518160000160016101000a81548160ff021916908360ff1602179055506040820151816001015560608201518160020190805190602001906114aa929190612309565b50608082015180516114c6916003840191602090910190612309565b5060a082015180516114e2916004840191602090910190612309565b5060c082015180516114fe916005840191602090910190612309565b5050509050507fd894f5221c097f522fb743eef4620f872b55d72318de940ae0204625ba2488c884848460405161079c93929190612f0a565b60008281526097602052604090206001015461155281611eb0565b6107cf8383611f40565b600260c954141561157f5760405162461bcd60e51b815260040161084090612e73565b600260c95561012d546001600160a01b03166115d55760405162461bcd60e51b815260206004820152601560248201527414995dd85c991cc81d1bdad95b881b9bdd081cd95d605a1b6044820152606401610840565b610130543360009081526101326020908152604080832061ffff8b16845290915290819020905187919061160c9088908890612d90565b908152604051908190036020019020546116269190612fd1565b111561166b5760405162461bcd60e51b8152602060048201526014602482015273115e18d9595908185b5bdd5b9d081a5b8818995d60621b6044820152606401610840565b61ffff8616600090815261013460205260409020600281015442106116d25760405162461bcd60e51b815260206004820152601e60248201527f43616e2070726564696374206265666f7265206d6174636820737461727400006044820152606401610840565b3360009081526101326020908152604080832061ffff8b16845290915280822090516117019088908890612d90565b90815260408051918290036020908101832060019081018054918201815560008181528381209092018c9055338252610132835283822061ffff8e16835290925291822090935090916117579089908990612d90565b90815260405160209181900382019020600201805460018101825560008281529290922090925061178a9101868661238d565b506040805160608101808352336000908152610132602090815284822061ffff8f168352905292909220909182918b916117c7908c908c90612d90565b908152602001604051809103902060000160008282546117e79190612fd1565b92505081905581526020018380548060200260200160405190810160405280929190818152602001828054801561183d57602002820191906000526020600020905b815481526020019060010190808311611829575b5050505050815260200182805480602002602001604051908101604052809291908181526020016000905b828210156119145783829060005260206000200180546118879061304b565b80601f01602080910402602001604051908101604052809291908181526020018280546118b39061304b565b80156119005780601f106118d557610100808354040283529160200191611900565b820191906000526020600020905b8154815290600101906020018083116118e357829003601f168201915b505050505081526020019060010190611868565b5050509152503360009081526101326020908152604080832061ffff8e16845290915290819020905161194a908a908a90612d90565b908152602001604051809103902060008201518160000155602082015181600101908051906020019061197e929190612401565b506040820151805161199a91600284019160209091019061243b565b505061012d54610131546040516323b872dd60e01b81523360048201526001600160a01b039182166024820152604481018c9052911691506323b872dd90606401602060405180830381600087803b1580156119f557600080fd5b505af1158015611a09573d6000803e3d6000fd5b505050506040513d601f19601f82011682018060405250810190611a2d9190612935565b503360008181526101336020908152604080832061ffff8e16845290915290819020805460ff19169055517fc8a59bdc7537eb1473490f78f61e774fb8c6e46b80d8b41cc90b9dca0e4b694690611a8f908c908c908c908c908c908c90612f40565b60405180910390a25050600160c95550505050505050565b61013460209081526000918252604091829020825161018081018452815461ffff8082168352620100008204811683860152640100000000820481168387015266010000000000008204811660608085019190915268010000000000000000830482166080850152600160501b8304821660a0850152600160601b8304821660c0850152600160701b8304821660e080860191909152600160801b8404831661010080870191909152600160901b85048416610120870152600160a01b85048416610140870152600160b01b9094049092166101608501528651918201875260018501805460ff80821685529490049093169582019590955260028401549581019590955260038301805492959394919291840191611bc59061304b565b80601f0160208091040260200160405190810160405280929190818152602001828054611bf19061304b565b8015611c3e5780601f10611c1357610100808354040283529160200191611c3e565b820191906000526020600020905b815481529060010190602001808311611c2157829003601f168201915b50505050508152602001600382018054611c579061304b565b80601f0160208091040260200160405190810160405280929190818152602001828054611c839061304b565b8015611cd05780601f10611ca557610100808354040283529160200191611cd0565b820191906000526020600020905b815481529060010190602001808311611cb357829003601f168201915b50505050508152602001600482018054611ce99061304b565b80601f0160208091040260200160405190810160405280929190818152602001828054611d159061304b565b8015611d625780601f10611d3757610100808354040283529160200191611d62565b820191906000526020600020905b815481529060010190602001808311611d4557829003601f168201915b50505050508152602001600582018054611d7b9061304b565b80601f0160208091040260200160405190810160405280929190818152602001828054611da79061304b565b8015611df45780601f10611dc957610100808354040283529160200191611df4565b820191906000526020600020905b815481529060010190602001808311611dd757829003601f168201915b505050505081525050905082565b611e0a611fa7565b6001600160a01b038116611e6f5760405162461bcd60e51b815260206004820152602660248201527f4f776e61626c653a206e6577206f776e657220697320746865207a65726f206160448201526564647265737360d01b6064820152608401610840565b611e7881612001565b50565b60006001600160e01b03198216637965db0b60e01b148061058a57506301ffc9a760e01b6001600160e01b031983161461058a565b611e78813361208c565b611ec482826111d9565b6108535760008281526097602090815260408083206001600160a01b03851684529091529020805460ff19166001179055611efc3390565b6001600160a01b0316816001600160a01b0316837f2f8788117e7eff1d82e926ec794901d17c78024a50270940304540a733656f0d60405160405180910390a45050565b611f4a82826111d9565b156108535760008281526097602090815260408083206001600160a01b0385168085529252808320805460ff1916905551339285917ff6391f5c32d9c69d2a47ea670b442974b53935d1edc7fd64eb21e047a839171b9190a45050565b6033546001600160a01b03163314610f015760405162461bcd60e51b815260206004820181905260248201527f4f776e61626c653a2063616c6c6572206973206e6f7420746865206f776e65726044820152606401610840565b603380546001600160a01b038381166001600160a01b0319831681179093556040519116919082907f8be0079c531659141344cd1fd0a4f28419497f9722a3daafe3b4186f6b6457e090600090a35050565b600054610100900460ff1661207a5760405162461bcd60e51b815260040161084090612e28565b610f016120f0565b6108538282611eba565b61209682826111d9565b610853576120ae816001600160a01b03166014612120565b6120b9836020612120565b6040516020016120ca929190612da0565b60408051601f198184030181529082905262461bcd60e51b825261084091600401612e15565b600054610100900460ff166121175760405162461bcd60e51b815260040161084090612e28565b610f0133612001565b6060600061212f836002612fe9565b61213a906002612fd1565b67ffffffffffffffff81111561216057634e487b7160e01b600052604160045260246000fd5b6040519080825280601f01601f19166020018201604052801561218a576020820181803683370190505b509050600360fc1b816000815181106121b357634e487b7160e01b600052603260045260246000fd5b60200101906001600160f81b031916908160001a905350600f60fb1b816001815181106121f057634e487b7160e01b600052603260045260246000fd5b60200101906001600160f81b031916908160001a9053506000612214846002612fe9565b61221f906001612fd1565b90505b60018111156122b3576f181899199a1a9b1b9c1cb0b131b232b360811b85600f166010811061226157634e487b7160e01b600052603260045260246000fd5b1a60f81b82828151811061228557634e487b7160e01b600052603260045260246000fd5b60200101906001600160f81b031916908160001a90535060049490941c936122ac81613034565b9050612222565b5083156123025760405162461bcd60e51b815260206004820181905260248201527f537472696e67733a20686578206c656e67746820696e73756666696369656e746044820152606401610840565b9392505050565b8280546123159061304b565b90600052602060002090601f016020900481019282612337576000855561237d565b82601f1061235057805160ff191683800117855561237d565b8280016001018555821561237d579182015b8281111561237d578251825591602001919060010190612362565b50612389929150612494565b5090565b8280546123999061304b565b90600052602060002090601f0160209004810192826123bb576000855561237d565b82601f106123d45782800160ff1982351617855561237d565b8280016001018555821561237d579182015b8281111561237d5782358255916020019190600101906123e6565b82805482825590600052602060002090810192821561237d579160200282018281111561237d578251825591602001919060010190612362565b828054828255906000526020600020908101928215612488579160200282015b828111156124885782518051612478918491602090910190612309565b509160200191906001019061245b565b506123899291506124a9565b5b808211156123895760008155600101612495565b808211156123895760006124bd82826124c6565b506001016124a9565b5080546124d29061304b565b6000825580601f106124e2575050565b601f016020900490600052602060002090810190611e789190612494565b600067ffffffffffffffff8084111561251b5761251b6130b7565b604051601f8501601f19908116603f01168101908282118183101715612543576125436130b7565b8160405280935085815286868601111561255c57600080fd5b858560208301376000602087830101525050509392505050565b80356001600160a01b038116811461258d57600080fd5b919050565b60008083601f8401126125a3578182fd5b50813567ffffffffffffffff8111156125ba578182fd5b6020830191508360208285010111156125d257600080fd5b9250929050565b600082601f8301126125e9578081fd5b61230283833560208501612500565b600060e08284031215612609578081fd5b612611612f84565b905061261c826127da565b815261262a602083016127da565b602082015260408201356040820152606082013567ffffffffffffffff8082111561265457600080fd5b612660858386016125d9565b6060840152608084013591508082111561267957600080fd5b612685858386016125d9565b608084015260a084013591508082111561269e57600080fd5b6126aa858386016125d9565b60a084015260c08401359150808211156126c357600080fd5b506126d0848285016125d9565b60c08301525092915050565b600061018082840312156126ee578081fd5b6126f6612fad565b9050612701826127c8565b815261270f602083016127c8565b6020820152612720604083016127c8565b6040820152612731606083016127c8565b6060820152612742608083016127c8565b608082015261275360a083016127c8565b60a082015261276460c083016127c8565b60c082015261277560e083016127c8565b60e08201526101006127888184016127c8565b9082015261012061279a8382016127c8565b908201526101406127ac8382016127c8565b908201526101606127be8382016127c8565b9082015292915050565b803561ffff8116811461258d57600080fd5b803560ff8116811461258d57600080fd5b6000602082840312156127fc578081fd5b61230282612576565b60008060408385031215612817578081fd5b61282083612576565b915061282e60208401612576565b90509250929050565b6000806000806080858703121561284c578182fd5b61285585612576565b935061286360208601612576565b925060408501359150606085013567ffffffffffffffff811115612885578182fd5b8501601f81018713612895578182fd5b6128a487823560208401612500565b91505092959194509250565b600080604083850312156128c2578182fd5b6128cb83612576565b915061282e602084016127c8565b6000806000606084860312156128ed578283fd5b6128f684612576565b9250612904602085016127c8565b9150604084013567ffffffffffffffff81111561291f578182fd5b61292b868287016125d9565b9150509250925092565b600060208284031215612946578081fd5b81518015158114612302578182fd5b600060208284031215612966578081fd5b5035919050565b6000806040838503121561297f578182fd5b8235915061282e60208401612576565b6000602082840312156129a0578081fd5b81356001600160e01b031981168114612302578182fd5b6000602082840312156129c8578081fd5b612302826127c8565b600080604083850312156129e3578182fd5b6129ec836127c8565b9150602083013567ffffffffffffffff811115612a07578182fd5b612a13858286016125f8565b9150509250929050565b6000806101a08385031215612a30578182fd5b612a39836127c8565b915061282e84602085016126dc565b60008060006101c08486031215612a5d578081fd5b612a66846127c8565b9250612a7585602086016126dc565b91506101a084013567ffffffffffffffff811115612a91578182fd5b61292b868287016125f8565b60008060008060008060808789031215612ab5578384fd5b612abe876127c8565b955060208701359450604087013567ffffffffffffffff80821115612ae1578586fd5b612aed8a838b01612592565b90965094506060890135915080821115612b05578384fd5b50612b1289828a01612592565b979a9699509497509295939492505050565b600080600083850360c0811215612b39578182fd5b612b42856127c8565b9350602085013592506080603f1982011215612b5c578182fd5b506040840190509250925092565b600080600060608486031215612b7e578081fd5b612b87846127c8565b9250612b95602085016127da565b9150612ba3604085016127da565b90509250925092565b600060208284031215612bbd578081fd5b612302826127da565b81835281816020850137506000828201602090810191909152601f909101601f19169091010190565b60008151808452612c07816020860160208601613008565b601f01601f19169290920160200192915050565b60ff815116825260ff6020820151166020830152604081015160408301526000606082015160e06060850152612c5460e0850182612bef565b905060808301518482036080860152612c6d8282612bef565b91505060a083015184820360a0860152612c878282612bef565b91505060c083015184820360c0860152612ca18282612bef565b95945050505050565b805161ffff1682526020810151612cc7602084018261ffff169052565b506040810151612cdd604084018261ffff169052565b506060810151612cf3606084018261ffff169052565b506080810151612d09608084018261ffff169052565b5060a0810151612d1f60a084018261ffff169052565b5060c0810151612d3560c084018261ffff169052565b5060e0810151612d4b60e084018261ffff169052565b506101008181015161ffff9081169184019190915261012080830151821690840152610140808301518216908401526101608083015191821681850152905b50505050565b8183823760009101908152919050565b7f416363657373436f6e74726f6c3a206163636f756e7420000000000000000000815260008351612dd8816017850160208801613008565b7001034b99036b4b9b9b4b733903937b6329607d1b6017918401918201528351612e09816028840160208801613008565b01602801949350505050565b6020815260006123026020830184612bef565b6020808252602b908201527f496e697469616c697a61626c653a20636f6e7472616374206973206e6f74206960408201526a6e697469616c697a696e6760a81b606082015260800190565b6020808252601f908201527f5265656e7472616e637947756172643a207265656e7472616e742063616c6c00604082015260600190565b60006101a0612eb98386612caa565b80610180840152612ca181840185612c1b565b61ffff83168152604060208201526000612ee96040830184612c1b565b949350505050565b61ffff831681526101a081016123026020830184612caa565b60006101c061ffff86168352612f236020840186612caa565b806101a0840152612f3681840185612c1b565b9695505050505050565b61ffff87168152856020820152608060408201526000612f64608083018688612bc6565b8281036060840152612f77818587612bc6565b9998505050505050505050565b60405160e0810167ffffffffffffffff81118282101715612fa757612fa76130b7565b60405290565b604051610180810167ffffffffffffffff81118282101715612fa757612fa76130b7565b60008219821115612fe457612fe46130a1565b500190565b6000816000190483118215151615613003576130036130a1565b500290565b60005b8381101561302357818101518382015260200161300b565b83811115612d8a5750506000910152565b600081613043576130436130a1565b506000190190565b600181811c9082168061305f57607f821691505b6020821081141561308057634e487b7160e01b600052602260045260246000fd5b50919050565b600060001982141561309a5761309a6130a1565b5060010190565b634e487b7160e01b600052601160045260246000fd5b634e487b7160e01b600052604160045260246000fdfeb19546dff01e856fb3f010c267a7b1c60363cf8a4664e21cc89c26224620214ea2646970667358221220f17b184f8a82c1fab244ad0197b9d054cf2d5d85579fcd0844df28a3c67dd62764736f6c63430008040033",
  "linkReferences": {},
  "deployedLinkReferences": {}
}